:020000040800F2
:1000000088670020D9010008913D0008B932000836
:10001000513D0008C9090008ED4700080000000034
:10002000000000000000000000000000A13E0008E9
:10003000530B000800000000CD3D0008A33E00085F
:10004000F3010008F3010008F3010008F3010008C0
:10005000F3010008F3010008F3010008F3010008B0
:10006000F3010008F3010008F3010008F3010008A0
:10007000F3010008F3010008F3010008F301000890
:10008000F3010008390A000855080008F3010008C8
:10009000F3010008F3010008F3010008F301000870
:1000A000F3010008F3010008F3010008F301000860
:1000B000F301000809400008F3010008F3010008FB
:1000C000F3010008F3010008F3010008F301000840
:1000D000F3010008F3010008F3010008F301000830
:1000E000F3010008F3010008F3010008F301000820
:1000F000F3010008F3010008F3010008F301000810
:10010000F3010008F301000819400008F30100089A
:10011000F3010008F3010008F3010008F3010008EF
:10012000F3010008F3010008F3010008F3010008DF
:10013000F30100080000000000000000F3010008C7
:10014000F3010008F3010008F3010008F3010008BF
:10015000F3010008F3010008F3010008F3010008AF
:10016000F3010008F3010008F3010008F30100089F
:10017000F3010008F3010008F3010008000000008B
:1001800000000000F3010008000000000000000073
:10019000F30100080000000000000000F301000867
:1001A000000000000000000000000000F301000853
:1001B000F3010008F3010008F3010008F30100084F
:1001C000F3010008DFF80CD000F004FB0048004702
:1001D000D55B00088867002006488047064800472E
:1001E000FEE7FEE7FEE7FEE7FEE7FEE7FEE7FEE7E7
:1001F000FEE7FEE7A53F0008C50100082DE9F05F16
:100200000546002092469B46884606468146402485
:100210001BE0284641464746224600F0CEF85346AA
:100220005A46C01A914110D311461846224600F092
:10023000B5F82D1A67EB01084F4622460120002130
:1002400000F0ACF817EB00094E41201EA4F10104A8
:10025000DFDC484631462A464346BDE8F09F40EA87
:1002600001039B0703D009E008C9121F08C0042A34
:10027000FAD203E011F8013B00F8013B521EF9D21B
:100280007047D2B201E000F8012B491EFBD2704743
:100290000022F6E710B513460A4604461946FFF752
:1002A000F0FF204610BD421E12F8013F002BFBD18B
:1002B00011F8013B02F8013B002BF9D17047421CB9
:1002C00010F8011B0029FBD1801A704710B50022DD
:1002D00000E0521C835C8C5CA34201D1002BF8D15E
:1002E000D8B2E1B2401A10BD00F0004230F0004038
:1002F0000AD0C10D01F56071C0F3160042EA015148
:10030000C2084007114370470020014670470000B3
:1003100030B5041E71F1000404DB4FF0004440428C
:1003200064EB0101141E73F1000405DB1C464FF061
:100330000043524263EB04038B4208BF824230BD4C
:1003400030B5041E71F1000404DB4FF0004440425C
:1003500064EB0101141E73F1000405DB1C464FF031
:100360000043524263EB0403994208BF904230BD00
:1003700030B50B46014600202022012409E021FA75
:1003800002F59D4205D303FA02F5491B04FA02F572
:100390002844151EA2F10102F1DC30BD202A04DB45
:1003A000203A00FA02F1002070479140C2F1200388
:1003B00020FA03F3194390407047202A04DB203AC7
:1003C00021FA02F00021704721FA02F3D040C2F175
:1003D0002002914008431946704710B5141E73F16E
:1003E000000408DA401C41F1000192185B411A43F5
:1003F00001D120F0010010BD2DE9F04D92469B4641
:1004000011B1B1FA81F202E0B0FA80F220329046E6
:10041000FFF7C4FF04460F4640EA0A0041EA0B0119
:1004200053465A46084313D0114653EA010019D0E7
:10043000C8F140025046FFF7C0FF05460E46504641
:1004400059464246FFF7AAFF084305D0012004E0C1
:1004500020463946BDE8F08D0020054346EAE076A7
:100460002C4337430A986305E40AA0EB08000022F6
:10047000FD0A44EA47540A3002D500200146E9E764
:10048000010510196941DDE9084500196941BDE818
:10049000F04DA2E72DE9FE4F804681EA0300C00F30
:1004A0000C46009021F0004123F00045B8EB02001B
:1004B000A94105D24046214690461C460B460246BD
:1004C00023F00040104347D0270DC7F30A00C3F3C1
:1004D0000A510290401A019040286BDAC3F31300CE
:1004E00040F4801B0098924620B10023D2EB030A0F
:1004F00063EB0B0B01985946C0F140025046FFF7E1
:100500004DFF06460D4650465946019A00F074F9D3
:1005100010EB08006141002487EA115284EAE77376
:100520001A4340D0009A62B3019A012A4FEA075257
:1005300015DC001B61EB02014FF0004202EA07529A
:10054000CDE90042001C41F5801132462B46FFF7F1
:1005500053FF03B0BDE8F08F40462146F9E7001B8A
:1005600061EB0201001C41F5801300185B4120186B
:10057000A2F5001747EB030140EAD570B6196D41AB
:1005800011E06D084FEA360645EAC0754FEA07529A
:10059000001B61EB0201001C41F5801149084FEA84
:1005A00030000019514132462B4603B0BDE8F04FF0
:1005B000FFF713BF0098012240000023D0EB020296
:1005C00063EBE073009821464FEAE074B8EB00005B
:1005D00061EB0401E9E783F000435BE781F0004150
:1005E00058E72DE9FE4F81EA030404F0004421F0AE
:1005F000004100944FF0000B23F0004350EA010447
:100600005ED052EA03045BD0C3F30A54C1F30A5527
:100610002C44A4F2F3340194A0FB0254C1F313015F
:1006200041F48011C3F3130343F4801301FB02442C
:1006300000FB034E840A970A44EA815447EA835731
:10064000A4FB076802958D0A05FB07854FEA932CEA
:1006500004FB0C542705029D4FEA065847EA16375B
:10066000B5EB08056EEB070C870E920E47EA811773
:1006700042EA8312A7FB0201B6EB0B0164EB000414
:100680002B0D43EA0C335E1844EB1C50DA465146FE
:10069000E7FB0201C5F313044FEA0B3343EA14539B
:1006A0004FEA0432019C43EA0603A4F10C040294CD
:1006B000009CCDE900B4FFF79FFE03B0BDE8F08FCA
:1006C00000200146F9E72DE9F04D81EA030404F02A
:1006D000004B21F0004514464FF0000A23F0004182
:1006E00050EA050220D054EA01021DD0C5F30A5792
:1006F0000246C5F31303C1F31300C1F30A5640F4D5
:10070000801543F48013A7EB0608101BD64608F2A9
:10071000FD3873EB050002D308F1010801E09218DF
:100720005B41B8F1000F03DA00200146BDE8F08D0F
:1007300000204FF48011064684460EE0171B73EB31
:10074000050705D3121B63EB050306434CEA010CB6
:1007500049084FEA300092185B4150EA0107EDD199
:1007600052EA030012D082EA040083EA050108433A
:1007700005D0101BAB4106D20122002306E0002267
:100780004FF0004302E06FF0010253101AEB060035
:100790004CEB085110EB0A0041EB0B01BDE8F04DAA
:1007A000FFF71BBEC1F30A52C1F3130140F2FF333E
:1007B00041F480119A4202DA00200146704740F26B
:1007C00033439A42A2F2334202DC5242FFF7F5BDB4
:1007D000FFF7E4BD064C074D06E0E06840F001037A
:1007E00094E8070098471034AC42F6D3FFF7EEFCCC
:1007F000707F0008907F0008202A06DBCB17203A84
:1008000041FA02F043EAE07306E041FA02F3D04015
:10081000C2F12002914008431946704710B50A48BA
:1008200004F06CFD04F092FC68B108A10648FFF7E3
:100830003AFD0548FFF743FD84B2224602490448C9
:10084000006802F0E9FC10BD5822002041434B0033
:100850001400002010B5034800F079FA024800F0B7
:1008600076FA10BD306100207861002054494A6852
:1008700022F440324A604A6843681A434A60026878
:10088000526822F4807203685A60026853680269F1
:1008900043EA022203685A600268526822F04072FA
:1008A00003685A600268526883681A4303685A6092
:1008B0000268926822F4006203689A600268926893
:1008C000C3681A4303689A603E4B826A9A4218D002
:1008D0000268926822F0706203689A600268926807
:1008E000836A1A4303689A600268926822F0405251
:1008F00003689A6002689268C36A1A4303689A6040
:100900000BE00268926822F0706203689A600268E5
:10091000926822F0405203689A600268926822F05E
:10092000020203689A6002689368826943EA42029D
:1009300003689A60026AA2B10268526842F40062D7
:1009400003685A600268526822F4604203685A6081
:1009500002685368426A521E43EA423203685A6090
:1009600005E00268526822F4006203685A60026877
:10097000D26A22F470020368DA620268D36A828B58
:10098000521E43EA02520368DA620268926822F455
:10099000007203689A6002689368026B43EA42221D
:1009A00003689A600268926822F4806203689A6021
:1009B00002689368426943EA822203689A6070473A
:1009C000002301400100000F00BFFEE710B5044600
:1009D00020680169884710BD70B504460D4616466B
:1009E0000E4800780A2801D1012070BD0B4801781B
:1009F0000078401C094A107001EB8100084901EBA6
:100A00008000206032462946206802F08FFE0548AB
:100A100060600548A0600020E7E700003400002087
:100A2000443E00202D0A0008CD09000810B50446F8
:100A30002068C168884710BD10B5024800F088FBE7
:100A400010BD0000246300200146087810381823E8
:100A5000B0FBF3F20848805CC865032A05D9086832
:100A60006FF30900001D886503E008686FF3090053
:100A70008865886D70470000187F000801460020D7
:100A80008A6A8B69CBB932B1012A0DD0022A03D010
:100A9000032A10D10EE000BFCB6A03F08073B3F1DC
:100AA000807F00D1012007E0CB6AB3F1C07F00D185
:100AB000012001E000E000BF34E08B69B3F5005F86
:100AC0001AD132B1012A07D0022A03D0032A11D148
:100AD0000AE000BF01200EE0CB6A03F08073B3F19F
:100AE000807F00D1012006E0CB6AB3F1C07F00D146
:100AF000012000E000BF15E032B1012A05D0022A32
:100B000004D0032A0CD103E000BF00BF012008E09D
:100B1000CB6A03F08073B3F1807F00D1012000E045
:100B200000BF00BF704730B50468246824F48024F7
:100B300005682C60046863608468402C04D10468F4
:100B4000A2600468E16003E00468A1600468E260F8
:100B500030BD70477047000038B502460020009055
:100B600000BF92F83C00012801D1022038BD0120CD
:100B700082F83C0000BF0868092816D91068C068D0
:100B80000C780A3C04EB44050724AC40A0431468ED
:100B9000E0600C780A3C04EB44048868A0401468C8
:100BA000E46820431468E06013E0106800690C7882
:100BB00004EB44050724AC40A043146820610C7882
:100BC00004EB44048868A040146824692043146836
:100BD00020614868072817D21068406B0C79641EA2
:100BE00004EB84051F24AC40A043146860630888AC
:100BF00080B20C79641E04EB8404A0401468646B1A
:100C000020431468606331E048680D2817D21068EB
:100C1000006B0C79E41F04EB84051F24AC40A04357
:100C200014682063088880B20C79E41F04EB840404
:100C3000A0401468246B20431468206316E01068F9
:100C4000C06A0C790D3C04EB84051F24AC40A04322
:100C50001468E062088880B20C790D3C04EB8404CF
:100C6000A0401468E46A20431468E0621A4B1B4CED
:100C70001068A04206D10868122803D1586840F4D1
:100C800080005860154C1068A0421ED1144C0868B2
:100C9000A04202D00868112817D1586840F400001B
:100CA00058600F4C0868A0420FD10E4800680E4CE7
:100CB000B0FBF4F000EB80004000009002E00098F0
:100CC000401E009000980028F9D100BF002082F853
:100CD0003C0000BF00BF49E7002301400020014065
:100CE00012000010B000002040420F0070B5044612
:100CF0000F4800F001FA0F480078C0B9204600F014
:100D000022F8064631460C4804F06BFBBCEEC00AE4
:100D100010EE105A2946094804F063FB0748406A60
:100D200028B9074801F051FF01200249087070BD41
:100D3000306100200C000020A8150020F8080020D9
:100D4000A8620020704701460868C06C704770B503
:100D500004460025002620680068C0F3400520688E
:100D60004068C0F3401695B38EB3206C00F01000BD
:100D700018B9206C40F4007020642068806800F08E
:100D80004050E8B9A069D8B92068C06A00F4700082
:100D900020B12068806800F4806088B920684068CD
:100DA00020F0200021684860206C20F480702064CE
:100DB000206C00F4805018B9206C40F001002064D1
:100DC0002046FFF793FF6FF012002168086020684B
:100DD0000068C0F3800520684068C0F3C016E5B322
:100DE000DEB3206C00F0100018B9206C40F4005005
:100DF00020642068806800F4401038BB2068806B55
:100E000000F4401020B12068806800F48060E8B9E8
:100E10002068406800F48060C0B92068806800F0F5
:100E2000405098B9A06988B92068406820F08000D7
:100E300021684860206C20F480502064206C00F40D
:100E4000807018B9206C40F0010020642046FFF744
:100E500081FE6FF00C00216808602068006800F0D7
:100E6000010520684068C0F3801685B17EB1206816
:100E7000006800F0010050B1206C40F48030206424
:100E8000204600F053F86FF00100216808602068E8
:100E90000068C0F3401520684068C0F380667DB1EB
:100EA00076B1606C40F0020060646FF02000216851
:100EB00008602046FFF746FF6FF0200021680860B9
:100EC00070BD000070B5044600250CB9012070BD4E
:100ED0001549A06A884200D000BF206C30B90020BC
:100EE000606484F83C00204600F022F8206C00F09A
:100EF000100088B9206C20F4885040F00200206473
:100F00002046FFF7B3FC00206064206C20F0020054
:100F100040F00100206400E0012500BF002084F8BB
:100F20003C0000BF2846D2E70100000F70470000D8
:100F300010B586B0044627492068884222D100BFF8
:100F4000002000902448006840F480702249086026
:100F50000846006800F48070009000BF00BF0220C7
:100F60000190032002900020039001A91B4800F08B
:100F7000E9FA00220121122000F0BBFF122000F04C
:100F8000ABFF25E016492068884221D100BF002030
:100F900000901148006840F400700F49086008464E
:100FA000006800F40070009000BF00BF02200190B4
:100FB000032002900020039001A90A4800F0C2FA21
:100FC00000220121122000F094FF122000F084FF83
:100FD00006B010BD00200140443802400004024029
:100FE000002101400000024008B5014600200090A9
:100FF00000BF91F83C00012801D1022008BD01206A
:1010000081F83C0000BF0868806800F00100A0B9CA
:101010000868806840F001000B68986031480068FB
:10102000314BB0FBF3F000EB4000009002E0009881
:10103000401E009000980028F9D10868806800F0F0
:10104000010000284BD0086C40F20163984340F443
:10105000807008640868406800F4806028B1086CFB
:1010600020F4005040F480500864086C00F4805074
:1010700020B1486C20F00600486401E0002048647C
:1010800000BF002081F83C0000BF184A6FF022002A
:101090000B68186008684068154B18430B68586067
:1010A000506800F01F0058B90868806800F0405090
:1010B000A8B90868806840F080400B6898600EE02E
:1010C0000C4B086898420AD10868806800F04050CC
:1010D00028B90868806840F080400B68986000205C
:1010E0008CE70000B000002040420F0000230140C8
:1010F0002000000400200140014600BF91F83C00A0
:10110000012801D102207047012081F83C0000BF76
:101110000868806820F001000A68906008688068AC
:1011200000F0010058B908684068084A10400A6891
:101130005060086C20F4885040F00100086400BF43
:10114000002081F83C0000BF00BFDCE7DFFFFFFBB1
:10115000F8B50446002000908C4800684FF4165102
:10116000B0FBF1F7A56D2E6894F85C10082088405C
:10117000304098B12068006800F0040070B1206829
:10118000006820F004002168086094F85C100820D2
:101190008840A860606D40F00100606594F85C10C4
:1011A00001208840304068B12068406900F080002C
:1011B00040B194F85C1001208840A860606D40F058
:1011C0000200606594F85C1004208840304068B1EB
:1011D0002068006800F0020040B194F85C10042020
:1011E0008840A860606D40F00400606594F85C1071
:1011F00010208840304078B32068006800F0080074
:1012000050B394F85C1010208840A86020680068F3
:1012100000F4802080B12068006800F4002028B924
:10122000206CC8B12046216C884715E0A06C98B1AD
:101230002046A16C88470FE02068006800F48070A9
:1012400028B92068006820F0080021680860206C38
:1012500010B12046216C884794F85C10202088400B
:101260003040002865D02068006800F01000002899
:101270005FD094F85C1020208840A86094F8350076
:10128000052828D12068006820F016002168086031
:101290002068406920F0800021684861206C08B90E
:1012A000A06C28B12068006820F008002168086060
:1012B00094F85C103F208840A86000BF002084F8AC
:1012C000340000BF012084F83500206D10B12046A5
:1012D000216D8847F8BD2068006800F4802080B147
:1012E0002068006800F4002028B9606C10B1204626
:1012F000616C88471DE0E06BD8B12046E16B884700
:1013000017E02068006800F4807068B92068006801
:1013100020F010002168086000BF002084F834002D
:1013200000BF012084F83500E06B10B12046E16B6E
:101330008847606D38B3606D00F00100F0B10520A2
:1013400084F835002068006820F0010021680860FA
:1013500000BF0098401C0090B84200D905E020680A
:10136000006800F001000028F3D100BF00BF00209A
:1013700084F8340000BF012084F83500E06C10B11F
:101380002046E16C884700BFA4E70000B0000020C1
:101390002DE9F0410446002500F0DAF9074614B9BA
:1013A0000120BDE8F081606A00B100BF00BF0020ED
:1013B00084F8340000BF022084F8350020680068FB
:1013C00020F00100216808600AE000F0C1F9C01BAC
:1013D000052805D920206065032084F83500E0E762
:1013E0002068006800F001000028EED12068056840
:1013F00021480540D4E901010843E1680843216917
:10140000084361690843A1690843E1690843216A07
:1014100008430543606A042803D1D4E90B0108435B
:101420000543206805602068456925F00705606A66
:101430000543606A04280DD1A06A0543E06A48B1FB
:101440002046FFF71BFB28B140206065012084F88F
:101450003500A6E7206845612046FFF7F5FA064605
:1014600094F85C103F208840B06000206065012047
:1014700084F83500002094E73F8010F02DE9F04714
:1014800004460D4616461F464FF00008D4F8589003
:1014900000BF94F83400012802D10220BDE8F08793
:1014A000012084F8340000BF94F8350001282BD1C6
:1014B000022084F83500002060653B46324629460C
:1014C0002046FFF730FB94F85C103F208840C9F8B5
:1014D00008002068006840F0160021680860206855
:1014E000406940F0800021684861206C28B1206884
:1014F000006840F00800216808602068006840F03B
:1015000001002168086006E000BF002084F8340074
:1015100000BF4FF002084046C0E7000070B5044627
:1015200000F016F906462546681C10B104480078FC
:10153000054400BF00F00CF9801BA842FAD370BD2F
:10154000AC000020F8B502460B4600250024002020
:101550000021D7E0012606FA01F51E6806EA050417
:10156000AC4273D15E68022E02D05E68122E13D197
:10157000CF0802F1200656F827004E07F70E0F2677
:10158000BE40B0434F07FF0E1E69BE403043CF0838
:1015900002F1200646F8270010684F000326BE40DF
:1015A000B0431E7906F003064F00BE403043106082
:1015B0005E68012E08D05E68022E05D05E68112E8E
:1015C00002D05E68122E13D190684F000326BE40F1
:1015D000B0434F00DE68BE40304390605068012643
:1015E0008E40B0431E79C6F300168E4030435060E3
:1015F000D0684F000326BE40B0434F009E68BE40F7
:101600003043D0605E6806F08056B6F1805F78D1D6
:1016100000BF002600963D4E366846F480463B4F9C
:101620003E603E46366806F48046009600BF00BF26
:10163000374E8F0856F827008E07370F0F26BE400B
:10164000B043344EB24202D100261FE059E0324E80
:10165000B24201D1012619E0304EB24201D1022638
:1016600014E02F4EB24201D103260FE02D4EB242BC
:1016700001D104260AE02C4EB24201D1052605E034
:101680002A4EB24201D1062600E007268F073F0FFF
:10169000BE4030431E4E8F0846F82700244E306867
:1016A000A0435E6806F48036B6F5803F00D1204343
:1016B0001F4E3060361D3068A0435E6806F4003669
:1016C000B6F5003F00D12043194E361D3060361D5F
:1016D0003068A0435E6806F48016B6F5801F00D11E
:1016E0002043134E08363060361D3068A0435E68D4
:1016F00006F40016B6F5001F00D120430C4E0C3640
:101700003060491C1029FFF425AFF8BD4438024071
:101710000838014000000240000402400008024076
:10172000000C024000100240001402400018024069
:10173000003C0140024613690B400BB1012000E060
:10174000002070470AB1816101E00B04836170479A
:101750000148006870470000A400002070B50446EE
:10176000002600250CB9012070BD94F83D0028B971
:10177000002084F83C00204600F0E2FA242084F89F
:101780003D002068006820F001002168086000F03A
:101790000FFD05463948B5FBF0F62068466038492C
:1017A0006068884201D8701C07E04FF4967070435F
:1017B0004FF47A71B0FBF1F0401C216808623049A7
:1017C000606888420ED860684000B5FBF0F0C0F356
:1017D0000B00042801D204202DE060684000B5FB16
:1017E000F0F028E0A06828B9606800EB4000B5FB85
:1017F000F0F008E0606800EBC00101EB0010B5FB01
:10180000F0F040F48040C0F30B0008B9012012E072
:10181000A06828B9606800EB4000B5FBF0F008E074
:10182000606800EBC00101EB0010B5FBF0F040F484
:10183000804040F400402168C861D4E907010843B2
:1018400021680860D4E90310084321688860D4E95E
:10185000050108432168C8602068006840F0010065
:101860002168086000202064202084F83D000020CA
:10187000206384F83E0000BF76E7000040420F007E
:10188000A08601002DE9F84304468946174698468C
:10189000089E0025FFF75CFF054694F83D002028D0
:1018A0007CD119230122BE492046009501F043FE58
:1018B00010B10220BDE8F88300BF94F83C00012875
:1018C00001D10220F6E7012084F83C0000BF206827
:1018D000006800F0010028B92068006840F00100AD
:1018E000216808602068006820F4006021680860B2
:1018F000222084F83D00102084F83E00002020645F
:101900006762A4F82A80A748E062608D20852B4694
:1019100032464946204601F0EBFC80B1206C042899
:1019200006D100BF002084F83C0000BF0120C1E7C1
:1019300000BF002084F83C0000BF0320BAE7208DE0
:1019400088B900BF0020009020684069009020689E
:101950008069009000BF00BF2068006840F40070FC
:101960002168086046E0208D012818D120680068B1
:1019700020F480602168086000BF0020009020688B
:101980004069009020688069009000BF00BF206817
:10199000006840F40070216808602BE0FEE0208DB4
:1019A000022816D12068006820F480602168086051
:1019B0002068006840F400602168086000BF0020D3
:1019C000009020684069009020688069009000BF06
:1019D00010E02068006840F480602168086000BF63
:1019E0000020009020684069009020688069009085
:1019F00000BF00BFC3E0208D032872D8208D0128CE
:101A00001AD12A463146204601F029FE30B1206C19
:101A1000202801D103204DE701204BE72068006911
:101A2000C1B2626A501C60621170208D401E208518
:101A3000608D401E6085A2E0208D02282AD13346A9
:101A4000002259492046009501F075FD08B1032098
:101A500030E72068006840F4007021680860206862
:101A60000069C1B2626A501C60621170208D401E14
:101A70002085608D401E608520680069C1B2626A61
:101A8000501C60621170208D401E2085608D401EAC
:101A9000608574E03346002243492046009501F0FA
:101AA0004AFD08B1032005E72068006820F4806043
:101AB0002168086020680069C1B2626A501C6062D7
:101AC0001170208D401E2085608D401E608533463C
:101AD000002235492046009501F02DFD10B103206C
:101AE000E8E620E02068006840F4007021680860A3
:101AF00020680069C1B2626A501C60621170208D5A
:101B0000401E2085608D401E608520680069C1B23E
:101B1000626A501C60621170208D401E2085608DAD
:101B2000401E60852BE02A463146204601F097FD95
:101B300030B1206C202801D10320BBE60120B9E69A
:101B400020680069C1B2626A501C60621170208D09
:101B5000401E2085608D401E608520684069C0F36E
:101B6000800060B120680069C1B2626A501C606286
:101B70001170208D401E2085608D401E6085208D57
:101B800000287FF438AF202084F83D00002084F83E
:101B90003E0000BF84F83C0000BF8BE6022089E6CF
:101BA000020010000000FFFF040001002DE9F843CF
:101BB0000446894616461F46DDF820800025FFF7BB
:101BC000C7FD054694F83D0020287DD11923012248
:101BD00059492046009501F0AEFC10B10220BDE845
:101BE000F88300BF94F83C00012801D10220F6E7F9
:101BF000012084F83C0000BF2068006800F001006C
:101C000028B92068006840F0010021680860206859
:101C1000006820F4006021680860212084F83D00FD
:101C2000102084F83E0000202064666267854348E7
:101C3000E062608D20852B4642464946204601F0F1
:101C4000EFFB80B1206C042806D100BF002084F88F
:101C50003C0000BF0120C2E700BF002084F83C0028
:101C600000BF0320BBE700BF002000902068406950
:101C7000009020688069009000BF00BF46E02A46BF
:101C80004146204601F022FD60B1206C042807D1B6
:101C90002068006840F400702168086001209EE719
:101CA00003209CE7616A481C60620878216808612B
:101CB000608D401E6085208D401E20852068406913
:101CC000C0F3800078B100E034E0208D58B1616A43
:101CD000481C6062087821680861608D401E60853C
:101CE000208D401E20852A464146204601F0F8FB03
:101CF00060B1206C042807D12068006840F40070AF
:101D00002168086001206AE7032068E7208D002829
:101D1000B5D12068006840F4007021680860202078
:101D200084F83D00002084F83E0000BF84F83C00A9
:101D300000BF54E7022052E7020010000000FFFF3E
:101D400010B586B004461249206888421ED14FF46F
:101D50004070019012200290012003900320049013
:101D60000420059001A90B48FFF7ECFB00BF002001
:101D700000900948006840F40010074908600846D0
:101D8000006800F40010009000BF00BF06B010BD56
:101D900000540040000402404038024003480068FC
:101DA000034909780844014908607047A4000020ED
:101DB000AC00002010B50D48006840F400700B49DD
:101DC00008600846006840F48060086008460068C3
:101DD00040F480700860032000F0CAF8002000F092
:101DE00007F800F02BF8002010BD0000003C024076
:101DF00070B504460E4800784FF47A71B1FBF0F0EC
:101E00000C490968B1FBF0F5284600F021FE08B145
:101E1000012070BD102C07D200222146501E00F078
:101E200068F80548046001E00120F2E70020F0E7CF
:101E3000AC000020B0000020A800002008B500BFC2
:101E4000002000902348006840F480402149086049
:101E50000846006800F48040009000BF00BF00BF4B
:101E600000200090081F006840F08050091F0860A3
:101E70000846006800F08050009000BF00BF0320BB
:101E800000F076F8002211466FF00B0000F031F8F8
:101E9000002211466FF00A0000F02BF800221146D4
:101EA0006FF0090000F025F800221146501F00F0E5
:101EB00020F800221146101F00F01BF800221146E6
:101EC000901E00F016F800221146501E00F011F886
:101ED00008BD00004438024000BF00F01F0201218D
:101EE00091404209920002F1E022C2F8001100BFC5
:101EF00070472DE9F05F80460D461646002701F039
:101F000049FF074639462A46334601F00700C0F12B
:101F1000070ABAF1040F02D94FF0040A01E0C0F138
:101F2000070AD14600F1040ABAF1070F02D24FF0B6
:101F3000000A01E0A0F1030AD4464FF0010A0AFAB0
:101F400009FAAAF1010A0AEA020A0AFA0CFA4FF09F
:101F5000010B0BFA0CFBABF1010B0BEA030B4AEA8A
:101F60000B042146404601F01DFFBDE8F09F000034
:101F700000BF00F00702064B19684FF6FF03194037
:101F8000044B0B4343EA0221014B196000BF704729
:101F90000CED00E00000FA0538B5002400BF002079
:101FA00000901D48006840F080501B4908600846BA
:101FB000006800F08050009000BF00BF012017496A
:101FC0000864FFF7C5FB044607E0FFF7C1FB001BF1
:101FD000B0F57A7F01D9032038BD1148406800F47C
:101FE0008030B0F5803FF0D101200C494864FFF704
:101FF000AFFB044607E0FFF7ABFB001BB0F57A7FB1
:1020000001D90320E8E70648406800F40030B0F545
:10201000003FF0D10020DFE74038024000000E42D0
:102020000070004070B504460D460CB9012070BD2B
:102030005848006800F00F00A84209D255490D70B9
:102040000846006800F00F00A84201D00120EEE72A
:10205000207800F0020002281DD1207800F0040052
:10206000042805D14C48006840F4E0504A49086013
:10207000207800F00800082805D14748006840F49F
:102080006040454908604448006820F0F000A168BD
:10209000084341490860207800F00100A8B3606857
:1020A000012807D13C4808380068C0F34040B8B95F
:1020B0000120BCE76068022802D06068032807D1CD
:1020C000354808380068C0F3406048B90120AEE7E1
:1020D000314808380068C0F3400008B90120A6E77D
:1020E0002D48006820F00300616808432A49086011
:1020F000FFF72EFB064609E0FFF72AFB801B41F2A3
:102100008831884202D9032091E707E0224800681D
:1021100000F00C006168B0EB810FEDD11D48006844
:1021200000F00F00A84209D91A490D70084600684E
:1021300000F00F00A84201D0012078E7207800F0DD
:102140000400042807D11448006820F4E050E16836
:10215000084311490860207800F00800082808D1D9
:102160000D48006820F46040216940EAC1000A4936
:10217000086000F03DF808490968C1F30311074AF7
:10218000515CC840064908600020FFF731FE00207E
:102190004DE70000003C024008380240207F000864
:1021A000B00000200148006870470000B000002027
:1021B00000B5FFF7F7FF04490968C1F38221034A1C
:1021C000515CC84000BD000008380240307F000864
:1021D00000B5FFF7E7FF04490968C1F34231034A3C
:1021E000515CC84000BD000008380240307F000844
:1021F0002DE9F047002400250026A146A2463F48CD
:10220000006800F00C0030B1042807D0082808D07E
:102210000C286BD138E0DFF8E8A06AE0DFF8E4A032
:1022200067E03648001F006800F03F043348001F95
:10223000006800F4800078B132483049091F09680D
:10224000C1F38811A0FB01700146224600233846E5
:10225000FDF7D4FF05460DE029482849091F096804
:10226000C1F38811A0FB0171224600233846FDF717
:10227000C5FF05462148001F0068C0F30140401C0F
:102280004600B5FBF6FA34E01C48001F006800F079
:102290003F041A48001F006800F4800078B1194814
:1022A0001649091F0968C1F38811A0FB0170014696
:1022B000224600233846FDF7A1FF05460EE01048F0
:1022C0000E49091F0968C1F38811A0FB017001467E
:1022D000224600233846FDF791FF05460748001FB8
:1022E0000068C0F30279B5FBF9FA02E0DFF810A04C
:1022F00000BF00BF5046BDE8F0870000083802402C
:102300000024F40040787D01F8B5044600252078CB
:1023100000F0010000286FD0FD48006800F00C00BC
:1023200004281BD0FA48006800F00C00082807D1E8
:10233000F748001F006800F48000B0F5800F0DD052
:10234000F348006800F00C000C2813D1F048001F7F
:10235000006800F48000B0F5800F0BD1EC4808381D
:102360000068C0F34040002859D06068002856D16A
:102370000120F8BD00BF6068B0F5803F08D1E44897
:102380000838006840F48030E149083908601EE0F0
:102390006068B0F5A02F0DD1DD480838006840F422
:1023A0008020DB49083908600846006840F4803026
:1023B00008600CE0D6480838006820F48030D44922
:1023C000083908600846006820F48020086000BFD3
:1023D000606890B1FFF7BCF9054606E0FFF7B8F971
:1023E000401B642801D90320C3E7C94808380068A6
:1023F000C0F340400028F1D011E0FFF7A9F90546ED
:1024000006E0FFF7A5F9401B642801D90320B0E7D7
:10241000BF4808380068C0F340400028F1D1207858
:1024200000F0020002286BD1B948006800F00C00EF
:10243000B8B1B748006800F00C00082805D1B448CE
:10244000001F006800F4800058B1B148006800F037
:102450000C000C281CD1AE48001F006800F480005E
:10246000B0B9AB4808380068C0F3400020B1E0685C
:10247000012801D001207CE7A5480838006820F039
:10248000F800216940EAC100A1490839086037E035
:10249000E06800B301209F490860FFF759F905463D
:1024A00006E0FFF755F9401B022801D9032060E739
:1024B000974808380068C0F340000028F1D09448DD
:1024C0000838006820F0F800216940EAC10090490E
:1024D0000839086014E000208E490860FFF738F9D9
:1024E000054606E0FFF734F9401B022801D9032016
:1024F0003FE7874808380068C0F340000028F1D162
:10250000207800F0080008282CD16069A8B10120CB
:1025100081490860FFF71CF9054606E0FFF718F946
:10252000401B022801D9032023E779486C3000685A
:10253000C0F340000028F1D014E000207649086084
:10254000FFF706F9054606E0FFF702F9401B0228EF
:1025500001D903200DE76E486C300068C0F34000DD
:102560000028F1D1207800F00400042870D1002662
:1025700067483830006800F0805090B900BF0020F4
:10258000009063483830006840F08050604938312E
:1025900008600846006800F08050009000BF00BF4F
:1025A00001265E48006800F48070B0B95B4800689E
:1025B00040F4807059490860FFF7CAF8054606E004
:1025C000FFF7C6F8401B022801D90320D1E6534883
:1025D000006800F480700028F2D000BFA0680128D5
:1025E00008D14B486830006840F001004849683124
:1025F00008601DE0A06805280DD1454868300068D6
:1026000040F004004249683108600846006840F024
:10261000010008600CE03E486830006820F00100CE
:102620003B49683108600846006820F004000860F3
:1026300000BFA068A8B1FFF78BF8054609E0FFF7D7
:1026400087F8401B41F28831884202D9032090E686
:1026500026E02F4868300068C0F340000028EED024
:1026600013E0FFF775F8054608E0FFF771F8401B27
:1026700041F28831884201D903207AE62448683043
:102680000068C0F340000028EFD1012E07D1204898
:102690003830006820F080501D493831086000BF94
:1026A000A069E8B31A48006800F00C00082862D05E
:1026B000A06902284AD1002016490866FFF748F8A9
:1026C000054606E0FFF744F8401B022801D9032025
:1026D0004FE60F4808380068C0F340600028F1D189
:1026E000D4E907010843616A40EA81110122A06A26
:1026F000C2EB500041EA00412C20005D41EA00613C
:102700003020005D41EA00700149091F086008E0BF
:102710000838024000004742800E474200700040E7
:102720002BE0012016490866FFF712F8054606E07F
:10273000FFF70EF8401B022801D9032019E61148C3
:102740000068C0F340600028F2D016E000200C4979
:102750000866FEF7FDFF054606E0FEF7F9FF401BA1
:10276000022801D9032004E606480068C0F340604F
:102770000028F2D101E00120FBE50020F9E500008E
:10278000000047420038024010B504460CB9012051
:1027900010BD606A00B900BF0021A16294F8510029
:1027A00028B9002084F85000204600F033F80220B9
:1027B00084F851002068006820F04000216808601B
:1027C000D4E901010843E1680843216908436169CC
:1027D0000843218B01F400710843E1690843216A31
:1027E0000843A16A0843216808600421A06901EA3E
:1027F0001040616A0843216848602068C06920F47D
:1028000000602168C86100206065012084F85100E3
:102810000020BDE710B586B0044612492068884202
:102820001DD100BF002000900F48006840F4805088
:102830000D4908600846006800F48050009000BF11
:1028400000BFA020019002200290002003900320EE
:1028500004900520059001A90448FEF773FE06B018
:1028600010BD00000030014044380240000002402A
:102870002DE9F84304460D4617461E464FF0000862
:10288000C14600BF94F85000012802D10220BDE8E3
:10289000F883012084F8500000BFFEF759FF8046FE
:1028A00094F85100012802D04FF00209A9E005B1C7
:1028B00017B94FF00109A4E0032084F8510000206B
:1028C00060652563A786E786A063A087E0876064CC
:1028D0002064A068B0F5004F05D12068006840F47E
:1028E0008040216808602068006800F040004028AF
:1028F00005D02068006840F0400021680860E0686A
:10290000B0F5006F2AD1606810B1E08E012806D1C1
:1029100028882168C860AD1CE08E401EE08619E062
:102920002068806800F00200022807D1288821680A
:10293000C860AD1CE08E401EE0860BE03EB1701C0E
:1029400040B1FEF705FFA0EB0800B04202D34FF004
:10295000030956E0E08E0028E2D129E0606810B15A
:10296000E08E012806D12878216808736D1CE08E5E
:10297000401EE08619E02068806800F0020002280E
:1029800007D12878216808736D1CE08E401EE08610
:102990000BE03EB1701C40B1FEF7DAFEA0EB080080
:1029A000B04202D34FF003092BE0E08E0028E2D1C1
:1029B0003346012202212046CDF8008001F01BFAA7
:1029C00010B14FF003091CE042463146204601F0A9
:1029D000FEF920B14FF001092020606511E0A068E8
:1029E00050B900BF002000902068C06800902068A7
:1029F0008068009000BF00BF606D08B14FF0010912
:102A000000BF012084F8510000BF002084F850006E
:102A100000BF48463BE7042808D14FF0E021096990
:102A200041F004014FF0E022116107E04FF0E02196
:102A3000096921F004014FF0E022116170470000A4
:102A400002480068401C0149086070479800002057
:102A500070B504462546681EB0F1807F01D3012081
:102A60000FE0681E4FF0E02148610F214FF0FF306A
:102A700001F098F900204FF0E021886107200861FB
:102A8000002070BD10B5FFF7DBFF10BD7047704729
:102A9000024600BF92F83800012801D10220704799
:102AA000012082F8380000BF022082F83900106847
:102AB000406820F0700013685860106840680B6828
:102AC0001843136858601068806820F0800013680D
:102AD0009860106880684B681843136898600120FC
:102AE00082F8390000BF002082F8380000BF00BF24
:102AF000D5E710B504460CB9012010BD94F8390093
:102B000028B9002084F83800204600F00DF8022093
:102B100084F83900211D206801F086FA012084F82C
:102B200039000020E9E7000038B504461C49206858
:102B3000884218D100BF002000901A48006840F079
:102B40000200184908600846006800F00200009082
:102B500000BF00BF002201211D20FFF7CAF91D2080
:102B6000FFF7BAF91BE010492068884217D100BF6F
:102B7000002000900B48006840F0080009490860F8
:102B80000846006800F00800009000BF00BF002267
:102B900001213220FFF7ADF93220FFF79DF938BD52
:102BA0000004004040380240000C00400146086824
:102BB000C06840F001000A68D0600868006840F012
:102BC00001000A6810600020704701460868C0686C
:102BD00020F001000A68D06000BF0868006A41F276
:102BE0001112104050B90868006A9210104028B9BC
:102BF0000868006820F001000A68106000BF00202B
:102C000070472DE9F04104460D46002600BF94F8B8
:102C10003800012802D10220BDE8F081012084F8AB
:102C2000380000BF022084F839002068866826F04A
:102C3000770626F47F4620688660286850283BD0B7
:102C40000CDC202860D004DC002853D0102865D18B
:102C500055E030285DD0402860D141E0602835D073
:102C600070280DD0B0F5805F03D0B0F5005F55D16E
:102C700015E02068806820F00700216888604EE039
:102C8000D5E902136A68206801F040FA2068866876
:102C900026F0770646F07706206886603FE0D5E9A3
:102CA00002136A68206801F031FA2068806840F4F5
:102CB00080402168886032E0EA686968206801F035
:102CC0001BFB5021206801F02DFA28E0EA686968B2
:102CD000206801F026FB6021206801F023FA1EE045
:102CE000EA686968206801F007FB4021206801F06C
:102CF00019FA14E00021206801F014FA0FE0102105
:102D0000206801F00FFA0AE02021206801F00AFA99
:102D100005E03021206801F005FA00E000BF00BFA7
:102D2000012084F8390000BF002084F8380000BF7B
:102D300000BF71E7704710B5044620680069C0F312
:102D40004000D8B12068C068C0F34000B0B16FF057
:102D5000020021680861012020762068806900F067
:102D6000030018B12046FFF7E5FF05E0204600F01C
:102D700017F9204600F030F900202076206800691D
:102D8000C0F38000D8B12068C068C0F38000B0B143
:102D90006FF00400216808610220207620688069B5
:102DA00000F4407018B12046FFF7C4FF05E020464C
:102DB00000F0F6F8204600F00FF900202076206899
:102DC0000069C0F3C000D8B12068C068C0F3C0007B
:102DD000B0B16FF0080021680861042020762068F7
:102DE000C06900F0030018B12046FFF7A3FF05E01B
:102DF000204600F0D5F8204600F0EEF800202076BE
:102E000020680069C0F30010D8B12068C068C0F322
:102E10000010B0B16FF01000216808610820207622
:102E20002068C06900F4407018B12046FFF782FFA7
:102E300005E0204600F0B4F8204600F0CDF8002070
:102E400020762068006900F0010058B12068C06851
:102E500000F0010030B16FF00100216808612046E8
:102E600000F0BCF820680069C0F3C01058B12068B9
:102E7000C068C0F3C01030B16FF0800021680861F5
:102E80002046FFF703FE20680069C0F3801058B1A8
:102E90002068C068C0F3801030B16FF04000216836
:102EA0000861204600F0B0F820680069C0F34010C7
:102EB00058B12068C068C0F3401030B16FF02000F6
:102EC000216808612046FFF7E2FD10BD10B586B00D
:102ED00004461249206888420DD11020019002203A
:102EE00002900020039004900220059001A90C4854
:102EF000FEF728FB10E00B49206888420CD1012026
:102F0000019002200290002003900490022005907E
:102F100001A90548FEF716FB06B010BD00040040ED
:102F200000040240000C00400000024070B504465E
:102F30000E46154600BF94F83800012801D1022042
:102F400070BD012084F8380000BF022084F83900E9
:102F500035B1042D09D0082D0CD00C2D14D10EE064
:102F60003146206801F0E8F80FE03146206801F0B2
:102F70001BF90AE03146206801F052F905E03146BC
:102F8000206801F089F900E000BF00BF012084F84B
:102F9000390000BF002084F8380000BF00BFCFE731
:102FA000704710B504460CB9012010BD94F83900E3
:102FB00028B9002084F83800204600F00CF80220E0
:102FC00084F83900211D206801F02EF8012084F8D2
:102FD00039000020E9E770477047000010B504464B
:102FE000074920680968884202D102F097FC06E090
:102FF000044920680968884201D102F07FFC10BDB5
:10300000A86200206C6200207047704710B504462B
:103010000CB9012010BDA06900B100E000BF94F818
:10302000390028B9002084F83800204600F028F83C
:10303000242084F839002068C06820F400502168FA
:10304000C860204601F0E8F92068006920F490404B
:10305000216808612068406920F02A0021684861E1
:103060002068C06840F400502168C8600020E06318
:10307000202084F8390084F83A000020CAE70000D4
:1030800010B586B0044623492068884240D100BF6D
:10309000002000902048006840F400301E4908607D
:1030A0000846006800F40030009000BF00BF0C200C
:1030B0000190022002900120039003200490072039
:1030C000059001A91548FEF73DFA15481549086015
:1030D0004FF0006048604021124881600021C160CB
:1030E0004FF480610161002141618161C1614FF450
:1030F0008031016200214162FEF74AF918B16E2168
:1031000009A001F075FB00BF06482063846300BF7F
:1031100006B010BD004400404038024000000240AC
:10312000A0600240246300202E2E2F5372632F755F
:10313000736172742E6300002DE9F84304460D4656
:1031400016461F464FF0000994F83A00202860D137
:1031500005B116B90120BDE8F88300BF94F8380026
:10316000012801D10220F6E7012084F8380000BFD1
:103170000020E063222084F83A00FEF7E9FA814655
:10318000A685E68539E0E08D401EE085A068B0F5B3
:10319000805F1BD14B46002220212046009701F082
:1031A000EFFA08B10320D6E7A846206938B92068AD
:1031B0004068C0F30800A8F80000AD1C1DE02068BE
:1031C0004068C0B2A8F800006D1C16E04B46002213
:1031D00020212046009701F0D3FA08B10320BAE776
:1031E000206920B92068406805F8010B05E02068D7
:1031F000406800F07F0005F8010BE08D0028C2D187
:10320000202084F83A0000BF002084F8380000BF76
:10321000A1E702209FE70000F7B50446154694F8A1
:10322000390020283DD1019800B10DB90120FEBD23
:1032300000BF94F83800012801D10220F7E70120EF
:1032400084F8380000BF01982062A584E58400203E
:10325000E063212084F839001348216BC8631348C8
:10326000216B08641248216BC8640020216B08653B
:1032700001AE23681A1D31682B46206BFEF7FEF85D
:103280006FF040002168086000BF002084F838001B
:1032900000BF2068406940F080002168486100203C
:1032A000C5E70220C3E700009F430008D54300089C
:1032B0004F4300087047704700BFFEE701460868AB
:1032C0004069C0F3802088B16FF480600A68506163
:1032D0000420086400200863202081F83D0000BF1E
:1032E000002081F83C0000BF012070470020FCE76F
:1032F0002DE9F84304460D4690461E46E76A2068CD
:10330000006840F4806021680860042F04D0012F19
:1033100002D017F5803F06D12068006840F4807025
:103320002168086008E0206B112805D1206800683A
:1033300040F4807021680860434600224FF001117C
:103340002046009600F0F7F810B10320BDE8F8839E
:103350002069B0F5804F05D1E8B240F00100216846
:10336000086149E005F44070F02141EAE01021686D
:103370000861334642462949204600F01AF930B127
:10338000206C042801D10120E0E70320DEE7E8B249
:1033900021680861334642462049891F204600F0D3
:1033A00008F930B1206C042801D10120CEE70320B8
:1033B000CCE700BF002000902068406900902068A2
:1033C0008069009000BF00BF2068006840F48070F2
:1033D00021680860434600224FF001112046009604
:1033E00000F0A9F808B10320B0E705F44070F1211E
:1033F00041EAE01021680861334642460749891FC7
:10340000204600F0D6F830B1206C042801D101200C
:103410009CE703209AE7002098E7000008000100DD
:103420002DE9F84304460D4617469846E66A042EF1
:1034300004D0012E02D016F5803F06D12068006826
:1034400040F480702168086008E0206B122805D1E4
:103450002068006840F48070216808603B460022C4
:103460004FF001112046CDF8008000F064F810B153
:103470000320BDE8F8832069B0F5804F04D105F042
:10348000FE002168086117E005F44070F02141EA70
:10349000E0102168086143463A461049204600F092
:1034A00088F830B1206C042801D10120E1E7032025
:1034B000DFE7E8B22168086143463A460749891FB9
:1034C000204600F076F830B1206C042801D10120AC
:1034D000CFE70320CDE70020CBE700000800010084
:1034E00070B504460D4616461DE02046FFF7E6FE81
:1034F00008B1012070BD681CA8B125B1FEF728F9FC
:10350000801BA8420FD9206C40F0200020640020CE
:103510002063202084F83D0000BF002084F83C0098
:1035200000BF0320E6E720684069C0F38000002860
:10353000DBD00020DEE72DE9F04104460D461746BA
:103540001E46DDF8188017E0701CA8B12EB1FEF7FA
:10355000FFF8A0EB0800B0420ED900202063202025
:1035600084F83D00002084F83E0000BF84F83C0051
:1035700000BF0320BDE8F081C5F3074001280AD150
:1035800020684069A9B20840A9B2884201D101204F
:103590000BE0002009E020688069A9B20840A9B2C8
:1035A000884201D1012000E00020B842CCD00020A8
:1035B000E0E72DE9F04104460D4616461F4631E08E
:1035C00020684069C0F38020C0B12068006840F4E2
:1035D0000070216808606FF48060216848610420F1
:1035E000206400202063202084F83D0000BF0020DC
:1035F00084F83C0000BF0120BDE8F081701C88B158
:1036000026B1FEF7A5F8C01BB0420BD900202063FD
:10361000202084F83D0000BF002084F83C0000BF5B
:103620000320E9E7C5F3074001280AD12068406973
:10363000A9B20840A9B2884201D101200BE00020C4
:1036400009E020688069A9B20840A9B2884201D186
:10365000012000E000200028B2D00020CCE770B5A7
:1036600004460D46164629E020684069C0F3001064
:1036700080B16FF010002168486100202064206351
:10368000202084F83D0000BF002084F83C0000BFEB
:10369000012070BD25B1FEF75BF8801BA8420DD953
:1036A000206C40F020002064202084F83D0000BF02
:1036B000002084F83C0000BF0320EAE7206840694E
:1036C000C0F380100028CFD00020E2E770B5044698
:1036D0000D4616461DE02046FFF7F0FD08B101201B
:1036E00070BD681CA8B125B1FEF732F8801BA84256
:1036F0000FD9206C40F0200020640020206320209F
:1037000084F83D0000BF002084F83C0000BF032087
:10371000E6E720684069C0F3C0100028DBD0002035
:10372000DEE70146C8780122CA70704703460020D0
:10373000188098700120D87059601A810248D860AA
:1037400002481861002070475137000823370008ED
:1037500070B50446002521896068FDF7EBFF05463A
:1037600020884FF6FF7101EA40002080208828431E
:103770002080A078012805D1208860B90020E07061
:10378000A07008E020884FF6FF71884203D1022024
:10379000E0700120A07070BD10B5044620688168FB
:1037A0008847022801D1012010BD606881688847E0
:1037B000022800D1F8E7A06881688847022801D173
:1037C0000320F1E7E06881688847022801D10420DE
:1037D000EAE7206981688847022801D10520E3E7EC
:1037E0000020E1E710B50446102214491448FDF703
:1037F000F3F813482060012212491348FDF7ECF852
:1038000011486060022211491148FDF7E5F810489F
:10381000A06001220D490F48FDF7DEF80D48E06079
:10382000202208490C48FDF7D7F80B4820610B48C7
:10383000A0610B486061002010BD00000000024044
:10384000083E002000040240143E00200008024010
:10385000203E00202C3E0020383E002099370008F2
:103860006538000810B504462068416888476068DC
:1038700041688847A06841688847E0684168884790
:1038800020694168884710BD1FB51748174908606F
:103890004FF48030486000211448816001618161EB
:1038A0000162C162124981620021C1600121C161CE
:1038B0000021016301214161FDF704FB18B1492199
:1038C0000CA000F095FF092000900120019000203D
:1038D000029069460548FDF73FF918B1532105A04C
:1038E00000F086FF1FBD0000002001403061002075
:1038F0000100000F2E2E2F5372632F6164632E631D
:10390000000000001FB51748174908604FF48030C9
:10391000486000211448816001610121816100211A
:103920000162C162114981620021C1600121C1614E
:10393000002101634161FDF7C5FA18B16C210CA0AB
:1039400000F056FF0120009001900020029069468F
:103950000548FDF701F918B1762105A000F048FFF0
:103960001FBD000000210140786100200100000F10
:103970002E2E2F5372632F6164632E6300000000AC
:1039800008B500BF002000900A48006840F400100D
:10399000084908600846006800F40010009000BF65
:1039A00000BF002211461120FEF7A3FA1120FEF7F6
:1039B00093FA08BD3038024000B587B000BF002040
:1039C00001904B48006840F0800049490860084673
:1039D000006800F08000019000BF00BF00BF002021
:1039E00001900846006840F004000860084600683E
:1039F00000F00400019000BF00BF00BF0020019054
:103A00000846006840F0010008600846006800F0C1
:103A10000100019000BF00BF00BF002001900846D8
:103A2000006840F0020008600846006800F00200EC
:103A3000019000BF00BF00224FF450712D48FDF7E8
:103A400081FE002280212C48FDF77CFE00224021CF
:103A50002A48FDF777FE032002900020039004908F
:103A600002A92548FDF76EFD10200290002003906A
:103A7000049002A91F48FDF765FD4FF4A070029065
:103A80000120039000200490059002A91948FDF739
:103A900059FD4CF22100029000200390049002A9ED
:103AA0001648FDF74FFD8020029001200390002072
:103AB0000490059002A91048FDF744FD4FF40070F2
:103AC000029001200390002004900220059002A99A
:103AD0000848FDF737FD40200290012003900020A8
:103AE0000490059002A90548FDF72CFD07B000BD24
:103AF000303802400000024000080240000402404A
:103B000010B50C480C4908600C48486000210A4870
:103B10008160C1604FF48041016100214161816198
:103B2000C1610162FDF71AFE18B1422104A000F044
:103B30005FFE10BD00540040C0610020A08601005F
:103B40002E2E2F5372632F6932632E630000000004
:103B500010B50F480F4908604FF48270486000218B
:103B60000C488160C160016141614FF40071816165
:103B70002021C16100210162416281620A21C1628A
:103B8000FEF702FE18B1452103A000F031FE10BD82
:103B900000300140146200202E2E2F5372632F73C9
:103BA00070692E630000000000B58DB024482549DF
:103BB000086042F22730486000212248816063217A
:103BC000C16000210161FEF794FF18B140211EA0E1
:103BD00000F00EFE4FF48050099009A91948FFF734
:103BE00010F818B1462118A000F002FE1548FFF7A2
:103BF000D8F918B14B2114A000F0FAFD002007906D
:103C0000089007A90F48FEF743FF18B152210EA0F4
:103C100000F0EEFD002000900190022002900020B4
:103C20000490002269460748FFF780F918B15B212C
:103C300005A000F0DDFD0348FFF748F90DB000BD19
:103C4000000400406C6200202E2E2F5372632F74EC
:103C5000696D2E630000000000B58DB02348244933
:103C6000086041F29310486000212148816064217E
:103C7000C16000210161FEF73CFF18B16F211DA05A
:103C800000F0B6FD4FF48050099009A91848FEF7DE
:103C9000B8FF18B1752117A000F0AAFD1448FFF76E
:103CA00080F918B17A2113A000F0A2FD002007903E
:103CB000089007A90E48FEF7EBFE18B181210DA070
:103CC00000F096FD002000900190029004900022E8
:103CD00069460748FFF72AF918B18A2105A000F0C4
:103CE00087FD0348FFF7F2F80DB000BD000C00405F
:103CF000A86200202E2E2F5372632F74696D2E63DD
:103D00000000000010B50C480C4908604FF4E13089
:103D10004860002109488160C16001610C21416156
:103D200000218161C161FFF771F918B1442104A03C
:103D300000F05EFD10BD000000440040E462002081
:103D40002E2E2F5372632F75736172742E630000D1
:103D500000BFFEE770B504460A4801F0CFFA01F053
:103D6000F5F970B1224608A1064800F043FD054868
:103D7000FCF7A5FA85B22A46024904480068FFF715
:103D80004BFA70BD5822002025640000140000206A
:103D90007047000002480068C0F30220704700002E
:103DA0000CED00E010B5002807DA0A07140E054AEA
:103DB00000F00F031B1FD45403E00A07130E024A3E
:103DC000135410BD18ED00E000E400E07047F8B5B2
:103DD00004460D4616462B460022802120460096BA
:103DE00000F009F828B1606D40F020006065032004
:103DF000F8BD0020FCE72DE9F04104460E461746C9
:103E00001D46DDF818803FE0681CE0B32DB1FDF7DA
:103E10009FFCA0EB0800A84236D32068406820F041
:103E2000E000216848606068B0F5827F0DD1A0682D
:103E3000B0F5004F03D0A068B0F5806F05D12068C1
:103E4000006820F0400021680860A06AB0F5005FBB
:103E50000ED100BF206800684DF6FF710840216850
:103E600008602068006840F400502168086000BFC6
:103E7000012084F8510000BF002084F8500000BFEA
:103E80000320BDE8F081FFE7206880683040B04241
:103E900001D1012000E00020B842B5D10020F0E7B8
:103EA000704710B5FDF77AFFFEF7ECFD10BD00007E
:103EB00010B594B000BF002001903448006840F075
:103EC0008050324908600846006800F08050019038
:103ED00000BF00BF00BF002001902D48006840F4E3
:103EE00040402B4908600846006800F440400190BB
:103EF00000BF00BF0220079001200A9010200B9005
:103F000002200D9000210E9108210F91B4211091F3
:103F1000022111911291139107A8FEF7F5F918B13A
:103F2000FA211CA000F064FCFEF736F820B140F244
:103F3000011118A000F05CFC0F20029002200390F9
:103F4000002004904FF4A05005904FF4805006904C
:103F5000052102A8FEF766F820B140F20F110DA06E
:103F600000F046FCFEF71EF94FF47A71B0FBF1F455
:103F70002046FEF76DFD0420FEF74DFD00221146A0
:103F8000501EFDF7B6FF14B010BD000040380240CF
:103F9000007000402E2E2F5372632F6D61696E2EBC
:103FA000630000001448006840F470001249086083
:103FB0001248006840F001001049086000200F49D5
:103FC000083108600D4800680D4908400B49086039
:103FD0000C48091D0860081F006820F48020091F94
:103FE0000860002005490C3108604FF0006002496C
:103FF000803908607047000088ED00E0003802401A
:10400000FFFFF6FE1030002410B50248FEF793FEC5
:1040100010BD00006C62002010B50248FEF78BFE58
:1040200010BD0000A8620020002202682C4B9842BC
:104030000ED0B0F1804F0BD02A4B984208D02A4BBB
:10404000984205D0294B984202D0294B984201D181
:10405000012300E000231BB122F070024B681A43D9
:104060001F4B984220D0B0F1804F1DD01D4B98427D
:104070001AD01D4B984217D01C4B984214D01C4BA1
:10408000984211D01B4B98420ED01B4B98420BD03C
:104090001A4B984208D01A4B984205D0194B9842B7
:1040A00002D0194B984201D1012300E000231BB13B
:1040B00022F44072CB681A4302608B68C3620B68BB
:1040C0008362074B984202D0094B984201D10123E9
:1040D00000E000230BB10B690363012343617047C8
:1040E000000001400004004000080040000C0040B7
:1040F00000040140004001400044014000480140EC
:1041000000180040001C00400020004030B50C4664
:104110000021816821F47F4142EA03252543294398
:10412000816030BD0A460021816821F0700142F0B3
:10413000070319438160704730B500240022002333
:10414000056A25F001050562026A4368846924F066
:10415000700424F003040D682C4322F002028D68E1
:104160002A430F4DA84202D00E4DA84201D101258D
:1041700000E000256DB122F00802CD682A4322F04C
:10418000040223F4807323F400734D692B438D697B
:104190002B43436084614D684563026230BD00007B
:1041A000000001400004014030B50024002200233B
:1041B000056A25F010050562026A4368846924F4E3
:1041C000E04424F440740D6844EA052422F02002FF
:1041D0008D6842EA0512104DA84202D00F4DA84248
:1041E00001D1012500E0002585B122F08002CD68D3
:1041F00042EA051222F0400223F4806323F40063B4
:104200004D6943EA85038D6943EA85034360846110
:104210004D688563026230BD00000140000401402A
:1042200030B5002400220023056A25F4807505625C
:10423000026A4368C46924F0700424F003040D6822
:104240002C4322F400728D6842EA0522104DA842E8
:1042500002D0104DA84201D1012500E0002585B112
:1042600022F40062CD6842EA052222F4806223F43F
:10427000805323F400534D6943EA05138D6943EAE3
:1042800005134360C4614D68C563026230BD000020
:10429000000001400004014030B50022002300244A
:1042A000056A25F480550562036A4468C26922F4F0
:1042B000E04222F440720D6842EA052223F40053E2
:1042C0008D6843EA05330A4DA84202D0094DA84241
:1042D00001D1012500E0002525B124F480444D6979
:1042E00044EA85144460C2614D680564036230BDD0
:1042F000000001400004014030B50B461446002187
:104300000022026A056A25F001050562816921F033
:10431000F00141EA041122F00A021A4381610262AB
:1043200030BD30B50B46144600210022056A25F049
:10433000100505628169026A21F4704141EA043185
:1043400022F0A00242EA03128161026230BD70B520
:1043500006460025B46B20684069C0F3C01594F888
:104360003900212805D125B10020E084204600F045
:1043700048F820684069C0F3801594F83A00222874
:1043800005D125B10020E085204600F02AF8E06B39
:1043900040F01000E0632046FEF737FE70BD70B5B8
:1043A0000546AC6B2868006800F4807070B9002086
:1043B000E0842068406920F080002168486120681E
:1043C000C06840F040002168C86002E02046FEF767
:1043D00071FF70BD70B50446A56B2846FEF76BFFF4
:1043E00070BD0168C96821F490710268D1600168EC
:1043F000496921F0010102685161202180F83A10D9
:1044000070470168C96821F0C0010268D1602021AD
:1044100080F83910704700002DE9F041044600256E
:104420002068056925F44055E0680543206805616A
:104430002068C56849F20C6085432169A06808437B
:1044400061690843E169084305432068C560206845
:10445000456925F44075A069054320684561E06918
:10446000B0F5004F7ED1C4492068884203D0C349CB
:10447000206888425DD1FDF7ABFE00EBC00101EB87
:10448000001061684900B0FBF1F06421B0FBF1F06D
:104490000601FDF79DFE00EBC00101EB0010616815
:1044A0004900B0FBF1F7FDF793FE00EBC00101EB13
:1044B000001061684900B0FBF1F06421B0FBF1F03D
:1044C00000EBC00101EB0010A7EB8000322101EBF3
:1044D000C0006421B0FBF1F000F0F80006EB4006EC
:1044E000FDF776FE00EBC00101EB001061684900AA
:1044F000B0FBF1F7FDF76CFE00EBC00101EB001023
:1045000061684900B0FBF1F06421B0FBF1F000EB11
:10451000C00101EB0010A7EB8000322101EBC000CD
:104520006421B0FBF1F000F007003044216888609E
:1045300020E1FDF73DFE00EBC00101EB00106168DA
:104540004900B0FBF1F06421B0FBF1F00601FDF78A
:104550002FFE00EBC00101EB001061684900B0FBC9
:10456000F1F700E045E0FDF723FE00EBC00101EBB1
:10457000001061684900B0FBF1F06421B0FBF1F07C
:1045800000EBC00101EB0010A7EB8000322101EB32
:10459000C0006421B0FBF1F000F0F80006EB40062B
:1045A000FDF706FE00EBC00101EB00106168490059
:1045B000B0FBF1F7FDF7FCFD00EBC00101EB0010D3
:1045C00061684900B0FBF1F06421B0FBF1F000EB51
:1045D000C00101EB0010A7EB8000322101EBC0000D
:1045E0006421B0FBF1F000F00700304421688860DE
:1045F000C0E061492068884203D060492068884251
:104600005CD1FDF7E5FD00EBC00101EB0010616836
:104610008900B0FBF1F6FDF7DBFD00EBC00101EB1B
:10462000001061688900B0FBF1F06421B0FBF1F08B
:1046300000EBC00101EB0010A6EB8000322101EB82
:1046400000106421B0FBF1F000F0F006FDF7C0FDB2
:1046500000EBC00101EB001061688900B0FBF1F0D4
:104660006421B0FBF1F006EB0016FDF7B1FD00EBA5
:10467000C00101EB001061688900B0FBF1F7FDF7A4
:10468000A7FD00EBC00101EB001061688900B0FBE1
:10469000F1F06421B0FBF1F000EBC00101EB001080
:1046A000A7EB8000322101EB00106421B0FBF1F098
:1046B00000F00F003044216888605BE0FDF778FD72
:1046C00000EBC00101EB001061688900B0FBF1F65E
:1046D000FDF76EFD00EBC00101EB00106168890081
:1046E000B0FBF1F06421B0FBF1F000EBC00101EB95
:1046F0000010A6EB8000322101EB00106421B0FB1A
:10470000F1F000F0F006FDF753FD00EBC00101EB06
:10471000001061688900B0FBF1F06421B0FBF1F09A
:1047200006EB0016FDF744FD00EBC00101EB0010A5
:1047300061688900B0FBF1F7FDF73AFD00EBC001BD
:1047400001EB001061688900B0FBF1F06421B0FB5F
:10475000F1F000EBC00101EB0010A7EB800032216B
:1047600001EB00106421B0FBF1F000F00F003044C9
:1047700021688860BDE8F08100100140001401400C
:104780002DE9F04104460D4617469846069E21E065
:10479000701CF8B12EB1FCF7DBFFA0EB0800B042B3
:1047A00018D92068C06820F4D0702168C8602068DB
:1047B000406920F0010021684861202084F8390018
:1047C00084F83A0000BF002084F8380000BF0320BE
:1047D000BDE8F081206800682840A84201D101208E
:1047E00000E00020B842D3D00020F1E700BFFEE790
:1047F00000BFFEE70FB4084B10B504A902AA039846
:1048000000F0DEF8044602A9002000F070FC20460B
:1048100010BC5DF814FB0000EF50000802E008C86F
:10482000121F08C1002AFAD170477047002001E02A
:1048300001C1121F002AFBD1704700002DE9FF5F64
:1048400082B00021DDE90430020DDDF840B0034301
:1048500018D044F61050A2F2FF32424315141198BA
:1048600001281FD0A5EB0B00401C5FEA000A4FF0A7
:1048700000064E4FDFF83891B046504615D5CAF1C4
:10488000000413E0119801244AA3012801D16FEA22
:104890000B010298119AC0E90031C0E9024206B04A
:1048A000BDE8F09FCBF10000DFE704460021404A5D
:1048B000491842EB0450CDE9001012E0E00707D0A0
:1048C00032463B4640464946FBF78BFE80468946CA
:1048D00032463B4610461946FBF783FE06460F4616
:1048E0006410002CEAD1DDE90401DDE90023BAF10E
:1048F000000F06DAFBF775FE42464B46FBF771FEEA
:1049000005E0FBF7E0FE42464B46FBF7DCFE0446C3
:104910000E460022284BFBF713FD03D84FF0FF3063
:10492000014607E00022254B20463146FBF7B2FD49
:10493000FBF738FF102409E0002C0ADB0A220023D1
:10494000FBF75CFC039B30321A55641E50EA0102EF
:10495000F2D1641C039AC4F111031444119A012A80
:1049600003D0012208430DD10AE0084304D00020FF
:104970004FF0110B119072E7A3EB0B056D1E0DE0CC
:104980005B4504DD4FF0000205F1010504E003DAA8
:104990004FF00002A5F10105002AECD00298119910
:1049A000C0E90231C0E9004579E700000000144089
:1049B0000000F03F300000000000F0430000E03F46
:1049C0002DE9FF4F95B09B468946064600250FE22C
:1049D000252877D100242746F84A0121059400E0D4
:1049E000044316F8013F203B01FA03F01042F7D1CF
:1049F00030782A2811D06FF02F033078A0F13002E0
:104A0000092A16D8059A44F0020402EB820203EB4D
:104A100042021044761C0590EFE759F8042B0592EA
:104A2000002A03DA504244F40054059044F0020492
:104A3000761C30782E2816D116F8010F44F00404A5
:104A40002A280DD06FF02F023078A0F13003092B07
:104A500009D807EB870302EB4303C718761CF3E77B
:104A600059F8047B761C30786C280FD006DC4C2873
:104A700017D068280DD06A2814D104E0742810D00B
:104A80007A280FD10DE044F400140AE044F48014B5
:104A900001E044F440147278824202D104F580149B
:104AA000761C761C307866280BD013DC582877D01B
:104AB00009DC002875D04528F6D04628F4D04728D0
:104AC0001AD19DE118E0632835D0642879D0652893
:104AD00012D195E1702873D008DC6728F1D06928DD
:104AE0006FD06E280DD06F2806D1B5E073282CD07A
:104AF000752875D0782874D05A46179990476D1C40
:104B000075E1C4F30250022809D003280DD0D9F86A
:104B1000001004280DD00D6009F1040967E1D9F8EF
:104B20000010EA17C1E90052F6E7D9F800100D802D
:104B3000F2E70D70F0E719F8041B8DF80010002063
:104B40008DF80100EA46012003E059F804AB4FF06C
:104B5000FF3061074FF0000102D40DE008F10101C0
:104B60008846B9420FDA8045F8DB1AF808100029A8
:104B7000F4D108E008F1010188468142FADB1AF815
:104B800008100029F6D105985B46A0EB08072146DE
:104B90003846179A00F094FA284400EB080507E01D
:104BA0004DE029E10DE01AF8010B5A46179990479C
:104BB000B8F10108F7D25B4621463846179A13E14F
:104BC00042E00A220092C4F302524FF0000A022A85
:104BD00008D059F804CB032A4FEAEC710AD00DE053
:104BE00029E02AE009F1070121F00702F2E802C1F9
:104BF000914609E00FFA8CFC4FEAEC71042A03D1CC
:104C00004FFA8CFC4FEAEC71002907DA0A460021C2
:104C1000DCF1000C61EB02012D2202E0220504D53B
:104C20002B228DF80420012203E0E20701D020228C
:104C3000F7E7904659E00A2102E010220DE010212A
:104C40004FF0000A00910BE010224FF0000A44F0F0
:104C500004040827009203E008224FF0000A0092A3
:104C6000C4F30252022A05D059F804CB0021032ACA
:104C700008D009E009F1070121F00702F2E802C1BA
:104C8000914605E01FFA8CFC042A01D10CF0FF0CC0
:104C90004FF00008220728D5702806D0009B83F02B
:104CA000100353EA0A0305D00EE040228DF80420D9
:104CB000012208E05CEA010206D030228DF80420CF
:104CC0008DF8050002229046009B83F0080353EA0A
:104CD0000A030AD15CEA010201D1620705D530223C
:104CE0008DF804204FF001087F1E582804D034A00E
:104CF00003900EA802900DE036A0F9E753466046F7
:104D0000009AFBF77BFA84460398825C0298401E67
:104D1000029002705CEA0100F0D1029806A9081A1C
:104D200000F1200A600702D524F4803400E0012756
:104D3000574502DDA7EB0A0000E0002000EB0A0166
:104D4000009005984144401A0590E00306D45B4664
:104D50002146179A059800F0B3F90544002706E0AC
:104D600001A85A46C05D179990476D1C7F1C4745A6
:104D7000F6DBE0030CD55B462146179A059800F058
:104D80009FF9054404E030205A46179990476D1C5E
:104D90000099481E00900029F5DC08E0029802996D
:104DA0005A460078491C0291179990476D1CBAF138
:104DB0000001AAF1010AF1DC65E100000928010007
:104DC0003031323334353637383961626364656681
:104DD0000000000030313233343536373839414243
:104DE000434445460000000000F058F90544761C95
:104DF000307800287FF4ECAD19B02846BDE8F08F7C
:104E0000620700D4062709F1070222F0070CFCE82C
:104E10000223E14603F000485FEA080C02D00FF2DB
:104E2000702C0DE05FEA045C02D50FF2682C07E0FD
:104E30005FEAC47C02D00FF2602C01E0AFF2700C8C
:104E40004FF0FF3823F00043CDF850C065280CD058
:104E500006DC452809D046281DD047283DD13DE035
:104E6000662818D067287ED138E00021112F01DB99
:104E7000112000E0781CCDE9000106A90EA8FFF77B
:104E8000DDFCDDE90F010E9A03910021009207F18C
:104E9000010A04914DE04FF000400097CDE9011068
:104EA00006A90EA8FFF7CAFCDDE90F0203920E9BCC
:104EB00011990022DDF80CA00093049211B9791C1D
:104EC00000EB010AB7EB0A0004D4C0F1FF3007F190
:104ED000010A0490AAEB0700019044E0012F00DAD8
:104EE00001270021112F01DD112000E03846CDE916
:104EF000000106A90EA8FFF7A1FCDDE90F010E9A3B
:104F00000391002104910092BA4621070CD4039921
:104F1000514500DA8A46BAF1010F05DD009AAAF17F
:104F20000101515C302908D0B84202DA10F1040FB7
:104F300006DA0121CDE9011015E0AAF10101E9E746
:104F4000002805DC049901440491AAEB000102E069
:104F5000411C514500DD8A460499401A401C0190CD
:104F60004FF000400290200704D40198504501DB27
:104F7000CDF8048000208DF84F0002980DF14F0706
:104F8000B0F1004F25D02B200E9002984FF0020870
:104F900000280CDA404202902D200E9007E00A21F2
:104FA0000298FBF7E5F93031029007F8011DB8F1DE
:104FB0000001A8F10108F2DC02980028EFD1791E67
:104FC0000E980870307800F0200040F0450007F897
:104FD000020D12A8C01B00F107081498007800B158
:104FE000012000EB0A01019801EBE07105984144B2
:104FF000401A401E0590E00306D45B462146179AEE
:10500000059800F05DF805441498007818B15A46E8
:10501000179990476D1CE00324D55B462146179AEB
:10502000059800F04DF805441CE00498002807DBC3
:10503000DDE90301884203DD0098405C179901E037
:10504000179930205A469047049805F10105401CF5
:1050500004900198401E019004D12E205A461799C1
:1050600090476D1CBAF10001AAF1010ADDDC05E0F0
:1050700017F8010B5A46179990476D1CB8F10001BB
:10508000A8F10108F4DC5B462146179A0598ABE6C7
:105090002D0000002B000000200000002DE9F04151
:1050A000044600251E461746880404D405E0394608
:1050B0002020B0476D1C641EF9D52846BDE8F0815C
:1050C0002DE9F041044600251E469046C80301D54F
:1050D000302700E02027880404D505E04146384603
:1050E000B0476D1C641EF9D52846BDE8F0810A68FA
:1050F000531C0B601070704710B500240A480068FC
:105100000A280ED3094890ED020A80ED010A00201A
:1051100005490860064800F0D7F8064800F0D4F8C2
:105120000124204610BD000008000020B40000202B
:10513000A8050020500700200348006808B9002097
:1051400070470120FCE700001000002003480068C1
:1051500008B9002070470120FCE70000140000207F
:1051600038B5002000906423012269462348FDF7EA
:10517000E3FF0446002C3FD18DF801009DF80000AC
:105180003F2802D101201E4908701D48007898B3BD
:105190009DF800003F282FD09DF80000212811D154
:1051A0000020174908701749174AB2F9002088549F
:1051B000084600F095FF134800F0A0F800201249BF
:1051C000088019E09DF800100E480F4AB2F900203F
:1051D00081540D480088401C00B20B4908800846E5
:1051E000B0F90000092807DD00200880054800F01C
:1051F00085F800200249087038BD0000E4620020F4
:1052000018000020762200201A00002010B5044665
:1052100084F0010240210248FCF794FA10BD00001E
:105220000004024000214160D0ED020AF8EEE00ADD
:1052300060EE800AC0ED000A00BF05E0C26802EB24
:10524000810282ED000A491C82688A42F6D87047C2
:1052500000214162416181619FED0A0A80ED070AE8
:105260009FED080A80ED080A00BF07E09FED050AE0
:10527000C26A02EB810282ED000A491C826A8A42FC
:10528000F4D870470000000010B5002008490860FD
:10529000084800F019F8084800F016F89FED070AD2
:1052A0000748FFF7BFFF00200649087010BD000047
:1052B00008000020A8050020500700200000000082
:1052C000D800002000000020002101609FED0A0AA4
:1052D00080ED010A9FED080A80ED020A00BF07E099
:1052E0009FED050A426902EB810282ED000A491C2A
:1052F00002698A42F4D870470000000070B5054684
:10530000002402E000202855641C2846FAF7D7FF45
:10531000A042F7D870BD000010B50020FFF776FF5F
:10532000002240210748FCF70DFA0120FCF7F6F8AF
:10533000012240210348FCF705FA0120FFF766FF30
:1053400010BD00000000024070B586B004460D4656
:10535000142101A8FAF79CFF0A4800680A4908606E
:10536000084804602E46314601A8FAF79CFF002049
:10537000034601AA0A210090022000F0AFFB06B00C
:1053800070BD00009C000020A0000020F0EE400A4C
:105390004268C16801EB820191ED000A90ED001AAC
:1053A00031EE400A80ED000A90ED000A30EE200A4E
:1053B00080ED000A4268511C4160C16801EB820126
:1053C000C1ED000AD0E90112914201DB00214160E8
:1053D00090ED001A90ED020AF8EEC01A81EE210A53
:1053E0007047D0ED010A90ED050AB8EE400A60EE74
:1053F000800A90ED001A00EE101AF8EE401AB0EE96
:10540000600A01EE210A90ED021AD0ED060AF8EECC
:10541000600A01EE200AD0ED030A90ED071A00EEB3
:10542000C10AD0ED040A90ED081A00EEC10A436AE1
:10543000C26A02EB830282ED000A42698261416125
:1054400090ED070A80ED080A436AC26A02EB830204
:1054500092ED000A80ED070A426A521C4262D0E9CE
:1054600009239A4201DB0022426290ED070A70474D
:105470000148C06A70470000F80800204FF44870E7
:105480007047000070B50446002503260C480068EC
:10549000B04213D30B4890ED020A10EE101A0846E2
:1054A000FAF722FFC4E90001002005490860064818
:1054B000FFF70AFF0348FFF707FF0125284670BDE5
:1054C0000800002050070020A805002070B52DED31
:1054D000028B0024C82008EE900A6FF02706364899
:1054E00090ED040AB0EE408A00F02CFD00F0AEFC16
:1054F00027E0002519E0FFF7BBFF00EB850090EDEA
:10550000000AB4EEC80AF1EE10FA01DD012000E055
:10551000002006F127018D4201DD012100E000217C
:10552000084008B12E46641C6D1CFFF7A7FFA84277
:10553000E1DC032C05DA9FED210A38EE400AB0EEDB
:10554000408A032C01DA012000E000209FED1C0AB4
:10555000B4EEC08AF1EE10FA01DD012100E0002175
:1055600008400028C5D1FFF789FF00EE100AB8EE09
:10557000C00A144880ED000A90ED000AF8EEE80A2F
:1055800080EE201A80ED001A00EE104AB8EEC00A34
:10559000D0ED000A80EE201A80ED001A90ED000A8E
:1055A000DFED090A20EE200A80ED000A90ED000AE6
:1055B000BDEC028B70BD000080240020CDCC4C3DA2
:1055C000CDCC0C3F20000020000070422DE9F843B4
:1055D00004460E4617464FF0010900200090804611
:1055E0002046FAF76CFE03282ED9002002E0215C49
:1055F0003154401C0328FADB2046FAF760FE0528E8
:1056000008D3002004E0C11C615C0DF80010401CB0
:105610000228F8DB2046FAF752FE062802D360790A
:105620008DF80200002507E01DF80500303808EB72
:10563000880100EB41086D1C6846FAF740FEA8425D
:10564000F2D8C7F8008001E04FF000094846BDE8F5
:10565000F883000001480078704700000C0000202B
:10566000704700001CB59FED170A64221649A1F18E
:10567000180000F0AFF89FED130A64221349A1F15E
:10568000180000F0A7F84FF496721149A1F110002C
:1056900000F058F80FA0006801900A20022301AA28
:1056A000982100900C48FCF781FA0A2002230DF1A2
:1056B0000602982100900848FCF778FAFFF7E4FD0D
:1056C0001CBD00000AD7233CC0050020680700204D
:1056D000E800002007000701C061002000B58BB082
:1056E0001549D1E900028968CDE9092108901249DC
:1056F0000C3103C9CDE906010F4A143207CA03ABC6
:1057000007C30D49203103C9CDE9010101A803AB4D
:105710004FF4487209490090A1F1300000F015F8EB
:1057200006A808AB4FF4487205490090A1F130007B
:1057300000F00BF80BB000BD5C66000828090020E3
:10574000D8150020C1608260704710B5029CC1620C
:10575000826293ED000A80ED000A93ED010A80ED6C
:10576000010A93ED020A80ED020A94ED000A80ED31
:10577000030A94ED010A80ED040A10BD10B505225C
:105780000949A1F11400FFF7DDFF9FED080A064863
:105790001438FFF747FDB6EE080A0348143880EDC9
:1057A000040AFFF79BFF10BD942400200000704204
:1057B00010B50020044908700448FFF749FD04486B
:1057C000FFF746FD10BD00000C000020F808002087
:1057D000A81500204161026180ED030A704770B591
:1057E00005460C46FEF78EFAFEF7CAF8204600F092
:1057F000CDFD284600F0C4FDFFF79EFC20B1FFF769
:10580000A5FC08B1012070BD0020FCE710B5FEF733
:105810009FF900F099F800F089F810BD00210160AF
:105820004160816001737047F0EE400A90ED010A1B
:1058300030EEC00AD0ED031A60EE211AB0EE002A55
:1058400081EE820AD0ED011A90ED032A01EE820A60
:10585000B0EE401A90ED020A30EE010A80ED020A25
:105860000268511C0160416901EB820181ED001A5F
:1058700002690168914201DB00210160C0ED010A6B
:1058800090ED020A7047B0EE401A90ED010A31EE39
:10589000400AD0ED031A60EE211AB0EE002A81EE24
:1058A000820AD0ED011A90ED032A01EE820AF0EE91
:1058B000400AF5EEC00AF1EE10FA05D2BFEE000A7A
:1058C00020EE800AF0EE400A90ED020A30EE200A47
:1058D00080ED020A0268511C0160416901EB8201FE
:1058E000C1ED000A02690168914201DB00210160FB
:1058F00080ED011A90ED020A704700000120054971
:10590000087005480068006900F0FE000249096857
:1059100008617047000000206C62002010B502484A
:10592000FBF762FB10BD000030610020002005E0A5
:105930000021044A42F82010411CC8B28028F7DB3D
:10594000704700008022002010B5FFF7EFFFFFF73F
:10595000E3FCA02000F0DCFCAE2000F0D9FCC82065
:1059600000F0D6FCA22000F0D3FC2F2000F0D0FCE9
:10597000212000F0CDFC282000F060F8AF2000F0DE
:10598000C7FC10BD2DE9F04306460F4690469946E8
:105990003C460CE0354606E001222146284600F050
:1059A00081F8681CC5B24545F6DD601CC4B24C45A3
:1059B000F0DDBDE8F08300002DE9F047074688469A
:1059C00091461E46DDF820A0A9F1200000F0FF0955
:1059D000002428E000251EE0164810F8160009FBF8
:1059E00000401549095C0120A840014049B18AF0F6
:1059F000010208EB0403D9B27B19D8B200F052F8C7
:105A000007E008EB0402D1B27A19D0B2524600F096
:105A100049F8681CC5B2074800EB46004078A84228
:105A2000DADC601CC4B2034810F81600A042D1DCD6
:105A3000BDE8F087147F00089466000810B504469E
:105A40003F2C05DC812000F063FC204600F060FC68
:105A500010BD2DE9F0410746884614461D464646CE
:105A60000BE001223146384600F01CF80122314695
:105A7000204600F017F8701CC6B2AE42F1DD3E467B
:105A80000BE001222946304600F00CF80122414685
:105A9000304600F007F8701CC6B2A642F1DDBDE842
:105AA000F081000010B5802815DA202913DA4AB1F8
:105AB000094B53F8203001248C402343064C44F812
:105AC000203008E0044B53F8203001248C40A343DD
:105AD000014C44F8203010BD802200202DE9F8410F
