:020000040800F2
:10000000F8230020D90100083F2F000859270008D5
:100010003D2F0008E10800088136000800000000BC
:10002000000000000000000000000000193000087F
:100030006D09000800000000612F00081B30000857
:10004000F3010008F3010008F3010008F3010008C0
:10005000F3010008F30100086F090008F30100082C
:10006000F3010008F3010008F3010008F3010008A0
:10007000F3010008F3010008F3010008F301000890
:10008000F3010008E5080008A1070008F3010008D3
:10009000F3010008F3010008F3010008F301000870
:1000A000F3010008F3010008F3010008F301000860
:1000B000F301000825310008F3010008F3010008EE
:1000C000F3010008F3010008F3010008F301000840
:1000D000F3010008F3010008F3010008F301000830
:1000E000F3010008F3010008F3010008F301000820
:1000F000F3010008F3010008F3010008F301000810
:10010000F3010008F301000831310008F301000891
:10011000F3010008F3010008F3010008F3010008EF
:10012000F3010008F3010008F3010008F3010008DF
:10013000F30100080000000000000000F3010008C7
:10014000F3010008F3010008F3010008F3010008BF
:10015000F3010008F3010008F3010008F3010008AF
:10016000F3010008F3010008F3010008F30100089F
:10017000F3010008F3010008F3010008000000008B
:1001800000000000F3010008000000000000000073
:10019000F30100080000000000000000F301000867
:1001A000000000000000000000000000F301000853
:1001B000F3010008F3010008F3010008F30100084F
:1001C000F3010008DFF80CD000F068FA004800479F
:1001D00099450008F8230020064880470648004754
:1001E000FEE7FEE7FEE7FEE7FEE7FEE7FEE7FEE7E7
:1001F000FEE7FEE7D1300008C50100082DE9F05FF9
:100200000546002092469B46884606468146402485
:100210001BE0284641464746224600F08EF85346EA
:100220005A46C01A914110D311461846224600F092
:1002300075F82D1A67EB01084F4622460120002170
:1002400000F06CF817EB00094E41201EA4F10104E8
:10025000DFDC484631462A464346BDE8F09FD2B22D
:1002600001E000F8012B491EFBD270470022F6E79F
:1002700010B513460A4604461946FFF7F0FF20461C
:1002800010BD421E12F8013F002BFBD111F8013BBB
:1002900002F8013B002BF9D1704700F0004230F02A
:1002A00000400AD0C10D01F56071C0F3160042EAAA
:1002B0000151C208400711437047002001467047B2
:1002C00030B5041E71F1000404DB4FF000444042DD
:1002D00064EB0101141E73F1000405DB1C464FF0B2
:1002E0000043524263EB0403994208BF904230BD81
:1002F00030B50B46014600202022012409E021FAF6
:1003000002F59D4205D303FA02F5491B04FA02F5F2
:100310002844151EA2F10102F1DC30BD202A04DBC5
:10032000203A00FA02F1002070479140C2F1200308
:1003300020FA03F3194390407047202A04DB203A47
:1003400021FA02F00021704721FA02F3D040C2F1F5
:10035000200291400843194670472DE9FE4F804620
:1003600081EA0300C00F0C46009021F0004123F009
:100370000045B8EB0200A94105D24046214690460F
:100380001C460B46024623F00040104347D0270D81
:10039000C7F30A00C3F30A510290401A01904028A3
:1003A0006BDAC3F3130040F4801B0098924620B12F
:1003B0000023D2EB030A63EB0B0B01985946C0F103
:1003C00040025046FFF7AAFF06460D4650465946E2
:1003D000019A00F075F910EB08006141002487EAEA
:1003E000115284EAE7731A4340D0009A62B3019A2B
:1003F000012A4FEA075215DC001B61EB02014FF0A6
:10040000004202EA0752CDE90042001C41F580118A
:1004100032462B4600F075F903B0BDE8F08F404638
:100420002146F9E7001B61EB0201001C41F5801336
:1004300000185B412018A2F5001747EB030140EAC2
:10044000D570B6196D4111E06D084FEA360645EAE0
:10045000C0754FEA0752001B61EB0201001C41F519
:10046000801149084FEA30000019514132462B46AD
:1004700003B0BDE8F04F00F035B90098012240000C
:100480000023D0EB020263EBE073009821464FEAB1
:10049000E074B8EB000061EB0401E9E783F000438E
:1004A0005BE781F0004158E72DE9FE4F81EA030444
:1004B00004F0004421F0004100944FF0000B23F0C1
:1004C000004350EA01045ED052EA03045BD0C3F358
:1004D0000A54C1F30A552C44A4F2F3340194A0FB4E
:1004E0000254C1F3130141F48011C3F3130343F425
:1004F000801301FB024400FB034E840A970A44EA7E
:10050000815447EA8357A4FB076802958D0A05FBCF
:1005100007854FEA932C04FB0C542705029D4FEAF4
:10052000065847EA1637B5EB08056EEB070C870E41
:10053000920E47EA811742EA8312A7FB0201B6EB4B
:100540000B0164EB00042B0D43EA0C335E1844EB03
:100550001C50DA465146E7FB0201C5F313044FEA8B
:100560000B3343EA14534FEA0432019C43EA060377
:10057000A4F10C040294009CCDE900B400F0C1F891
:1005800003B0BDE8F08F00200146F9E72DE9F04DFA
:1005900081EA030404F0004B21F0004514464FF0BB
:1005A000000A23F0004150EA050220D054EA01027B
:1005B0001DD0C5F30A570246C5F31303C1F3130058
:1005C000C1F30A5640F4801543F48013A7EB0608E4
:1005D000101BD64608F2FD3873EB050002D308F174
:1005E000010801E092185B41B8F1000F03DA002026
:1005F0000146BDE8F08D00204FF480110646844688
:100600000EE0171B73EB050705D3121B63EB050305
:1006100006434CEA010C49084FEA300092185B414E
:1006200050EA0107EDD152EA030012D082EA040039
:1006300083EA0501084305D0101BAB4106D2012215
:10064000002306E000224FF0004302E06FF00102B9
:1006500053101AEB06004CEB085110EB0A0041EB6B
:100660000B01BDE8F04D00F03DB8C1F30A52C1F3F3
:10067000130140F2FF3341F480119A4202DA002064
:100680000146704740F233439A42A2F2334202DC01
:100690005242FFF752BEFFF741BE0000064C074D25
:1006A00006E0E06840F0010394E807009847103442
:1006B000AC42F6D3FFF78AFDFC4C00081C4D000845
:1006C000202A06DBCB17203A41FA02F043EAE07316
:1006D00006E041FA02F3D040C2F120029140084303
:1006E0001946704710B5141E73F1000408DA401C57
:1006F00041F1000192185B411A4301D120F0010041
:1007000010BD2DE9F04D92469B4611B1B1FA81F230
:1007100002E0B0FA80F220329046FFF7FFFD044677
:100720000F4640EA0A0041EA0B0153465A46084385
:1007300013D0114653EA010019D0C8F140025046C7
:10074000FFF7FBFD05460E46504659464246FFF769
:10075000E5FD084305D0012004E020463946BDE808
:10076000F08D0020054346EAE0762C4337430A9893
:100770006305E40AA0EB08000022FD0A44EA47549E
:100780000A3002D500200146E9E701051019694148
:10079000DDE9084500196941BDE8F04DA2E7000018
:1007A00010B5044800F026FABDE81040024800F0F9
:1007B00021BA0000A01D0020E81D0020454910B509
:1007C0004A6822F440324A604A6843681A434A60E1
:1007D00001684A6822F480724A6001684A680369C5
:1007E00042EA03224A6001684A6822F040724A6085
:1007F00001684A6883681A434A6001688A6822F47B
:1008000000628A6001688A68C3681A438A60816AE4
:100810006FF07062D14201688A6822F070628A606B
:1008200001688A680CD0836A1A438A6001688A6802
:1008300022F040528A6001688A68C36A1A4301E064
:1008400022F040528A6001688A6822F002028A60BF
:1008500001688A68836942EA43028A60016A002962
:1008600001684A680FD042F400624A6001684A6831
:1008700022F460424A6001684A68174C436A04EBFC
:1008800043331A4301E022F400624A600168CA6AF5
:1008900022F47002CA620168CA6A838B0F4C04EBAF
:1008A00003531A43CA6201688A6822F400728A609C
:1008B00001688A68036B42EA43228A6001688A6899
:1008C00022F480628A6001688A68406942EA802076
:1008D000886010BD0023014000E0FFFF0000F0FF32
:1008E000FEE70000014800F00FBB0000941F00204D
:1008F00001681823CAB2103AB2FBF3F2054B6FF34A
:100900000901032A9B5CC36500D9091D816508465E
:1009100070470000DC4C000810B5014600208B69D0
:100920008A6A4FF0C07453B1B3F5005F15D072B14D
:10093000012A0CD0022A0AD0032A09D104E01AB1F4
:10094000012A06D0022A03D1C96AC90100D50120B3
:1009500010BDC96AA142FAD010BD002AF7D0012A01
:10096000F2D0022AF3D0032AF3D010BD7047012041
:1009700000F020BC4268D0ED000A00EB8201521C5E
:1009800091ED021A70EEC10A70EE800AC0ED000A05
:10099000426081ED020A4168052901DB00214160C6
:1009A000D0ED000AB1EE041A80EE810A7047000013
:1009B00070B5274D04462878F0BB94ED050AD4EDB8
:1009C000010A94ED001AB8EE400A606A04EB800058
:1009D00060EE800A00EE101AB8EE400A41EE000AFE
:1009E00094ED060A94ED021AB8EE400A41EE000AB0
:1009F00094ED030A94ED071A40EE410A94ED040ABF
:100A000094ED081A40EE410AC0ED0A0A6069C4E993
:100A1000051094ED070A84ED080A606A04EB800172
:100A2000401C91ED0A0AB0F5487F84ED070A606228
:100A30000BDB0020606200E007E00648844204D13E
:100A4000054801F043FC0120287094ED070A70BDB1
:100A50000800002034020020181F0020704700000A
:100A600078B50024009490F83C20012A19D0012286
:100A700080F83C200A6807230568092A13D9EE6824
:100A80000A3A02EB420293409E43EE600A788B687A
:100A90000A3A02EB420293400268D5682B43D360C6
:100AA00010E0022078BD2E6902EB420293409E4383
:100AB0002E610A788B6802EB420293400268156946
:100AC0002B4313614A681F23072A13D205686E6BF4
:100AD000521E02EB820293409E436E630B790A889A
:100AE0005B1E92B203EB83039A4003685D6B2A435B
:100AF0005A6327E005680D2A12D22E6BD21F02EB33
:100B0000820293409E432E630B790A88DB1F92B2C8
:100B100003EB83039A4003681D6B2A431A6311E0B9
:100B2000EE6A0D3A02EB820293409E43EE620B792D
:100B30000A880D3B92B203EB83039A400368DD6A97
:100B40002A43DA62174B0568154A9D4206D10D68A3
:100B5000122D03D1556845F48005556005689D4206
:100B600019D1114D0B68AB4201D0112B13D1536831
:100B700043F4000353600968A9420CD10B490C4AA5
:100B80000968B1FBF2F101EB8101490000E0491E67
:100B900000910029FBD180F83C40002078BD000086
:100BA0000023014000200140120000102800002016
:100BB00040420F0010B50446094800F081F9204674
:100BC00000F015F801460748FFF7F2FEBCEEC00A38
:100BD000BDE8104010EE101A0348FFF7E9BE000010
:100BE000A01D0020DC0E00203402002070470068A9
:100BF000C06C704770B50446006801684268C1F374
:100C00004001C2F3401251B34AB3216CC90603D468
:100C1000216C41F400712164816811F0405F17D1AB
:100C2000A169A9B9C16A11F4700F02D081684905A0
:100C30000ED4416821F020014160206C20F48070C6
:100C40002064206CC00403D4206C40F001002064B8
:100C50002046FFF7AFFF21686FF0120008602068A0
:100C600001684268C1F38001C2F3C01289B382B344
:100C7000216CC90603D4216C41F4005121648168C0
:100C800011F4401F1ED1816B11F4401F02D0816806
:100C9000490517D44168490514D4816811F0405FB3
:100CA00010D1A16971B9416821F080014160206CC7
:100CB00020F480502064206CC00503D4206C40F0E8
:100CC000010020642046FFF7C9FE21686FF00C0088
:100CD000086020680168426811F0010FC2F38012B9
:100CE0000ED06AB10068C0070AD0206C40F4803092
:100CF0002064204600F046F821686FF0010008608B
:100D0000206801684268C1F34011C2F38062002983
:100D10000DD0002A0BD0616C41F0020161646FF0CC
:100D2000200505602046FFF761FF2068056070BD63
:100D300070B504004FF0000503D0206C002610B100
:100D400007E0012070BD666484F83C60204600F036
:100D50001BF8206CC00610D4206C20F4885040F0A2
:100D6000020020642046FFF729FD6664206C20F015
:100D7000020040F00100206400E0012584F83C609E
:100D8000284670BD7047000030B5174D046800223A
:100D900016490323164887B0AC4209D10C6844F4C5
:100DA00080740C60096801F48071059110210BE0DA
:100DB000104DAC4216D10C6844F400740C60096804
:100DC00001F4007105910221CDE9001302926946F8
:100DD00000F0FCF900220121122000F09FFD1220FA
:100DE00000F090FD07B030BD0020014044380240C3
:100DF000000002400021014018B50021009190F848
:100E00003C20012A07D0012280F83C200268936828
:100E1000DB0702D011E0022018BD936843F0010304
:100E20009360224A224B1268B2FBF3F202EB4202B9
:100E300000E0521E0092002AFBD102689368DB0793
:100E400032D0036C40F20164A34343F48073036423
:100E500053685B0505D5036C23F4005343F48053BA
:100E60000364036CDB0404D5436C23F00603436482
:100E700000E0416480F83C100E4B6FF022011160DD
:100E800001684A680C4C22434A6059680068C906E8
:100E900002D00A49884207D1816811F0405F03D12E
:100EA000816841F080418160002018BD2800002049
:100EB00040420F00002301402000000400200140B8
:100EC00090F83C1001290CD0012180F83C100168F9
:100ED0008A6822F001028A6001688A68D20702D01B
:100EE0000BE0022070474A68064B1A404A60016CCA
:100EF00021F4885141F001010164002180F83C1087
:100F000008467047DFFFFFFB2DE9F84304464FF02A
:100F10000009CDF8009063484FF41651A56D0068A4
:100F2000B0FBF1F72E6894F85C10082000FA01F18C
:100F300031420FD021680A6852070BD50A6822F0A7
:100F400004020A6094F85C108840A860606D40F06C
:100F50000100606594F85C104FF0010808FA01F098
:100F6000304208D021684969090604D5A860606D3F
:100F700040F00200606594F85C1004208840304224
:100F800008D021680968890704D5A860606D40F021
:100F90000400606594F85C1010208840304218D03E
:100FA00021680968090714D5A86020680168490309
:100FB00004D50068000308D5A16C07E00168C905E5
:100FC00003D4016821F008010160216C09B12046B9
:100FD000884794F85C1020208840304231D0216846
:100FE0000968C9062DD5A86094F835000528206841
:100FF000016806D0490347D5006800031DD4616C21
:101000001CE021F0160101602068416921F0800197
:101010004161206C08B9A06C20B12068016821F002
:101020000801016094F85C103F208840A86084F8B3
:10103000349084F83580216D1FE0E16B09B12046C2
:101040008847606D00282BD0606DC00714D0052044
:1010500084F835002068016821F0010101600098E2
:10106000401C0090B84203D820680068C007F6D141
:1010700084F8349084F83580E16C002910D001B0F8
:101080002046BDE8F04308470168C905D5D401688A
:1010900021F01001016084F8349084F83580CCE7A9
:1010A000BDE8F883280000202DE9F041044600F057
:1010B00065F906465CB1002584F83450022084F8B6
:1010C00035002068016821F0010101600DE0012078
:1010D000BDE8F08100F052F9801B052805D92020D9
:1010E0006065032084F83500F2E720680068C007D7
:1010F000F0D12268116820480140D4E90103184367
:10110000D4E903363343184363691843A36918438A
:10111000E3691843236A18430843616A042903D129
:10112000D4E90B1319430843106020684069666ACC
:1011300020F0070130460E43012704280CD1A06A95
:101140000643E06A40B12046FFF7E6FB20B14020AD
:10115000606584F83570BAE7206846612046FFF77D
:10116000C7FB94F85C203F2191408160656584F85D
:1011700035700020ACE700003F8010F070B50446E9
:1011800000F0FCF80546601C02D0044800780444D6
:1011900000F0F4F8401BA042FAD370BD1C00002000
:1011A000012803D102484168491C41607047000092
:1011B00000000020044910B50A68024202D008600D
:1011C000FFF7EEFF10BD0000143C01402DE9F84F81
:1011D000DFF874B100224FF001084FF0030A4FF01E
:1011E0000F090BF1040E00BF0B6808FA02F423404C
:1011F000A3426ED14D68022D01D0122D0ED1D5081B
:1012000000EB850CDCF820505607F70E09FA07F6BC
:10121000B5430E69BE402E43CCF8206006685500E9
:101220000F790AFA05FC07F0030726EA0C06AF401F
:10123000374307604E68012E05D0022E03D0112ED1
:1012400001D0122E0ED18668CF6826EA0C06AF4078
:10125000374387604668A6430C79C4F30014944072
:1012600034434460C4688E6824EA0C04AE402643CC
:10127000C6604C68E40060D5344C256845F4804570
:101280002560246822F0030504F480440094304C67
:101290002E19D6F8084895072F0F09FA07F5AC4321
:1012A0002C4DA84201D100251FE02B4DA84201D1B1
:1012B00001251AE0294DA84201D1022515E0284D4B
:1012C000A84201D1032510E0264DA84202D10425F1
:1012D0000BE032E0244DA84201D1052505E0234D65
:1012E000A84201D1062500E00725BD402543C6F8E8
:1012F0000858DBF800405D464E689C43F60300D575
:101300001C432C60DEF8004075464E689C43B603D3
:1013100000D51C432C600C4D08352C684E689C434E
:10132000F60200D51C432C60074D0C352C684E6826
:101330009C43B60200D51C432C60521C102AFFF4BB
:1013400053AFBDE8F88F0000003C01404438024034
:10135000003001400000024000040240000802404A
:10136000000C02400010024000140240001802402D
:101370000AB1816170470904FBE7000001488068F9
:10138000704700001C00002070B5040004D094F8E1
:101390003D00002510B106E0012070BD84F83C50EE
:1013A000204600F005FA242084F83D0020680168FA
:1013B00021F00101016000F0B9FB33492268B0FB64
:1013C000F1F15160314A6368934206D94FF4967344
:1013D00059434FF47A73B1FBF3F12368491C196246
:1013E000616891420BD84900B0FBF1F2C2F30B02E5
:1013F000042A01D2042019E0B0FBF1F016E0A36842
:101400009BB301EBC10202EB0112B0FBF2F242F41A
:101410008042120530D04BB301EBC10202EB011147
:10142000B0FBF1F040F4804040F400402168C86116
:10143000D4E90701084321680860D4E90310084390
:1014400021688860D4E9050108432168C8602068E4
:10145000016841F0010101602564202084F83D000D
:10146000256384F83E50002070BD00E006E001EBEB
:101470004102B0FBF2F2CCE70120D7E701EB4101DA
:10148000B0FBF1F0D0E7000040420F00A086010061
:101490002DE9F84F1F4690468A460446DDF828900D
:1014A000FFF76CFF054694F83D0020286FD1192303
:1014B00001226E492046009501F043FA0028F5D13B
:1014C00094F83C00012862D0012084F83C00206898
:1014D0000168C90703D1016841F00101016020687A
:1014E000016821F400610160222084F83D00102091
:1014F00084F83E0000262664C4F8248067855C4892
:10150000E062608D20852B464A465146204601F018
:1015100038F928B1206C84F83C60042841D04DE0B3
:10152000208D544F68B1012814D00228206801682A
:1015300016D041F4806101602068416980690090A3
:1015400085E02068416981690091016841F400717A
:1015500001607CE02068016821F480610160F0E7AF
:1015600021F4806101602068016841F40061E2E7D4
:10157000032849D801280BD0022817D04B46002257
:1015800039462046009501F0DCF9B8B92AE06AE056
:101590002A464946204601F049FA28B1206C202805
:1015A0000CD00120BDE8F88F206845E04B460022B2
:1015B00039462046009501F0C4F908B10320F1E74F
:1015C0002068016841F40071016020680169606A67
:1015D000421C62620170208D401E2085608D401E7D
:1015E0006085E1E72068016821F48061016020687E
:1015F0000169606A421C62620170208D401E208574
:10160000608D401E6085D1E72A464946204601F09C
:101610000DFA0028C2D120680269606A411C61622B
:101620000270208D401E2085608D401E60852068E0
:101630004169C94349070AD40169606A421C626270
:101640000170208D401E2085608D401E6085208D9C
:1016500000288DD1202084F83D0084F83E6084F875
:101660003C6000209EE702209CE700000200100082
:101670000000FFFF040001002DE9F84F1F469046CF
:101680008A460446DDF82890FFF778FE064694F86F
:101690003D0020287ED1192301224349204600968F
:1016A00001F04FF900287DD194F83C00012879D051
:1016B000012084F83C0020680168C90703D1016853
:1016C00041F0010101602068016821F400610160BE
:1016D000212084F83D00102084F83E000025256478
:1016E000C4F8248067853148E062608D20853346E8
:1016F0004A465146204601F0B3F828B1206C84F8E0
:101700003C5004284CD00DE020684169806900906D
:1017100030E032464946204601F0B9F928B1206C44
:10172000042838D00320BDE8F88F606A411C61624C
:10173000216800780861608D401E6085208D401E04
:1017400080B2208521684A69D24352070BD450B138
:10175000606A421C626200780861608D401E60858C
:10176000208D401E208532464946204601F0C2F8B1
:101770000028D4D1208D0028CBD154F83D0B01682E
:1017800041F400710160202004F81E09E5776577B7
:101790000020C8E706E02068016841F4007101609C
:1017A0000120C0E70220BEE7020010000000FFFF9A
:1017B00000B500680E4987B0884217D14FF44070D9
:1017C0000090122001900120029003200390042039
:1017D000049069460748FFF7F9FC0748016841F49F
:1017E00000110160006800F40010059007B000BD12
:1017F0000054004000040240403802400248816822
:1018000002781144816070471C0000200B4810B51D
:10181000016841F400710160016841F48061016078
:10182000016841F480710160032000F097F8002006
:1018300000F006F800F024F8002010BD003C024043
:1018400070B50D4D04464FF47A712878B1FBF0F075
:101850000A490968B1FBF0F000F09DFC48B9102C72
:1018600007D200222146501E00F058F800206C607C
:1018700070BD012070BD00001C0000202800002069
:101880001F4808B5016841F480410160006800F418
:10189000804000901A48001F016841F080510160AB
:1018A000006800F080500090032000F057F80022FC
:1018B00011466FF00B0000F031F8002211466FF076
:1018C0000A0000F02BF8002211466FF0090000F02A
:1018D00025F800221146501F00F020F80022114682
:1018E000101F00F01BF800221146901E00F016F8A1
:1018F0000022BDE808401146501E00F00FB800005D
:101900004438024000F01F0201219140400980004C
:1019100000F1E020C0F8001170470000F0B40E4B59
:101920001B680C46C3F30223C3F10705042D00D93D
:101930000425191D072901D2002300E0DB1E012622
:1019400006FA05F1491E214099409E40761E164038
:101950003143F0BC01F0F4BA0CED00E0064900F0B0
:10196000070208684FF6FF03184040EA0220034AC6
:1019700010430860704700000CED00E00000FA051D
:101980002DE9F8431748016841F080510160006873
:10199000154F00F08050012600903E64FFF7EEFCEA
:1019A00005464FF47A78114C05E000BFFFF7E6FCDE
:1019B000401B40450DD86068C003F7D57E64FFF733
:1019C000DDFC0546464607E0FFF7D8FC401BB04269
:1019D00002D90320BDE8F88360688003F4D50020B5
:1019E000F8E700004038024000000E42007000405E
:1019F0002DE9F0470E46050065D0DFF81481D8F8D0
:101A00000000F7B200F00F00B04207D288F8007073
:101A1000D8F8000000F00F00B04254D128683D4CC7
:101A2000810712D5400703D5206840F4E0502060BC
:101A30002878000703D5206840F4604020602068C3
:101A4000A96820F0F000084320602878C0072DD056
:101A5000304968680839012812D0022813D00328B9
:101A600011D00968890700292DDA216821F00301C6
:101A700001432160FFF782FC814641F2883A0EE083
:101A800009688903EFE709688901ECE7FFF776FC4D
:101A9000A0EB0901514502D90320BDE8F087206879
:101AA000696800F00C00B0EB810FEFD1D8F800109E
:101AB000404601F00F01B14207D90770006800F0FD
:101AC0000F00B04201D00120E7E72878400705D594
:101AD0002068E96820F4E050084320602878000777
:101AE00006D52068296920F4604040EAC1002060E2
:101AF00000F03CF82168084AC1F30311515CC8406A
:101B0000064908600020FFF79BFE0020C5E70000A3
:101B1000003C024008380240E44C00082800002045
:101B2000014800687047000028000020044805496B
:101B300000680968044AC1F38221515CC8407047BB
:101B40002800002008380240F44C000804480549E9
:101B500000680968044AC1F34231515CC8407047CB
:101B60002800002008380240F44C0008224810B534
:101B7000006810F00C02214815D02149042A11D028
:101B80001D4C241F082A0FD00C2A0CD12268236870
:101B900002F03F025B0221D52068C0F38810A0FB51
:101BA000010120E0084610BD2268236802F03F02D0
:101BB0005B0205D52068C0F38810A0FB010104E09A
:101BC0002168C1F38811A1FB00010023FEF716FB79
:101BD0002168C1F30141491C49000AE02168C1F3B1
:101BE0008811A1FB00010023FEF708FB2168C1F367
:101BF0000271B0FBF1F010BD083802400024F4007F
:101C000040787D012DE9F84F0546DFF828B30078CC
:101C1000ABF10407C007A7F1040451D0DBF80010B2
:101C20005846C1F3810101290FD00168C1F3810138
:101C3000022902D13968490207D40068C0F3810043
:101C4000032809D13868400206D52068800337D5BB
:101C50006868002872D033E06868B0F5803F10D023
:101C6000B0F5A02F206810D020F4803020602068CC
:101C700020F4802020606868A8B1FFF77FFB06464B
:101C80000DE0206840F48030F4E740F480202060CC
:101C9000F7E700BFFFF772FB801B642878D8206845
:101CA0008003F7D50CE0FFF769FB064605E000BFAF
:101CB000FFF764FB801B6428F0D820688003F7D40A
:101CC0002878DFF8749280074FF0000A46D5DBF8D9
:101CD0000010584611F00C0F0FD00168C1F38101BC
:101CE000022902D13968490207D50068C0F3810092
:101CF000032809D13868400206D42068800715D52A
:101D0000E86801281AD111E0E868C0B10120C9F8DB
:101D10000000FFF733FB064605E000BFFFF72EFB90
:101D2000801B0228BAD820688007F7D52068296967
:101D300020F0F80040EAC10020600FE0F7E0C9F8A9
:101D400000A0FFF71BFB064605E000BFFFF716FBF0
:101D5000801B02281CD820688007F7D42878000749
:101D600027D5DFF8D0817548696908F16C0881B121
:101D700001210160FFF702FB064604E0FFF7FEFACF
:101D8000801B022804D8D8F800008007F6D510E0A0
:101D900089E0C0F800A0FFF7F1FA064605E000BFB1
:101DA000FFF7ECFA801B02287DD8D8F800008007E6
:101DB000F6D42878400769D55E484FF000083830DF
:101DC0000068C0000BD45B483830016841F0805196
:101DD000016000684FF0010800F080500090584EFC
:101DE0003068C00511D4306840F480703060FFF76F
:101DF000C5FA009006E000BFFFF7C0FA0099401A4C
:101E0000022850D83068C005F6D54A4EA868683612
:101E100001280FD00528306810D020F00100306074
:101E2000306820F004003060A868B8B1FFF7A6FA67
:101E300000900FE0306840F00100F4E740F004004B
:101E40003060F7E7FFF79AFA0099411A41F28830BB
:101E5000814264D830688007F4D50EE0FFF78EFA2F
:101E6000009007E0FFF78AFA0099411A41F28830A2
:101E7000814254D830688007F4D4B8F1000F05D0FF
:101E80002C483830016821F080510160A869A8B35E
:101E9000DBF80010C1F38101022948D00228C9F8FB
:101EA00060A005D000E03AE0FFF768FA054639E0A7
:101EB000FFF764FA064604E0FFF760FA801B022889
:101EC0002DD820688001F7D4F5E907010843E968B7
:101ED0001C4A490802EB0141AA6841EA8211084301
:101EE000297C40EA0160297D40EA017038600120C8
:101EF000C9F86000FFF742FA054606E015E000BFAA
:101F0000FFF73CFA401B022809D820688001F7D56A
:101F10000BE000BFFFF732FA401B022802D9032072
:101F2000BDE8F88F20688001F4D40020F8E7012094
:101F3000F6E700000838024000004742800E4742A2
:101F4000007000400000FFFF70B5040005D00025C0
:101F5000A56294F8510010B106E0012070BD84F82C
:101F60005050204600F030F8022084F851002068DC
:101F7000016821F040010160D4E901010843D4E97E
:101F800003121143084361690843218B01F4007176
:101F90000843E1690843216A0843A16A08432168AC
:101FA0000860A069042101EA1040616A08432168C1
:101FB00048602068C16921F40061C1616565012044
:101FC00084F85100002070BD00B500680E4987B04C
:101FD000884216D10D480021026842F48052026006
:101FE000006800F480500590A02000900220CDE908
:101FF0000101032003900520049069460448FFF77F
:10200000E5F807B000BD0000003001404438024050
:10201000000002402DE9F84F044690F850000026D9
:10202000994617460D4601280DD04FF0010B84F854
:1020300050B0FFF7A3F9804694F85100B24601284A
:1020400004D0022694E00220BDE8F88F002D7BD05A
:10205000002F79D0032084F85100C4F854A02563E0
:10206000A786E786C4F838A0A4F83CA0A4F83EA050
:10207000C4F844A0C4F840A0A068B0F5004F04D153
:102080002068016841F480410160206801684906C8
:1020900003D4016841F040010160E068B0F5006FD1
:1020A000606804D030B3E08E012823D03EE010B148
:1020B000E08E01281AD135F8021B206805E020685F
:1020C0008168890706D535F8021BC160E08E401E85
:1020D000E0860BE0B9F1000F34D0B9F1FF3F05D035
:1020E000FFF74CF9A0EB080149452BD2E08E002800
:1020F000E5D11EE0216815F8010B087306E02068A1
:102100008168890706D515F8011B0173E08E401E12
:10211000E0860BE0B9F1000F14D0B9F1FF3F05D014
:10212000FFF72CF9A0EB080149450BD2E08E0028FF
:10213000E5D14B46012202212046CDF8008000F077
:1021400020FF10B1032613E011E042464946204625
:1021500000F007FF18B101262020606508E0A068A4
:1021600018B92068C16880680090606D00B10126D0
:1021700084F851B084F850A0304665E74FF0E02174
:102180000428086903D020F004000861704740F07B
:102190000400FAE7704710B5401EB0F1807F01D30C
:1021A000012010BD4FF0E02460610F21601700F0A6
:1021B000C7FE0020A06107202061002010BD10B5DF
:1021C000FFF7E8FF10BD7047704730B590F8382032
:1021D000012A20D0012280F83820022380F83930EB
:1021E00003685C6824F070045C6003685C680D68D8
:1021F0002C435C6003689C6824F080049C60036846
:102200009C6849680C439C6080F83920002180F864
:102210003810084630BD022030BD10B5040003D090
:1022200094F8390010B107E0012010BD002084F8B7
:102230003800204600F00CF8022084F83900211DF7
:10224000206800F07BFF012084F83900002010BDD9
:1022500008B5154A0168154891420ED1016841F050
:10226000020101600068002200F0020000900121DC
:102270001D20FFF753FB1D2010E00D4A914211D1A4
:10228000016841F0080101600068002200F00800C8
:10229000009001213220FFF741FB3220BDE80840C9
:1022A000FFF730BB08BD000000040040403802408A
:1022B000000C00400168CA6842F00102CA60006870
:1022C000016841F001010160002070470168CA689F
:1022D00022F00102CA600068016A41F21112114243
:1022E00007D1016A9210114203D1016821F0010166
:1022F00001600020704770B5044690F8380001284E
:1023000017D0012584F83850022084F8390020685D
:10231000826822F0770222F47F42826008685028A7
:1023200037D00DDC202859D005DC88B3102841D1E6
:1023300051E0022070BD302853D040283AD13FE010
:1023400060282ED070280BD0B0F5805F03D0B0F598
:10235000005F2FD110E02068816821F0070115E0AF
:10236000CB68D1E90121206800F048FF2168886826
:1023700040F0770088601DE0CB68D1E9012120683A
:1023800000F03CFF2068816841F48041816011E0E9
:102390001EE0CA684968206800F0F8FF50212068F4
:1023A00006E0CA684968206801F001F860212068E9
:1023B00000F02EFF84F83950002084F8380070BDFA
:1023C000CA684968206800F0E1FF40212068EFE713
:1023D00000212068ECE710212068E9E7202120682F
:1023E000E6E730212068E3E7704770B504460068EF
:1023F00001694FF00005C943890715D4C168C94375
:10240000890711D4E91E01610120207620688069C6
:102410008007204602D0FFF7E7FF04E000F0EBF86A
:10242000204600F005F9257620680169C94349076F
:1024300017D4C168C943490713D46FF0040101617F
:10244000022020762068806910F4407F204602D068
:10245000FFF7CAFF04E000F0CEF8204600F0E8F8ED
:10246000257620680169C943090716D4C168C943A4
:10247000090712D46FF0080101610420207620685A
:10248000C0698007204602D0FFF7AEFF04E000F0ED
:10249000B2F8204600F0CCF8257620680169C943DF
:1024A000C90617D4C168C943C90613D46FF0100117
:1024B0000161082020762068C06910F4407F204622
:1024C00002D0FFF791FF04E000F095F8204600F0FD
:1024D000AFF8257620680169C943C90708D1C168EA
:1024E000C943C90704D1891E0161204600F0A2F842
:1024F00020680169C943090609D4C168C9430906AE
:1025000005D46FF0800101612046FFF75CFE206872
:102510000169C943490609D4C168C943490605D4BC
:102520006FF040010161204600F096F820680169D3
:10253000C94389060BD4C168C943890607D46FF023
:10254000200101612046BDE87040FFF73DBE70BD2F
:1025500000B50F4B02680020022185B09A4208D1D5
:1025600010220092CDE90110CDE903016946094826
:102570000AE0094B9A4209D101220092CDE90110EB
:10258000CDE9030169460548FEF720FE05B000BD10
:102590000004004000040240000C00400000024023
:1025A00070B5044690F8380001280DD0012584F854
:1025B0003850022084F8390042B1042A0AD0082A8F
:1025C0000CD00C2A11D10DE0022070BD206800F063
:1025D00027FE0AE0206800F04FFE06E0206800F0C9
:1025E0007DFE02E0206800F0A9FE84F8395000204A
:1025F00084F8380070BD704710B5040003D094F81B
:10260000390010B107E0012010BD002084F8380027
:10261000204600F00CF8022084F83900211D2068C3
:1026200000F08CFD012084F83900002010BD7047B7
:1026300070470000064900680968884201D101F02E
:10264000C1BE04490968884201D101F0ADBE70479E
:10265000181F0020DC1E0020704770B5040004D055
:1026600094F83900002510B106E0012070BD84F80F
:102670003850204600F022F8242084F839002068E1
:10268000C16821F40051C160204600F0A3FE20681B
:10269000016921F4904101612068416921F02A011A
:1026A00041612068C16841F40051C160E5632020A8
:1026B00084F8390084F83A00002070BD70B50646F1
:1026C00000681C4986B0884232D11B480025016849
:1026D00041F4003101600068694600F40030059063
:1026E0000C20009002200190012002900320039012
:1026F000072004901148FEF769FD124C1048206035
:102700004FF0006060604020C4E902050001C4E9A8
:1027100004058001A561C4E9075020466562FEF703
:10272000C3FC18B16E2108A000F0ABFF3463A663B0
:1027300006B070BD00440040403802400000024036
:10274000A0600240941F00202E2E2F5372632F751D
:10275000736172742E630000FEE701684A69D24318
:1027600052050CD46FF480624A6104210164002197
:1027700040F8301F2022427301730120704700206F
:1027800070472DE9F84F0446C06A1E4692460D4632
:1027900021680A6842F480620A60042807D0012890
:1027A00005D010F5803F02D0206B112804D120689D
:1027B000016841F4807101604FF001185346002216
:1027C00041462046009600F0BCF8B8BB206908F1ED
:1027D0000109B0F5804F12D00620216800EAD51714
:1027E00047F0F00008613346524608F107012046E1
:1027F00000F0D8F838B1206C04282FD01EE0E8B2E1
:1028000040F001001FE02168E8B2086133465246FB
:102810004946204600F0C6F80028ECD120684169FE
:1028200081690091016841F4807101605346002282
:1028300041462046009600F084F810B10320BDE820
:10284000F88F47F0F1002168086133465246494647
:10285000204600F0A7F80028CDD1F0E70120EEE7F0
:10286000F8B50446C06A1E460D461746042807D030
:10287000012805D010F5803F02D0206B122804D12A
:102880002068016841F480710160134600224FF016
:1028900001112046009600F054F8A0B92069B0F567
:1028A000804F12D00620216800EAD51040F0F000D9
:1028B000086133463A460E49204600F073F838B1B5
:1028C000206C042811D00320F8BD05F0FE0000E0C4
:1028D000E8B221680861064933463A46891F204616
:1028E00000F060F80028EBD1F8BD0120F8BD000031
:1028F0000800010070B516460D4604461AE0204651
:10290000FFF72BFF08B1012070BD681C12D025B164
:10291000FEF734FD801BA8420CD954F8400F40F05C
:10292000200044F8100900202060202161732073EA
:10293000032070BD20684069C0434007DFD40020F9
:1029400070BD2DE9F0471E4690460D460446C1F382
:102950000747DDF8209012E0701C10D02EB1FEF772
:102960000DFDA0EB0900B04209D9002044F8300F5A
:1029700020216173A07320730320BDE8F0872068D5
:10298000012F0AD0806925EA00000004000C06D05F
:1029900000214145E0D00020EFE74069F3E7012145
:1029A000F7E700002DE9F0479A4691460D460446A8
:1029B00000264FF02008C1F307472AE0206840694D
:1029C000C043400512D42068016841F400710160E1
:1029D00021686FF48060486104202064266384F8D5
:1029E0003D8084F83C600120BDE8F087B9F1FF3FED
:1029F0000FD0B9F1000F05D0FEF7C0FCA0EB0A0123
:102A0000494506D944F8306F84F80D8026730320B9
:102A1000EAE72068012F07D0D0F8180025EA000067
:102A20000004000CE0D0C9E74069F7E72DE9F04168
:102A3000002590460E460446202721E04069C04309
:102A4000C0060CD421686FF010004861256425632E
:102A500084F83D7084F83C500120BDE8F0812EB12F
:102A6000FEF78CFCA0EB0800B04209D954F8400FE7
:102A700040F0200044F80409677025700320ECE75B
:102A800020684169C9434906D8D40020E5E770B5FC
:102A900016460D4604461AE02046FFF75EFE08B1D2
:102AA000012070BD681C12D025B1FEF767FC801BA9
:102AB000A8420CD954F8400F40F0200044F8100907
:102AC00000202060202161732073032070BD2068E6
:102AD0004069C0430006DFD4002070BD7FB51548B3
:102AE0001349002401604FF48031C0E9011401252D
:102AF0000461856110490462C0E90A14C460C561BB
:102B000045610463FEF714F918B149210BA000F0E8
:102B1000B8FD0420CDE90005694602940548FDF79B
:102B20009FFF002803D0532104A000F0AAFD7FBD21
:102B300000200140A01D00200100000F2E2E2F5369
:102B400072632F6164632E63000000007FB5154837
:102B50001349002401604FF48031C0E901140125BC
:102B60000461856110490462C0E90A14C460046309
:102B7000C5614461FEF7DCF818B16C210BA000F0D0
:102B800080FD0095CDE9015469460648FDF768FFD0
:102B9000002803D0762105A000F073FD7FBD000062
:102BA00000210140E81D00200100000F2E2E2F53B0
:102BB00072632F6164632E6300000000094808B54A
:102BC000016841F4001101600068002200F4001067
:102BD000009011461120FEF7A1FEBDE8084011202B
:102BE000FEF790BE303802402DE9F0413C4886B0F7
:102BF0000024016841F080010160016801F080015A
:102C00000591016841F001010160016801F00101D5
:102C10000591016841F002010160016801F00201C3
:102C20000591016841F00401016000682D4E00F03B
:102C30000400059000224FF450713046FEF798FBD7
:102C4000294F002280213846FEF792FBDFF89C8056
:102C5000002240214046FEF78BFB4FF4A07000900D
:102C60000125CDE90154694630460394FEF7AEFADA
:102C70001F480095CDE9010469464046FEF7A6FAD3
:102C800080200090CDE90154694638460394FEF750
:102C90009DFA6802CDE900050220CDE902406946AF
:102CA0003046FEF793FA2020CDE9000469464046FD
:102CB0000294FEF78BFA40200090CDE9015469465A
:102CC00040460394FEF782FA002203210620FEF715
:102CD00025FE0620FEF716FE06B0BDE8F0810000D6
:102CE0003038024000000240000802400004024068
:102CF000000011100E4810B50C4901600D494160EB
:102D000000214FF480428160C0E90312416181617A
:102D1000C1610162FEF738FB002805D0BDE8104014
:102D2000422105A000F0ADBC10BD000000540040E1
:102D3000301E0020A08601002E2E2F5372632F69B3
:102D400032632E6300000000114810B50F49016086
:102D50004FF48271416000218160C1604FF40072C4
:102D60000161C0E905122022C0E9072141628162A8
:102D70000A21C162FFF7E8F8002805D0BDE810403D
:102D8000452104A000F07DBC10BD000000300140D2
:102D9000841E00202E2E2F5372632F7370692E63B2
:102DA0000000000010B524488EB02249016042F2B4
:102DB00027310024C0E901146321C0E90314FFF79F
:102DC0002CFA18B140211DA000F05BFC4FF480509C
:102DD000079007A91848FFF78EFA18B1462117A0E7
:102DE00000F04FFC1448FFF707FC18B14B2113A06B
:102DF00000F047FC0B940BA90F480C94FFF7E5F982
:102E000018B152210DA000F03CFC02200094CDE945
:102E100001400022694608480494FFF7C1FB18B13D
:102E20005B2106A000F02DFC0348FFF791FB0EB0DC
:102E300010BD000000040040DC1E00202E2E2F5389
:102E400072632F74696D2E630000000010B5234873
:102E50008EB02149016041F293110024C0E90114B0
:102E60006421C0E90314FFF7D8F918B16F211CA041
:102E700000F007FC4FF48050079007A91748FFF7B0
:102E80003AFA18B1752116A000F0FBFB1348FFF7C2
:102E9000B3FB18B17A2112A000F0F3FB0B940BA93D
:102EA0000E480C94FFF791F918B181210CA000F0A5
:102EB000E8FB0094019402940022694607480494B8
:102EC000FFF76EFB18B18A2105A000F0DAFB03487A
:102ED000FFF73EFB0EB010BD000C0040181F002095
:102EE0002E2E2F5372632F74696D2E630000000025
:102EF0000D4810B50B4901604FF4E13141600021EC
:102F000081600C22C160C0E904128161C161FFF7D8
:102F1000A4FB002805D0BDE81040442103A000F028
:102F2000B0BB10BD00440040541F00202E2E2F5374
:102F300072632F75736172742E630000FEE7704731
:102F40000907090E002806DA00F00F0000F1E02062
:102F500080F8141D704700F1E02080F800147047DD
:102F6000704738B50B46009204460022802100F0DD
:102F700008F8002804D0606D40F020006065032050
:102F800038BD2DE9F0411D4617460E460446DDF8D2
:102F9000188035E0681C33D02DB1FEF7EFF9A0EBB7
:102FA0000800A8422CD32068416821F0E00141606C
:102FB0006068B0F5827F0BD1A068B0F5004F02D0F9
:102FC000B0F5806F04D12068016821F040010160F4
:102FD000A06AB0F5005F0AD1206801684DF6FF7263
:102FE000114001602068016841F400510160012036
:102FF00084F85100002084F850000320BDE8F081DF
:103000002068806836EA000004D00020B842C1D1B0
:103010000020F3E70120F9E7704710B5FEF7EEFB5B
:10302000BDE81040FFF7CBB830B5274893B0002576
:10303000016841F080510160006800F080501290FA
:103040002248016841F4404101600068022400F414
:1030500040401290012003901020049000940694A8
:103060000820CDE90750B420CDE909040B94684647
:103070000C94FEF7C7FD00B1FEE7FEF781FC00B13E
:10308000FEE70DA90F2081E831004FF4A050109009
:103090004FF48050119005210DA8FEF7A9FC00B156
:1030A000FEE7FEF73DFD4FF47A71B0FBF1F0FFF75C
:1030B00072F80420FFF762F800221146501EFEF756
:1030C0002DFC13B030BD00004038024000700040BD
:1030D0001048016841F4700101600F48016841F037
:1030E000010101600C4A00210832116002680B4B9B
:1030F0001A400260031D0A4A1A60026822F4802204
:10310000026005480C3001600249580680390860A9
:103110007047000088ED00E000380240FFFFF6FE37
:10312000103000240148FFF760B90000DC1E0020C9
:103130000148FFF75AB90000181F0020F0B50268D7
:10314000234B244D244E254F254C4FF0804C984264
:1031500009D0604507D0A84205D0B04203D0B8429C
:1031600001D0A04204D122F0700E4A6842EA0E0259
:1031700098421BD0604519D0A84217D0B04215D054
:10318000B84213D0A04211D0164DA8420ED0164D11
:10319000A8420BD0154DA84208D0154DA84205D025
:1031A000144DA84202D0144DA84203D122F4407518
:1031B000CA682A4302608A68C2620A6882629842C8
:1031C00001D0A04201D10969016301214161F0BD33
:1031D000000001400004004000080040000C0040D6
:1031E000000401400040014000440140004801400B
:1031F00000180040001C00400020004010B584680A
:1032000042EA032224F47F440A432243826010BD31
:10321000826822F070020A4342F007018160704721
:1032200030B5026A22F001020262026A43688469D0
:103230000D6824F07304254322F002048A682243B7
:103240000B4CA04202D00B4CA0420BD122F0080440
:10325000CA6823F4407322434C6922F004021C43E1
:103260008B6923434360856149684163026230BDD5
:10327000000001400004014030B5026A22F0100253
:103280000262026A436884690D6824F4E64444EAF1
:1032900005248D6822F0200242EA05120D4DA84255
:1032A00002D00D4DA8420ED1CD6822F0800242EA34
:1032B00005124D6923F4406343EA85038D6922F0CA
:1032C000400243EA85034360846149688163026286
:1032D00030BD0000000001400004014030B5026A2A
:1032E00022F480720262036A4268C46923F40073A4
:1032F00024F073050C682C438D6843EA05230D4DBB
:10330000A84202D00C4DA8420ED1CD6823F4006330
:1033100043EA05234D6922F4405242EA05128D69C1
:1033200023F4806342EA05124260C4614968C163C4
:10333000036230BD000001400004014030B5026A64
:1033400022F480520262046A4268C3690D6823F461
:10335000E64343EA05238D6824F4005444EA053427
:10336000084DA84202D0084DA84204D14D6922F46C
:10337000804242EA85124260C36149680164046286
:1033800030BD0000000001400004014010B5036A98
:10339000046A24F001040462846924F0F00444EA1D
:1033A000021423F00A020A438461026210BD10B5C0
:1033B000036A23F0100303628369046A23F47043F1
:1033C00043EA023224F0A00343EA01118261016260
:1033D00010BD00002DE9F04104460068016921F4A8
:1033E0004052E168114301612168C86849F20C62EA
:1033F00090432369A268E5691A4363692B431A4322
:103400000243CA602168486920F44072A0691043F1
:103410004861E1696425B1F5004F9748974A2168F2
:103420004FF032083FD0914201D081427CD1FEF76B
:103430008DFB00EBC00101EB001061688900B0FB5F
:10344000F1F6FEF783FB00EBC00101EB00106168B1
:103450008900B0FBF1F0B0FBF5F06FF018014843C4
:1034600006EB800108EB0110B0FBF5F000F0F00670
:10347000FEF76CFB00EBC00101EB001061688900F6
:10348000B0FBF1F0B0FBF5F006EB0016FEF75EFBCB
:1034900000EBC00101EB001061688900B0FBF1F79F
:1034A000FEF754FBD2E0914201D081423DD1FEF7BC
:1034B0004DFB00EBC00101EB001061684900B0FB5F
:1034C000F1F0B0FBF5F00601FEF740FB00EBC001A8
:1034D00001EB001061684900B0FBF1F7FEF736FB25
:1034E00000EBC00101EB001061684900B0FBF1F096
:1034F000B0FBF5F06FF01801484307EB800108EBD3
:10350000C100B0FBF5F000F0F80006EB4006FEF756
:103510001DFB00EBC00101EB001061684900B0FB2E
:10352000F1F7FEF713FB3CE055E0FEF7FFFA00EB86
:10353000C00101EB001061684900B0FBF1F0B0FB85
:10354000F5F00601FEF7F2FA00EBC00101EB001006
:1035500061684900B0FBF1F7FEF7E8FA00EBC00143
:1035600001EB001061684900B0FBF1F0B0FBF5F031
:103570006FF01801484307EB800108EBC100B0FB76
:10358000F5F000F0F80006EB4006FEF7CFFA00EB8E
:10359000C00101EB001061684900B0FBF1F7FEF7D4
:1035A000C5FA00EBC00101EB001061684900B0FBF7
:1035B000F1F0B0FBF5F06FF01801484307EB800124
:1035C00008EBC100B0FBF5F000F0070021683044C3
:1035D0008860BDE8F081FEF7A9FA00EBC00101EBBD
:1035E000001061688900B0FBF1F6FEF79FFA00EB6E
:1035F000C00101EB001061688900B0FBF1F0B0FB85
:10360000F5F06FF01801484306EB800108EB01105C
:10361000B0FBF5F000F0F006FEF788FA00EBC00111
:1036200001EB001061688900B0FBF1F0B0FBF5F030
:1036300006EB0016FEF77AFA00EBC00101EB001072
:1036400061688900B0FBF1F7FEF770FA00EBC0018A
:1036500001EB001061688900B0FBF1F0B0FBF5F000
:103660006FF01801484307EB800108EB0110B0FB35
:10367000F5F000F00F00A9E7001401400010014030
:10368000FEE7FEE70FB4084B10B504A902AA0398A1
:1036900000F0DEF8044602A9002000F070FC20468D
:1036A00010BC5DF814FB00007F3F000802E008C872
:1036B000121F08C1002AFAD170477047002001E0AC
:1036C00001C1121F002AFBD1704700002DE9FF5FE6
:1036D00082B00021DDE90430020DDDF840B0034383
:1036E00018D044F61050A2F2FF324243151411983C
:1036F00001281FD0A5EB0B00401C5FEA000A4FF029
:1037000000064E4FDFF83891B046504615D5CAF145
:10371000000413E0119801244AA3012801D16FEAA3
:103720000B010298119AC0E90031C0E9024206B0CB
:10373000BDE8F09FCBF10000DFE704460021404ADE
:10374000491842EB0450CDE9001012E0E00707D021
:1037500032463B4640464946FCF7A6FE804689462F
:1037600032463B4610461946FCF79EFE06460F467B
:103770006410002CEAD1DDE90401DDE90023BAF18F
:10378000000F06DAFCF790FE42464B46FCF78CFE33
:1037900005E0FCF7FBFE42464B46FCF7F7FE04460D
:1037A0000E460022284BFCF78BFD03D84FF0FF306C
:1037B000014607E00022254B20463146FCF7CDFDAF
:1037C000FCF753FF102409E0002C0ADB0A22002337
:1037D000FCF714FD039B30321A55641E50EA0102B7
:1037E000F2D1641C039AC4F111031444119A012A02
:1037F00003D0012208430DD10AE0084304D0002081
:103800004FF0110B119072E7A3EB0B056D1E0DE04D
:103810005B4504DD4FF0000205F1010504E003DA29
:103820004FF00002A5F10105002AECD00298119991
:10383000C0E90231C0E9004579E70000000014400A
:103840000000F03F300000000000F0430000E03FC7
:103850002DE9FF4F95B09B468946064600250FE2AD
:10386000252877D100242746F84A0121059400E055
:10387000044316F8013F203B01FA03F01042F7D150
:1038800030782A2811D06FF02F033078A0F1300261
:10389000092A16D8059A44F0020402EB820203EBCF
:1038A00042021044761C0590EFE759F8042B05926C
:1038B000002A03DA504244F40054059044F0020414
:1038C000761C30782E2816D116F8010F44F0040427
:1038D0002A280DD06FF02F023078A0F13003092B89
:1038E00009D807EB870302EB4303C718761CF3E7FD
:1038F00059F8047B761C30786C280FD006DC4C28F5
:1039000017D068280DD06A2814D104E0742810D08C
:103910007A280FD10DE044F400140AE044F4801436
:1039200001E044F440147278824202D104F580141C
:10393000761C761C307866280BD013DC582877D09C
:1039400009DC002875D04528F6D04628F4D0472851
:103950001AD19DE118E0632835D0642879D0652814
:1039600012D195E1702873D008DC6728F1D069285E
:103970006FD06E280DD06F2806D1B5E073282CD0FB
:10398000752875D0782874D05A46179990476D1CC1
:1039900075E1C4F30250022809D003280DD0D9F8EC
:1039A000001004280DD00D6009F1040967E1D9F871
:1039B0000010EA17C1E90052F6E7D9F800100D80AF
:1039C000F2E70D70F0E719F8041B8DF800100020E5
:1039D0008DF80100EA46012003E059F804AB4FF0EE
:1039E000FF3061074FF0000102D40DE008F1010142
:1039F0008846B9420FDA8045F8DB1AF8081000292A
:103A0000F4D108E008F1010188468142FADB1AF896
:103A100008100029F6D105985B46A0EB080721465F
:103A20003846179A00F094FA284400EB080507E09E
:103A30004DE029E10DE01AF8010B5A46179990471D
:103A4000B8F10108F7D25B4621463846179A13E1D0
:103A500042E00A220092C4F302524FF0000A022A06
:103A600008D059F804CB032A4FEAEC710AD00DE0D4
:103A700029E02AE009F1070121F00702F2E802C17A
:103A8000914609E00FFA8CFC4FEAEC71042A03D14D
:103A90004FFA8CFC4FEAEC71002907DA0A46002144
:103AA000DCF1000C61EB02012D2202E0220504D5BD
:103AB0002B228DF80420012203E0E20701D020220E
:103AC000F7E7904659E00A2102E010220DE01021AC
:103AD0004FF0000A00910BE010224FF0000A44F072
:103AE00004040827009203E008224FF0000A009225
:103AF000C4F30252022A05D059F804CB0021032A4C
:103B000008D009E009F1070121F00702F2E802C13B
:103B1000914605E01FFA8CFC042A01D10CF0FF0C41
:103B20004FF00008220728D5702806D0009B83F0AC
:103B3000100353EA0A0305D00EE040228DF804205A
:103B4000012208E05CEA010206D030228DF8042050
:103B50008DF8050002229046009B83F0080353EA8B
:103B60000A030AD15CEA010201D1620705D53022BD
:103B70008DF804204FF001087F1E582804D034A08F
:103B800003900EA802900DE036A0F9E75346604678
:103B9000009AFCF733FB84460398825C0298401E2F
:103BA000029002705CEA0100F0D1029806A9081A9E
:103BB00000F1200A600702D524F4803400E00127D8
:103BC000574502DDA7EB0A0000E0002000EB0A01E8
:103BD000009005984144401A0590E00306D45B46E6
:103BE0002146179A059800F0B3F90544002706E02E
:103BF00001A85A46C05D179990476D1C7F1C474528
:103C0000F6DBE0030CD55B462146179A059800F0D9
:103C10009FF9054404E030205A46179990476D1CDF
:103C20000099481E00900029F5DC08E002980299EE
:103C30005A460078491C0291179990476D1CBAF1B9
:103C40000001AAF1010AF1DC65E100000928010088
:103C50003031323334353637383961626364656602
:103C600000000000303132333435363738394142C4
:103C7000434445460000000000F058F90544761C16
:103C8000307800287FF4ECAD19B02846BDE8F08FFD
:103C9000620700D4062709F1070222F0070CFCE8AE
:103CA0000223E14603F000485FEA080C02D00FF25D
:103CB000702C0DE05FEA045C02D50FF2682C07E07F
:103CC0005FEAC47C02D00FF2602C01E0AFF2700C0E
:103CD0004FF0FF3823F00043CDF850C065280CD0DA
:103CE00006DC452809D046281DD047283DD13DE0B7
:103CF000662818D067287ED138E00021112F01DB1B
:103D0000112000E0781CCDE9000106A90EA8FFF7FC
:103D1000DDFCDDE90F010E9A03910021009207F10D
:103D2000010A04914DE04FF000400097CDE90110E9
:103D300006A90EA8FFF7CAFCDDE90F0203920E9B4D
:103D400011990022DDF80CA00093049211B9791C9E
:103D500000EB010AB7EB0A0004D4C0F1FF3007F111
:103D6000010A0490AAEB0700019044E0012F00DA59
:103D700001270021112F01DD112000E03846CDE997
:103D8000000106A90EA8FFF7A1FCDDE90F010E9ABC
:103D90000391002104910092BA4621070CD40399A3
:103DA000514500DA8A46BAF1010F05DD009AAAF101
:103DB0000101515C302908D0B84202DA10F1040F39
:103DC00006DA0121CDE9011015E0AAF10101E9E7C8
:103DD000002805DC049901440491AAEB000102E0EB
:103DE000411C514500DD8A460499401A401C01904F
:103DF0004FF000400290200704D40198504501DBA9
:103E0000CDF8048000208DF84F0002980DF14F0787
:103E1000B0F1004F25D02B200E9002984FF00208F1
:103E200000280CDA404202902D200E9007E00A2173
:103E30000298FCF75DFA3031029007F8011DB8F1E5
:103E40000001A8F10108F2DC02980028EFD1791EE8
:103E50000E980870307800F0200040F0450007F818
:103E6000020D12A8C01B00F107081498007800B1D9
:103E7000012000EB0A01019801EBE0710598414433
:103E8000401A401E0590E00306D45B462146179A6F
:103E9000059800F05DF805441498007818B15A466A
:103EA000179990476D1CE00324D55B462146179A6D
:103EB000059800F04DF805441CE00498002807DB45
:103EC000DDE90301884203DD0098405C179901E0B9
:103ED000179930205A469047049805F10105401C77
:103EE00004900198401E019004D12E205A46179943
:103EF00090476D1CBAF10001AAF1010ADDDC05E072
:103F000017F8010B5A46179990476D1CB8F100013C
:103F1000A8F10108F4DC5B462146179A0598ABE648
:103F20002D0000002B000000200000002DE9F041D2
:103F3000044600251E461746880404D405E0394689
:103F40002020B0476D1C641EF9D52846BDE8F081DD
:103F50002DE9F041044600251E469046C80301D5D0
:103F6000302700E02027880404D505E04146384684
:103F7000B0476D1C641EF9D52846BDE8F0810A687B
:103F8000531C0B6010707047074900B5496800204A
:103F90000A2907D3054890ED020A80ED010A00F0D6
:103FA0007DF8012000BD0000000000202C00002052
:103FB00002484068002800D001207047100000200F
:103FC00002488068002800D00120704710000020BF
:103FD00080F0010240210148FDF7CAB90004024007
:103FE00000219FED070A416080ED000A9FED050A60
:103FF00000EB8102491C82ED020A0529F8D37047C3
:1040000000009643000070420021416241619FED33
:10401000080A816180ED070A80ED080A4FF44872B2
:1040200000EB8103491C83ED0A0A9142F8D37047E3
:104030000000000000B500F031F85DF804EB00F07E
:1040400001B80000124800219FED120A01701248C9
:1040500080ED000A80ED020A80ED030A80ED050A7A
:1040600080ED260A80ED470AC161C0F8A010C0F8B3
:10407000241100BF00EB8102491C82ED080A82ED89
:10408000290AC9B282ED4A0A1E29F3D370470000FB
:1040900000000020000000002C0000200E4800213D
:1040A0009FED0F0A41600D48C0F8A01180ED690A2C
:1040B00080ED6A0AC0F8D41180ED760A80ED770AA7
:1040C00000EB8102491C82ED6B0AC9B282ED780ACD
:1040D0000A29F5D370470000000000202C000020C2
:1040E000000000008268D0ED000A00EB8201521C43
:1040F00091ED031A70EEC10A70EE800AC0ED000A5D
:10410000826081ED030A81681E2901DB0021816044
:10411000D0ED000AB3EE0E1A80EE810A704700005F
:1041200010B50849044600204968032909D3064808
:10413000D0F8DC01FCF7B1F8C4E90001FFF7AEFFED
:10414000012010BD000000202C0000202DE9F041CE
:104150000026C8273546F6EE081A214C9FED210AA5
:1041600003E000BF80ED0A0A6D1C04EB8500D0ED72
:104170000A0AF5EEC00AF1EE10FAF3DC18484FF423
:1041800048784146283000F0B5FA00204346002226
:1041900000F128010DE000BF04EB800C9CED0A0A41
:1041A000B4EEE10AF1EE10FA02DD0AB90122761C42
:1041B000401C8842F0DB08469942E8DBC5F54870B0
:1041C00090FBF7F096FBF0F0C0EB0010800000EEE3
:1041D000100A0548B8EEC00A80ED010ABDE8F0817A
:1041E0003402002000000000080000201CB50BA0D5
:1041F0000A2400680223CDE9004001AA982108485A
:10420000FDF73AFA02230DF10602982104480094C2
:10421000FDF732FAFFF70EFF1CBD00000700070193
:10422000301E002000B511488AB000F110010DF1D8
:104230000C0C0EC98DE80E00F0E80712CDE906124D
:104240000EC88CE80E0050E90810CDE9081008AA45
:1042500003A9074800F0F8FA06AA6946054800F0E5
:10426000F3FA0548FFF7BCFE0AB000BD204900087C
:1042700034020020DC0E0020841B0020054900B51C
:10428000002008700448FFF7BFFE04485DF804EB07
:10429000FFF7BABE0800002034020020DC0E002028
:1042A00070B50D460446FEF723FEFEF787FC064870
:1042B000C0E90145FFF77CFE20B1FFF781FE08B1A0
:1042C000012070BD002070BD1000002010B5FEF769
:1042D0003BFD00F08BF8BDE8104000F079B80021FC
:1042E0000160416081600173704700009FED121A08
:1042F000D0ED011A61EE810A70EE611A21EE811A89
:10430000F6EE001A41EE210A90ED021A31EE201A63
:1043100080ED021A016800EB8102491C0160C2EDC8
:10432000030A01680A2901DB0021016080ED010A0E
:1043300090ED020A70470000CDCCCC3D9FED181ADD
:10434000D0ED011A61EE810A70EE611A21EE811A38
:10435000F6EE001A41EE210AF5EEC00AF1EE10FA6F
:1043600001D2F1EE600A90ED021A31EE201A80EDD2
:10437000021A016800EB8102491C0160C2ED030AC8
:1043800001680A2906DB0021016006490A6842F03B
:1043900001020A6080ED010A90ED020A70470000F8
:1043A000CDCCCC3D103C01400449012008700448AC
:1043B0000068016901F0FE01016170470000002002
:1043C000DC1E00200148FCF717BD0000A01D0020E6
:1043D00000200549024600BF41F82020401CC0B221
:1043E0008028F9D370470000A01B002010B5FFF70C
:1043F000EFFF0020FFF7ECFD154C00224021204686
:10440000FCF7B6FF0120FCF7B9FE0122402120464F
:10441000FCF7AEFF0120FFF7DBFDA02000F000FA63
:10442000AE2000F0FDF9C82000F0FAF9A22000F05B
:10443000F7F92F2000F0F4F9212000F0F1F92820FD
:1044400000F048F8BDE81040AF2000F0E9B90000E6
:10445000000002402DE9F04F8346203A1C481E46DA
:104460008A4602F0FF09002580462AE0002408EB76
:10447000460720E018F8161011FB09F01449143112
:104480002944405C0121A140084209D0099880F0EC
:1044900001020AEB0500C1B20BEB0400C0B206E05A
:1044A0000AEB0500C1B20BEB0400C0B2099A00F0A0
:1044B0001FF8641CE4B279784046A142DAD86D1C3A
:1044C000EDB210F81610A942D0D8BDE8F08F000068
:1044D0004849000810B504463F2807D8812000F05D
:1044E0009FF92046BDE8104000F09AB910BD0000C9
:1044F00010B580280CD220290AD2064C01238B400B
:1045000054F820100AB1194300E0994344F82010F0
:1045100010BD0000A01B00202DE9F8431D00DDF8B0
:10452000208014468946064611D10A4800EB45070B
:104530000AE02B4649463046CDF80080FFF78AFF57
:104540007878641C3044C6B22278002AF1D1BDE8E4
:10455000F88300004849000870B50E4E002400BFE3
:1045600004F1B000C0B200F05BF9102000F058F97F
:10457000002000F055F9002506EB8500005D00F0F5
:104580003BF96D1CEDB2802DF6D3641CE4B2042C13
:10459000E6D370BDA01B00208EB0142101A8FBF74C
:1045A00065FE9FED440A8DED080AFDF72FF9FEF731
:1045B0003BFDFEF719FBFEF701FBFEF7C5FBFEF71F
:1045C00097FCFEF7C3FAFEF789FAFEF7EBFBFEF75E
:1045D0003DFCFEF78FFB012251023748FCF7C8FE75
:1045E000012280213548FCF7C3FE09A8FFF777FEBA
:1045F000334909A8FFF754FEFFF768FEFFF712FEE4
:1046000000F050F9FFF7F2FD00F034F9FFF7E0FE9B
:10461000002423462BA20A2102200094FFF77CFFEE
:10462000FFF79AFF6420FCF7A9FDFFF7D1FE00BF5A
:1046300000F082F808A800F03FF9C8B19DED080A23
:1046400022A101A8BCEEC00A10EE102AFFF71AF84A
:10465000002320A2052102200094FFF75DFF002324
:1046600001AA052102200094FFF756FFFFF774FF0F
:1046700006A8FFF755FD0028DAD09DED060B17A11F
:1046800053EC102B01A8FEF7FDFF16A101A8FBF7C4
:10469000F8FD002314A2142102200094FFF73CFF30
:1046A000002301AA142102200094FFF735FFFFF731
:1046B00053FFBDE700000000000002400008024078
:1046C000541F0020205374617274200048523A2015
:1046D000256400002020202020202000593A202599
:1046E0002E3566006700000020202020202020209A
:1046F000202000009FED0F0A00220BE000EB820358
:10470000D3ED000AF4EEC00AF1EE10FA01DDB0EECE
:10471000600A521C8A42F1DB002208E000EB8203AF
:10472000521CD3ED000A80EE801A83ED001A8A42F3
:10473000F4DB7047003C1CC67CB5274D2C78E4B3F5
:1047400000260A20CDE9000601233246982123489D
:10475000FCF792FF90BB64200090032301AA9821EC
:104760001E48FCF795FE48BB9DF804001C4BC10990
:1047700007D100F0B9F81A481430FFF7B3FC83ED05
:10478000000A9DF80500C1090BD100F0ADF81448EE
:104790009830FFF7A7FCD3ED010A30EE600A83EDF5
:1047A000020A9DF80600C10906D100F09DF80D48E7
:1047B000FFF798FC83ED030A01E00BE009E00948EC
:1047C00093ED020A8430FFF791FD0648B830FFF7F9
:1047D000B5FD2E7020467CBD00000020301E00205C
:1047E0002C0000204801002002464FF4807101484F
:1047F000FCF7BEBD0000024001B50120FFF7F4FF49
:104800000120FFF7E5FB01231A4669460348FDF73F
:1048100001FC0020FFF7DCFB08BD0000841E002027
:1048200001B50020FFF7E0FF0120FFF7D1FB0123D6
:104830001A4669460348FDF7EDFB0020FFF7C8FB69
:1048400008BD0000841E002091ED000A80ED000AE2
:1048500091ED010A80ED010A91ED020A80ED020A54
:1048600092ED000A80ED030A92ED010A80ED040A40
:104870007047000010B50848FDF71CFD08489FED83
:10488000070A80ED010A01E0FFF756FFFFF77CFB06
:104890000028F9D010BD0000DC1E00200000000040
:1048A0002C00002010B5FFF7E9FCBDE810400148DE
:1048B000FDF700BD181F002070B5094D0646002405
:1048C000287858B1FFF742FC0648FCF753F886ED0C
:1048D000000A002028700124FFF7E4FF204670BD85
:1048E00008000020841B002000EE100A9FED0A1A29
:1048F0001F28F8EE400A80EE810A0BD9C043401C05
:1049000000F01F0000EE100A9FED041AF8EE400AB6
:1049100080EE810A70470000D7A3AA41D7A3AAC19D
:10492000BC5B71BF1CAAAA3E27AAE3BF4A014D3F48
:10493000A3F2C73DA3F2473EA3F2C73D6615653F0C
:104940006615E5BF6615653F080618101D001D00B9
:104950001D001D0002060E1E0E06020000000000D3
:104960000000000004040404040004000A0A0A0011
:10497000000000000A0A1F0A1F0A0A00041E050E92
:10498000140F04000313080402191800020505029D
:10499000150916000C0C04020000000008040202B5
:1049A0000204080002040808080402000004150EAE
:1049B0000E1504000004041F0404000000000000A1
:1049C0000C0C04020000001F0000000000000000AA
:1049D000000C0C0000100804020100000E11131559
:1049E00019110E000406040404040E000E11100E2A
:1049F00001011F001F10080C10110E00080C0A09FD
:104A00001F0808001F010F1010110E001C02010FDB
:104A100011110E001F101008040201000E11110EDA
:104A200011110E000E11111E1008070000000400E5
:104A30000400000000000400040402001008040246
:104A40000408100000001F001F00000002040810EE
:104A5000080402000E11100C040004000E11151DB4
:104A60000D011E00040A11111F1111000F11110F69
:104A700011110F000E11010101110E000F11111182
:104A800011110F001F01010F01011F001F01010F74
:104A9000010101001E11010119111E001111111F48
:104AA000111111000E04040404040E001C0808086F
:104AB000080906001109050305091100010101019A
:104AC00001011F00111B15151511110011111315EE
:104AD000191111000E11111111110E000F11110FEA
:104AE000010101000E111111150916000F11110F0E
:104AF000050911000E11010E10110E001F150404FE
:104B0000040404001111111111110E0011111111E1
:104B1000110A04001111111515150A0011110A04CA
:104B20000A11110011110A04040404001F10080ED8
:104B300002011F001E02020202021E000001020406
:104B4000081000001E10101010101E00040A1100A2
:104B5000000000000000000000001F00060604081E
:104B600000000000000006080E091E0001010D13E0
:104B700011130D0000000E1101110E001010161976
:104B80001119160000000E111F010E000814040E6A
:104B90000404040000000E191916100E01010D1373
:104BA000111111000400060404040E000800080896
:104BB00008090600010109050305090006040404AB
:104BC00004040E0000000B151515150000000D1350
:104BD0001111110000000E1111110E0000000D1333
:104BE000130D0101000016191916101000000D1305
:104BF0000101010000001E010E100F0004041F043B
:104C00000414080000001111111916000000111100
:104C1000110A04000000111115150A000000110A04
:104C2000040A1100000011111E10110E00001F08CF
:104C300004021F0008040402040408000404040021
:104C4000040404000204040804040200021508001D
:104C500000000000000000000000000000000C1236
:104C6000120C000000000C1E1E0C000000001E12A2
:104C7000121E000000001E1E1E1E000000000C0C74
:104C8000121E000000000C0C1E1E000000001E1270
:104C90000C0C000000001E1E0C0C0000000018167A
:104CA000161800000000181E1E1800000000061A4A
:104CB0001A0600000000061E1E06000000000C126E
:104CC000120C000000000C1E1E0C000000001E1242
:104CD000121E000000001E1E1E1E00000006101600
:104CE000000610160000000000000000010203048E
:104CF0000607080900000000010203041C4D00081B
:104D0000000000202C000000AC360008484D0008D0
:104D10002C000020CC230000BC360008000000005E
:104D20000000000000000000000000000000000083
:104D30000000000000000000010000001000000062
:084D4000000000000024F40053
:04000005080001C529
:00000001FF
