:020000040800F2
:1000000048070020D90100086F230008B91E000826
:100010006D23000801040008052C00080000000002
:10002000000000000000000000000000492400085B
:100030009904000800000000912300084B240008E8
:10004000F3010008F3010008F3010008F3010008C0
:10005000F3010008F3010008F3010008F3010008B0
:10006000F3010008F3010008F3010008F3010008A0
:10007000F3010008F3010008F3010008F301000890
:100080000504000811040008C1020008F30100087B
:10009000F3010008F3010008F3010008F301000870
:1000A000F3010008F3010008F3010008F301000860
:1000B000F301000855250008F3010008F3010008CA
:1000C000F3010008F3010008F3010008F301000840
:1000D000F3010008F3010008CD2B0008F30100082C
:1000E000F3010008F3010008F3010008F301000820
:1000F000F3010008F3010008F3010008F301000810
:10010000F3010008F301000861250008F30100086D
:10011000F3010008F3010008F3010008F3010008EF
:10012000F3010008F3010008F3010008F3010008DF
:10013000F30100080000000000000000F3010008C7
:10014000F3010008F3010008F3010008F3010008BF
:10015000F3010008F3010008F3010008F3010008AF
:10016000F3010008F3010008F3010008F30100089F
:10017000F3010008F3010008F3010008000000008B
:1001800000000000F3010008000000000000000073
:10019000F30100080000000000000000F301000867
:1001A000000000000000000000000000F301000853
:1001B000F3010008F3010008F3010008F30100084F
:1001C000F3010008DFF80CD000F068F800480047A1
:1001D000292C0008480700200648804706480047A9
:1001E000FEE7FEE7FEE7FEE7FEE7FEE7FEE7FEE7E7
:1001F000FEE7FEE701250008C50100082DE9F05FD4
:100200000546002092469B46884606468146402485
:100210001BE0284641464746224600F02FF8534649
:100220005A46C01A914110D311461846224600F092
:1002300016F82D1A67EB01084F46224601200021CF
:1002400000F00DF817EB00094E41201EA4F1010447
:10025000DFDC484631462A464346BDE8F09F202A67
:1002600004DB203A00FA02F1002070479140C2F10D
:10027000200320FA03F3194390407047202A04DB3F
:10028000203A21FA02F00021704721FA02F3D0400F
:10029000C2F120029140084319467047064C074DB1
:1002A00006E0E06840F0010394E807009847103446
:1002B000AC42F6D3FFF78AFFD42D0008F42D0008D6
:1002C00010B5044800F0BAF9BDE81040024800F04B
:1002D000B5B900003000002078000020454910B575
:1002E0004A6822F440324A604A6843681A434A60C6
:1002F00001684A6822F480724A6001684A680369AA
:1003000042EA03224A6001684A6822F040724A6069
:1003100001684A6883681A434A6001688A6822F45F
:1003200000628A6001688A68C3681A438A60816AC9
:100330006FF07062D14201688A6822F070628A6050
:1003400001688A680CD0836A1A438A6001688A68E7
:1003500022F040528A6001688A68C36A1A4301E049
:1003600022F040528A6001688A6822F002028A60A4
:1003700001688A68836942EA43028A60016A002947
:1003800001684A680FD042F400624A6001684A6816
:1003900022F460424A6001684A68174C436A04EBE1
:1003A00043331A4301E022F400624A600168CA6ADA
:1003B00022F47002CA620168CA6A838B0F4C04EB94
:1003C00003531A43CA6201688A6822F400728A6081
:1003D00001688A68036B42EA43228A6001688A687E
:1003E00022F480628A6001688A68406942EA80205B
:1003F000886010BD0023014000E0FFFF0000F0FF17
:10040000FEE70000014800F033BA0000DC020020E3
:10041000014800F02DBA00007C020020016818237A
:10042000CAB2103AB2FBF3F2054B6FF30901032A8B
:100430009B5CC36500D9091D8165084670470000B3
:10044000B42D000810B5014600208B698A6A4FF070
:10045000C07453B1B3F5005F15D072B1012A0CD04E
:10046000022A0AD0032A09D104E01AB1012A06D0CF
:10047000022A03D1C96AC90100D5012010BDC96A89
:10048000A142FAD010BD002AF7D0012AF2D0022AE8
:10049000F3D0032AF3D010BD70470022AFF30080E1
:1004A00030B50E4B054601205C7A002C14D1587AE9
:1004B0001C54587A03EB800045605D7A03F1080014
:1004C0002A54587A421C5A72303008703A204870C8
:1004D0002F208870CC70002030BD00003C0300202D
:1004E0007047000078B50024009490F83C20012A61
:1004F00019D0012280F83C200A6807230568092AE0
:1005000013D9EE680A3A02EB420293409E43EE6032
:100510000A788B680A3A02EB420293400268D56877
:100520002B43D36010E0022078BD2E6902EB42021B
:1005300093409E432E610A788B6802EB42029340FF
:10054000026815692B4313614A681F23072A13D2D7
:1005500005686E6B521E02EB820293409E436E63EF
:100560000B790A885B1E92B203EB83039A400368FF
:100570005D6B2A435A6327E005680D2A12D22E6B61
:10058000D21F02EB820293409E432E630B790A88AE
:10059000DB1F92B203EB83039A4003681D6B2A436F
:1005A0001A6311E0EE6A0D3A02EB820293409E4319
:1005B000EE620B790A880D3B92B203EB83039A40FB
:1005C0000368DD6A2A43DA62174B0568154A9D42C3
:1005D00006D10D68122D03D1556845F4800555608C
:1005E00005689D4219D1114D0B68AB4201D0112B0A
:1005F00013D1536843F4000353600968A9420CD136
:100600000B490C4A0968B1FBF2F101EB8101490089
:1006100000E0491E00910029FBD180F83C400020F9
:1006200078BD0000002301400020014012000010AE
:100630002C00002040420F007047704770B5044600
:10064000006801684268C1F34001C2F3401251B32F
:100650004AB3216CC90603D4216C41F400712164B2
:10066000816811F0405F17D1A169A9B9C16A11F47D
:10067000700F02D0816849050ED4416821F0200135
:100680004160206C20F480702064206CC00403D48E
:10069000206C40F0010020642046FFF7CDFF216868
:1006A0006FF012000860206801684268C1F38001A1
:1006B000C2F3C01289B382B3216CC90603D4216C82
:1006C00041F400512164816811F4401F1ED1816BF7
:1006D00011F4401F02D08168490517D441684905CB
:1006E00014D4816811F0405F10D1A16971B94168DB
:1006F00021F080014160206C20F480502064206C47
:10070000C00503D4206C40F0010020642046FFF7B0
:10071000E7FE21686FF00C000860206801684268FD
:1007200011F0010FC2F380120ED06AB10068C00749
:100730000AD0206C40F480302064204600F046F857
:1007400021686FF001000860206801684268C1F309
:100750004011C2F3806200290DD0002A0BD0616CD9
:1007600041F0020161646FF0200505602046FFF74B
:1007700064FF2068056070BD70B504004FF000058F
:1007800003D0206C002610B107E0012070BD666424
:1007900084F83C60204600F01BF8206CC00610D4A2
:1007A000206C20F4885040F0020020642046FFF7BF
:1007B00095FD6664206C20F0020040F0010020648A
:1007C00000E0012584F83C60284670BD70470000B9
:1007D00030B5194D0468002118480222032387B060
:1007E000AC420DD1046844F4807404600068009247
:1007F00000F480700590CDE90131694610480FE0A2
:10080000104DAC4216D1046844F4007404600068D2
:10081000009200F400700590CDE9013169460A4864
:1008200000F072F900220121122000F085FB122055
:1008300000F076FB07B030BD002001404438024094
:1008400000040240002101400000024090F83510F1
:10085000022903D08021416501207047052180F8DD
:1008600035100068016821F0010101600020704727
:100870002DE9F84304464FF00009CDF80090634895
:100880004FF41651A56D0068B0FBF1F72E6894F88F
:100890005C10082000FA01F131420FD021680A688B
:1008A00052070BD50A6822F004020A6094F85C1023
:1008B0008840A860606D40F00100606594F85C10AD
:1008C0004FF0010808FA01F0304208D02168496968
:1008D000090604D5A860606D40F00200606594F8D8
:1008E0005C1004208840304208D0216809688907DC
:1008F00004D5A860606D40F00400606594F85C1059
:1009000010208840304218D021680968090714D5A2
:10091000A86020680168490304D50068000308D571
:10092000A16C07E00168C90503D4016821F0080142
:100930000160216C09B12046884794F85C102020A2
:100940008840304231D021680968C9062DD5A86099
:1009500094F8350005282068016806D0490347D57A
:10096000006800031DD4616C1CE021F016010160D9
:100970002068416921F080014161206C08B9A06CB8
:1009800020B12068016821F00801016094F85C1032
:100990003F208840A86084F8349084F83580216D29
:1009A0001FE0E16B09B120468847606D00282BD01D
:1009B000606DC00714D0052084F8350020680168F8
:1009C00021F0010101600098401C0090B84203D85A
:1009D00020680068C007F6D184F8349084F8358028
:1009E000E16C002910D001B02046BDE8F043084773
:1009F0000168C905D5D4016821F01001016084F8AF
:100A0000349084F83580CCE7BDE8F8832C000020D2
:100A10002DE9F041044600F04FF906465CB100258F
:100A200084F83450022084F835002068016821F0F1
:100A3000010101600DE00120BDE8F08100F03CF90A
:100A4000801B052805D920206065032084F8350027
:100A5000F2E720680068C007F0D1226811682048DA
:100A60000140D4E901031843D4E903363343184362
:100A700063691843A3691843E3691843236A184359
:100A80000843616A042903D1D4E90B1319430843CD
:100A9000106020684069666A20F0070130460E4306
:100AA000012704280CD1A06A0643E06A40B1204621
:100AB000FFF7C8FC20B14020606584F83570BAE7C4
:100AC000206846612046FFF7A9FC94F85C203F218E
:100AD00091408160656584F835700020ACE70000C6
:100AE0003F8010F070B5044600F0E6F80546601C43
:100AF00002D004480078044400F0DEF8401BA04215
:100B0000FAD370BD200000202DE9F84FDFF874B152
:100B100000224FF001084FF0030A4FF00F090BF1CC
:100B2000040E00BF0B6808FA02F42340A3426ED102
:100B30004D68022D01D0122D0ED1D50800EB850C89
:100B4000DCF820505607F70E09FA07F6B5430E6990
:100B5000BE402E43CCF82060066855000F790AFA93
:100B600005FC07F0030726EA0C06AF403743076091
:100B70004E68012E05D0022E03D0112E01D0122E68
:100B80000ED18668CF6826EA0C06AF4037438760EF
:100B90004668A6430C79C4F300149440344344607F
:100BA000C4688E6824EA0C04AE402643C6604C68D4
:100BB000E40060D5344C256845F480452560246800
:100BC00022F0030504F480440094304C2E19D6F82A
:100BD000084895072F0F09FA07F5AC432C4DA8429A
:100BE00001D100251FE02B4DA84201D101251AE0BB
:100BF000294DA84201D1022515E0284DA84201D176
:100C0000032510E0264DA84202D104250BE032E076
:100C1000244DA84201D1052505E0234DA84201D16C
:100C2000062500E00725BD402543C6F80858DBF837
:100C300000405D464E689C43F60300D51C432C6083
:100C4000DEF8004075464E689C43B60300D51C4351
:100C50002C600C4D08352C684E689C43F60200D57C
:100C60001C432C60074D0C352C684E689C43B60223
:100C700000D51C432C60521C102AFFF453AFBDE872
:100C8000F88F0000003C0140443802400030014031
:100C9000000002400004024000080240000C024034
:100CA0000010024000140240001802400AB18161A5
:100CB00070470904FBE700000148806870470000A6
:100CC0002000002070B5040004D094F83D000025F9
:100CD00010B106E0012070BD84F83C50204600F0C1
:100CE00075F8242084F83D002068016821F0010196
:100CF000016000F029FA33492268B0FBF1F151603C
:100D0000314A6368934206D94FF4967359434FF4BE
:100D10007A73B1FBF3F12368491C1962616891424F
:100D20000BD84900B0FBF1F2C2F30B02042A01D246
:100D3000042019E0B0FBF1F016E0A3689BB301EBCF
:100D4000C10202EB0112B0FBF2F242F48042120542
:100D500030D04BB301EBC10202EB0111B0FBF1F05B
:100D600040F4804040F400402168C861D4E90701A4
:100D7000084321680860D4E90310084321688860AB
:100D8000D4E9050108432168C8602068016841F082
:100D9000010101602564202084F83D00256384F86A
:100DA0003E50002070BD00E006E001EB4102B0FBC8
:100DB000F2F2CCE70120D7E701EB4101B0FBF1F003
:100DC000D0E7000040420F00A086010000B5006897
:100DD0000E4987B0884217D14FF44070009012201E
:100DE00001900120029003200390042004906946A2
:100DF0000748FFF789FE0748016841F400110160C8
:100E0000006800F40010059007B000BD00540040D9
:100E100000040240403802400248816802781144D0
:100E200081607047200000200B4810B5016841F434
:100E300000710160016841F480610160016841F462
:100E400080710160032000F097F8002000F006F8A0
:100E500000F024F8002010BD003C024070B50D4D9C
:100E600004464FF47A712878B1FBF0F00A4909681A
:100E7000B1FBF0F000F0CFFC48B9102C07D20022F3
:100E80002146501E00F058F800206C6070BD012013
:100E900070BD0000200000202C0000201F4808B575
:100EA000016841F480410160006800F480400090D6
:100EB0001A48001F016841F080510160006800F08D
:100EC00080500090032000F057F8002211466FF088
:100ED0000B0000F031F8002211466FF00A0000F01C
:100EE0002BF8002211466FF0090000F025F80022CF
:100EF0001146501F00F020F800221146101F00F08C
:100F00001BF800221146901E00F016F80022BDE8E2
:100F100008401146501E00F00FB80000443802404F
:100F200000F01F02012191404009800000F1E02003
:100F3000C0F8001170470000F0B40E4B1B680C465F
:100F4000C3F30223C3F10705042D00D90425191D9D
:100F5000072901D2002300E0DB1E012606FA05F175
:100F6000491E214099409E40761E16403143F0BCF8
:100F700001F0FEB90CED00E0064900F00702086838
:100F80004FF6FF03184040EA0220034A104308606E
:100F9000704700000CED00E00000FA052DE9F84371
:100FA0001748016841F0805101600068154F00F05A
:100FB0008050012600903E64FFF77EFE05464FF408
:100FC0007A78114C05E000BFFFF776FE401B4045E4
:100FD0000DD86068C003F7D57E64FFF76DFE054647
:100FE000464607E0FFF768FE401BB04202D90320E7
:100FF000BDE8F88360688003F4D50020F8E70000BE
:101000004038024000000E42007000402DE9F047D9
:101010000E46050065D0DFF81481D8F80000F7B25D
:1010200000F00F00B04207D288F80070D8F8000036
:1010300000F00F00B04254D128683D4C810712D512
:10104000400703D5206840F4E0502060287800076E
:1010500003D5206840F4604020602068A96820F033
:10106000F000084320602878C0072DD03049686818
:101070000839012812D0022813D0032811D009689A
:10108000890700292DDA216821F00301014321603D
:10109000FFF712FE814641F2883A0EE009688903A3
:1010A000EFE709688901ECE7FFF706FEA0EB09010D
:1010B000514502D90320BDE8F0872068696800F037
:1010C0000C00B0EB810FEFD1D8F80010404601F0D2
:1010D0000F01B14207D90770006800F00F00B0425D
:1010E00001D00120E7E72878400705D52068E968A6
:1010F00020F4E050084320602878000706D52068D7
:10110000296920F4604040EAC100206000F03CF80A
:101110002168084AC1F30311515CC84006490860C0
:101120000020FFF79BFE0020C5E70000003C0240C6
:1011300008380240BC2D00082C000020014800683F
:10114000704700002C000020044805490068096829
:10115000044AC1F38221515CC84070472C00002032
:1011600008380240CC2D0008044805490068096889
:10117000044AC1F34231515CC84070472C00002042
:1011800008380240CC2D0008224810B5006810F045
:101190000C02214815D02149042A11D01D4C241FCE
:1011A000082A0FD00C2A0CD12268236802F03F02D3
:1011B0005B0221D52068C0F38810A0FB010120E06C
:1011C000084610BD2268236802F03F025B0205D585
:1011D0002068C0F38810A0FB010104E02168C1F37E
:1011E0008811A1FB00010023FFF708F82168C1F373
:1011F0000141491C49000AE02168C1F38811A1FBA3
:1012000000010023FEF7FAFF2168C1F30271B0FB71
:10121000F1F010BD083802400024F40040787D0150
:101220002DE9F84F0546DFF828B30078ABF1040745
:10123000C007A7F1040451D0DBF800105846C1F3F1
:10124000810101290FD00168C1F38101022902D176
:101250003968490207D40068C0F38100032809D126
:101260003868400206D52068800337D568680028B2
:1012700072D033E06868B0F5803F10D0B0F5A02F91
:10128000206810D020F480302060206820F4802076
:1012900020606868A8B1FFF70FFD06460DE02068E2
:1012A00040F48030F4E740F480202060F7E700BF8E
:1012B000FFF702FD801B642878D820688003F7D5EB
:1012C0000CE0FFF7F9FC064605E000BFFFF7F4FC71
:1012D000801B6428F0D820688003F7D42878DFF8D2
:1012E000749280074FF0000A46D5DBF8001058468C
:1012F00011F00C0F0FD00168C1F38101022902D156
:101300003968490207D50068C0F38100032809D174
:101310003868400206D42068800715D5E86801289F
:101320001AD111E0E868C0B10120C9F80000FFF748
:10133000C3FC064605E000BFFFF7BEFC801B022889
:10134000BAD820688007F7D52068296920F0F8000E
:1013500040EAC10020600FE0F7E0C9F800A0FFF705
:10136000ABFC064605E000BFFFF7A6FC801B022889
:101370001CD820688007F7D42878000727D5DFF825
:10138000D0817548696908F16C0881B1012101605B
:10139000FFF792FC064604E0FFF78EFC801B022854
:1013A00004D8D8F800008007F6D510E089E0C0F82E
:1013B00000A0FFF781FC064605E000BFFFF77CFCBC
:1013C000801B02287DD8D8F800008007F6D4287842
:1013D000400769D55E484FF0000838300068C0000B
:1013E0000BD45B483830016841F0805101600068DF
:1013F0004FF0010800F080500090584E3068C00552
:1014000011D4306840F480703060FFF755FC0090D4
:1014100006E000BFFFF750FC0099401A022850D8A0
:101420003068C005F6D54A4EA868683601280FD046
:101430000528306810D020F001003060306820F0BE
:1014400004003060A868B8B1FFF736FC00900FE0E8
:10145000306840F00100F4E740F004003060F7E746
:10146000FFF72AFC0099411A41F28830814264D882
:1014700030688007F4D50EE0FFF71EFC009007E00F
:10148000FFF71AFC0099411A41F28830814254D882
:1014900030688007F4D4B8F1000F05D02C483830FC
:1014A000016821F080510160A869A8B3DBF8001041
:1014B000C1F38101022948D00228C9F860A005D0F3
:1014C00000E03AE0FFF7F8FB054639E0FFF7F4FBF0
:1014D000064604E0FFF7F0FB801B02282DD82068A9
:1014E0008001F7D4F5E907010843E9681C4A490877
:1014F00002EB0141AA6841EA82110843297C40EAD3
:101500000160297D40EA017038600120C9F860005F
:10151000FFF7D2FB054606E015E000BFFFF7CCFB66
:10152000401B022809D820688001F7D50BE000BFD6
:10153000FFF7C2FB401B022802D90320BDE8F88F49
:1015400020688001F4D40020F8E70120F6E70000CD
:101550000838024000004742800E474200700040B9
:101560000000FFFF70B5040005D00025A56294F8C7
:10157000510010B106E0012070BD84F850502046A3
:1015800000F030F8022084F851002068016821F052
:1015900040010160D4E901010843D4E90312114379
:1015A000084361690843218B01F400710843E16934
:1015B0000843216A0843A16A084321680860A069BA
:1015C000042101EA1040616A0843216848602068EC
:1015D000C16921F40061C1616565012084F8510091
:1015E000002070BD2DE9F041006825490027022444
:1015F0000325052686B0884210D12248016841F4AF
:10160000805101600068694600F480500590A02078
:101610008DE89100CDE903561B482CE01B49884218
:101620002BD11848001F016841F480410160006817
:10163000DFF85C8000F4804005904FF460408DE856
:101640009100CDE9035669464046FFF75DFA4FF435
:1016500020408DE89100CDE9035669464046FFF7EA
:1016600053FA4FF48040CDE9000402AA012082E839
:10167000610069464046FFF747FA06B0BDE8F081D1
:101680000030014044380240000002400038004071
:10169000000402402DE9F84F044690F8500000265F
:1016A000994617460D4601280DD04FF0010B84F8DE
:1016B00050B0FFF701FB804694F85100B246012874
:1016C00004D0022694E00220BDE8F88F002D7BD0E4
:1016D000002F79D0032084F85100C4F854A025636A
:1016E000A786E786C4F838A0A4F83CA0A4F83EA0DA
:1016F000C4F844A0C4F840A0A068B0F5004F04D1DD
:101700002068016841F48041016020680168490651
:1017100003D4016841F040010160E068B0F5006F5A
:10172000606804D030B3E08E012823D03EE010B1D1
:10173000E08E01281AD135F8021B206805E02068E8
:101740008168890706D535F8021BC160E08E401E0E
:10175000E0860BE0B9F1000F34D0B9F1FF3F05D0BE
:10176000FFF7AAFAA0EB080149452BD2E08E00282A
:10177000E5D11EE0216815F8010B087306E020682A
:101780008168890706D515F8011B0173E08E401E9C
:10179000E0860BE0B9F1000F14D0B9F1FF3F05D09E
:1017A000FFF78AFAA0EB080149450BD2E08E00282A
:1017B000E5D14B46012202212046CDF8008000F001
:1017C000F8FD10B1032613E011E0424649462046D9
:1017D00000F0DFFD18B101262020606508E0A06858
:1017E00018B92068C16880680090606D00B101265A
:1017F00084F851B084F850A0304665E74FF0E021FE
:101800000428086903D020F004000861704740F004
:101810000400FAE7704710B5401EB0F1807F01D395
:10182000012010BD4FF0E02460610F21601700F02F
:101830009FFD0020A06107202061002010BD10B591
:10184000FFF7E8FF10BD7047704730B590F83820BB
:10185000012A20D0012280F83820022380F8393074
:1018600003685C6824F070045C6003685C680D6861
:101870002C435C6003689C6824F080049C600368CF
:101880009C6849680C439C6080F83920002180F8EE
:101890003810084630BD022030BD10B5040003D01A
:1018A00094F8390010B107E0012010BD002084F841
:1018B0003800204600F00CF8022084F83900211D81
:1018C000206800F053FE012084F83900002010BD8C
:1018D00008B5154A0168154891420ED1016841F0DA
:1018E000020101600068002200F002000090012166
:1018F0001D20FFF721FB1D2010E00D4A914211D160
:10190000016841F0080101600068002200F0080051
:10191000009001213220FFF70FFB3220BDE8084084
:10192000FFF7FEBA08BD0000000400404038024046
:10193000000C004070B5044690F83800012817D01C
:10194000012584F83850022084F839002068826824
:1019500022F0770222F47F4282600868502837D054
:101960000DDC202859D005DC88B3102841D151E086
:10197000022070BD302853D040283AD13FE0602883
:101980002ED070280BD0B0F5805F03D0B0F5005F8B
:101990002FD110E02068816821F0070115E0CB68A5
:1019A000D1E90121206800F041FE2168886840F0FB
:1019B000770088601DE0CB68D1E90121206800F044
:1019C00035FE2068816841F48041816011E01EE0AD
:1019D000CA684968206800F0F1FE5021206806E0DE
:1019E000CA684968206800F0FAFE6021206800F0AB
:1019F00027FE84F83950002084F8380070BDCA688A
:101A00004968206800F0DAFE40212068EFE70021F5
:101A10002068ECE710212068E9E720212068E6E74C
:101A200030212068E3E7704770B50446006801691B
:101A30004FF00005C943890715D4C168C943890718
:101A400011D4E91E01610120207620688069800799
:101A5000204602D0FFF7E7FF04E000F0DCF8204664
:101A600000F0F6F8257620680169C943490717D4C4
:101A7000C168C943490713D46FF004010161022012
:101A800020762068806910F4407F204602D0FFF75E
:101A9000CAFF04E000F0BFF8204600F0D9F8257630
:101AA00020680169C943090716D4C168C9430907F9
:101AB00012D46FF008010161042020762068C0690B
:101AC0008007204602D0FFF7AEFF04E000F0A3F845
:101AD000204600F0BDF8257620680169C943C90693
:101AE00017D4C168C943C90613D46FF0100101614E
:101AF000082020762068C06910F4407F204602D07C
:101B0000FFF791FF04E000F086F8204600F0A0F80F
:101B1000257620680169C943C90708D1C168C9434E
:101B2000C90704D1891E0161204600F092F820689F
:101B30000169C943090609D4C168C943090605D426
:101B40006FF0800101612046FFF77DFE206801698A
:101B5000C943490609D4C168C943490605D46FF091
:101B600040010161204600F075F820680169C94311
:101B700089060BD4C168C943890607D46FF02001D8
:101B800001612046BDE87040FFF75EBE70BD0000F9
:101B900000B50068084985B088420BD1012000904B
:101BA00002200021CDE90101CDE903106946034877
:101BB000FEF7AAFF05B000BD000C00400000024087
:101BC00070B5044690F8380001280DD0012584F83E
:101BD0003850022084F8390042B1042A0AD0082A79
:101BE0000CD00C2A11D10DE0022070BD206800F04D
:101BF0002FFD0AE0206800F057FD06E0206800F0A5
:101C000085FD02E0206800F0B1FD84F83950002025
:101C100084F8380070BD704710B5040003D094F804
:101C2000390010B107E0012010BD002084F8380011
:101C3000204600F00CF8022084F83900211D2068AD
:101C400000F094FC012084F83900002010BD70479A
:101C5000704770477047704770B502680446106857
:101C6000D168536910F00F0F50D003F0010501F453
:101C7000907635435DD0C20705D0CA0503D5E26B27
:101C800042F00102E263420705D5DA0703D0E26BB6
:101C900042F00202E263820705D5DA0703D0E26B65
:101CA00042F00402E263020705D5DA0703D0E26BD3
:101CB00042F00802E263E26B002A33D0800604D5CA
:101CC000880602D5204600F0B2FD20684069E16B2D
:101CD000C0F38010090700D428B3204600F099FD16
:101CE0002068416949061AD5416921F040014161E6
:101CF000606BA0B11B490165606BFEF7A7FD002872
:101D000010D0606B016DBDE870400847830610D5A8
:101D10008B060ED52046BDE8704000F088BD2046F9
:101D2000FFF799FF70BD2046FFF795FF0020E063A5
:101D300070BD030606D50B0604D52046BDE87040ED
:101D400000F012BF4006F3D54806F1D5D168204611
:101D500021F04001D160202184F8391000F0ABF867
:101D600070BD00000328000870B5040004D094F88A
:101D70003900002510B106E0012070BD84F838500C
:101D8000204600F023F8242084F839002068C16838
:101D900021F40051C160204600F090FD20680169E7
:101DA00021F4904101612068416921F02A014161DB
:101DB0002068C16841F40051C160E563202084F8C7
:101DC000390084F83A00002070BD00002DE9F0438E
:101DD000064600682E4987B0884255D12D48002517
:101DE000016841F4003101600068694600F4003088
:101DF00005900C2000900220019001200290032009
:101E00000390072004902448FEF77EFE244C2348CC
:101E10004FF00067E4E8020740204FF48068A4E830
:101E200021014FF4803944F814591D48A561C4E9D3
:101E300007596562FEF7ECFD18B17A2119A000F090
:101E4000E2FE3463A663164C1448603418382060F0
:101E5000C4E90175C4E9035880156561C4E90650F9
:101E6000C4E908952046FEF7D3FD18B18C210DA0DA
:101E700000F0C9FE7463002202212620A663FFF74A
:101E80005BF82620FFF74CF807B0BDE8F0830000B0
:101E9000004400404038024000000240A060024080
:101EA0007C0200202E2E2F5372632F757361727483
:101EB0002E63000070477047FEE700007FB51548AD
:101EC0001349002401604FF48031C0E9011404611A
:101ED000846111490462C0E90A140125C460C56126
:101EE00045610463FEF748FC18B153210BA000F0D4
:101EF0008AFE0920CDE90005694602940548FEF7EF
:101F0000F1FA002803D05D2104A000F07CFE7FBD23
:101F100000200140300000200100000F2E2E2F5322
:101F200072632F6164632E63000000007FB5154863
:101F30001349002401604FF48031C0E901140125E8
:101F40000461856110490462C0E90A14C460046335
:101F5000C5614461FEF710FC18B176210BA000F0BA
:101F600052FE0095CDE9015469460648FEF7BAFADB
:101F7000002803D0802105A000F045FE7FBD0000B1
:101F800000210140780000200100000F2E2E2F5369
:101F900072632F6164632E63000000000D4808B572
:101FA000016841F4001101600068002200F4001093
:101FB000009011461020FEF7BFFF1020FEF7B0FF83
:101FC000002211461120FEF7B7FFBDE8084011209E
:101FD000FEF7A6BF3038024010B504490448FEF7AA
:101FE0005CFA0249491E087010BD0000190000206B
:101FF000040000202DE9F0413C4886B0002401682F
:1020000041F080010160016801F0800105910168E3
:1020100041F004010160016801F0040105910168CB
:1020200041F001010160016801F0010105910168C1
:1020300041F00201016000682D4E00F002000590A1
:1020400000224FF450713046FEF730FE294F002237
:10205000C0213846FEF72AFEDFF89C80002250217E
:102060004046FEF723FE0320CDE9000469463846CA
:102070000294FEF749FD1020CDE900046946304680
:102080000294FEF741FD4FF4A07000900125CDE9C8
:102090000154694630460394FEF736FD41F22100B3
:1020A000CDE90004694640460294FEF72DFDC020AC
:1020B0000090CDE90154694638460394FEF724FDAB
:1020C0006802CDE900050220CDE9024069463046AC
:1020D000FEF71AFD50200090CDE9015469464046B4
:1020E0000394FEF711FD06B0BDE8F08130380240E0
:1020F0000000024000080240000402400E4810B5F3
:102100000C4901600D49416000214FF4804281601B
:10211000C0E9031241618161C1610162FEF7D2FD34
:10212000002805D0BDE810404C2105A000F06BBD93
:1021300010BD000000540040C0000020A086010037
:102140002E2E2F5372632F6932632E63000000001E
:10215000114810B50F4901604FF4827141600021B0
:102160008160C1604FF400720161C0E90512202254
:10217000C0E90721416281620A21C162FFF7F2F9D9
:10218000002805D0BDE81040502104A000F03BBD60
:1021900010BD000000300140140100202E2E2F53EE
:1021A00072632F7370692E6300000000114810B530
:1021B0000F4901604FF48271416000218160C1606C
:1021C0004FF400720161C0E905123822C0E907210D
:1021D000416281620A21C162FFF7C4F9002805D07B
:1021E000BDE81040662104A000F00DBD10BD000048
:1021F000003800406C0100202E2E2F5372632F7385
:1022000070692E630000000010B5174886B01549AC
:10221000016042F227310024C0E901146321C0E9C2
:102220000314FFF73AFB18B1492110A000F0EBFCB2
:102230004FF48050009069460B48FFF77BFB18B1C4
:102240004F210AA000F0DFFC049404A9064805947D
:10225000FFF7FBFA002803D0562104A000F0D3FCBE
:1022600006B010BD00040040C40100202E2E2F53E4
:1022700072632F74696D2E630000000010B523484F
:102280008EB02149016041F293110024C0E901148C
:102290006421C0E90314FFF700FB18B168211CA0FA
:1022A00000F0B1FC4FF48050079007A91748FFF7E2
:1022B00041FB18B16E2116A000F0A5FC1348FFF7F2
:1022C000ABFC18B1732112A000F09DFC0B940BA97C
:1022D0000E480C94FFF7B9FA18B17A210CA000F05F
:1022E00092FC0094019402940022694607480494E9
:1022F000FFF766FC18B1832105A000F084FC0348B9
:10230000FFF746FC0EB010BD000C0040000200209C
:102310002E2E2F5372632F74696D2E630000000000
:102320000D4810B50B4901604FF4E13141600021C7
:1023300081600C22C160C0E904128161C161FFF7B4
:1023400013FD002805D0BDE810404F2103A000F088
:102350005ABC10BD004400403C0200202E2E2F53DA
:1023600072632F75736172742E630000FEE770470D
:102370000907090E002806DA00F00F0000F1E0203E
:1023800080F8141D704700F1E02080F800147047B9
:10239000704738B50B46009204460022802100F0B9
:1023A00008F8002804D0606D40F02000606503202C
:1023B00038BD2DE9F0411D4617460E460446DDF8AE
:1023C000188035E0681C33D02DB1FEF775FCA0EB0A
:1023D0000800A8422CD32068416821F0E001416048
:1023E0006068B0F5827F0BD1A068B0F5004F02D0D5
:1023F000B0F5806F04D12068016821F040010160D0
:10240000A06AB0F5005F0AD1206801684DF6FF723E
:10241000114001602068016841F400510160012011
:1024200084F85100002084F850000320BDE8F081BA
:102430002068806836EA000004D00020B842C1D18C
:102440000020F3E70120F9E7704710B5FEF7E4FC40
:10245000BDE81040FFF7F3B930B5274893B0002529
:10246000016841F080510160006800F080501290D6
:102470002248016841F4404101600068022400F4F0
:102480004040129001200390102004900094069484
:102490000820CDE90750B420CDE909040B94684623
:1024A0000C94FEF7BDFE00B1FEE7FEF777FD00B12C
:1024B000FEE70DA90F2081E831004FF4A0501090E5
:1024C0004FF48050119005210DA8FEF79FFD00B13B
:1024D000FEE7FEF733FE4FF47A71B0FBF1F0FFF741
:1024E0009AF90420FFF78AF900221146501EFEF7E0
:1024F00023FD13B030BD00004038024000700040A2
:102500001048016841F4700101600F48016841F012
:10251000010101600C4A00210832116002680B4B76
:102520001A400260031D0A4A1A60026822F48022DF
:10253000026005480C300160024958068039086085
:102540007047000088ED00E000380240FFFFF6FE13
:10255000103000240148FFF767BA0000C4010020D2
:102560000148FFF761BA000000020020F0B50268E0
:10257000234B244D244E254F254C4FF0804C984240
:1025800009D0604507D0A84205D0B04203D0B84278
:1025900001D0A04204D122F0700E4A6842EA0E0235
:1025A00098421BD0604519D0A84217D0B04215D030
:1025B000B84213D0A04211D0164DA8420ED0164DED
:1025C000A8420BD0154DA84208D0154DA84205D001
:1025D000144DA84202D0144DA84203D122F44075F4
:1025E000CA682A4302608A68C2620A6882629842A4
:1025F00001D0A04201D10969016301214161F0BD0F
:10260000000001400004004000080040000C0040B1
:1026100000040140004001400044014000480140E6
:1026200000180040001C00400020004010B58468E5
:1026300042EA032224F47F440A432243826010BD0D
:10264000826822F070020A4342F0070181607047FD
:1026500030B5026A22F001020262026A43688469AC
:102660000D6824F07304254322F002048A68224393
:102670000B4CA04202D00B4CA0420BD122F008041C
:10268000CA6823F4407322434C6922F004021C43BD
:102690008B6923434360856149684163026230BDB1
:1026A000000001400004014030B5026A22F010022F
:1026B0000262026A436884690D6824F4E64444EACD
:1026C00005248D6822F0200242EA05120D4DA84231
:1026D00002D00D4DA8420ED1CD6822F0800242EA10
:1026E00005124D6923F4406343EA85038D6922F0A6
:1026F000400243EA85034360846149688163026262
:1027000030BD0000000001400004014030B5026A05
:1027100022F480720262036A4268C46923F400737F
:1027200024F073050C682C438D6843EA05230D4D96
:10273000A84202D00C4DA8420ED1CD6823F400630C
:1027400043EA05234D6922F4405242EA05128D699D
:1027500023F4806342EA05124260C4614968C163A0
:10276000036230BD000001400004014030B5026A40
:1027700022F480520262046A4268C3690D6823F43D
:10278000E64343EA05238D6824F4005444EA053403
:10279000084DA84202D0084DA84204D14D6922F448
:1027A000804242EA85124260C36149680164046262
:1027B00030BD0000000001400004014010B5036A74
:1027C000046A24F001040462846924F0F00444EAF9
:1027D000021423F00A020A438461026210BD10B59C
:1027E000036A23F0100303628369046A23F47043CD
:1027F00043EA023224F0A00343EA0111826101623C
:1028000010BD10B5806B0021C185C184FFF723FA8C
:1028100010BD0168CA6822F49072CA6001684A69F2
:1028200022F001024A61202180F83A10704710B569
:1028300090F83A10222901D0022010BD8168B1F52C
:10284000805F11D00169002901681FD0496801F03B
:102850007F03816A4A1C82620B70C18D491E090484
:10286000090CC18518D026E00269816A002A026835
:10287000526805D0D2B20A80816A491C8162ECE7B5
:10288000C2F308020A80816A891CF7E74A68816AF4
:102890004B1C83620A70E0E70168CA6822F49072F8
:1028A000CA6001684A6922F001024A61202180F869
:1028B0003A10FFF7FFFA002010BD00002DE9F041AB
:1028C00004460068016921F44052E1681143016146
:1028D0002168C86849F20C6290432369A268E569DF
:1028E0001A4363692B431A430243CA60216848694B
:1028F00020F44072A06910434861E1696425B1F594
:10290000004F9748974A21684FF032083FD09142D4
:1029100001D081427CD1FEF727FC00EBC00101EB26
:10292000001061688900B0FBF1F6FEF71DFC00EBBA
:10293000C00101EB001061688900B0FBF1F0B0FB51
:10294000F5F06FF01801484306EB800108EB011029
:10295000B0FBF5F000F0F006FEF706FC00EBC0015E
:1029600001EB001061688900B0FBF1F0B0FBF5F0FD
:1029700006EB0016FEF7F8FB00EBC00101EB0010C0
:1029800061688900B0FBF1F7FEF7EEFBD2E09142FF
:1029900001D081423DD1FEF7E7FB00EBC00101EB26
:1029A000001061684900B0FBF1F0B0FBF5F00601E2
:1029B000FEF7DAFB00EBC00101EB00106168490093
:1029C000B0FBF1F7FEF7D0FB00EBC00101EB00100C
:1029D00061684900B0FBF1F0B0FBF5F06FF0180151
:1029E000484307EB800108EBC100B0FBF5F000F0B5
:1029F000F80006EB4006FEF7B7FB00EBC00101EB69
:102A0000001061684900B0FBF1F7FEF7ADFB3CE058
:102A100055E0FEF799FB00EBC00101EB0010616887
:102A20004900B0FBF1F0B0FBF5F00601FEF78CFBBE
:102A300000EBC00101EB001061684900B0FBF1F749
:102A4000FEF782FB00EBC00101EB0010616849005A
:102A5000B0FBF1F0B0FBF5F06FF01801484307EB65
:102A6000800108EBC100B0FBF5F000F0F80006EBC8
:102A70004006FEF769FB00EBC00101EB0010616846
:102A80004900B0FBF1F7FEF75FFB00EBC00101EB83
:102A9000001061684900B0FBF1F0B0FBF5F06FF099
:102AA0001801484307EB800108EBC100B0FBF5F0CB
:102AB00000F00700216830448860BDE8F081FEF72F
:102AC00043FB00EBC00101EB001061688900B0FB23
:102AD000F1F6FEF739FB00EBC00101EB0010616875
:102AE0008900B0FBF1F0B0FBF5F06FF0180148433E
:102AF00006EB800108EB0110B0FBF5F000F0F006EA
:102B0000FEF722FB00EBC00101EB001061688900B9
:102B1000B0FBF1F0B0FBF5F006EB0016FEF714FB8E
:102B200000EBC00101EB001061688900B0FBF1F718
:102B3000FEF70AFB00EBC00101EB001061688900A1
:102B4000B0FBF1F0B0FBF5F06FF01801484307EB74
:102B5000800108EB0110B0FBF5F000F00F00A9E7D1
:102B6000001401400010014090F83910212901D0D3
:102B7000022070478168B1F5805F016A0BD04A1C62
:102B80000262026809785160C18C491E0904090C6F
:102B9000C1840ED017E009880268C1F308015160B2
:102BA00001690029016A02D0491C0162ECE7891C15
:102BB000FBE70168CA6822F08002CA600068C16849
:102BC00041F04001C1600020704700000148FFF75C
:102BD00043B800003C020020024801210170007847
:102BE000704700000000002001207047002070475F
:102BF00002480121017000787047000000000020A9
:102C000000207047FEE7FEE702E008C8121F08C177
:102C1000002AFAD170477047002001E001C1121F5D
:102C2000002AFBD1704700001CB5FEF7FDF8FFF746
:102C300013FCFFF7DFF9FFF7B1F9FFF789FAFFF7A8
:102C40006FFBFFF773F9FFF7DFFAFFF717FBFFF7EB
:102C500055FAFFF733F9FFF7A9FAFFF7BDF901229B
:102C600051025048FEF722F84F4E01228021304693
:102C7000FEF71CF8012210214C48FEF717F801203E
:102C8000FDF730FFFF258DF800508DF8015001222F
:102C900040213046FEF70AF80024642301226946E9
:102CA0004348FEF7F7FC641C642CF6DB0520FDF7B7
:102CB00019FF002240213046FDF7F8FF0520FDF7FF
:102CC00011FF40208DF8000000248DF801408DF8A0
:102CD000044095208DF802408DF805008DF80340E2
:102CE0004FF47A73062269463148FEF7D3FC8DF81B
:102CF00000508DF8015000266423012269462C48BB
:102D0000FEF7C8FC761C0A2EF6DB0026A0464FF024
:102D100001094FF0410A4FF4FA6700BF8DF800A097
:102D20008DF801808DF802808DF804808DF8038085
:102D30008DF805906423062269461D48FEF7AAFC1B
:102D40005FF000048DF800506423012269461848A2
:102D5000FEF7A0FC641CBC42F4DB761C032EDDDB1A
:102D600051208DF8000090208DF801808DF804002E
:102D70008DF802808DF803808DF80590642306227B
:102D800069460B48FEF786FC5FF000048DF80050A2
:102D90006423012269460648FEF77CFC641CBC42A1
:102DA000F4DBFEE70000024000080240000402409D
:102DB0006C0100200006101600061016000000002E
:102DC00000000000010203040607080900000000DB
:102DD00001020304F42D0008000000203000000070
:102DE000082C0008242E00083000002018070000DE
:102DF000182C000801000000D92B0008F12B000856
:102E0000ED2B0008012C0008E92B00080000000051
:102E100000000000010000001000000000000000A1
:042E20000024F40096
:04000005080001C529
:00000001FF
