:020000040800F2
:10000000D00E0020D90100080B2D0008892300081C
:10001000092D0008F10800087934000800000000EC
:10002000000000000000000000000000E72D0008B4
:10003000F1090008000000002D2D0008E92D00083E
:10004000F3010008F3010008F3010008F3010008C0
:10005000F3010008F3010008F3010008F3010008B0
:10006000F3010008F3010008F3010008F3010008A0
:10007000F3010008F3010008F3010008F301000890
:10008000F301000841090008F3010008F30100082A
:10009000F3010008F3010008F3010008F301000870
:1000A000F3010008F3010008F3010008F301000860
:1000B000F3010008F3010008F3010008F301000850
:1000C000F3010008F3010008F3010008F301000840
:1000D000F3010008F3010008F3010008F301000830
:1000E000F3010008F3010008F3010008F301000820
:1000F000F3010008F3010008F3010008F301000810
:10010000F3010008F3010008F3010008F3010008FF
:10011000F3010008F3010008F3010008F3010008EF
:10012000F3010008F3010008F3010008F3010008DF
:10013000F30100080000000000000000F3010008C7
:10014000F3010008F3010008F3010008F3010008BF
:10015000F3010008F3010008F3010008F3010008AF
:10016000F3010008F3010008F3010008F30100089F
:10017000F3010008F3010008F3010008000000008B
:1001800000000000F3010008000000000000000073
:10019000F30100080000000000000000F301000867
:1001A000000000000000000000000000F301000853
:1001B000F3010008F3010008F3010008F30100084F
:1001C000F3010008DFF80CD000F07AFA004800478D
:1001D00005420008D00E0020064880470648004728
:1001E000FEE7FEE7FEE7FEE7FEE7FEE7FEE7FEE7E7
:1001F000FEE7FEE7C52E0008C50100082DE9F05F07
:100200000546002092469B46884606468146402485
:100210001BE0284641464746224600F088F85346F0
:100220005A46C01A914110D311461846224600F092
:100230006FF82D1A67EB01084F4622460120002176
:1002400000F066F817EB00094E41201EA4F10104EE
:10025000DFDC484631462A464346BDE8F09F40EA87
:1002600001039B0703D009E008C9121F08C0042A34
:10027000FAD203E011F8013B00F8013B521EF9D21B
:100280007047D2B201E000F8012B491EFBD2704743
:100290000022F6E710B513460A4604461946FFF752
:1002A000F0FF204610BD421E12F8013F002BFBD18B
:1002B00011F8013B02F8013B002BF9D1704700F027
:1002C000004230F000400AD0C10D01F56071C0F36A
:1002D000160042EA0151C20840071143704700204E
:1002E0000146704730B50B4601460020202201240C
:1002F00009E021FA02F59D4205D303FA02F5491BF4
:1003000004FA02F52844151EA2F10102F1DC30BD09
:10031000202A04DB203A00FA02F1002070479140C5
:10032000C2F1200320FA03F3194390407047202ABA
:1003300004DB203A21FA02F00021704721FA02F38F
:10034000D040C2F1200291400843194670472DE980
:10035000FE4F804681EA0300C00F0C46009021F05A
:10036000004123F00045B8EB0200A94105D2404608
:10037000214690461C460B46024623F0004010439F
:1003800047D0270DC7F30A00C3F30A510290401A61
:10039000019040286BDAC3F3130040F4801B0098EF
:1003A000924620B10023D2EB030A63EB0B0B0198BA
:1003B0005946C0F140025046FFF7AAFF06460D46D7
:1003C00050465946019A00F08DF910EB0800614142
:1003D000002487EA115284EAE7731A4340D0009A56
:1003E00062B3019A012A4FEA075215DC001B61EB48
:1003F00002014FF0004202EA0752CDE90042001C20
:1004000041F5801132462B4600F08DF903B0BDE86E
:10041000F08F40462146F9E7001B61EB0201001C0A
:1004200041F5801300185B412018A2F5001747EB37
:10043000030140EAD570B6196D4111E06D084FEA2D
:10044000360645EAC0754FEA0752001B61EB020110
:10045000001C41F5801149084FEA30000019514154
:1004600032462B4603B0BDE8F04F00F04DB900987E
:10047000012240000023D0EB020263EBE0730098FE
:1004800021464FEAE074B8EB000061EB0401E9E7B4
:1004900083F000435BE781F0004158E72DE9FE4F10
:1004A00081EA030404F0004421F0004100944FF07D
:1004B000000B23F0004350EA01045ED052EA03042B
:1004C0005BD0C3F30A54C1F30A552C44A4F2F334AD
:1004D0000194A0FB0254C1F3130141F48011C3F352
:1004E000130343F4801301FB024400FB034E840A10
:1004F000970A44EA815447EA8357A4FB07680295A8
:100500008D0A05FB07854FEA932C04FB0C54270545
:10051000029D4FEA065847EA1637B5EB08056EEB21
:10052000070C870E920E47EA811742EA8312A7FB57
:100530000201B6EB0B0164EB00042B0D43EA0C3314
:100540005E1844EB1C50DA465146E7FB0201C5F346
:1005500013044FEA0B3343EA14534FEA0432019C6D
:1005600043EA0603A4F10C040294009CCDE900B414
:1005700000F0D9F803B0BDE8F08F00200146F9E79C
:100580002DE9F04D81EA030404F0004B21F0004511
:1005900014464FF0000A23F0004150EA050220D033
:1005A00054EA01021DD0C5F30A570246C5F31303EE
:1005B000C1F31300C1F30A5640F4801543F48013CD
:1005C000A7EB0608101BD64608F2FD3873EB0500B2
:1005D00002D308F1010801E092185B41B8F1000F65
:1005E00003DA00200146BDE8F08D00204FF48011B1
:1005F000064684460EE0171B73EB050705D3121B56
:1006000063EB050306434CEA010C49084FEA30004E
:1006100092185B4150EA0107EDD152EA030012D073
:1006200082EA040083EA0501084305D0101BAB41B0
:1006300006D20122002306E000224FF0004302E030
:100640006FF0010253101AEB06004CEB085110EB4F
:100650000A0041EB0B01BDE8F04D00F055B8C1F3C5
:100660000A52C1F3130140F2FF3341F480119A4260
:1006700002DA00200146704740F233439A42A2F268
:10068000334202DC5242FFF752BEFFF741BE000088
:1006900030B5041E71F1000404DB4FF00044404209
:1006A00064EB0101141E73F1000405DB1C464FF0DE
:1006B0000043524263EB0403994208BF904230BDAD
:1006C000064C074D06E0E06840F0010394E807009F
:1006D00098471034AC42F6D3FFF778FD804A000803
:1006E000A04A0008202A06DBCB17203A41FA02F084
:1006F00043EAE07306E041FA02F3D040C2F120027F
:10070000914008431946704710B5141E73F1000458
:1007100008DA401C41F1000192185B411A4301D1F3
:1007200020F0010010BD2DE9F04D92469B4611B11D
:10073000B1FA81F202E0B0FA80F220329046FFF77F
:10074000E7FD04460F4640EA0A0041EA0B01534622
:100750005A46084313D0114653EA010019D0C8F194
:1007600040025046FFF7E3FD05460E465046594607
:100770004246FFF7CDFD084305D0012004E02046A6
:100780003946BDE8F08D0020054346EAE0762C436B
:1007900037430A986305E40AA0EB08000022FD0A2B
:1007A00044EA47540A3002D500200146E9E7010532
:1007B00010196941DDE9084500196941BDE8F04DAE
:1007C000A2E7000049494A6822F440324A604A6878
:1007D00043681A434A6001684A6822F480724A609A
:1007E00001684A68036942EA03224A6001684A686C
:1007F00022F040724A6001684A6883681A434A607E
:1008000001688A6822F400628A6001688A68C368A5
:100810001A438A60816A6FF07062D14214D0016815
:100820008A6822F070628A6001688A68836A1A4363
:100830008A6001688A6822F040528A6001688A688A
:10084000C36A1A438A6009E001688A6822F070620C
:100850008A6001688A6822F040528A6001688A686A
:1008600022F002028A6001688A68836942EA4302D0
:100870008A60016A89B101684A6842F400624A608C
:1008800001684A6822F460424A6001684B68426A23
:10089000521E43EA42324A6004E001684A6822F488
:1008A00000624A600168CA6A22F47002CA62016882
:1008B000CB6A828B521E43EA0252CA6201688A687E
:1008C00022F400728A6001688A68036B42EA43225C
:1008D0008A6001688A6822F480628A6001688A6896
:1008E000406942EA80208860704700000023014090
:1008F000FEE700680169084770B504460A4D2B7889
:100900000A2B0FD0581C287003EB8300074B03EB16
:100910008000206001F03CFF054860600548A06051
:10092000002070BD012070BD60000020C8090020BB
:1009300039090008F30800080068C168084700008A
:10094000014800F065B90000680700200168CAB2DC
:10095000103A1823B2FBF3F2064B9B5CC3656FF3AE
:100960000901032A02D9091D816500E08165806DB6
:1009700070470000A446000810B5014600208A6AAE
:100980008B694FF0C074002B0ED0B3F5005F1AD006
:1009900062B3012A2AD0022A28D0032A03D1C96AC5
:1009A000C90100D5012010BD1AB1012A06D0022AC2
:1009B000F9D1C96AC901F6D5012010BDC96AA142A1
:1009C000FBD1012010BD52B1012A0AD0022A06D063
:1009D000032AF7D1C96AA142F4D1012010BD012038
:1009E00010BDC96AC901FBD5012010BD012010BD91
:1009F0007047000078B50024009490F83C20012A4C
:100A000019D0012280F83C200A680725092A14D948
:100A10000368DE680A3A02EB42029540AE43DE60AC
:100A20000A788B680A3A02EB420293400268D56862
:100A30002B43D36011E0022078BD03681E6902EBEE
:100A400042029540AE431E610A788B6802EB420277
:100A50009340026815692B4313614A681F25072AD2
:100A600013D203685E6B521E02EB82029540AE43C6
:100A70005E630A8893B20A79521E02EB82029340A7
:100A80000268556B2B43536328E00D2A13D2036889
:100A90001E6BD21F02EB82029540AE431E630A8892
:100AA00093B20A79D21F02EB820293400268156B5F
:100AB0002B43136312E00368DE6A0D3A02EB8202F5
:100AC0009540AE43DE620A8893B20A790D3A02EB92
:100AD000820293400268D56A2B43D362174A184BAF
:100AE00005689D4206D10D68122D03D1556845F465
:100AF0008005556005689D421CD1124D0B68AB42C4
:100B000001D0112B16D1536843F4000353600968D8
:100B1000A9420FD10C490D4A0968B1FBF2F101EB72
:100B200081014900009102E00099491E009100995D
:100B30000029F9D180F83C40002078BD0023014015
:100B400000200140120000105C00002040420F0015
:100B500070B504460026002C03D0206C002510B18F
:100B600007E0012070BD656484F83C50204600F029
:100B700019F8206CC00610D4206C20F4885040F086
:100B8000020020642046FFF71DFE6564206C20F003
:100B9000020040F00100206400E0012684F83C508F
:100BA000304670BD30B587B0154D01680023154A39
:100BB00003241548A94210D1116841F480711160D5
:100BC000116801F480710191012102910394049351
:100BD00002A900F081F907B030BD0C4DA942FAD14D
:100BE000116841F400711160116801F40071019104
:100BF000022102910394049302A900F06DF9EAE73F
:100C00000020014044380240000002400021014021
:100C10002DE9F84304464FF00009CDF800906F48E5
:100C20004FF416510068B0FBF1F7A56D2E6894F8EB
:100C30005C00082202FA00F1314210D020680168FD
:100C400049070CD5016821F00401016094F85C00AB
:100C500002FA00F1A960606D40F00100606594F84F
:100C60005C104FF0010808FA01F0304208D021680A
:100C70004969090604D5A860606D40F0020060650E
:100C800094F85C1004208840304208D0216809683C
:100C9000890704D5A860606D40F00400606594F891
:100CA0005C1010208840304220D021680968090774
:100CB0001CD5A8602068016849030CD500680003B2
:100CC00004D4216C91B1204688470FE0A16C69B132
:100CD000204688470AE00168C90503D4016821F06D
:100CE00008010160216C09B12046884794F85C1026
:100CF0002020884030424CD021680968C90648D578
:100D0000A86094F8350005280BD0206801684903D5
:100D100030D50068000328D4616C51B32046884761
:100D200037E02068016821F0160101602068416900
:100D300021F080014161206C08B9A06C20B12068CD
:100D4000016821F00801016094F85C103F208840A0
:100D5000A86084F8349084F83580216D00293BD058
:100D600001B02046BDE8F0430847E16B09B12046D9
:100D700088470EE00168C90507D4016821F0100119
:100D8000016084F8349084F83580E16B09B1204625
:100D90008847606D00281FD0606DC00714D0052003
:100DA00084F835002068016821F001010160009895
:100DB000401C0090B84203D820680068C007F6D1F4
:100DC00084F8349084F83580E16C002904D001B0B7
:100DD0002046BDE8F0430847BDE8F8835C000020EA
:100DE0002DE9F041044600F05FF905465CB10026AC
:100DF00084F83460022084F835002068016821F00E
:100E0000010101600DE00120BDE8F08100F04CF926
:100E1000401B052805D920206065032084F8350093
:100E2000F2E720680068C007F0D121680A6820480E
:100E30000240D4E901031843D4E903352B43184396
:100E400063691843A3691843E3691843236A184385
:100E50001043626A042A03D1D4E90B231A431043D6
:100E600008602068406920F00700656A294605434C
:100E7000012704290DD1A06A0543E06A48B1204644
:100E8000FFF77AFD28B14020606584F835700120B5
:100E9000BAE7206845612046FFF758FD94F85C20CA
:100EA0003F2191408160666584F835700020ABE792
:100EB0003F8010F070B5044600F0F6F80546601C5F
:100EC00002D004480078044400F0EEF8401BA04231
:100ED000FAD370BD500000202DE9F84F0022DFF852
:100EE0008491DFF8808109F108094FF0010E4FF07D
:100EF0000F0C09F1040A0EFA02F60B683340B342F4
:100F000071D14C68022C01D0122C11D1D40800EB05
:100F100084073D6A5407E40E0CFA04FB25EA0B052E
:100F2000D1F810B00BFA04FB4BEA050BC7F820B060
:100F3000076854000325A540AF4391F804B00BF0B7
:100F4000030B0BFA04FB4BEA070BC0F800B04F6829
:100F5000012F05D0022F03D0112F01D0122F11D154
:100F60008768AF43D1F80CB00BFA04FB4BEA070BD0
:100F7000C0F808B04768B7430E79C6F3001696402C
:100F80003E434660C668AE438D68A5403543C560A4
:100F90004C68E40060D5344C256845F480452560F4
:100FA000246804F480440094304C22F00305254466
:100FB000D5F808789407260F0CFA06F4A7432C4CB2
:100FC000A04201D100241FE02A4CA04201D10124FB
:100FD0001AE0294CA04201D1022415E0274CA0427E
:100FE00002D1032410E037E0254CA04201D10424B3
:100FF0000AE0244CA04201D1052405E0224CA04285
:1010000001D1062400E00724B4403C43C5F8084859
:10101000D8F800409C434D68ED0300D51C43C8F848
:101020000040104D2D1D2C689C434E68B60300D522
:101030001C432C60D9F800409C434D68ED0200D55C
:101040001C43C9F80040DAF800409C434D68AD02EB
:1010500000D51C43CAF80040521C102AFFF44BAFC5
:10106000BDE8F88F003C01404438024000300140A8
:10107000000002400004024000080240000C024050
:1010800000100240001402400018024000690842AB
:1010900001D00120704700207047002A01D08161F3
:1010A00070470904816170470148806870470000FB
:1010B0005000002070B50446002C04D094F83D0088
:1010C000002510B106E0012070BD84F83C50204698
:1010D00000F07AFA242084F83D002068016821F0AD
:1010E0000101016000F03CFC3349B0FBF1F12268E2
:1010F0005160324A6368934201D8491C07E04FF4BB
:10110000967359434FF47A73B1FBF3F1491C23688A
:101110001962616891420BD84900B0FBF1F2C2F349
:101120000B02042A01D2042019E0B0FBF1F016E012
:10113000A2689AB301EBC10303EB0113B0FBF3F315
:1011400043F480431B0530D04AB301EBC10202EBEC
:101150000111B0FBF1F040F4804040F40040216800
:10116000C861D4E90701084321680860D4E9031085
:10117000084321688860D4E9050108432168C860F4
:101180002068016841F0010101602564202084F895
:101190003D00256384F83E50002070BD00E006E06D
:1011A00001EB4103B0FBF3F3CCE70120D7E701EB00
:1011B0004101B0FBF1F0D0E740420F00A0860100F2
:1011C0002DE9F84F04468A4617469946DDF82880EF
:1011D000FFF76AFF054694F83D00202802D0022060
:1011E000BDE8F88F192301229C492046009501F0A3
:1011F000EFF908B10220F3E794F83C00012807D08A
:10120000012084F83C0020680168C90702D005E08D
:101210000220E5E7016841F00101016020680168F2
:1012200021F400610160222084F83D00102084F840
:101230003E00002626646762A4F82A908848E0628F
:10124000608D20852B4642465146204601F0B2F87B
:1012500050B1206C042803D084F83C600320BFE721
:1012600084F83C600120BBE7208D70B1012815D0C7
:10127000022821D02068016841F480610160206863
:10128000416980690090774FDDE02068416981699C
:101290000091016841F400710160F4E72068016881
:1012A00021F48061016020684169816900910168D1
:1012B00041F400710160E6E72068016821F4806173
:1012C00001602068016841F40061016020684169A3
:1012D00080690090D7E703287ED801280BD0022828
:1012E00023D04346002239462046009501F070F98C
:1012F000F0B3032074E72A464146204601F0ECF99A
:1013000030B1206C202801D0012069E7032067E775
:1013100020680169606A421C62620170208D401E73
:101320002085608D401E60858DE043460022394651
:101330002046009501F04CF908B1032050E72068E1
:10134000016841F40071016020680169606A421C13
:1013500062620170208D401E2085608D401E608578
:1013600020680169606A421C62620170208D00E0A1
:1013700005E0401E2085608D401E608563E020688A
:10138000016821F48061016020680169606A421C83
:1013900062620170208D401E2085608D401E608538
:1013A0004346002239462046009501F011F908B164
:1013B000032015E72068016841F40071016020688E
:1013C0000169606A421C62620170208D401E2085A6
:1013D000608D401E608500E00CE020680169606A55
:1013E000421C62620170208D401E2085608D401E6F
:1013F000608528E02A464146204601F06DF930B16B
:10140000206C202801D00120EAE60320E8E62068CD
:101410000169606A421C62620170208D401E208555
:10142000608D401E608520684169C94349070AD420
:101430000169606A421C62620170208D401E208535
:10144000608D401E6085208D00287FF444AF2020F1
:101450003C346070A67026700020C1E602001000C7
:101460000000FFFF040001002DE9F84F04468A4602
:10147000904699460A9FFFF717FE054694F83D00EF
:10148000202802D00220BDE8F88F192301224C4900
:101490002046009501F09CF808B10220F3E794F88B
:1014A0003C00012807D0012084F83C002068016836
:1014B000C90702D005E00220E5E7016841F001011B
:1014C00001602068016821F400610160212084F836
:1014D0003D00102084F83E0000262664C4F82480D5
:1014E000A4F82A903748E062608D20852B463A4662
:1014F0005146204600F0EAFF50B1206C042803D08A
:1015000084F83C600320BEE784F83C600120BAE721
:10151000206841698069009041E02A4639462046AA
:1015200001F00BF958B1206C042801D00320AAE780
:101530002068016841F4007101600120A3E7606A3E
:10154000411C6162216800780861608D401E6085E1
:10155000208D401E80B2208522685169C943490709
:101560000BD450B1606A411C616200781061608DDB
:10157000401E6085208D401E20852A463946204623
:1015800001F000F858B1206C042801D003207AE75C
:101590002068016841F400710160012073E7208D2B
:1015A0000028BAD11F3454F81F0C016841F40071AF
:1015B00001602020A077E6776677002063E70000CF
:1015C000020010000000FFFF00B587B000680E4960
:1015D000884217D14FF440700290122003900120EE
:1015E0000490032005900420069002A90748FFF705
:1015F00073FC0748016841F400110160006800F4C1
:101600000010019007B000BD0054004000040240EB
:101610004038024002488168027811448160704776
:101620005000002010B50B48016841F400710160C2
:10163000016841F480610160016841F480710160DA
:10164000032000F099F8002000F006F800F026F8DA
:10165000002010BD003C024070B504460D4D4FF413
:101660007A712878B1FBF0F00B490968B1FBF0F012
:1016700000F0F6FC08B1012070BD102C07D200224A
:101680002146501E00F058F86C60002070BD01200B
:1016900070BD0000500000205C00002008B51F480D
:1016A000016841F480410160006800F480400090CE
:1016B0001A48001F016841F080510160006800F085
:1016C00080500090032000F057F8002211466FF080
:1016D0000B0000F031F8002211466FF00A0000F014
:1016E0002BF8002211466FF0090000F025F80022C7
:1016F0001146501F00F020F800221146101F00F084
:101700001BF800221146901E00F016F80022BDE8DA
:1017100008401146501E00F00FB800004438024047
:1017200000F01F02012191404009800000F1E020FB
:10173000C0F8001170470000F0B40D460D4B1B6857
:10174000C3F30223C3F10704042C00D90424191D98
:10175000072901D2002300E0DB1E012606FA04F16E
:10176000491E294099409E40761E16403143F0BCE8
:1017700001F0CCBA0CED00E000F00701054A10685A
:101780004FF6FF03184040EA012003490843106068
:10179000704700000CED00E00000FA052DE9F84369
:1017A0001848016841F080510160006800F08050E5
:1017B0000090DFF854800127C8F84070FFF774FCF0
:1017C00005464FF47A76114C07E0FFF76DFC401B9D
:1017D000B04202D90320BDE8F8836068C003F4D5A5
:1017E000C8F84470FFF760FC054606E0FFF75CFCB4
:1017F000401BB04201D90320EDE760688003F5D5B6
:101800000020E8E74038024000000E42007000402F
:101810002DE9F04704460D46002C13D0DFF8249143
:10182000D9F80000EFB200F00F00A8420CD289F8FE
:101830000070D9F8000000F00F00A84204D0012089
:10184000BDE8F0870120FBE720683F4E810712D5F5
:10185000400703D5306840F4E0503060207800073E
:1018600003D5306840F4604030603068A16820F0F3
:10187000F000084330602078C00731D032496068FA
:101880000839012808D002280BD0032809D009689C
:1018900089070BD40120D3E70968890306D4012006
:1018A000CEE70968890101D40120C9E7316821F038
:1018B000030101433160FFF7F7FB804641F2883AAC
:1018C00007E0FFF7F1FBA0EB0800504501D903202A
:1018D000B6E73068616800F00C00B0EB810FF0D122
:1018E000D9F8000000F00F00A84209D989F800706B
:1018F000D9F8000000F00F00A84201D001209FE7B6
:101900002078400705D53068E16820F4E0500843AE
:1019100030602078000706D53068216920F46040E7
:1019200040EAC100306000F03BF83168074AC1F37B
:101930000311515CC840064908600020FFF78CFE87
:1019400000207DE7003C024008380240AC46000819
:101950005C00002001480068704700005C00002027
:1019600000B5FFF7F7FF04490968044AC1F3822173
:10197000515CC84000BD000008380240BC46000869
:1019800000B5FFF7E7FF04490968044AC1F3423193
:10199000515CC84000BD000008380240BC46000849
:1019A00010B52648006810F00C01254818D0254BCA
:1019B000042914D0214C241F082912D00C290FD13E
:1019C000216801F03F022168490229D52068C0F34F
:1019D0008810A0FB03010023FEF710FC28E0184646
:1019E00010BD216801F03F022168490208D5206836
:1019F000C0F38810A0FB03010023FEF7FFFB07E004
:101A000021680023C1F38811A1FB0001FEF7F6FB5A
:101A10002168C1F30141491C4900B0FBF1F010BD40
:101A200021680023C1F38811A1FB0001FEF7E6FB4A
:101A30002168C1F30271B0FBF1F010BD083802401B
:101A40000024F40040787D012DE9F84F0446E24F70
:101A50002078A7F10405C00759D0381D0168C1F3EB
:101A6000810101290FD00168C1F38101022902D14E
:101A70003968490207D40068C0F3810003280AD1FD
:101A80003868400207D52868800340D5606878BB75
:101A90000120BDE8F88F6068B0F5803F10D0B0F548
:101AA000A02F12D0286820F480302860286820F405
:101AB000802028606068E0B1FFF7F6FA064614E07F
:101AC000286840F480302860F4E7286840F48020DB
:101AD0002860286840F480302860EBE7FFF7E4FADC
:101AE000801B642801D90320D3E728688003F5D53B
:101AF0000DE0FFF7D9FA064606E0FFF7D5FA801B9E
:101B0000642801D90320C4E728688003F5D420782D
:101B1000DFF8C88280074FF0000950D5AE48001D9D
:101B2000016811F00C0F0FD00168C1F38101022987
:101B300002D13968490207D50068C0F38100032843
:101B400012D1386840020FD42868800704D5E068B5
:101B5000012801D001209CE72868216920F0F800C5
:101B600040EAC10028602AE0E068C0B10120C8F85E
:101B70000000FFF799FA064606E0FFF795FA801B8A
:101B8000022801D9032084E728688007F5D5286852
:101B9000216920F0F80040EAC10028600FE0C8F891
:101BA0000090FFF781FA064606E0FFF77DFA801BFA
:101BB000022801D903206CE728688007F5D4207833
:101BC000000729D5DFF810A2854861690AF1700A7B
:101BD00089B101210160FFF767FA064606E0FFF7C9
:101BE00063FA801B022801D9032052E7DAF80000CB
:101BF0008007F4D510E0C0F80090FFF755FA0646CC
:101C000006E0FFF751FA801B022801D9032040E7C4
:101C1000DAF800008007F4D42078400778D5002651
:101C20006D483C300068C0000AD46B483C30016805
:101C300041F080510160006800F080500090012662
:101C4000DFF8A0B1DBF80000C00515D4DBF8000018
:101C500040F48070CBF80000FFF726FA824607E0D8
:101C6000FFF722FAA0EB0A00022801D9032010E7AF
:101C7000DBF80000C005F3D5DFF85CB1A0680BF11C
:101C80006C0B012813D0052818D0DBF8000020F0D9
:101C90000100CBF80000DBF8000020F00400CBF8D6
:101CA0000000A06830B3FFF7FFF982461DE0DBF8C3
:101CB000000040F00100CBF80000F2E7DBF8000084
:101CC00040F00400CBF80000DBF8000040F0010019
:101CD000CBF80000E5E7FFF7E7F9A0EB0A0141F2D6
:101CE0008830814201D90320D3E6DBF80000800769
:101CF000F1D512E0FFF7D8F982460AE0FFF7D4F9F0
:101D0000A0EB0A0141F28830814202D90320C0E6EB
:101D10000BE0DBF800008007F0D4012E05D12E483F
:101D20003C30016821F080510160A069D0B32A499C
:101D3000091D0968C1F3810102294BD0022805D091
:101D4000C8F86090FFF7B0F904463EE0C8F860902C
:101D5000FFF7AAF9064606E0FFF7A6F9801B02285E
:101D600001D9032095E628688001F5D454F81C0FAA
:101D70004FF0FF336168E2680843A16803EB520249
:101D8000890141EA02410843217C40EA0160217D4A
:101D900040EA017038600120C8F86000FFF784F95C
:101DA000044607E014E0FFF77FF9001B022801D981
:101DB00003206EE628688001F5D509E0FFF774F985
:101DC000001B022801D9032063E628688001F5D4AE
:101DD00000205EE601205CE6043802400000474235
:101DE000800E47420070004070B50446002C05D0BC
:101DF0000025A56294F8510010B106E0012070BDE5
:101E000084F85050204600F031F8022084F8510048
:101E10002068016821F040010160D4E90101084314
:101E2000D4E903121143084361690843218B01F48B
:101E300000710843E1690843216A0843A16A084325
:101E400021680860A069042101EA1040616A084322
:101E5000216848602068C16921F40061C16165653D
:101E6000012084F85100002070BD000000B587B04B
:101E700000680E49884216D100210D48026842F4DC
:101E800080520260006800F480500190A02002900F
:101E9000022003900491032005900520069002A9DA
:101EA0000448FFF719F807B000BD000000300140FA
:101EB00044380240000002402DE9F84F04460D4628
:101EC00093461E46002794F8500001280DD04FF08D
:101ED000010A84F850A0FFF7E7F8804694F8510013
:101EE000B946012804D002279EE00220BDE8F88F01
:101EF000DDB1BBF1000F18D0032084F85100C4F805
:101F000054902563A4F834B0A4F836B0C4F83890DF
:101F1000A4F83C90A4F83E90C4F84490C4F84090D3
:101F2000A068B0F5004F02D006E001277CE02068F1
:101F3000016841F48041016020680168490603D4CA
:101F4000016841F040010160E068B0F5006F05D024
:101F5000606850B3E08E012827D044E0606810B17B
:101F6000E08E01281DD1216835F8020BC860E08E93
:101F7000401EE08615E020688168890706D535F89F
:101F8000021BC160E08E401EE0860AE03EB1701C7C
:101F900007D0FFF789F8A0EB0800B04201D3032770
:101FA00042E0E08E0028E6D120E0216815F8010B20
:101FB0000873E08E401EE08615E02068816889077E
:101FC00006D515F8011B0173E08E401EE0860AE07D
:101FD0003EB1701C07D0FFF767F8A0EB0800B042D5
:101FE00001D3032720E0E08E0028E6D1334601220A
:101FF00002212046CDF8008000F0ABFE08B1032797
:1020000012E042463146204600F091FE18B1012709
:102010002020606508E0A06818B92068C168806861
:102020000090606D00B1012784F851A084F85090B1
:1020300038465BE74FF0E021042804D0086920F01F
:10204000040008617047086940F0040008617047A7
:1020500002484168491C4160704700002000002090
:1020600010B5401EB0F1807F01D3012010BD4FF0AC
:10207000E02460610F21601700F048FE0020A0619D
:1020800007202061002010BD10B5FFF7E1FF10BD53
:1020900030B590F83820012A20D0012380F838305C
:1020A000022280F839200268546824F070045460D9
:1020B000026854680D682C4354600268946824F0E8
:1020C000800494600268946849680C43946080F8C6
:1020D0003930002180F83810002030BD022030BD9A
:1020E00010B586B00168002202230F48B1F1804F7D
:1020F0000DD00E4CA14208D1102101910293039200
:102100000492059301A9FEF7E7FE06B010BD4FF457
:10211000806101910293039204920121059101A92A
:10212000FEF7DAFEF1E70000000402400004004080
:1021300070B504460D4694F8380001280DD00126EC
:1021400084F83860022084F8390042B1042A1AD099
:10215000082A2DD00C2A53D13EE0022070BD29461A
:10216000206800F03BFF2068816941F0080181612F
:102170002068816921F004018161206881692A69F0
:10218000114381613CE02946206800F057FF206838
:10219000816941F4006181612068816921F4806175
:1021A0008161206881692A6941EA0221816127E011
:1021B0002946206800F078FF2068C16941F00801D5
:1021C000C1612068C16921F00401C1612068C16951
:1021D0002A691143C16113E02946206800F098FF85
:1021E0002068C16941F40061C1612068C16921F4BE
:1021F0008061C1612068C1692A6941EA0221C16127
:10220000383466700020207070BD10B50446002C74
:1022100003D094F8390010B107E0012010BD002070
:1022200084F83800204600F00DF8022084F83900C8
:10223000211D206800F070FE012084F83900002084
:1022400010BD000008B500680C49B0F1804F0BD0FC
:102250000B4A904207D1086840F002000860086805
:1022600000F00200009008BD086840F0010008601E
:10227000086800F00100009008BD000040380240EE
:102280000004004070B50446002C04D094F83900D6
:10229000002510B106E0012070BD84F838502046BA
:1022A00000F022F8242084F839002068C16821F465
:1022B0000051C160204600F055FF2068016921F4FB
:1022C000904101612068416921F02A014161206843
:1022D000C16841F40051C160E563202084F83900F1
:1022E00084F83A00002070BD70B586B006461C49DF
:1022F0003068884232D100251A48016841F4003123
:102300000160006800F4003000900C200190022071
:10231000029001200390032004900720059001A95A
:102320001148FEF7D9FD124C104820604FF00060B4
:1023300060604020A060E560000120616561A561EA
:10234000E5618001206265622046FEF749FD18B113
:102350006E2108A001F091F83463A66306B070BD49
:10236000004400404038024000000240A0600240AB
:10237000680700202E2E2F436F72652F5372632F34
:1023800075736172742E6300FEE701684A69D24377
:1023900052050CD46FF480624A610421303001612F
:1023A0000021016020224273017301207047002048
:1023B000704700002DE9F84F04460D4691461E4631
:1023C000E06A21680A6842F480620A60042808D042
:1023D000012806D010F5803F03D0206B112806D0CD
:1023E0000AE02068016841F48071016004E020681F
:1023F000016841F4807101604FF001184B460022E2
:1024000041462046009600F0E3F810B10320BDE8F5
:10241000F88F2069DFF8B0A0B0F5804F13D02168A5
:1024200005F44077F02040EAD710086133464A4669
:102430000AF10601204600F005F960B1206C04287D
:1024400007D00320E3E72168E8B240F0010008610B
:1024500029E00120DBE72168E8B2086133464A46FB
:102460005146204600F0EEF830B1206C042801D02F
:102470000320CCE70120CAE7206841698169009107
:10248000016841F4807101604B46002241462046BC
:10249000009600F09DF808B10320B8E72168F1200C
:1024A00040EAD710086133464A465146204600F0BC
:1024B000C9F830B1206C042801D00320A7E701201F
:1024C000A5E70020A3E7000002000100F8B50446DC
:1024D0000D4617461E46E06A042808D0012806D09B
:1024E00010F5803F03D0206B122806D00AE0206848
:1024F000016841F48071016004E02068016841F4E2
:10250000807101603B4600224FF001112046009689
:1025100000F05EF808B10320F8BD2069B0F5804FE7
:1025200012D005F44070F02141EAD0102168086112
:1025300033463A461249204600F084F858B1206CE0
:10254000042806D00320F8BD216805F0FE000861CC
:1025500004E00120F8BD2168E8B20861084933466B
:102560003A46891F204600F06DF830B1206C0428EF
:1025700001D00320F8BD0120F8BD0020F8BD000007
:102580000800010070B504460D46164619E02046C5
:10259000FFF7FBFE08B1012070BD681C11D025B10A
:1025A000FEF782FD801BA8420BD93034206940F031
:1025B000200020610020206020216173207303200F
:1025C00070BD20684069C0434007E0D4002070BD62
:1025D0002DE9F0470546DDF820A00F4691461E463E
:1025E000C7F3074812E0701C10D02EB1FEF75CFD57
:1025F000A0EB0A00B04209D9002045F8300F202195
:102600006973A87328730320BDE8F087B8F1010F40
:102610000BD02868806927EA00000004000C0FD066
:1026200000244C45DFD00020EEE72868406927EA07
:1026300000000004000C01D00024F2E70124F0E7C0
:102640000124EEE72DE9F04704460E46154698466C
:102650004FF000094FF0200AC6F3074729E0206831
:102660004069C043400513D42068016841F40071FB
:10267000016021686FF48060486104202064C4F820
:10268000309084F83DA084F83C900120BDE8F087AC
:10269000681C0ED02DB1FEF707FDA0EB0800A84284
:1026A00007D9C4F8309084F83DA084F83C9003200A
:1026B000ECE7012F08D02068806926EA00000004BA
:1026C000000CCCD10020E1E72068406926EA000038
:1026D0000004000CF6D0C2E72DE9F04104460D4697
:1026E000164600274FF0200820E04069C043C0068E
:1026F0000CD421686FF0100048612764276384F8C8
:102700003D8084F83C700120BDE8F08125B1FEF7E2
:10271000CBFC801BA84209D9206C40F0200020642B
:1027200084F83D8084F83C700320EDE7206841691F
:10273000C9434906D9D40020E6E770B504460D46E2
:10274000164619E02046FFF720FE08B1012070BDB3
:10275000681C11D025B1FEF7A7FC801BA8420BD93D
:102760003034206940F020002061002020602021CA
:1027700061732073032070BD20684069C043000668
:10278000E0D4002070BDC1780122C27008467047B5
:102790000023038083700123C370416002810349D9
:1027A000C16003490161002070470000B52700089F
:1027B0008727000810B5044621896068FEF766FC8B
:1027C000014620884FF6FF7202EA4000084320804D
:1027D000A178012906D0904203D10220E0700120A7
:1027E000A07010BD0028FCD1E070A07010BD10B525
:1027F0000446206881688847022815D0606881688F
:102800008847022812D0A0688168884702280FD024
:10281000E0688168884702280CD020698168884771
:10282000022809D0002010BD012010BD022010BDDB
:10283000032010BD042010BD052010BD70B5044656
:10284000102217491748FEF757F816482060164D12
:10285000012229460C30FEF74FF812480C30606018
:10286000124E022231460C30FEF746F80D48183061
:10287000A060012231460C30FEF73EF809482430B2
:10288000E060202229460C30FEF736F8054830304B
:1028900020610748A06107486061002070BD00000A
:1028A00000000240900A002000040240000802409C
:1028B000EF270008B928000810B5044620684168D1
:1028C0008847606841688847A06841688847E06831
:1028D0004168884720694168BDE81040084700000A
:1028E0007FB51548134901604FF4803141600024E1
:1028F00084600461012585610462C4620F498162BC
:10290000C460C56104634461FEF722F918B149212E
:102910000BA000F0B2FD00940195029469460648B0
:10292000FEF768F8002803D0532105A000F0A5FDAC
:102930007FBD000000200140740500200100000F51
:102940002E2E2F436F72652F5372632F6164632E97
:10295000630000007FB51548134901604FF48031D2
:102960004160002484600461012585610462C462C1
:102970000F498162C460C56104634461FEF7E8F8F1
:1029800018B16C210BA000F078FD00950195029420
:1029900069460648FEF72EF8002803D0762105A0E8
:1029A00000F06BFD7FBD000000210140BC05002050
:1029B0000100000F2E2E2F436F72652F5372632F6D
:1029C0006164632E6300000008B50948016841F4A2
:1029D00000110160006800F4001000900022114610
:1029E0001120FEF7A9FEBDE808401120FEF798BEB1
:1029F000303802402DE9F04186B000243B480168A0
:102A000041F080010160016801F0800100910168DE
:102A100041F004010160016801F0040100910168C6
:102A200041F001010160016801F0010100910168BC
:102A300041F002010160006800F0020000902C4E9D
:102A400000224FF450713046FEF727FB294F002239
:102A500080213846FEF721FBDFF89C8000224021D0
:102A60004046FEF71AFB032001900294039401A94B
:102A70003846FEF731FA102001900294039401A920
:102A80003046FEF729FA4FF4A07001900125029517
:102A90000394049401A93046FEF71EFA2120019008
:102AA0000294039401A94046FEF716FA8020019093
:102AB00002950394049401A93846FEF70DFA6802C2
:102AC0000190029503940220049001A93046FEF77C
:102AD00003FA4020019002950394049401A9404612
:102AE000FEF7FAF906B0BDE8F08100003038024088
:102AF00000000240000802400004024010B50E48E9
:102B00000C4901600D49416000218160C1604FF4B2
:102B10008042026141618161C1610162FEF7CAFACE
:102B2000002805D0BDE81040422105A000F0A5BC5A
:102B300010BD00000054004004060020A0860100E3
:102B40002E2E2F436F72652F5372632F6932632EBF
:102B50006300000010B511480F4901604FF4827105
:102B6000416000218160C160016141614FF40072E8
:102B700082612022C2610162416281620A21C162D6
:102B8000FFF732F9002805D0BDE81040452104A028
:102B900000F073BC10BD000000300140580600205A
:102BA0002E2E2F436F72652F5372632F7370692E11
:102BB0006300000010B58AB017484FF080410160F3
:102BC0005921416000248460C4600461FFF71DFB4B
:102BD00018B13F2111A000F050FC0894099408A9F5
:102BE0000D48FFF755FA18B146210CA000F045FC3E
:102BF00060200190029403940594082201A90648DC
:102C0000FFF796FA18B14F2104A000F036FC0248F5
:102C1000FFF766FA0AB010BDB00600202E2E2F4333
:102C20006F72652F5372632F74696D2E63000000FD
:102C300010B58AB01A481949016040F283314160E9
:102C40000024846040F2E731C1600461FFF7DDFADF
:102C500018B1622113A000F010FC0894099408A98F
:102C60000F48FFF715FA18B169210EA000F005FC16
:102C7000602001900294022003900594002201A993
:102C80000748FFF755FA18B1722106A000F0F5FBCE
:102C90000348FFF725FA0AB010BD00000004004009
:102CA000EC0600202E2E2F436F72652F5372632F78
:102CB00074696D2E6300000010B50D480B4901606A
:102CC0004FF4E131416000218160C16001610C225B
:102CD00042618161C161FFF7D5FA002805D0BDE8E6
:102CE0001040442103A000F0C8BB10BD00440040C8
:102CF000280700202E2E2F436F72652F5372632FEB
:102D000075736172742E6300FEE770470907090E40
:102D1000002806DA00F00F0000F1E02080F8141D12
:102D2000704700F1E02080F800147047704738B514
:102D300004460B46009200228021204600F009F84C
:102D400028B1606D40F020006065032038BD002090
:102D500038BD2DE9F04104460E4617461D46DDF804
:102D6000188034E0681C32D02DB1FEF79DF9A0EB3D
:102D70000800A8422BD32068416821F0E00141609F
:102D80006068B0F5827F0BD1A068B0F5004F02D02B
:102D9000B0F5806F04D12068016821F04001016026
:102DA000A06AB0F5005F0AD1206801684DF6FF7295
:102DB000114001602068016841F400510160012068
:102DC00050346070002020700320BDE8F08120683E
:102DD000806836EA000004D00020B842C2D100204A
:102DE000F3E70120F9E7704710B5FEF713FCBDE8E3
:102DF0001040FFF749B9000030B593B000252A48CC
:102E0000016841F080510160006800F0805000903E
:102E10002648016841F440410160006800F44040E8
:102E20000090022406940120099010200A900C942E
:102E30000D9508200E90B4200F90109411941294C8
:102E400006A8FEF701FE18B1DB2119A000F015FB62
:102E5000FEF7A4FC18B1E22115A000F00EFB0F2034
:102E60000190029403954FF4A05004904FF48050C9
:102E70000590052101A8FEF7CBFC18B1F0210CA0AC
:102E800000F0FBFAFEF766FD4FF47A71B0FBF1F04B
:102E9000FFF7E6F80420FFF7CDF800221146501E98
:102EA000FEF74AFC13B030BD4038024000700040CD
:102EB0002E2E2F436F72652F5372632F6D61696ED3
:102EC0002E6300001048016841F4700101600F4852
:102ED000016841F0010101600C4A002108321160D3
:102EE00002680B4B1A400260031D0A4A1A6002680E
:102EF00022F48022026005480C3001600249580625
:102F0000803908607047000088ED00E0003802401A
:102F1000FFFFF6FE103000242DE9F0410268244D39
:102F2000244E254FDFF894C0254B4FF08048A8422F
:102F300009D0404507D0B04205D0B84203D0604523
:102F400001D0984203D122F070044A682243A8427B
:102F50001BD0404519D0B04217D0B84215D06045BB
:102F600013D0984211D0174CA0420ED0164CA0425C
:102F70000BD0164CA04208D0154CA04205D0154CE1
:102F8000A04202D0144CA04203D122F44074CA687B
:102F9000224302608A68C2620A688262A84201D043
:102FA000984201D10969016301214161BDE8F081C5
:102FB000000001400004004000080040000C0040F8
:102FC000000401400040014000440140004801402D
:102FD00000180040001C00400020004030B5026A8C
:102FE00022F001020262026A4368846924F07004DC
:102FF00024F003050C682C4322F002058A682A435A
:103000000C4DA84202D00C4DA8420DD122F008026E
:10301000CD68154325F0040223F4807323F4007374
:103020004D691D438B692B4343608461496841634B
:10303000026230BD000001400004014030B5026A68
:1030400022F010020262036A4268846924F4E044B8
:1030500024F440740D6844EA052423F020038D68AD
:1030600043EA05130E4DA84202D00E4DA84210D1DE
:1030700023F08003CD6843EA051323F0400322F4D4
:10308000806222F400624D6942EA85028D6942EA5B
:1030900085024260846149688163036230BD00003B
:1030A000000001400004014030B5026A22F4807241
:1030B0000262026A4368C46924F0700424F00305C4
:1030C0000C682C4322F400728D6842EA05220E4DF2
:1030D000A84202D00D4DA84210D122F40062CD6862
:1030E00042EA052222F4806223F4805323F4005341
:1030F0004D6943EA05138D6943EA05134360C461D2
:103100004968C163026230BD000001400004014013
:1031100030B5026A22F480520262046A4268C369CE
:1031200023F4E04323F440730D6843EA052324F4B9
:1031300000548D6844EA0534084DA84202D0084D79
:10314000A84204D122F480424D6942EA85124260CD
:10315000C36149680164046230BD000000000140A1
:10316000000401402DE9F04104462068016921F482
:103170004052E168114301612068C26849F20C6164
:103180008A432369A168E569194363692B4319439D
:103190001143C1602068416921F44071A2690A436A
:1031A0004261E069B24AB34964253226B0F5004F66
:1031B00059D02068884201D090427DD1FEF7E0FBD3
:1031C00000EBC00101EB001061688900B0FBF1F772
:1031D000FEF7D6FB00EBC00101EB0010616889002F
:1031E000B0FBF1F0B0FBF5F06FF01801484307EBCE
:1031F000800006EB0010B0FBF5F000F0F007FEF7E2
:10320000BFFB00EBC00101EB001061688900B0FB5F
:10321000F1F0B0FBF5F007EB0017FEF7B1FB00EBA8
:10322000C00101EB001061688900B0FBF1F8FEF706
:10323000A7FB00EBC00101EB001061688900B0FB47
:10324000F1F0B0FBF5F06FF01801484308EB800097
:1032500006EB0010B0FBF5F0216800F00F003844D9
:103260008860BDE8F0812068884201D0904256D144
:10327000FEF786FB00EBC00101EB0010616849001E
:10328000B0FBF1F0B0FBF5F00701FEF779FB00EBC6
:10329000C00101EB001061684900B0FBF1F8FEF7D6
:1032A0006FFB00EBC00101EB001061684900B0FB4F
:1032B000F1F0B0FBF5F000E086E06FF01801484354
:1032C00008EB800006EBC000B0FBF5F000F0F80062
:1032D00007EB4007FEF754FB00EBC00101EB0010C9
:1032E00061684900B0FBF1F8FEF74AFB00EBC00152
:1032F00001EB001061684900B0FBF1F0B0FBF5F0A4
:103300006FF01801484308EB800006EBC000B0FBEB
:10331000F5F0216800F0070038448860A1E7FEF767
:103320001FFB00EBC00101EB001061684900B0FB1E
:10333000F1F0B0FBF5F00701FEF712FB00EBC00166
:1033400001EB001061684900B0FBF1F8FEF708FBE3
:1033500000EBC00101EB001061684900B0FBF1F027
:10336000B0FBF5F06FF01801484308EB800006EB66
:10337000C000B0FBF5F000F0F80007EB4007FEF7E7
:10338000EFFA00EBC00101EB001061684900B0FBEF
:10339000F1F8FEF7E5FA00EBC00101EB00106168FF
:1033A0004900B0FBF1F0B0FBF5F06FF018014843B5
:1033B00008EB800006EBC000B0FBF5F0216800F0E0
:1033C0000700384488604CE7FEF7CAFA00EBC001FA
:1033D00001EB001061688900B0FBF1F7FEF7C0FA5D
:1033E00000EBC00101EB001061688900B0FBF1F057
:1033F000B0FBF5F06FF01801484307EB800006EBD7
:103400000010B0FBF5F000F0F007FEF7A9FA00EBB2
:10341000C00101EB001061688900B0FBF1F0B0FB66
:10342000F5F007EB0017FEF79BFA00EBC00101EB8C
:10343000001061688900B0FBF1F8FEF791FA00EB2B
:10344000C00101EB001061688900B0FBF1F0B0FB36
:10345000F5F06FF01801484308EB800006EB001010
:10346000B0FBF5F0216800F00F0038448860F8E602
:103470000014014000100140FEE7FEE70FB4084BC6
:1034800010B504A902AA039800F0DEF8044602A9C8
:10349000002000F070FC204610BC5DF814FB00001A
:1034A000773D000802E008C8121F08C1002AFAD1BF
:1034B00070477047002001E001C1121F002AFBD1B4
:1034C000704700002DE9FF5F82B00021DDE9043084
:1034D000020DDDF840B0034318D044F61050A2F2BC
:1034E000FF3242431514119801281FD0A5EB0B00A1
:1034F000401C5FEA000A4FF000064E4FDFF838919B
:10350000B046504615D5CAF1000413E011980124C5
:103510004AA3012801D16FEA0B010298119AC0E970
:103520000031C0E9024206B0BDE8F09FCBF10000D7
:10353000DFE704460021404A491842EB0450CDE938
:10354000001012E0E00707D032463B4640464946AD
:10355000FCF7A4FF8046894632463B461046194692
:10356000FCF79CFF06460F466410002CEAD1DDE90B
:103570000401DDE90023BAF1000F06DAFCF78EFF43
:1035800042464B46FCF78AFF05E0FCF7F9FF42464E
:103590004B46FCF7F5FF04460E460022284BFDF78C
:1035A00077F803D84FF0FF30014607E00022254BA3
:1035B00020463146FCF7CBFEFDF751F8102409E018
:1035C000002C0ADB0A220023FCF718FE039B303292
:1035D0001A55641E50EA0102F2D1641C039AC4F128
:1035E00011031444119A012A03D0012208430DD17A
:1035F0000AE0084304D000204FF0110B119072E74D
:10360000A3EB0B056D1E0DE05B4504DD4FF00002E2
:1036100005F1010504E003DA4FF00002A5F1010510
:10362000002AECD002981199C0E90231C0E90045A6
:1036300079E70000000014400000F03F3000000077
:103640000000F0430000E03F2DE9FF4F95B09B469E
:103650008946064600250FE2252877D10024274613
:10366000F84A0121059400E0044316F8013F203B8D
:1036700001FA03F01042F7D130782A2811D06FF008
:103680002F033078A0F13002092A16D8059A44F0A9
:10369000020402EB820203EB42021044761C059006
:1036A000EFE759F8042B0592002A03DA504244F45C
:1036B0000054059044F00204761C30782E2816D170
:1036C00016F8010F44F004042A280DD06FF02F02E1
:1036D0003078A0F13003092B09D807EB870302EB00
:1036E0004303C718761CF3E759F8047B761C30783F
:1036F0006C280FD006DC4C2817D068280DD06A281B
:1037000014D104E0742810D07A280FD10DE044F4CD
:1037100000140AE044F4801401E044F44014727888
:10372000824202D104F58014761C761C307866281B
:103730000BD013DC582877D009DC002875D0452839
:10374000F6D04628F4D047281AD19DE118E0632826
:1037500035D0642879D0652812D195E1702873D0CE
:1037600008DC6728F1D069286FD06E280DD06F284B
:1037700006D1B5E073282CD0752875D0782874D080
:103780005A46179990476D1C75E1C4F30250022800
:1037900009D003280DD0D9F8001004280DD00D60F1
:1037A00009F1040967E1D9F80010EA17C1E90052EC
:1037B000F6E7D9F800100D80F2E70D70F0E719F880
:1037C000041B8DF8001000208DF80100EA4601204E
:1037D00003E059F804AB4FF0FF3061074FF00001F0
:1037E00002D40DE008F101018846B9420FDA8045A4
:1037F000F8DB1AF808100029F4D108E008F10101FB
:1038000088468142FADB1AF808100029F6D105989B
:103810005B46A0EB080721463846179A00F094FA59
:10382000284400EB080507E04DE029E10DE01AF817
:10383000010B5A4617999047B8F10108F7D25B4639
:1038400021463846179A13E142E00A220092C4F357
:1038500002524FF0000A022A08D059F804CB032A7A
:103860004FEAEC710AD00DE029E02AE009F10701E6
:1038700021F00702F2E802C1914609E00FFA8CFC40
:103880004FEAEC71042A03D14FFA8CFC4FEAEC7139
:10389000002907DA0A460021DCF1000C61EB020185
:1038A0002D2202E0220504D52B228DF804200122CE
:1038B00003E0E20701D02022F7E7904659E00A2111
:1038C00002E010220DE010214FF0000A00910BE001
:1038D00010224FF0000A44F004040827009203E08D
:1038E00008224FF0000A0092C4F30252022A05D0C7
:1038F00059F804CB0021032A08D009E009F1070197
:1039000021F00702F2E802C1914605E01FFA8CFCA3
:10391000042A01D10CF0FF0C4FF00008220728D533
:10392000702806D0009B83F0100353EA0A0305D0E9
:103930000EE040228DF80420012208E05CEA01023A
:1039400006D030228DF804208DF805000222904622
:10395000009B83F0080353EA0A030AD15CEA0102E0
:1039600001D1620705D530228DF804204FF00108FF
:103970007F1E582804D034A003900EA802900DE0BA
:1039800036A0F9E753466046009AFCF737FC8446B8
:103990000398825C0298401E029002705CEA01006B
:1039A000F0D1029806A9081A00F1200A600702D592
:1039B00024F4803400E00127574502DDA7EB0A001C
:1039C00000E0002000EB0A01009005984144401AF5
:1039D0000590E00306D45B462146179A059800F04F
:1039E000B3F90544002706E001A85A46C05D1799BF
:1039F00090476D1C7F1C4745F6DBE0030CD55B460A
:103A00002146179A059800F09FF9054404E03020FC
:103A10005A46179990476D1C0099481E009000293E
:103A2000F5DC08E0029802995A460078491C029198
:103A3000179990476D1CBAF10001AAF1010AF1DC57
:103A400065E1000009280100303132333435363762
:103A500038396162636465660000000030313233DA
:103A6000343536373839414243444546000000007A
:103A700000F058F90544761C307800287FF4ECAD4E
:103A800019B02846BDE8F08F620700D4062709F177
:103A9000070222F0070CFCE80223E14603F000488D
:103AA0005FEA080C02D00FF2702C0DE05FEA045CB4
:103AB00002D50FF2682C07E05FEAC47C02D00FF257
:103AC000602C01E0AFF2700C4FF0FF3823F00043A0
:103AD000CDF850C065280CD006DC452809D0462812
:103AE0001DD047283DD13DE0662818D067287ED1FB
:103AF00038E00021112F01DB112000E0781CCDE916
:103B0000000106A90EA8FFF7DDFCDDE90F010E9A02
:103B100003910021009207F1010A04914DE04FF05A
:103B200000400097CDE9011006A90EA8FFF7CAFCD6
:103B3000DDE90F0203920E9B11990022DDF80CA023
:103B40000093049211B9791C00EB010AB7EB0A004B
:103B500004D4C0F1FF3007F1010A0490AAEB07007A
:103B6000019044E0012F00DA01270021112F01DD2F
:103B7000112000E03846CDE9000106A90EA8FFF7A4
:103B8000A1FCDDE90F010E9A03910021049100923E
:103B9000BA4621070CD40399514500DA8A46BAF196
:103BA000010F05DD009AAAF10101515C302908D00E
:103BB000B84202DA10F1040F06DA0121CDE9011052
:103BC00015E0AAF10101E9E7002805DC04990144A8
:103BD0000491AAEB000102E0411C514500DD8A4638
:103BE0000499401A401C01904FF0004002902007B9
:103BF00004D40198504501DBCDF8048000208DF8F5
:103C00004F0002980DF14F07B0F1004F25D02B2047
:103C10000E9002984FF0020800280CDA4042029001
:103C20002D200E9007E00A210298FCF75BFB303153
:103C3000029007F8011DB8F10001A8F10108F2DCBB
:103C400002980028EFD1791E0E980870307800F0A5
:103C5000200040F0450007F8020D12A8C01B00F13B
:103C600007081498007800B1012000EB0A010198C0
:103C700001EBE07105984144401A401E0590E003B5
:103C800006D45B462146179A059800F05DF8054476
:103C90001498007818B15A46179990476D1CE003A4
:103CA00024D55B462146179A059800F04DF8054447
:103CB0001CE00498002807DBDDE90301884203DDEE
:103CC0000098405C179901E0179930205A469047B8
:103CD000049805F10105401C04900198401E0190D4
:103CE00004D12E205A46179990476D1CBAF1000155
:103CF000AAF1010ADDDC05E017F8010B5A46179915
:103D000090476D1CB8F10001A8F10108F4DC5B4696
:103D10002146179A0598ABE62D0000002B00000005
:103D2000200000002DE9F041044600251E461746FC
:103D3000880404D405E039462020B0476D1C641E79
:103D4000F9D52846BDE8F0812DE9F041044600256B
:103D50001E469046C80301D5302700E0202788047E
:103D600004D505E041463846B0476D1C641EF9D5C0
:103D70002846BDE8F0810A68531C0B60107070473C
:103D800080F0010240210148FDF787B9000402409C
:103D900010B50020FFF7F4FF094C00224021204617
:103DA000FDF77BF90120FDF785F80122402120462F
:103DB000FDF773F9BDE810400120FFF7E1BF0000F7
:103DC0000000024030B58BB00C46002508950995DF
:103DD0000A95059506950795029503950495012882
:103DE00070D002286BD16068FCF769FA41EC100BC7
:103DF00040A153EC102B08A8FFF740FB3FA108A8F7
:103E0000FCF751FA00233EA20A210220009500F09F
:103E100089F900233FA20A210220009500F082F9CF
:103E20000A21002308AA0846009500F07BF9A06843
:103E3000FCF745FA41EC100B2EA153EC102B05A812
:103E4000FFF71CFB2DA105A8FCF72DFA00232CA2DF
:103E500014210220009500F065F900232EA2142100
:103E60000220009500F05EF9002305AA14210A2023
:103E7000009500F057F9E068FCF721FA41EC100BCF
:103E80001CA153EC102B02A8FFF7F8FA1BA102A803
:103E9000FCF709FA002321A20A213C20009500F03A
:103EA00041F9002322A20A213C20009500F03AF9B2
:103EB000002302AA0A214620009500F033F90BB036
:103EC00030BDFFE72068FCF7FAF941EC100B09A1BF
:103ED00053EC102B08A8FFF7D1FA16A108A8FCF79D
:103EE000E2F9002308AA0A210220009500F01AF93D
:103EF000E5E70000252E33660000000067000000A3
:103F000020202020202020202020202020202020B1
:103F100020000000583A2000593A2000202020209C
:103F20002020202020202020202020200000000011
:103F30005A202000204320004168D0ED000A00EB09
:103F4000810292ED021A70EEC10A70EE800AC0ED95
:103F5000000A4A1C00EB8101426081ED020A4168BF
:103F6000322901DB00214160D0ED000A9FED021AE9
:103F700080EE810A70470000000048427047000050
:103F80000020044A002142F82010401CC0B28028C2
:103F9000F9D37047C807002010B5FFF7F1FFFFF70E
:103FA000F7FEA02000F0CEFAAE2000F0CBFAC82039
:103FB00000F0C8FAA22000F0C5FA2F2000F0C2FAE3
:103FC000212000F0BFFA282000F05EF8BDE8104084
:103FD000AF2000F0B7BA2DE9F04107460D4616466E
:103FE00098460CE03C4606E001222946204600F0B7
:103FF00081F8641CE4B2B442F6D96D1CEDB24545BB
:10400000F0D9BDE8F08100002DE9F04F0746884661
:104010001E46203A02F0FF0B0025DFF868A02AE0D8
:1040200000240AEB460920E016491AF8160014315C
:1040300000FB0BF02944405C0121A14008420AD05A
:10404000099880F0010208EB0500C1B23819C0B22E
:1040500000F050F807E008EB0500C1B23819C0B213
:10406000099A00F047F8641CE4B299F80100A042F4
:10407000DAD86D1CEDB21AF81600A842D0D8BDE807
:10408000F08F0000C446000810B504463F2C07D846
:10409000812000F057FA2046BDE8104000F052BAE7
:1040A00010BD2DE9F04180460F4616461D463C46A0
:1040B0000BE001222146404600F01CF80122214677
:1040C000304600F017F8641CE4B2AC42F1D9444623
:1040D0000BE001222946204600F00CF80122394667
:1040E000204600F007F8641CE4B2B442F1D9BDE800
:1040F000F081000010B580280AD2202908D2084C8F
:1041000001238B402AB154F82010194344F82010A1
:1041100010BD54F82010994344F8201010BD000041
:10412000C80700202DE9F8430546DDF820808946C0
:1041300014461F46002F11D1094800EB47060AE03C
:104140003B4649462846CDF80080FFF75DFF707872
:104150002844C5B2641C2278002AF1D1BDE8F88356
:10416000C44600082DE9FF4F07469B460025DFF8AF
:1041700050A04FF001090024029805EBC0080198F7
:1041800046191AF8080009FA04F1084207D038194C
:104190008BF00102F1B2C0B2FFF7ACFF05E03819B5
:1041A000F1B2C0B25A46FFF7A5FF641CE4B2062C78
:1041B000E7D36D1CEDB2082DDDD3BDE8FF8F000005
:1041C000C846000870B500250D4E05F1B000C0B21C
:1041D00000F0B8F9102000F0B5F9002000F0B2F9B5
:1041E000002406EB8400405D00F098F9641CE4B202
:1041F000802CF6D36D1CEDB2042DE6D370BD00000B
:10420000C80700208AB035A000680990FDF70AFAB7
:10421000FEF7F2FDFEF7EEFBFEF7D6FBFEF79AFC8B
:10422000FEF74AFDFEF796FBFEF75AFBFEF700FD90
:10423000FEF7C0FCFEF762FC012280212848FCF753
:104240002CFFFFF7A9FEFFF79BFE0024234625A2C3
:10425000214620460094FFF765FFFFF7B3FF4FF4B8
:104260007A70FCF727FE012251022348FCF715FF64
:104270000A25022309AA982120480095FDF7F4F8A1
:1042800002230DF1260298211C480095FDF7ECF859
:104290001B4800F041F802A8FEF7D0FA19491A4865
:1042A00000F034F8164D1C3D079902A888471548C0
:1042B00000F05CF90520FCF7FDFD68686428F3D385
:1042C0006C60089902A8884700F042F8064600F0A2
:1042D0002DF80C493046FFF751FEE5E707000701CE
:1042E000000802404D656E7520616E642063616C4C
:1042F0006C6261636B000000000002400406002055
:104300003C00002074000020C53D0008014A906078
:10431000D160704764000020002803D00249486043
:104320000021C16070470000640000200749486810
:10433000002809D0097829B18168007C51F8200053
:1043400000F048B800F06AB8704700006400002030
:1043500030B51B4C6168002908D00A7C8B6853F883
:104360002230257845B1052802D027E0002030BD55
:1043700000202070012030BD06281FD2DFE800F0A9
:104380001E090D1418031879C0B901202070187A7D
:1043900030BD9AB1521E0A7410E00879401E824264
:1043A0000CDA521C0A7409E0C86838B1606005E094
:1043B0001879012802D198686060C160002030BD82
:1043C0006400002002464FF480710148FCF765BE8E
:1043D0000000024038B50446FFF7D2FD0023012259
:1043E00019461846FFF7BEFE00200090034601461E
:1043F0000E202268FFF796FE1F237F22082100204F
:10440000FFF74FFE044A207AD16892689047BDE8D2
:104410003840FFF7D7BE00006400002038B50446DE
:10442000FFF7AEFD00231A4619461846FFF79AFE1D
:1044300000200090034601460E202268FFF772FE1E
:10444000204600F007F8204600F04AF8BDE8384062
:10445000FFF7B8BEF0B587B00446182101A8FBF7F6
:1044600017FF607C217C821C914202D9401C607441
:1044700003E0814201D2401E6074032720790328A3
:1044800000D20746002520E0617CA068294450F84E
:104490002100227C914201D1012600E00026202348
:1044A0000179012900D13E2302680AA101A8FEF783
:1044B000E5FF082000EBC500C1B2002301AA0220DD
:1044C0000096FFF72FFE6D1CEDB2BD42DCD307B0A6
:1044D000F0BD0000252D3138732025630000000059
:1044E00070B51B2402250179032907D9891E94FB85
:1044F000F1F1CCB2407C14FB0050C5B21F237F22E7
:1045000000217920FFF7CDFD28192946BDE870402C
:10451000C3B27D227B20FFF75EBD000001B5012004
:10452000FFF750FF0120FFF72BFC01231A466946D5
:104530000348FDF7C1FC0020FFF722FC08BD000086
:104540005806002001B50020FFF73CFF0120FFF7CF
:1045500017FC01231A4669460348FDF7ADFC00200D
:10456000FFF70EFC08BD0000580600202DE9FC41B5
:104570000446002001904FF42072214604F520707B
:10458000FBF76DFE0A260123002290213348009696
:10459000FCF76AFF324D642710BB022301AA902169
:1045A0002E480097FCF70CFED0B99DF805009DF849
:1045B000041000EB012080B240096880410502D55B
:1045C00040F4784068806888F4EE000A00EE100A33
:1045D000B8EE400A20EE200A85ED060A84ED000AB6
:1045E0000123002298211D480096FCF73DFF00287A
:1045F00032D1032301AA982118480097FCF7E0FD67
:10460000002829D19DF80400C10909D100F02AF839
:1046100085ED030A04F11000FFF78EFC84ED010A1A
:104620009DF80500C10909D100F01CF885ED040AC8
:1046300004F1E000FFF780FC84ED020A9DF806001B
:10464000C10909D100F00EF885ED050A04F5D8700E
:10465000FFF772FC84ED030ABDE8FC81040600202C
:104660002000002000EE100A9FED0B1AF8EE400A21
:1046700080EE810A1F280DD90849C043401C00F074
:104680001F00087000EE100A9FED051AF8EE400AB0
:1046900080EE810A70470000D7A3AA4120000020C5
:1046A000D7A3AAC1000610160006101600000000CD
:1046B00000000000010203040607080900000000D2
:1046C00001020304080618101D001D001D001D0036
:1046D00002060E1E0E060200000000000000000090
:1046E00004040404040004000A0A0A000000000094
:1046F0000A0A1F0A1F0A0A00041E050E140F0400EE
:104700000313080402191800020505021509160012
:104710000C0C04020000000008040202020408005D
:1047200002040808080402000004150E0E15040017
:104730000004041F04040000000000000C0C04022C
:104740000000001F0000000000000000000C0C0032
:1047500000100804020100000E11131519110E00BB
:104760000406040404040E000E11100E01011F00C3
:104770001F10080C10110E00080C0A091F08080071
:104780001F010F1010110E001C02010F11110E005D
:104790001F101008040201000E11110E11110E005D
:1047A0000E11111E10080700000004000400000094
:1047B00000000400040402001008040204081000B1
:1047C00000001F001F00000002040810080402007F
:1047D0000E11100C040004000E11151D0D011E0019
:1047E000040A11111F1111000F11110F11110F00E7
:1047F0000E11010101110E000F11111111110F0005
:104800001F01010F01011F001F01010F0101010024
:104810001E11010119111E001111111F111111009A
:104820000E04040404040E001C080808080906000D
:1048300011090503050911000101010101011F0012
:10484000111B151515111100111113151911110056
:104850000E11111111110E000F11110F01010100A4
:104860000E111111150916000F11110F0509110074
:104870000E11010E10110E001F1504040404040093
:104880001111111111110E0011111111110A040051
:104890001111111515150A0011110A040A11110040
:1048A00011110A04040404001F10080E02011F0065
:1048B0001E02020202021E00000102040810000093
:1048C0001E10101010101E00040A1100000000003D
:1048D0000000000000001F000606040800000000A1
:1048E000000006080E091E0001010D1311130D0032
:1048F00000000E1101110E001010161911191600EA
:1049000000000E111F010E000814040E0404040020
:1049100000000E191916100E01010D1311111100CE
:104920000400060404040E00080008080809060034
:1049300001010905030509000604040404040E002E
:1049400000000B151515150000000D1311111100B5
:1049500000000E1111110E0000000D13130D0101C6
:10496000000016191916101000000D1301010100A6
:1049700000001E010E100F0004041F0404140800A0
:10498000000011111119160000001111110A040084
:104990000000111115150A000000110A040A110087
:1049A000000011111E10110E00001F0804021F004C
:1049B00008040402040408000404040004040400BD
:1049C00002040408040402000215080000000000AC
:1049D000000000000000000000000C12120C00009B
:1049E00000000C1E1E0C000000001E12121E000013
:1049F00000001E1E1E1E000000000C0C121E0000F7
:104A000000000C0C1E1E000000001E120C0C00000A
:104A100000001E1E0C0C00000000181616180000E6
:104A20000000181E1E1800000000061A1A060000DA
:104A30000000061E1E06000000000C12120C0000F2
:104A400000000C1E1E0C000000001E12121E0000B2
:104A500000001E1E1E1E000054656D70657261749C
:104A600075726500416363656C65726F6D65746531
:104A7000720000004D61696E204D656E750000008A
:104A8000A04A00080000002074000000A4340008C0
:104A9000144B0008740000205C0E0000B4340008C1
:104AA000584A00080000000001000000644A0008A5
:104AB0000000000002000000000000200C000020A8
:104AC00000000000000000000000000000000000E6
:104AD000000000000000000000000000744A000810
:104AE000020000001800002000000000000000008C
:104AF0000100000010000000000000000024F4008D
:104B000000000000000000000000000000000000A5
:044B100000000000A1
:04000005080001C529
:00000001FF
