:020000040800F2
:1000000030040020D9010008AB0C0008F30B0008F5
:10001000A90C0008ED020008DD0D0008000000003A
:10002000000000000000000000000000CF0C0008ED
:10003000EF02000800000000CD0C0008D10C000801
:10004000F3010008F3010008F3010008F3010008C0
:10005000F3010008F3010008F3010008F3010008B0
:10006000F3010008F3010008F3010008F3010008A0
:10007000F3010008F3010008F3010008F301000890
:10008000F3010008F3010008F3010008F301000880
:10009000F3010008F3010008F3010008F301000870
:1000A000F3010008F3010008F3010008F301000860
:1000B000F3010008F3010008F3010008F301000850
:1000C000F3010008F3010008F3010008F301000840
:1000D000F3010008F3010008F3010008F301000830
:1000E000F3010008F3010008F3010008F301000820
:1000F000F3010008F3010008F3010008F301000810
:10010000F3010008F3010008F3010008F3010008FF
:10011000F3010008F3010008F3010008F3010008EF
:10012000F3010008F3010008F3010008F3010008DF
:10013000F30100080000000000000000F3010008C7
:10014000F3010008F3010008F3010008F3010008BF
:10015000F3010008F3010008F3010008F3010008AF
:10016000F3010008F3010008F3010008F30100089F
:10017000F3010008F3010008F3010008000000008B
:1001800000000000F3010008000000000000000073
:10019000F30100080000000000000000F301000867
:1001A000000000000000000000000000F301000853
:1001B000F3010008F3010008F3010008F30100084F
:1001C000F3010008DFF80CD000F07EF8004800478B
:1001D0008D1100083004002006488047064800477B
:1001E000FEE7FEE7FEE7FEE7FEE7FEE7FEE7FEE7E7
:1001F000FEE7FEE7890D0008C50100082DE9F05F64
:100200000546002092469B46884606468146402485
:100210001BE0284641464746224600F045F8534633
:100220005A46C01A914110D311461846224600F092
:100230002CF82D1A67EB01084F46224601200021B9
:1002400000F023F817EB00094E41201EA4F1010431
:10025000DFDC484631462A464346BDE8F09F30B5CC
:100260000B46014600202022012409E021FA02F574
:100270009D4205D303FA02F5491B04FA02F528440E
:10028000151EA2F10102F1DC30BD202A04DB203A68
:1002900000FA02F1002070479140C2F1200320FAD9
:1002A00003F3194390407047202A04DB203A21FAD7
:1002B00002F00021704721FA02F3D040C2F120027F
:1002C0009140084319467047064C074D06E0E06828
:1002D00040F0010394E8070098471034AC42F6D38D
:1002E000FFF774FF5412000874120008FEE770470D
:1002F0002DE9F84FDFF874B100224FF001084FF0FC
:10030000030A4FF00F090BF1040E00BF0B6808FA47
:1003100002F42340A3426ED14D68022D01D0122D6C
:100320000ED1D50800EB850CDCF820505607F70EEF
:1003300009FA07F6B5430E69BE402E43CCF820609B
:10034000066855000F790AFA05FC07F0030726EA4C
:100350000C06AF40374307604E68012E05D0022ED1
:1003600003D0112E01D0122E0ED18668CF6826EA56
:100370000C06AF40374387604668A6430C79C4F348
:100380000014944034434460C4688E6824EA0C042A
:10039000AE402643C6604C68E40060D5344C256806
:1003A00045F480452560246822F0030504F4804468
:1003B0000094304C2E19D6F8084895072F0F09FAEB
:1003C00007F5AC432C4DA84201D100251FE02B4D71
:1003D000A84201D101251AE0294DA84201D10225E8
:1003E00015E0284DA84201D1032510E0264DA84272
:1003F00002D104250BE032E0244DA84201D10525AD
:1004000005E0234DA84201D1062500E00725BD40A7
:100410002543C6F80858DBF800405D464E689C430B
:10042000F60300D51C432C60DEF8004075464E688C
:100430009C43B60300D51C432C600C4D08352C683A
:100440004E689C43F60200D51C432C60074D0C35CA
:100450002C684E689C43B60200D51C432C60521C8D
:10046000102AFFF453AFBDE8F88F0000003C0140B4
:1004700044380240003001400000024000040240C5
:1004800000080240000C024000100240001402402C
:10049000001802400069084000D0012070470AB1EE
:1004A000816170470904FBE70148806870470000DC
:1004B000180000200248816802781144816070476A
:1004C000180000200B4810B5016841F4007101606C
:1004D000016841F480610160016841F4807101604C
:1004E000032000F08BF8002000F006F800F024F85C
:1004F000002010BD003C024070B50D4D04464FF485
:100500007A712878B1FBF0F00A490968B1FBF0F084
:1005100000F057FB48B9102C07D200222146501E8C
:1005200000F04CF800206C6070BD012070BD000030
:1005300018000020240000201F4808B5016841F47D
:1005400080410160006800F4804000901A48001F5C
:10055000016841F080510160006800F08050009017
:10056000032000F04BF8002211466FF00B0000F062
:1005700025F8002211466FF00A0000F01FF8002253
:1005800011466FF0090000F019F800221146501FC3
:1005900000F014F800221146101F00F00FF800229E
:1005A0001146901E00F00AF80022BDE808401146EE
:1005B000501E00F003B8000044380240F0B40E4B67
:1005C0001B680C46C3F30223C3F10705042D00D9B1
:1005D0000425191D072901D2002300E0DB1E012696
:1005E00006FA05F1491E214099409E40761E1640AC
:1005F0003143F0BC00F05ABB0CED00E0064900F0BE
:10060000070208684FF6FF03184040EA0220034A39
:1006100010430860704700000CED00E00000FA0590
:100620002DE9F8431748016841F0805101600068E6
:10063000154F00F08050012600903E64FFF734FF14
:1006400005464FF47A78114C05E000BFFFF72CFF08
:10065000401B40450DD86068C003F7D57E64FFF7A6
:1006600023FF0546464607E0FFF71EFF401BB0424A
:1006700002D90320BDE8F88360688003F4D5002028
:10068000F8E700004038024000000E4200700040D1
:100690002DE9F0470E46050065D0DFF81481D8F843
:1006A0000000F7B200F00F00B04207D288F80070E7
:1006B000D8F8000000F00F00B04254D128683D4C3B
:1006C000810712D5400703D5206840F4E050206030
:1006D0002878000703D5206840F460402060206837
:1006E000A96820F0F000084320602878C0072DD0CA
:1006F000304968680839012812D0022813D003282D
:1007000011D00968890700292DDA216821F0030139
:1007100001432160FFF7C8FE814641F2883A0EE0AE
:1007200009688903EFE709688901ECE7FFF7BCFE78
:10073000A0EB0901514502D90320BDE8F0872068EC
:10074000696800F00C00B0EB810FEFD1D8F8001011
:10075000404601F00F01B14207D90770006800F070
:100760000F00B04201D00120E7E72878400705D507
:100770002068E96820F4E0500843206028780007EA
:1007800006D52068296920F4604040EAC100206055
:1007900000F01CF82168084AC1F30311515CC840FD
:1007A000064908600020FFF7A7FE0020C5E700000B
:1007B000003C024008380240441200082400002097
:1007C000014800687047000024000020224810B54E
:1007D000006810F00C02214815D02149042A11D0DC
:1007E0001D4C241F082A0FD00C2A0CD12268236824
:1007F00002F03F025B0221D52068C0F38810A0FB05
:10080000010120E0084610BD2268236802F03F0283
:100810005B0205D52068C0F38810A0FB010104E04D
:100820002168C1F38811A1FB00010023FFF7E6FC5A
:100830002168C1F30141491C49000AE02168C1F364
:100840008811A1FB00010023FFF7D8FC2168C1F348
:100850000271B0FBF1F010BD083802400024F40032
:1008600040787D012DE9F84F0546DFF828B3007880
:10087000ABF10407C007A7F1040451D0DBF8001066
:100880005846C1F3810101290FD00168C1F38101EC
:10089000022902D13968490207D40068C0F38100F7
:1008A000032809D13868400206D52068800337D56F
:1008B0006868002872D033E06868B0F5803F10D0D7
:1008C000B0F5A02F206810D020F480302060206880
:1008D00020F4802020606868A8B1FFF7E5FD064697
:1008E0000DE0206840F48030F4E740F48020206080
:1008F000F7E700BFFFF7D8FD801B642878D8206891
:100900008003F7D50CE0FFF7CFFD064605E000BFFA
:10091000FFF7CAFD801B6428F0D820688003F7D455
:100920002878DFF8749280074FF0000A46D5DBF88C
:100930000010584611F00C0F0FD00168C1F381016F
:10094000022902D13968490207D50068C0F3810045
:10095000032809D13868400206D42068800715D5DD
:10096000E86801281AD111E0E868C0B10120C9F88F
:100970000000FFF799FD064605E000BFFFF794FD74
:10098000801B0228BAD820688007F7D5206829691B
:1009900020F0F80040EAC10020600FE0F7E0C9F85D
:1009A00000A0FFF781FD064605E000BFFFF77CFDD4
:1009B000801B02281CD820688007F7D428780007FD
:1009C00027D5DFF8D0817548696908F16C0881B1D5
:1009D00001210160FFF768FD064604E0FFF764FDB2
:1009E000801B022804D8D8F800008007F6D510E054
:1009F00089E0C0F800A0FFF757FD064605E000BFFC
:100A0000FFF752FD801B02287DD8D8F80000800730
:100A1000F6D42878400769D55E484FF00008383092
:100A20000068C0000BD45B483830016841F0805149
:100A3000016000684FF0010800F080500090584EAF
:100A40003068C00511D4306840F480703060FFF722
:100A50002BFD009006E000BFFFF726FD0099401A2D
:100A6000022850D83068C005F6D54A4EA8686836C6
:100A700001280FD00528306810D020F00100306028
:100A8000306820F004003060A868B8B1FFF70CFDB2
:100A900000900FE0306840F00100F4E740F00400FF
:100AA0003060F7E7FFF700FD0099411A41F2883006
:100AB000814264D830688007F4D50EE0FFF7F4FC7B
:100AC000009007E0FFF7F0FC0099411A41F28830EE
:100AD000814254D830688007F4D4B8F1000F05D0B3
:100AE0002C483830016821F080510160A869A8B312
:100AF000DBF80010C1F38101022948D00228C9F8AF
:100B000060A005D000E03AE0FFF7CEFC054639E0F2
:100B1000FFF7CAFC064604E0FFF7C6FC801B02286C
:100B20002DD820688001F7D4F5E907010843E9686A
:100B30001C4A490802EB0141AA6841EA82110843B4
:100B4000297C40EA0160297D40EA0170386001207B
:100B5000C9F86000FFF7A8FC054606E015E000BFF5
:100B6000FFF7A2FC401B022809D820688001F7D5B6
:100B70000BE000BFFFF798FC401B022802D90320BE
:100B8000BDE8F88F20688001F4D40020F8E7012048
:100B9000F6E700000838024000004742800E474256
:100BA000007000400000FFFF4FF0E02104280869BA
:100BB00003D020F004000861704740F00400FAE719
:100BC000704710B5401EB0F1807F01D3012010BDE9
:100BD0004FF0E02460610F21601700F067F80020FB
:100BE000A06107202061002010BD10B5FFF7E8FFCD
:100BF00010BDFEE72DE9F041274886B000240168CA
:100C000041F080010160016801F0800105910168F7
:100C100041F004010160016801F0040105910168DF
:100C200041F001010160016801F0010105910168D5
:100C300041F0020101600068184F00F002000590C9
:100C4000002280213846FFF72AFCDFF854807E1509
:100C5000002231464046FFF722FC8020009001250B
:100C6000CDE90154694638460394FFF741FB022061
:100C7000CDE90240CDE9006569464046FFF738FB03
:100C80002020CDE90004694606480294FFF730FBB6
:100C900006B0BDE8F0810000303802400008024094
:100CA0000000024000040240FEE770470907090EF9
:100CB000002806DA00F00F0000F1E02080F8141D93
:100CC000704700F1E02080F80014704770477047CB
:100CD00010B5FFF7EFFBBDE81040FFF786BF00003F
:100CE00030B5274893B00025016841F0805101607C
:100CF000006800F0805012902248016841F44041A1
:100D000001600068022400F440401290012003902A
:100D100010200490009406940820CDE90750B420D8
:100D2000CDE909040B9468460C94FFF79BFD00B1D4
:100D3000FEE7FFF775FC00B1FEE70DA90F2081E883
:100D400031004FF4A05010904FF4805011900521C5
:100D50000DA8FFF79DFC00B1FEE7FFF731FD4FF452
:100D60007A71B0FBF1F0FFF72CFF0420FFF71CFFB6
:100D700000221146501EFFF721FC13B030BD0000C9
:100D800040380240007000401048016841F4700192
:100D900001600F48016841F0010101600C4A002127
:100DA0000832116002680B4B1A400260031D0A4AA8
:100DB0001A60026822F48022026005480C3001604B
:100DC00002495806803908607047000088ED00E04D
:100DD00000380240FFFFF6FE10300024FEE700005E
:100DE0000FB4054B10B503A9044A029800F018F897
:100DF00010BC5DF814FB00006511000828000020FD
:100E000002E008C8121F08C1002AFAD170477047D3
:100E1000002001E001C1121F002AFBD17047000031
:100E20002DE9FF4F8BB088460546002606E02528B1
:100E30000BD0DDE90D1290476D1C761C2878002838
:100E4000F5D10FB03046BDE8F08F0024A146A24690
:100E50000122AE4900E0044315F8013F203B02FAAD
:100E600003F00842F7D128782A2810D06FF02F021B
:100E70002878A0F13001092915D809EB890102EB86
:100E8000410144F0020400EB01096D1CF0E758F841
:100E9000041B5FEA010903D544F40054C9F10009B9
:100EA00044F002046D1C28782E2817D115F8010F84
:100EB00044F004042A280ED06FF02F022878A0F105
:100EC000300109290AD80AEB8A0102EB410100EB43
:100ED000010A6D1CF2E758F804AB6D1C28786C28E9
:100EE0000FD006DC4C2817D068280DD06A2814D102
:100EF00004E0742810D07A280FD10DE044F40014D7
:100F00000AE044F4801401E044F44014697881421A
:100F100002D104F580146D1C6D1C2878692865D0F9
:100F200006DC00288DD0632827D0642806D15DE038
:100F30006E2808D073282AD0752877D0DDE90D12E5
:100F40009047761CE0E0C4F30250022809D0032841
:100F50000DD0D8F8001004280DD00E6008F1040858
:100F6000D2E0D8F80010F217C1E90062F6E7D8F82D
:100F700000100E80F2E70E70F0E718F8041B8DF8F1
:100F8000001000208DF80100EB46012003E058F826
:100F900004BB4FF0FF3061074FF0000701D40AE0B7
:100FA0007F1C57450DDA8742FADB1BF80710002932
:100FB000F6D106E07F1C8742FCDB1BF807100029F6
:100FC000F8D1DDE90D23A9EB07008146214600F0A9
:100FD000B1F83044C61904E0DDE90D121BF8010B2D
:100FE00090477F1EF8D22146484688E058F8040B07
:100FF000C4F302514FF00A0B032900D100B20429B7
:1010000000D140B2002802DA40422D2102E0210541
:1010100005D52B218DF82410012104E006E0E1071D
:1010200010D02021F6E708AF089113E058F8040B20
:10103000C4F302514FF00A0B032900D180B20429F6
:1010400000D1C0B20021EEE75946FFF708F9303170
:1010500007F8011D0028F7D1ADEB070000F1200BC8
:10106000600702D524F4803401E04FF0010ADA452C
:1010700002DDAAEB0B0000E00020824600EB0B0132
:1010800008980144A9EB01000A90E00306D4DDE9C9
:101090000D2321460A9800F04DF806444FF0000950
:1010A00008E009A911F80900DDE90D12904709F1DE
:1010B0000109761C08998945F3DBE0030CD5DDE9CD
:1010C0000D2321460A9800F035F8064404E0DDE9D6
:1010D0000D1230209047761CBAF10001AAF1010AE6
:1010E000F5DC05E0DDE90D1217F8010B9047761CE1
:1010F000BBF10001ABF1010BF4DC0A982146DDE9FC
:101100000D2300F005F806446D1C97E60928010040
:101110002DE9F041044600251E461746880404D4F4
:1011200005E039462020B0476D1C641EF9D52846DD
:10113000BDE8F0812DE9F041044600251E469046A9
:10114000C80301D5302700E02027880404D505E036
:1011500041463846B0476D1C641EF9D52846BDE8A7
:10116000F081000008490968C90706D0064980399E
:101170000968CA074FF0604101D1704700BF0A6893
:10118000002AFBD008707047800E00E0FFF79AF944
:10119000FFF7A6FDFFF72EFD002280211948FFF77B
:1011A0007EF9194F0025194C012620213846FFF7FA
:1011B00071F9012807D06560D4E9000188420ED09A
:1011C000012802D00BE06660F6E7A068012809D08C
:1011D0000FA0A660FFF704FEFFF766F9E060606805
:1011E0002060E2E7FFF760F92061E168401A606182
:1011F0000CA0FFF7F5FD10A06169FFF7F1FDA560F8
:10120000EDE700000008024000040240000000205A
:101210005374617274206D6561737572656D656E6E
:1012200074200A00456E64206D6561737572656D8A
:10123000656E74200A00000054696D6520253464D1
:10124000200A00000000000000000000010203046A
:101250000607080974120008000000202C00000096
:10126000000E0008A01200082C000020040400005A
:10127000100E000800000000000000000000000048
:10128000000000000000000000000000010000005D
:1012900010000000000000000024F4000000000026
:04000005080001C529
:00000001FF
