:020000040800F2
:10000000D8070020D9010008C71D00088D1A000874
:10001000C51D0008450400084D250008000000002B
:10002000000000000000000000000000A11E000809
:10003000F904000800000000E91D0008A31E0008E4
:10004000F3010008F3010008F3010008F3010008C0
:10005000F3010008F3010008F3010008F3010008B0
:10006000F3010008F3010008F3010008F3010008A0
:10007000F3010008F3010008F3010008F301000890
:10008000F301000849040008F3010008F301000827
:10009000F3010008F3010008F3010008F301000870
:1000A000F3010008F3010008F3010008F301000860
:1000B000F3010008F3010008F3010008F301000850
:1000C000F3010008F3010008F3010008F301000840
:1000D000F3010008F3010008F3010008F301000830
:1000E000F3010008F3010008F3010008F301000820
:1000F000F3010008F3010008F3010008F301000810
:10010000F3010008F3010008F3010008F3010008FF
:10011000F3010008F3010008F3010008F3010008EF
:10012000F3010008F3010008F3010008F3010008DF
:10013000F30100080000000000000000F3010008C7
:10014000F3010008F3010008F3010008F3010008BF
:10015000F3010008F3010008F3010008F3010008AF
:10016000F3010008F3010008F3010008F30100089F
:10017000F3010008F3010008F3010008000000008B
:1001800000000000F3010008000000000000000073
:10019000F30100080000000000000000F301000867
:1001A000000000000000000000000000F301000853
:1001B000F3010008F3010008F3010008F30100084F
:1001C000F3010008DFF80CD000F098F80048004771
:1001D000F9280008D807002006488047064800474D
:1001E000FEE7FEE7FEE7FEE7FEE7FEE7FEE7FEE7E7
:1001F000FEE7FEE7591F0008C50100082DE9F05F82
:100200000546002092469B46884606468146402485
:100210001BE0284641464746224600F05EF853461A
:100220005A46C01A914110D311461846224600F092
:1002300045F82D1A67EB01084F46224601200021A0
:1002400000F03CF817EB00094E41201EA4F1010418
:10025000DFDC484631462A464346BDE8F09F40EA87
:1002600001039B0703D009E008C9121F08C0042A34
:10027000FAD203E011F8013B00F8013B521EF9D21B
:100280007047421C10F8011B0029FBD1801A7047EF
:1002900030B50B46014600202022012409E021FA56
:1002A00002F59D4205D303FA02F5491B04FA02F553
:1002B0002844151EA2F10102F1DC30BD202A04DB26
:1002C000203A00FA02F1002070479140C2F1200369
:1002D00020FA03F3194390407047202A04DB203AA8
:1002E00021FA02F00021704721FA02F3D040C2F156
:1002F000200291400843194670470000064C074D04
:1003000006E0E06840F0010394E8070098471034E5
:10031000AC42F6D3FFF75AFF482E0008682E0008BB
:10032000454910B54A6822F440324A604A68436839
:100330001A434A6001684A6822F480724A60016880
:100340004A68036942EA03224A6001684A6822F067
:1003500040724A6001684A6883681A434A600168CB
:100360008A6822F400628A6001688A68C3681A4356
:100370008A60816A6FF07062D14201688A6822F0F7
:1003800070628A6001688A680CD0836A1A438A6046
:1003900001688A6822F040528A6001688A68C36AEC
:1003A0001A4301E022F040528A6001688A6822F014
:1003B00002028A6001688A68836942EA43028A60AD
:1003C000016A002901684A680FD042F400624A605D
:1003D00001684A6822F460424A6001684A68174C22
:1003E000436A04EB43331A4301E022F400624A609B
:1003F0000168CA6A22F47002CA620168CA6A838B01
:100400000F4C04EB03531A43CA6201688A6822F452
:1004100000728A6001688A68036B42EA43228A603C
:1004200001688A6822F480628A6001688A6840698B
:1004300042EA8020886010BD0023014000E0FFFFF9
:100440000000F0FFFEE70000014800F00FBA0000D6
:100450007801002001681823CAB2103AB2FBF3F207
:10046000054B6FF30901032A9B5CC36500D9091D85
:100470008165084670470000942A000810B50146BF
:1004800000208B698A6A4FF0C07453B1B3F5005FE6
:1004900015D072B1012A0CD0022A0AD0032A09D140
:1004A00004E01AB1012A06D0022A03D1C96AC9019F
:1004B00000D5012010BDC96AA142FAD010BD002AA2
:1004C000F7D0012AF2D0022AF3D0032AF3D010BDCC
:1004D00030B50468256825F48025256004686360CC
:1004E0008368402B036803D099600068C26030BD08
:1004F0009A600068C16030BD7047000078B5002484
:10050000009490F83C20012A19D0012280F83C2068
:100510000A6807230568092A13D9EE680A3A02EB2C
:10052000420293409E43EE600A788B680A3A02EBDF
:10053000420293400268D5682B43D36010E002204A
:1005400078BD2E6902EB420293409E432E610A78E9
:100550008B6802EB42029340026815692B431361DA
:100560004A681F23072A13D205686E6B521E02EBDE
:10057000820293409E436E630B790A885B1E92B29F
:1005800003EB83039A4003685D6B2A435A6327E0B9
:1005900005680D2A12D22E6BD21F02EB8202934005
:1005A0009E432E630B790A88DB1F92B203EB830311
:1005B0009A4003681D6B2A431A6311E0EE6A0D3AF4
:1005C00002EB820293409E43EE620B790A880D3B58
:1005D00092B203EB83039A400368DD6A2A43DA622E
:1005E000174B0568154A9D4206D10D68122D03D19F
:1005F000556845F48005556005689D4219D1114D37
:100600000B68AB4201D0112B13D1536843F40003A4
:1006100053600968A9420CD10B490C4A0968B1FB27
:10062000F2F101EB8101490000E0491E009100292F
:10063000FBD180F83C40002078BD00000023014041
:1006400000200140120000101000002040420F0066
:100650000068C06C704770B504004FF0000503D00F
:10066000206C002610B107E0012070BD666484F89C
:100670003C60204600F01AF8206CC00610D4206CB4
:1006800020F4885040F0020020642046FFF748FE26
:100690006664206C20F0020040F00100206400E05D
:1006A000012584F83C60284670BD000030B5134D2C
:1006B0000468002212490323124887B0AC4209D1D2
:1006C0000C6844F480740C60096801F48071059131
:1006D00001210BE00C4DAC420ED10C6844F40074C7
:1006E0000C60096801F4007105910221CDE9001345
:1006F0000292694600F042FA07B030BD0020014086
:100700004438024000000240002101402DE9F04140
:10071000044600680D4681684FF0000749050BD577
:100720008068C00508D5206C40F02000206484F863
:100730003C700120BDE8F08100F0F8FA06460FE0B9
:10074000681C0DD025B100F0F1FA801BA84207D932
:10075000206C40F00400206484F83C700320E9E73A
:10076000206800688007EBD521686FF012000860F0
:10077000206C40F4007020642068816811F0405FB4
:1007800013D1A16989B9C16A11F4700F02D08068D0
:1007900040050AD4206C20F480702064206CC004D2
:1007A00003D4206C40F0010020640020C2E7000068
:1007B00018B50021009190F83C20012A07D00122B1
:1007C00080F83C2002689368DB0702D011E0022029
:1007D00018BD936843F001039360204A204B1268D0
:1007E000B2FBF3F202EB420200E0521E0092002A3A
:1007F000FBD102689368DB072DD0036C40F20164E3
:10080000A34343F48073036453685B0505D5036C0D
:1008100023F4005343F480530364036CDB0404D5D6
:10082000436C23F00603436400E0416480F83C100D
:100830000C496FF02203136049680068C90602D0B2
:100840000949884207D1816811F0405F03D181686E
:1008500041F080418160002018BD000010000020A0
:1008600040420F0000230140002001402DE9F843E1
:1008700004464FF00009CDF8009063484FF416513C
:10088000A56D0068B0FBF1F72E6894F85C100820A5
:1008900000FA01F131420FD021680A6852070BD5E6
:1008A0000A6822F004020A6094F85C108840A8608C
:1008B000606D40F00100606594F85C104FF0010835
:1008C00008FA01F0304208D021684969090604D5C8
:1008D000A860606D40F00200606594F85C10042030
:1008E0008840304208D021680968890704D5A8608B
:1008F000606D40F00400606594F85C101020884042
:10090000304218D021680968090714D5A86020680A
:100910000168490304D50068000308D5A16C07E00D
:100920000168C90503D4016821F008010160216C48
:1009300009B12046884794F85C1020208840304256
:1009400031D021680968C9062DD5A86094F8350012
:1009500005282068016806D0490347D500680003D0
:100960001DD4616C1CE021F0160101602068416912
:1009700021F080014161206C08B9A06C20B1206891
:10098000016821F00801016094F85C103F20884064
:10099000A86084F8349084F83580216D1FE0E16B05
:1009A00009B120468847606D00282BD0606DC007D4
:1009B00014D0052084F835002068016821F0010179
:1009C00001600098401C0090B84203D8206800687D
:1009D000C007F6D184F8349084F83580E16C0029A2
:1009E00010D001B02046BDE8F04308470168C905B2
:1009F000D5D4016821F01001016084F8349084F8A6
:100A00003580CCE7BDE8F883100000202DE9F041E7
:100A1000044600F08BF906465CB1002584F834509A
:100A2000022084F835002068016821F0010101608E
:100A30000DE00120BDE8F08100F078F9801B052869
:100A400005D920206065032084F83500F2E720688E
:100A50000068C007F0D12268116820480140D4E93D
:100A600001031843D4E90336334318436369184339
:100A7000A3691843E3691843236A18430843616A6A
:100A8000042903D1D4E90B131943084310602068EB
:100A90004069666A20F0070130460E4301270428AA
:100AA0000CD1A06A0643E06A40B12046FFF7E6FC9D
:100AB00020B14020606584F83570BAE7206846614F
:100AC0002046FFF7C7FC94F85C203F2191408160ED
:100AD000656584F835700020ACE700003F8010F0B9
:100AE0002DE9F0410446866D90F834000025012878
:100AF0000DD0012084F8340094F835700020012FC7
:100B000007D084F8340002252846BDE8F081022091
:100B1000FBE7022784F8357060652046FFF7D8FCB4
:100B200094F85C103F208840B0602068016841F074
:100B3000160101602068416941F080014161206C2B
:100B400020B12068016841F0080101602068016857
:100B500041F001010160D7E770B5044600F0E6F806
:100B60000546601C02D004480078044400F0DEF81A
:100B7000401BA042FAD370BD040000202DE9F84FBD
:100B8000DFF874B100224FF001084FF0030A4FF074
:100B90000F090BF1040E00BF0B6808FA02F42340A2
:100BA000A3426ED14D68022D01D0122D0ED1D50871
:100BB00000EB850CDCF820505607F70E09FA07F613
:100BC000B5430E69BE402E43CCF820600668550040
:100BD0000F790AFA05FC07F0030726EA0C06AF4076
:100BE000374307604E68012E05D0022E03D0112E28
:100BF00001D0122E0ED18668CF6826EA0C06AF40CF
:100C0000374387604668A6430C79C4F300149440C8
:100C100034434460C4688E6824EA0C04AE40264322
:100C2000C6604C68E40060D5344C256845F48045C6
:100C30002560246822F0030504F480440094304CBD
:100C40002E19D6F8084895072F0F09FA07F5AC4377
:100C50002C4DA84201D100251FE02B4DA84201D107
:100C600001251AE0294DA84201D1022515E0284DA1
:100C7000A84201D1032510E0264DA84202D1042547
:100C80000BE032E0244DA84201D1052505E0234DBB
:100C9000A84201D1062500E00725BD402543C6F83E
:100CA0000858DBF800405D464E689C43F60300D5CB
:100CB0001C432C60DEF8004075464E689C43B6032A
:100CC00000D51C432C600C4D08352C684E689C43A5
:100CD000F60200D51C432C60074D0C352C684E687D
:100CE0009C43B60200D51C432C60521C102AFFF412
:100CF00053AFBDE8F88F0000003C0140443802408B
:100D000000300140000002400004024000080240A0
:100D1000000C024000100240001402400018024083
:100D20000AB1816170470904FBE70000014880684F
:100D300070470000040000200248816802781144D6
:100D400081607047040000200B4810B5016841F431
:100D500000710160016841F480610160016841F443
:100D600080710160032000F097F8002000F006F881
:100D700000F024F8002010BD003C024070B50D4D7D
:100D800004464FF47A712878B1FBF0F00A490968FB
:100D9000B1FBF0F000F09DFC48B9102C07D2002206
:100DA0002146501E00F058F800206C6070BD0120F4
:100DB00070BD000004000020100000201F4808B58E
:100DC000016841F480410160006800F480400090B7
:100DD0001A48001F016841F080510160006800F06E
:100DE00080500090032000F057F8002211466FF069
:100DF0000B0000F031F8002211466FF00A0000F0FD
:100E00002BF8002211466FF0090000F025F80022AF
:100E10001146501F00F020F800221146101F00F06C
:100E20001BF800221146901E00F016F80022BDE8C3
:100E300008401146501E00F00FB800004438024030
:100E400000F01F02012191404009800000F1E020E4
:100E5000C0F8001170470000F0B40E4B1B680C4640
:100E6000C3F30223C3F10705042D00D90425191D7E
:100E7000072901D2002300E0DB1E012606FA05F156
:100E8000491E214099409E40761E16403143F0BCD9
:100E900000F09ABF0CED00E0064900F00702086878
:100EA0004FF6FF03184040EA0220034A104308604F
:100EB000704700000CED00E00000FA052DE9F84352
:100EC0001748016841F0805101600068154F00F03B
:100ED0008050012600903E64FFF728FF05464FF43E
:100EE0007A78114C05E000BFFFF720FF401B40451A
:100EF0000DD86068C003F7D57E64FFF717FF05467D
:100F0000464607E0FFF712FF401BB04202D903201C
:100F1000BDE8F88360688003F4D50020F8E700009E
:100F20004038024000000E42007000402DE9F047BA
:100F30000E46050065D0DFF81481D8F80000F7B23E
:100F400000F00F00B04207D288F80070D8F8000017
:100F500000F00F00B04254D128683D4C810712D5F3
:100F6000400703D5206840F4E0502060287800074F
:100F700003D5206840F4604020602068A96820F014
:100F8000F000084320602878C0072DD030496868F9
:100F90000839012812D0022813D0032811D009687B
:100FA000890700292DDA216821F00301014321601E
:100FB000FFF7BCFE814641F2883A0EE009688903DA
:100FC000EFE709688901ECE7FFF7B0FEA0EB090144
:100FD000514502D90320BDE8F0872068696800F018
:100FE0000C00B0EB810FEFD1D8F80010404601F0B3
:100FF0000F01B14207D90770006800F00F00B0423E
:1010000001D00120E7E72878400705D52068E96886
:1010100020F4E050084320602878000706D52068B7
:10102000296920F4604040EAC100206000F03CF8EB
:101030002168084AC1F30311515CC84006490860A1
:101040000020FFF79BFE0020C5E70000003C0240A7
:10105000083802409C2A000810000020014800685F
:101060007047000010000020044805490068096826
:10107000044AC1F38221515CC8407047100000202F
:1010800008380240AC2A000804480549006809688D
:10109000044AC1F34231515CC8407047100000203F
:1010A00008380240AC2A0008224810B5006810F049
:1010B0000C02214815D02149042A11D01D4C241FAF
:1010C000082A0FD00C2A0CD12268236802F03F02B4
:1010D0005B0221D52068C0F38810A0FB010120E04D
:1010E000084610BD2268236802F03F025B0205D566
:1010F0002068C0F38810A0FB010104E02168C1F35F
:101100008811A1FB00010023FFF778F82168C1F3E3
:101110000141491C49000AE02168C1F38811A1FB83
:1011200000010023FFF76AF82168C1F30271B0FBE8
:10113000F1F010BD083802400024F40040787D0131
:101140002DE9F84F0546DFF828B30078ABF1040726
:10115000C007A7F1040451D0DBF800105846C1F3D2
:10116000810101290FD00168C1F38101022902D157
:101170003968490207D40068C0F38100032809D107
:101180003868400206D52068800337D56868002893
:1011900072D033E06868B0F5803F10D0B0F5A02F72
:1011A000206810D020F480302060206820F4802057
:1011B00020606868A8B1FFF7B9FD06460DE0206819
:1011C00040F48030F4E740F480202060F7E700BF6F
:1011D000FFF7ACFD801B642878D820688003F7D522
:1011E0000CE0FFF7A3FD064605E000BFFFF79EFDFC
:1011F000801B6428F0D820688003F7D42878DFF8B3
:10120000749280074FF0000A46D5DBF8001058466C
:1012100011F00C0F0FD00168C1F38101022902D136
:101220003968490207D50068C0F38100032809D155
:101230003868400206D42068800715D5E868012880
:101240001AD111E0E868C0B10120C9F80000FFF729
:101250006DFD064605E000BFFFF768FD801B022814
:10126000BAD820688007F7D52068296920F0F800EF
:1012700040EAC10020600FE0F7E0C9F800A0FFF7E6
:1012800055FD064605E000BFFFF750FD801B022814
:101290001CD820688007F7D42878000727D5DFF806
:1012A000D0817548696908F16C0881B1012101603C
:1012B000FFF73CFD064604E0FFF738FD801B0228DF
:1012C00004D8D8F800008007F6D510E089E0C0F80F
:1012D00000A0FFF72BFD064605E000BFFFF726FD47
:1012E000801B02287DD8D8F800008007F6D4287823
:1012F000400769D55E484FF0000838300068C000EC
:101300000BD45B483830016841F0805101600068BF
:101310004FF0010800F080500090584E3068C00532
:1013200011D4306840F480703060FFF7FFFC00900B
:1013300006E000BFFFF7FAFC0099401A022850D8D7
:101340003068C005F6D54A4EA868683601280FD027
:101350000528306810D020F001003060306820F09F
:1013600004003060A868B8B1FFF7E0FC00900FE01F
:10137000306840F00100F4E740F004003060F7E727
:10138000FFF7D4FC0099411A41F28830814264D8B9
:1013900030688007F4D50EE0FFF7C8FC009007E046
:1013A000FFF7C4FC0099411A41F28830814254D8B9
:1013B00030688007F4D4B8F1000F05D02C483830DD
:1013C000016821F080510160A869A8B3DBF8001022
:1013D000C1F38101022948D00228C9F860A005D0D4
:1013E00000E03AE0FFF7A2FC054639E0FFF79EFC7B
:1013F000064604E0FFF79AFC801B02282DD82068DF
:101400008001F7D4F5E907010843E9681C4A490857
:1014100002EB0141AA6841EA82110843297C40EAB3
:101420000160297D40EA017038600120C9F8600040
:10143000FFF77CFC054606E015E000BFFFF776FCF1
:10144000401B022809D820688001F7D50BE000BFB7
:10145000FFF76CFC401B022802D90320BDE8F88F7F
:1014600020688001F4D40020F8E70120F6E70000AE
:101470000838024000004742800E4742007000409A
:101480000000FFFF70B5040005D00025A56294F8A8
:10149000510010B106E0012070BD84F85050204684
:1014A00000F030F8022084F851002068016821F033
:1014B00040010160D4E901010843D4E9031211435A
:1014C000084361690843218B01F400710843E16915
:1014D0000843216A0843A16A084321680860A0699B
:1014E000042101EA1040616A0843216848602068CD
:1014F000C16921F40061C1616565012084F8510072
:10150000002070BD00B500680E4987B0884216D132
:101510000D480021026842F480520260006800F425
:1015200080500590A02000900220CDE90101032009
:1015300003900520049069460448FFF71FFB07B09D
:1015400000BD00000030014044380240000002406D
:101550002DE9F84F044690F85000002699461746AA
:101560000D4601280DD04FF0010B84F850B0FFF765
:10157000DDFB804694F85100B246012804D00226D3
:1015800094E00220BDE8F88F002D7BD0002F79D0A9
:10159000032084F85100C4F854A02563A786E78689
:1015A000C4F838A0A4F83CA0A4F83EA0C4F844A015
:1015B000C4F840A0A068B0F5004F04D120680168CD
:1015C00041F48041016020680168490603D4016844
:1015D00041F040010160E068B0F5006F606804D040
:1015E00030B3E08E012823D03EE010B1E08E012818
:1015F0001AD135F8021B206805E020688168890748
:1016000006D535F8021BC160E08E401EE0860BE077
:10161000B9F1000F34D0B9F1FF3F05D0FFF786FBD9
:10162000A0EB080149452BD2E08E0028E5D11EE051
:10163000216815F8010B087306E0206881688907A6
:1016400006D515F8011B0173E08E401EE0860BE005
:10165000B9F1000F14D0B9F1FF3F05D0FFF766FBD9
:10166000A0EB080149450BD2E08E0028E5D14B469E
:10167000012202212046CDF8008000F0C6FB10B107
:10168000032613E011E042464946204600F0ADFB38
:1016900018B101262020606508E0A06818B920680C
:1016A000C16880680090606D00B1012684F851B077
:1016B00084F850A0304665E74FF0E021042808691F
:1016C00003D020F004000861704740F00400FAE7FE
:1016D000704710B5401EB0F1807F01D3012010BDCE
:1016E0004FF0E02460610F21601700F06DFB0020D7
:1016F000A06107202061002010BD10B5FFF7E8FFB2
:1017000010BD30B590F83820012A20D0012280F891
:101710003820022380F8393003685C6824F07004B4
:101720005C6003685C680D682C435C6003689C68BF
:1017300024F080049C6003689C6849680C439C60AA
:1017400080F83920002180F83810084630BD02208A
:1017500030BD022180F8391001680A6842F00102A8
:101760000A60012180F839100020704700B5006838
:10177000084985B088420BD110200090022000213A
:10178000CDE90101CDE9031069460348FFF7F6F9F9
:1017900005B000BD000400400004024070B50446DE
:1017A00090F838000D4601280DD0012684F83860E5
:1017B000022084F8390042B1042A18D0082A2AD01D
:1017C0000C2A4DD139E0022070BD206800F05AFC8F
:1017D0002068816941F0080181612068816921F0F8
:1017E00004018161206881692A69114311E0206840
:1017F00000F074FC2068816941F400618161206817
:10180000816921F480618161206881692A6941EAE6
:101810000221816124E0206800F092FC2068C16907
:1018200041F00801C1612068C16921F00401C16172
:101830002068C1692A69114311E0206800F0B0FCFA
:101840002068C16941F40061C1612068C16921F467
:101850008061C1612068C1692A6941EA0221C161D0
:1018600084F83960002084F8380070BD10B5040099
:1018700003D094F8390010B107E0012010BD00201A
:1018800084F83800204600F00DF8022084F8390072
:10189000211D206800F08AFB012084F83900002017
:1018A00010BD000008B500680649884208D1064806
:1018B000016841F002010160006800F00200009040
:1018C00008BD0000000400404038024010B5044646
:1018D0000068012200F0CAFB08492068884202D053
:1018E0000749884203D1416C41F4004141642068BA
:1018F000016841F001010160002010BD00000140BD
:1019000000040140704770B5040004D094F8390019
:10191000002510B106E0012070BD84F83850204643
:1019200000F022F8242084F839002068C16821F4EE
:101930000051C160204600F0B3FC2068016921F429
:10194000904101612068416921F02A0141612068CC
:10195000C16841F40051C160E563202084F839007A
:1019600084F83A00002070BD70B5064600681C4936
:1019700086B0884232D11B480025016841F400310D
:1019800001600068694600F4003005900C2000906A
:101990000220019001200290032003900720049070
:1019A0001148FFF7EBF8124C104820604FF0006030
:1019B00060604020C4E902050001C4E9040580011B
:1019C000A561C4E9075020466562FFF71FF818B10A
:1019D0006E2108A000F0BBFD3463A66306B070BDA5
:1019E000004400404038024000000240A060024035
:1019F000780100202E2E2F436F72652F5372632FB4
:101A000075736172742E630070B5044690F83900E6
:101A1000202830D169B362B394F8380001282AD065
:101A2000012084F838002162A284E2840025E56365
:101A3000212084F83900236B1048D863236B1048A9
:101A40001864236B0F48D864206B1346056526681D
:101A5000206B321DFFF744F821686FF040000860EA
:101A600084F838502068416941F0800141610020CC
:101A700070BD012070BD022070BD00003B22000837
:101A800069220008F121000870477047FEE7000056
:101A90007FB515481349002401604FF48031C0E937
:101AA000011401250461856110490462C0E90A142A
:101AB000C460C56145610463FEF7CDFD18B14921DD
:101AC0000BA000F044FDCDE90045694606480294AC
:101AD000FEF714FD002803D0532105A000F037FDC8
:101AE0007FBD000000200140140000200100000F15
:101AF0002E2E2F436F72652F5372632F6164632EF6
:101B0000630000007FB515481349002401604FF4BD
:101B10008031C0E901140125046185611049046226
:101B2000C0E90A14C460C56145610463FEF793FD12
:101B300018B16C210BA000F00AFD0095CDE901540D
:101B400069460648FEF7DAFC002803D0762105A096
:101B500000F0FDFC7FBD0000002101405C00002082
:101B60000100000F2E2E2F436F72652F5372632FCB
:101B70006164632E63000000094808B5016841F400
:101B8000001101600068002200F40010009011466E
:101B90001120FFF761F9BDE808401120FFF750B9A7
:101BA000303802402DE9F041344886B00024016805
:101BB00041F080010160016801F080010591016838
:101BC00041F001010160016801F001010591016826
:101BD00041F004010160016801F004010591016810
:101BE00041F0020101600068254E00F002000590FE
:101BF00000224FF450713046FFF792F8214F002237
:101C000080213846FFF78CF8DFF87C8000224021E5
:101C10004046FFF785F84FF4A07000900125CDE90C
:101C20000154694630460394FEF7A8FF80200090D7
:101C3000CDE90154694638460394FEF79FFF6802D8
:101C4000CDE900050220CDE9024069463046FEF7A5
:101C500095FF2020CDE90004694640460294FEF736
:101C60008DFF40200090CDE9015469464046039421
:101C7000FEF784FF06B0BDE8F08100003038024076
:101C8000000002400008024000040240114810B564
:101C90000F4901604FF48271416000218160C16091
:101CA0004FF400720161C0E905122022C0E907214A
:101CB000416281620A21C162FFF7E4FB002805D07E
:101CC000BDE81040452104A000F041BC10BD00005B
:101CD00000300140A40000202E2E2F436F72652F8C
:101CE0005372632F7370692E6300000010B51B4898
:101CF0008AB0194901604FF461710024C0E90114F0
:101D00004FF47A71C0E90314FFF7B0FD18B13E211A
:101D100013A000F01CFC079407A910480894FFF7D3
:101D2000F0FC18B145210EA000F011FC6020CDE9B7
:101D30000004022002900022694604940748FFF73D
:101D40002DFD18B14E2106A000F001FC0348FFF75D
:101D50000DFD0AB010BD000000040040FC00002092
:101D60002E2E2F436F72652F5372632F74696D2E61
:101D7000630000000D4810B50B4901604FF4E131DC
:101D80004160002181600C22C160C0E904128161C0
:101D9000C161FFF7B8FD002805D0BDE8104044211F
:101DA00003A000F0D4BB10BD004400403801002067
:101DB0002E2E2F436F72652F5372632F75736172CE
:101DC000742E6300FEE770470907090E002806DA43
:101DD00000F00F0000F1E02080F8141D704700F1C2
:101DE000E02080F800147047704738B50B46009229
:101DF00004460022802100F008F8002804D0606D1D
:101E000040F020006065032038BD2DE9F0411D46FB
:101E100017460E460446DDF8188035E0681C33D0BE
:101E20002DB1FEF783FFA0EB0800A8422CD3206859
:101E3000416821F0E00141606068B0F5827F0BD11C
:101E4000A068B0F5004F02D0B0F5806F04D12068D3
:101E5000016821F040010160A06AB0F5005F0AD17D
:101E6000206801684DF6FF7211400160206801682A
:101E700041F400510160012084F85100002084F8F1
:101E800050000320BDE8F0812068806836EA000039
:101E900004D00020B842C1D10020F3E70120F9E7C7
:101EA000704710B5FEF748FFBDE81040FFF725BCAE
:101EB00030B5274893B00025016841F0805101609A
:101EC000006800F0805012902248016841F44041BF
:101ED00001600068022400F4404012900120039049
:101EE00010200490009406940820CDE90750B420F7
:101EF000CDE909040B9468460C94FFF721F900B171
:101F0000FEE7FEF7DBFF00B1FEE70DA90F2081E839
:101F100031004FF4A05010904FF4805011900521E3
:101F20000DA8FFF703F800B1FEE7FFF797F84FF4AD
:101F30007A71B0FBF1F0FFF7CCFB0420FFF7BCFB9C
:101F400000221146501EFEF787FF13B030BD00007F
:101F500040380240007000401048016841F47001B0
:101F600001600F48016841F0010101600C4A002145
:101F70000832116002680B4B1A400260031D0A4AC6
:101F80001A60026822F48022026005480C30016069
:101F900002495806803908607047000088ED00E06B
:101FA00000380240FFFFF6FE10300024F0B5026852
:101FB000234B244D244E254F254C4FF0804C984206
:101FC00009D0604507D0A84205D0B04203D0B8423E
:101FD00001D0A04204D122F0700E4A6842EA0E02FB
:101FE00098421BD0604519D0A84217D0B04215D0F6
:101FF000B84213D0A04211D0164DA8420ED0164DB3
:10200000A8420BD0154DA84208D0154DA84205D0C6
:10201000144DA84202D0144DA84203D122F44075B9
:10202000CA682A4302608A68C2620A688262984269
:1020300001D0A04201D10969016301214161F0BDD4
:10204000000001400004004000080040000C004077
:1020500000040140004001400044014000480140AC
:1020600000180040001C00400020004010B5012373
:10207000046A8B409C430462036A8A4013430362F0
:1020800010BD000030B5026A22F001020262026A4D
:10209000436884690D6824F07304254322F0020428
:1020A0008A6822430B4CA04202D00B4CA0420BD1B9
:1020B00022F00804CA6823F4407322434C6922F0DA
:1020C00004021C438B692343436085614968416373
:1020D000026230BD000001400004014030B5026AD8
:1020E00022F010020262026A436884690D6824F4D7
:1020F000E64444EA05248D6822F0200242EA0512F3
:102100000D4DA84202D00D4DA8420ED1CD6822F04F
:10211000800242EA05124D6923F4406343EA8503D5
:102120008D6922F0400243EA850343608461496877
:102130008163026230BD00000000014000040140E4
:1021400030B5026A22F480720262036A4268C4698E
:1021500023F4007324F073050C682C438D6843EA64
:1021600005230D4DA84202D00C4DA8420ED1CD68DA
:1021700023F4006343EA05234D6922F4405242EA06
:1021800005128D6923F4806342EA05124260C4613E
:102190004968C163036230BD000001400004014092
:1021A00030B5026A22F480520262046A4268C3694E
:1021B0000D6823F4E64343EA05238D6824F40054B4
:1021C00044EA0534084DA84202D0084DA84204D183
:1021D0004D6922F4804242EA85124260C361496837
:1021E0000164046230BD00000000014000040140B1
:1021F00070B5846B2068406994F83910C0F3C01042
:102200000025212904D118B1E584204600F03FF8CB
:102210002068406994F83A10C0F38010222904D154
:1022200018B1E585204600F024F8E06B40F010007E
:10223000E0632046FFF766FB70BD10B50146806B7A
:1022400009680968C9050CD40021C18401684A697C
:1022500022F080024A610068C16841F04001C1601B
:1022600010BDFFF711FC10BD10B5806BFFF70DFC22
:1022700010BD0168CA6822F49072CA6001684A6998
:1022800022F001024A61202180F83A10704701686B
:10229000CA6822F0C002CA60202180F83910704755
:1022A0002DE9F04104460068016921F44052E168DB
:1022B000114301612168C86849F20C6290432369A7
:1022C000A268E5691A4363692B431A430243CA6053
:1022D0002168486920F44072A06910434861E169AF
:1022E0006425B1F5004F9748974A21684FF03208AE
:1022F0003FD0914201D081427CD1FEF7C5FE00EB78
:10230000C00101EB001061688900B0FBF1F6FEF737
:10231000BBFE00EBC00101EB001061688900B0FB5F
:10232000F1F0B0FBF5F06FF01801484306EB8001C7
:1023300008EB0110B0FBF5F000F0F006FEF7A4FE8C
:1023400000EBC00101EB001061688900B0FBF1F007
:10235000B0FBF5F006EB0016FEF796FE00EBC001B1
:1023600001EB001061688900B0FBF1F7FEF78CFE0D
:10237000D2E0914201D081423DD1FEF785FE00EBD3
:10238000C00101EB001061684900B0FBF1F0B0FB47
:10239000F5F00601FEF778FE00EBC00101EB00103E
:1023A00061684900B0FBF1F7FEF76EFE00EBC0017B
:1023B00001EB001061684900B0FBF1F0B0FBF5F0F3
:1023C0006FF01801484307EB800108EBC100B0FB38
:1023D000F5F000F0F80006EB4006FEF755FE00EBC6
:1023E000C00101EB001061684900B0FBF1F7FEF796
:1023F0004BFE3CE055E0FEF737FE00EBC00101EB81
:10240000001061684900B0FBF1F0B0FBF5F0060187
:10241000FEF72AFE00EBC00101EB001061684900E5
:10242000B0FBF1F7FEF720FE00EBC00101EB00105E
:1024300061684900B0FBF1F0B0FBF5F06FF01801F6
:10244000484307EB800108EBC100B0FBF5F000F05A
:10245000F80006EB4006FEF707FE00EBC00101EBBB
:10246000001061684900B0FBF1F7FEF7FDFD00EBDD
:10247000C00101EB001061684900B0FBF1F0B0FB56
:10248000F5F06FF01801484307EB800108EBC1003D
:10249000B0FBF5F000F00700216830448860BDE82B
:1024A000F081FEF7E1FD00EBC00101EB0010616877
:1024B0008900B0FBF1F6FEF7D7FD00EBC00101EBA0
:1024C000001061688900B0FBF1F0B0FBF5F06FF02F
:1024D0001801484306EB800108EB0110B0FBF5F052
:1024E00000F0F006FEF7C0FD00EBC00101EB0010AC
:1024F00061688900B0FBF1F0B0FBF5F006EB001667
:10250000FEF7B2FD00EBC00101EB0010616889002D
:10251000B0FBF1F7FEF7A8FD00EBC00101EB0010E6
:1025200061688900B0FBF1F0B0FBF5F06FF01801C5
:10253000484307EB800108EB0110B0FBF5F000F019
:102540000F00A9E70014014000100140FEE7FEE77C
:102550000FB4084B10B504A902AA039800F01CF8A8
:10256000044602A9002000F0C1F8204610BC5DF826
:1025700014FB0000ED26000802E008C8121F08C185
:10258000002AFAD170477047002001E001C1121FF4
:10259000002AFBD1704700002DE9FF4F89B09B4610
:1025A0000446002506E025280BD05A460B99904793
:1025B000641C6D1C20780028F5D10DB02846BDE8BC
:1025C000F08F0027B8460122474900E0074314F87E
:1025D000013F203B02FA03F00842F7D120782E2871
:1025E00019D114F8010F47F004072A280ED06FF014
:1025F0002F022078A0F1300109290CD808EB8801BE
:1026000002EB410100EB0108641CF2E70A98641C2C
:1026100050F8048B0A9020780028CED0642808D087
:10262000692806D075281ED05A460B9990476D1C14
:1026300058E00A994FF00A0901C90A91002802DA04
:1026400040422D2102E0390504D52B218DF82010C0
:10265000012103E0F90704D02021F7E78A4608AEFC
:102660000DE00021FAE70A994FF00A0901C90A9121
:10267000F7E74946FDF70CFE303106F8011D00284A
:10268000F7D1ADEB060000F12009780701D44FF037
:102690000108C84502DDA8EB090000E000208046E3
:1026A000002706E008A85A46C05D0B9990476D1CAC
:1026B0007F1C5745F6DB04E030205A460B999047C3
:1026C0006D1CB8F10001A8F10108F5DC05E016F871
:1026D000010B5A460B9990476D1CB9F10001A9F105
:1026E0000109F4DC641C65E7092801000A68531C31
:1026F0000B6010707047000080F00102402101481B
:10270000FEF70EBB0004024070B50C460546FEF70E
:102710004FF864212846FDF7F9FF08B1002070BD8D
:102720000248FDF795FF2060012070BD14000020D5
:1027300000200549024600BF41F82020401CC0B2DD
:102740008028F9D370470000D801002010B5FFF7AA
:10275000EFFF0020FFF7D0FF154C0022402120465C
:10276000FEF7DEFA0120FEF7F7F9012240212046AC
:10277000FEF7D6FA0120FFF7BFFFA02000F044F9D2
:10278000AE2000F041F9C82000F03EF9A22000F090
:102790003BF92F2000F038F9212000F035F92820EE
:1027A00000F048F8BDE81040AF2000F02DB900005F
:1027B000000002402DE9F04F8346203A1C481E4697
:1027C0008A4602F0FF09002580462AE0002408EB33
:1027D000460720E018F8161011FB09F014491431CF
:1027E0002944405C0121A140084209D0099880F0A9
:1027F00001020AEB0500C1B20BEB0400C0B206E017
:102800000AEB0500C1B20BEB0400C0B2099A00F05C
:102810001FF8641CE4B279784046A142DAD86D1CF6
:10282000EDB210F81610A942D0D8BDE8F08F000024
:10283000B42A000810B504463F2807D8812000F0CC
:10284000E3F82046BDE8104000F0DEB810BD0000FF
:1028500010B580280CD220290AD2064C01238B40C7
:1028600054F820100AB1194300E0994344F82010AD
:1028700010BD0000D80100202DE9F8431D00DDF84F
:10288000208014468946064611D10A4800EB4507C8
:102890000AE02B4649463046CDF80080FFF78AFF14
:1028A0007878641C3044C6B22278002AF1D1BDE8A1
:1028B000F8830000B42A000870B50E4E002400BF53
:1028C00004F1B000C0B200F09FF8102000F09CF8B6
:1028D000002000F099F8002506EB8500005D00F06F
:1028E0007FF86D1CEDB2802DF6D3641CE4B2042C8D
:1028F000E6D370BDD80100209CB064222C4901A809
:10290000FDF7ADFCFEF720FAFFF7D2FAFFF74AF920
:10291000FFF732F9FFF7BAF9FFF72CFAFFF7F2F8F1
:10292000FFF7B6F8FFF7E2F9FFF710FFFFF700FF38
:102930002048FEF70EFF00211E48FEF7C7FF01A842
:10294000FDF79FFC82B201A91B48FFF75DF8012249
:1029500051021A48FEF7E4F9012280211848FEF7D7
:10296000DFF9144E174D002440F6FF77154916483D
:10297000FFF7CAFE0028F9D01A941B9413A11AA8D5
:102980002A68FFF7E5FDFFF7D3FE00231AAA082106
:1029900018460094FFF770FFFFF78EFF286840F29B
:1029A000E7314843B0FBF7F031684863DEE70000E9
:1029B000302A0008FC0000203801002000000240FE
:1029C00000080240000000201400002025640000E0
:1029D00002464FF480710148FEF7A2B900000240A0
:1029E00001B50120FFF7F4FF0120FFF785FE012369
:1029F0001A4669460348FEF7ABFD0020FFF77CFE50
:102A000008BD0000A400002001B50020FFF7E0FF92
:102A10000120FFF771FE01231A4669460348FEF7BD
:102A200097FD0020FFF768FE08BD0000A40000200D
:102A300020506C6561736520777269746520736FCF
:102A40006D657468696E670000000000000000009A
:102A50000000000000000000000000000000000076
:102A60000000000000000000000000000000000066
:102A70000000000000000000000000000000000056
:102A80000000000000000000000000000000000046
:102A900000000000000610160006101600000000DE
:102AA00000000000010203040607080900000000FE
:102AB00001020304080618101D001D001D001D0062
:102AC00002060E1E0E0602000000000000000000BC
:102AD00004040404040004000A0A0A0000000000C0
:102AE0000A0A1F0A1F0A0A00041E050E140F04001A
:102AF000031308040219180002050502150916003F
:102B00000C0C040200000000080402020204080089
:102B100002040808080402000004150E0E15040043
:102B20000004041F04040000000000000C0C040258
:102B30000000001F0000000000000000000C0C005E
:102B400000100804020100000E11131519110E00E7
:102B50000406040404040E000E11100E01011F00EF
:102B60001F10080C10110E00080C0A091F0808009D
:102B70001F010F1010110E001C02010F11110E0089
:102B80001F101008040201000E11110E11110E0089
:102B90000E11111E100807000000040004000000C0
:102BA00000000400040402001008040204081000DD
:102BB00000001F001F0000000204081008040200AB
:102BC0000E11100C040004000E11151D0D011E0045
:102BD000040A11111F1111000F11110F11110F0013
:102BE0000E11010101110E000F11111111110F0031
:102BF0001F01010F01011F001F01010F0101010051
:102C00001E11010119111E001111111F11111100C6
:102C10000E04040404040E001C0808080809060039
:102C200011090503050911000101010101011F003E
:102C3000111B151515111100111113151911110082
:102C40000E11111111110E000F11110F01010100D0
:102C50000E111111150916000F11110F05091100A0
:102C60000E11010E10110E001F15040404040400BF
:102C70001111111111110E0011111111110A04007D
:102C80001111111515150A0011110A040A1111006C
:102C900011110A04040404001F10080E02011F0091
:102CA0001E02020202021E000001020408100000BF
:102CB0001E10101010101E00040A11000000000069
:102CC0000000000000001F000606040800000000CD
:102CD000000006080E091E0001010D1311130D005E
:102CE00000000E1101110E00101016191119160016
:102CF00000000E111F010E000814040E040404004D
:102D000000000E191916100E01010D1311111100FA
:102D10000400060404040E00080008080809060060
:102D200001010905030509000604040404040E005A
:102D300000000B151515150000000D1311111100E1
:102D400000000E1111110E0000000D13130D0101F2
:102D5000000016191916101000000D1301010100D2
:102D600000001E010E100F0004041F0404140800CC
:102D7000000011111119160000001111110A0400B0
:102D80000000111115150A000000110A040A1100B3
:102D9000000011111E10110E00001F0804021F0078
:102DA00008040402040408000404040004040400E9
:102DB00002040408040402000215080000000000D8
:102DC000000000000000000000000C12120C0000C7
:102DD00000000C1E1E0C000000001E12121E00003F
:102DE00000001E1E1E1E000000000C0C121E000023
:102DF00000000C0C1E1E000000001E120C0C000037
:102E000000001E1E0C0C0000000018161618000012
:102E10000000181E1E1800000000061A1A06000006
:102E20000000061E1E06000000000C12120C00001E
:102E300000000C1E1E0C000000001E12121E0000DE
:102E400000001E1E1E1E0000682E0008000000204C
:102E500014000000782500087C2E000814000020D3
:102E6000C4070000882500080000000001000000E1
:0C2E700010000000000000000024F4002E
:04000005080001C529
:00000001FF
