:020000040800F2
:1000000010040020D9010008370C0008EB0B000891
:10001000350C0008C1020008690D0008000000004E
:100020000000000000000000000000005B0C000861
:10003000C302000800000000590C00085D0C000815
:10004000F3010008F3010008F3010008F3010008C0
:10005000F3010008F3010008F3010008F3010008B0
:10006000F3010008F3010008F3010008F3010008A0
:10007000F3010008F3010008F3010008F301000890
:10008000F3010008F3010008F3010008F301000880
:10009000F3010008F3010008F3010008F301000870
:1000A000F3010008F3010008F3010008F301000860
:1000B000F3010008F3010008F3010008F301000850
:1000C000F3010008F3010008F3010008F301000840
:1000D000F3010008F3010008F3010008F301000830
:1000E000F3010008F3010008F3010008F301000820
:1000F000F3010008F3010008F3010008F301000810
:10010000F3010008F3010008F3010008F3010008FF
:10011000F3010008F3010008F3010008F3010008EF
:10012000F3010008F3010008F3010008F3010008DF
:10013000F30100080000000000000000F3010008C7
:10014000F3010008F3010008F3010008F3010008BF
:10015000F3010008F3010008F3010008F3010008AF
:10016000F3010008F3010008F3010008F30100089F
:10017000F3010008F3010008F3010008000000008B
:1001800000000000F3010008000000000000000073
:10019000F30100080000000000000000F301000867
:1001A000000000000000000000000000F301000853
:1001B000F3010008F3010008F3010008F30100084F
:1001C000F3010008DFF80CD000F068F800480047A1
:1001D000890D0008100400200648804706480047A3
:1001E000FEE7FEE7FEE7FEE7FEE7FEE7FEE7FEE7E7
:1001F000FEE7FEE7150D0008C50100082DE9F05FD8
:100200000546002092469B46884606468146402485
:100210001BE0284641464746224600F02FF8534649
:100220005A46C01A914110D311461846224600F092
:1002300016F82D1A67EB01084F46224601200021CF
:1002400000F00DF817EB00094E41201EA4F1010447
:10025000DFDC484631462A464346BDE8F09F202A67
:1002600004DB203A00FA02F1002070479140C2F10D
:10027000200320FA03F3194390407047202A04DB3F
:10028000203A21FA02F00021704721FA02F3D0400F
:10029000C2F120029140084319467047064C074DB1
:1002A00006E0E06840F0010394E807009847103446
:1002B000AC42F6D3FFF78AFFCC0D0008EC0D000826
:1002C000FEE7704770B5044600F0EAF80546601C8A
:1002D00002D004480078044400F0E2F8401BA04239
:1002E000FAD370BD000000202DE9F84FDFF874B19B
:1002F00000224FF001084FF0030A4FF00F090BF1F5
:10030000040E00BF0B6808FA02F42340A3426ED12A
:100310004D68022D01D0122D0ED1D50800EB850CB1
:10032000DCF820505607F70E09FA07F6B5430E69B8
:10033000BE402E43CCF82060066855000F790AFABB
:1003400005FC07F0030726EA0C06AF4037430760B9
:100350004E68012E05D0022E03D0112E01D0122E90
:100360000ED18668CF6826EA0C06AF403743876017
:100370004668A6430C79C4F30014944034434460A7
:10038000C4688E6824EA0C04AE402643C6604C68FC
:10039000E40060D5344C256845F480452560246828
:1003A00022F0030504F480440094304C2E19D6F852
:1003B000084895072F0F09FA07F5AC432C4DA842C2
:1003C00001D100251FE02B4DA84201D101251AE0E3
:1003D000294DA84201D1022515E0284DA84201D19E
:1003E000032510E0264DA84202D104250BE032E09F
:1003F000244DA84201D1052505E0234DA84201D195
:10040000062500E00725BD402543C6F80858DBF85F
:1004100000405D464E689C43F60300D51C432C60AB
:10042000DEF8004075464E689C43B60300D51C4379
:100430002C600C4D08352C684E689C43F60200D5A4
:100440001C432C60074D0C352C684E689C43B6024B
:1004500000D51C432C60521C102AFFF453AFBDE89A
:10046000F88F0000003C0140443802400030014059
:10047000000002400004024000080240000C02405C
:1004800000100240001402400018024042694A4035
:10049000426170470AB1816170470904FBE70000BF
:1004A0000148806870470000000000200248816811
:1004B0000278114481607047000000200B4810B59D
:1004C000016841F400710160016841F480610160DC
:1004D000016841F480710160032000F08BF8002076
:1004E00000F006F800F024F8002010BD003C0240A7
:1004F00070B50D4D04464FF47A712878B1FBF0F0D9
:100500000A490968B1FBF0F000F057FB48B9102C1C
:1005100007D200222146501E00F04CF800206C60EB
:1005200070BD012070BD0000000000200C00002004
:100530001F4808B5016841F480410160006800F47B
:10054000804000901A48001F016841F0805101600E
:10055000006800F080500090032000F04BF800226B
:1005600011466FF00B0000F025F8002211466FF0E5
:100570000A0000F01FF8002211466FF0090000F099
:1005800019F800221146501F00F014F800221146FD
:10059000101F00F00FF800221146901E00F00AF81C
:1005A0000022BDE808401146501E00F003B80000CC
:1005B00044380240F0B40E4B1B680C46C3F30223D0
:1005C000C3F10705042D00D90425191D072901D2FF
:1005D000002300E0DB1E012606FA05F1491E21403A
:1005E00099409E40761E16403143F0BC00F024BB7B
:1005F0000CED00E0064900F0070208684FF6FF0323
:10060000184040EA0220034A104308607047000087
:100610000CED00E00000FA052DE9F84317480168E9
:1006200041F0805101600068154F00F080500126B4
:1006300000903E64FFF734FF05464FF47A78114C82
:1006400005E000BFFFF72CFF401B40450DD8606858
:10065000C003F7D57E64FFF723FF0546464607E053
:10066000FFF71EFF401BB04202D90320BDE8F8830C
:1006700060688003F4D50020F8E7000040380240AD
:1006800000000E42007000402DE9F0470E460500C4
:1006900065D0DFF81481D8F80000F7B200F00F0041
:1006A000B04207D288F80070D8F8000000F00F00C0
:1006B000B04254D128683D4C810712D5400703D57C
:1006C000206840F4E05020602878000703D52068B7
:1006D00040F4604020602068A96820F0F0000843E2
:1006E00020602878C0072DD0304968680839012873
:1006F00012D0022813D0032811D0096889070029D5
:100700002DDA216821F0030101432160FFF7C8FEC3
:10071000814641F2883A0EE009688903EFE70968EB
:100720008901ECE7FFF7BCFEA0EB0901514502D9B6
:100730000320BDE8F0872068696800F00C00B0EB8A
:10074000810FEFD1D8F80010404601F00F01B142FF
:1007500007D90770006800F00F00B04201D00120F7
:10076000E7E72878400705D52068E96820F4E050DD
:10077000084320602878000706D52068296920F4FE
:10078000604040EAC100206000F01CF82168084A7F
:10079000C1F30311515CC840064908600020FFF70F
:1007A000A7FE0020C5E70000003C024008380240D8
:1007B000BC0D00080C0000200148006870470000D4
:1007C0000C000020224810B5006810F00C022148EF
:1007D00015D02149042A11D01D4C241F082A0FD0FE
:1007E0000C2A0CD12268236802F03F025B0221D55B
:1007F0002068C0F38810A0FB010120E0084610BD6E
:100800002268236802F03F025B0205D52068C0F32E
:100810008810A0FB010104E02168C1F38811A1FB4D
:1008200000010023FFF7EAFC2168C1F30141491CE4
:1008300049000AE02168C1F38811A1FB00010023EF
:10084000FFF7DCFC2168C1F30271B0FBF1F010BDD1
:10085000083802400024F40040787D012DE9F84F6B
:100860000546DFF828B30078ABF10407C007A7F10D
:10087000040451D0DBF800105846C1F3810101296E
:100880000FD00168C1F38101022902D13968490200
:1008900007D40068C0F38100032809D138684002FA
:1008A00006D52068800337D56868002872D033E009
:1008B0006868B0F5803F10D0B0F5A02F206810D048
:1008C00020F480302060206820F480202060686858
:1008D000A8B1FFF7E5FD06460DE0206840F4803042
:1008E000F4E740F480202060F7E700BFFFF7D8FD71
:1008F000801B642878D820688003F7D50CE0FFF7C8
:10090000CFFD064605E000BFFFF7CAFD801B642847
:10091000F0D820688003F7D42878DFF87492800735
:100920004FF0000A46D5DBF80010584611F00C0FC6
:100930000FD00168C1F38101022902D1396849024F
:1009400007D50068C0F38100032809D13868400248
:1009500006D42068800715D5E86801281AD111E06F
:10096000E868C0B10120C9F80000FFF799FD06460C
:1009700005E000BFFFF794FD801B0228BAD820686D
:100980008007F7D52068296920F0F80040EAC10007
:1009900020600FE0F7E0C9F800A0FFF781FD0646F0
:1009A00005E000BFFFF77CFD801B02281CD82068F3
:1009B0008007F7D42878000727D5DFF8D08175485D
:1009C000696908F16C0881B101210160FFF768FDD8
:1009D000064604E0FFF764FD801B022804D8D8F81F
:1009E00000008007F6D510E089E0C0F800A0FFF70E
:1009F00057FD064605E000BFFFF752FD801B0228A9
:100A00007DD8D8F800008007F6D42878400769D54B
:100A10005E484FF0000838300068C0000BD45B48D7
:100A20003830016841F08051016000684FF00108E2
:100A300000F080500090584E3068C00511D43068E6
:100A400040F480703060FFF72BFD009006E000BF9F
:100A5000FFF726FD0099401A022850D83068C005DB
:100A6000F6D54A4EA868683601280FD005283068A8
:100A700010D020F001003060306820F004003060B9
:100A8000A868B8B1FFF70CFD00900FE0306840F0A7
:100A90000100F4E740F004003060F7E7FFF700FDE5
:100AA0000099411A41F28830814264D83068800749
:100AB000F4D50EE0FFF7F4FC009007E0FFF7F0FC40
:100AC0000099411A41F28830814254D83068800739
:100AD000F4D4B8F1000F05D02C483830016821F06B
:100AE00080510160A869A8B3DBF80010C1F381014F
:100AF000022948D00228C9F860A005D000E03AE0F9
:100B0000FFF7CEFC054639E0FFF7CAFC064604E0D5
:100B1000FFF7C6FC801B02282DD820688001F7D47F
:100B2000F5E907010843E9681C4A490802EB01415D
:100B3000AA6841EA82110843297C40EA0160297DC4
:100B400040EA017038600120C9F86000FFF7A8FC96
:100B5000054606E015E000BFFFF7A2FC401B022897
:100B600009D820688001F7D50BE000BFFFF798FC9B
:100B7000401B022802D90320BDE8F88F20688001BD
:100B8000F4D40020F8E70120F6E70000083802401E
:100B900000004742800E4742007000400000FFFF07
:100BA0004FF0E0210428086903D020F00400086118
:100BB000704740F00400FAE7704710B5401EB0F1EE
:100BC000807F01D3012010BD4FF0E02460610F2130
:100BD000601700F031F80020A0610720206100209C
:100BE00010BD10B5FFF7E8FF10BDFEE770B50F4868
:100BF00086B00025016841F00101016000680C4EDB
:100C000000F001004FF4007405902A46214630465A
:100C1000FFF740FC0120CDE900400220CDE9025061
:100C200069463046FFF760FB06B070BD30380240C1
:100C300000000240FEE770470907090E002806DAA7
:100C400000F00F0000F1E02080F8141D704700F163
:100C5000E02080F8001470477047704710B5FFF728
:100C600025FCBDE81040FFF7BCBF000030B52748A9
:100C700093B00025016841F080510160006800F0E8
:100C8000805012902248016841F4404101600068A0
:100C9000022400F4404012900120039010200490A0
:100CA000009406940820CDE90750B420CDE909044A
:100CB0000B9468460C94FFF7D1FD00B1FEE7FFF7F7
:100CC000ABFC00B1FEE70DA90F2081E831004FF425
:100CD000A05010904FF48050119005210DA8FFF7FF
:100CE000D3FC00B1FEE7FFF767FD4FF47A71B0FB6C
:100CF000F1F0FFF762FF0420FFF752FF00221146D8
:100D0000501EFFF757FC13B030BD000040380240C2
:100D1000007000401048016841F4700101600F4804
:100D2000016841F0010101600C4A002108321160A4
:100D300002680B4B1A400260031D0A4A1A600268DF
:100D400022F48022026005480C30016002495806F6
:100D5000803908607047000088ED00E000380240EC
:100D6000FFFFF6FE10300024FEE702E008C8121F65
:100D700008C1002AFAD170477047002001E001C184
:100D8000121F002AFBD170470024FFF797FBFFF7E3
:100D90006DFFFFF72BFF084E4FF400754FF4FA7705
:100DA00029463046FFF772FB3846FFF78BFA641C82
:100DB0000A2CF5DD0024F3E70000024000000000EB
:100DC000000000000102030406070809EC0D0008FA
:100DD00000000020100000006A0D0008FC0D000853
:100DE00010000020000400007A0D0008010000003F
:0C0DF00010000000000000000024F400CF
:04000005080001C529
:00000001FF
