:020000040800F2
:10000000680A0020D9010008DD2E00088D280008AC
:10001000992E000805050008613A0008000000005C
:10002000000000000000000000000000ED2F0008AC
:100030009F06000800000000192F0008EF2F00089D
:10004000F3010008F3010008F3010008F3010008C0
:10005000F3010008F3010008F3010008F3010008B0
:10006000F3010008F3010008F3010008F3010008A0
:10007000F3010008F3010008F3010008F301000890
:10008000750500088505000891030008F3010008C4
:10009000F3010008F3010008F3010008F301000870
:1000A000F3010008F3010008F3010008F301000860
:1000B000F301000851310008F3010008F3010008C2
:1000C000F3010008F3010008F3010008F301000840
:1000D000F3010008F3010008513A0008F301000899
:1000E000F3010008F3010008F3010008F301000820
:1000F000F3010008F3010008F3010008F301000810
:10010000F3010008F301000861310008F301000861
:10011000F3010008F3010008F3010008F3010008EF
:10012000F3010008F3010008F3010008F3010008DF
:10013000F30100080000000000000000F3010008C7
:10014000F3010008F3010008F3010008F3010008BF
:10015000F3010008F3010008F3010008F3010008AF
:10016000F3010008F3010008F3010008F30100089F
:10017000F3010008F3010008F3010008000000008B
:1001800000000000F3010008000000000000000073
:10019000F30100080000000000000000F301000867
:1001A000000000000000000000000000F301000853
:1001B000F3010008F3010008F3010008F30100084F
:1001C000F3010008DFF80CD000F0B2F80048004757
:1001D00065420008680A0020064880470648004734
:1001E000FEE7FEE7FEE7FEE7FEE7FEE7FEE7FEE7E7
:1001F000FEE7FEE7ED300008C50100082DE9F05FDD
:100200000546002092469B46884606468146402485
:100210001BE0284641464746224600F078F8534600
:100220005A46C01A914110D311461846224600F092
:100230005FF82D1A67EB01084F4622460120002186
:1002400000F056F817EB00094E41201EA4F10104FE
:10025000DFDC484631462A464346BDE8F09FD2B22D
:1002600001E000F8012B491EFBD270470022F6E79F
:1002700010B513460A4604461946FFF7F0FF20461C
:1002800010BD421E12F8013F002BFBD111F8013BBB
:1002900002F8013B002BF9D17047421C10F8011BFA
:1002A0000029FBD1801A704710B5002200E0521CD3
:1002B000835C8C5CA34201D1002BF8D1D8B2E1B2AF
:1002C000401A10BD30B50B46014600202022012403
:1002D00009E021FA02F59D4205D303FA02F5491B14
:1002E00004FA02F52844151EA2F10102F1DC30BD2A
:1002F000202A04DB203A00FA02F1002070479140E6
:10030000C2F1200320FA03F3194390407047202ADA
:1003100004DB203A21FA02F00021704721FA02F3AF
:10032000D040C2F1200291400843194670470000B6
:10033000064C074D06E0E06840F0010394E8070032
:1003400098471034AC42F6D3FFF740FF88600008AE
:10035000A860000810B51E210A4803F09FFD03F0B5
:100360004DFD68B108A10748FFF78BFF0548FFF76F
:1003700094FF84B2224603490448006802F036FA2A
:1003800010BD0000F403002041434B005800002042
:1003900010B5034800F052FA024800F04FFA10BDC1
:1003A00078000020C000002054494A6822F44032FE
:1003B0004A604A6843681A434A600268526822F4F5
:1003C000807203685A6002685368026943EA022235
:1003D00003685A600268526822F0407203685A60EB
:1003E0000268526883681A4303685A600268926818
:1003F00022F4006203689A6002689268C3681A4334
:1004000003689A603E4B826A9A4218D002689268EA
:1004100022F0706203689A6002689268836A1A43E5
:1004200003689A600268926822F0405203689A60FA
:1004300002689268C36A1A4303689A600BE0026814
:10044000926822F0706203689A600268926822F0F3
:10045000405203689A600268926822F002020368C0
:100460009A6002689368826943EA420203689A606C
:10047000026AA2B10268526842F4006203685A60DC
:100480000268526822F4604203685A600268536846
:10049000426A521E43EA423203685A6005E002682B
:1004A000526822F4006203685A600268D26A22F439
:1004B00070020368DA620268D36A828B521E43EAD2
:1004C00002520368DA620268926822F400720368DA
:1004D0009A6002689368026B43EA422203689A605A
:1004E0000268926822F4806203689A6002689368E6
:1004F000426943EA822203689A6070470023014000
:100500000100000F00BFFEE710B504462068016936
:10051000884710BD70B504460D4616460E48007853
:100520000A2801D1012070BD0B4801780078401CD9
:10053000094A107001EB8100084901EB800020603E
:1005400032462946206802F0A9F90548606005484E
:10055000A0600020E7E70000540000202C030020EA
:10056000690500080905000810B504462068C1683F
:10057000884710BD10B5024800F0C0FA10BD000059
:10058000CC02002010B5024800F0B8FA10BD0000FF
:100590006C0200200146087810381823B0FBF3F2F3
:1005A0000848805CC865032A05D908686FF309000C
:1005B000001D886503E008686FF309008865886D91
:1005C00070470000AC470008014600208A6A8B692A
:1005D000CBB932B1012A0DD0022A03D0032A10D19F
:1005E0000EE000BFCB6A03F08073B3F1807F00D1CF
:1005F000012007E0CB6AB3F1C07F00D1012001E008
:1006000000E000BF34E08B69B3F5005F1AD132B16E
:10061000012A07D0022A03D0032A11D10AE000BF21
:1006200001200EE0CB6A03F08073B3F1807F00D12C
:10063000012006E0CB6AB3F1C07F00D1012000E0C9
:1006400000BF15E032B1012A05D0022A04D0032AE6
:100650000CD103E000BF00BF012008E0CB6A03F02B
:100660008073B3F1807F00D1012000E000BF00BFA4
:10067000704730B50468246824F4802405682C6031
:10068000046863608468402C04D10468A260046834
:10069000E16003E00468A1600468E26030BD704777
:1006A0007047000038B502460020009000BF92F865
:1006B0003C00012801D1022038BD012082F83C0015
:1006C00000BF0868092816D91068C0680C780A3C71
:1006D00004EB44050724AC40A0431468E0600C78A8
:1006E0000A3C04EB44048868A0401468E468204392
:1006F0001468E06013E0106800690C7804EB4405AE
:100700000724AC40A043146820610C7804EB440437
:100710008868A040146824692043146820614868F0
:10072000072817D21068406B0C79641E04EB84050F
:100730001F24AC40A04314686063088880B20C7921
:10074000641E04EB8404A0401468646B20431468A6
:10075000606331E048680D2817D21068006B0C798F
:10076000E41F04EB84051F24AC40A04314682063FD
:10077000088880B20C79E41F04EB8404A04014685C
:10078000246B20431468206316E01068C06A0C795B
:100790000D3C04EB84051F24AC40A0431468E062C8
:1007A000088880B20C790D3C04EB8404A0401468E6
:1007B000E46A20431468E0621A4B1B4C1068A042A4
:1007C00006D10868122803D1586840F480005860A8
:1007D000154C1068A0421ED1144C0868A04202D0EB
:1007E0000868112817D1586840F4000058600F4C71
:1007F0000868A0420FD10E4800680E4CB0FBF4F020
:1008000000EB80004000009002E00098401E009045
:1008100000980028F9D100BF002082F83C0000BFFA
:1008200000BF49E7002301400020014012000010F2
:100830005000002040420F007047704770B50446DA
:100840000025002620680068C0F340052068406845
:10085000C0F3401695B38EB3206C00F0100018B9A9
:10086000206C40F4007020642068806800F04050E4
:10087000E8B9A069D8B92068C06A00F4700020B156
:100880002068806800F4806088B92068406820F0A3
:10089000200021684860206C20F480702064206C67
:1008A00000F4805018B9206C40F00100206420460C
:1008B000FFF7C2FF6FF0120021680860206800682F
:1008C000C0F3800520684068C0F3C016E5B3DEB30E
:1008D000206C00F0100018B9206C40F40050206427
:1008E0002068806800F4401038BB2068806B00F4FA
:1008F000401020B12068806800F48060E8B920686A
:10090000406800F48060C0B92068806800F0405002
:1009100098B9A06988B92068406820F080002168F3
:100920004860206C20F480502064206C00F48070BB
:1009300018B9206C40F0010020642046FFF7B0FE9B
:100940006FF00C00216808602068006800F0010565
:1009500020684068C0F3801685B17EB120680068C9
:1009600000F0010050B1206C40F48030206420463B
:1009700000F052F86FF001002168086020680068FC
:10098000C0F3401520684068C0F380667DB176B141
:10099000606C40F0020060646FF020002168086025
:1009A0002046FFF74AFF6FF020002168086070BD05
:1009B00070B5044600250CB9012070BD1549A06A28
:1009C000884200D000BF206C30B90020606484F8F9
:1009D0003C00204600F022F8206C00F0100088B99E
:1009E000206C20F4885040F0020020642046FFF77D
:1009F000DBFC00206064206C20F0020040F001006D
:100A0000206400E0012500BF002084F83C0000BF06
:100A10002846D2E70100000F7047000010B586B0ED
:100A2000044627492068884222D100BF0020009058
:100A30002448006840F48070224908600846006835
:100A400000F48070009000BF00BF022001900320DE
:100A500002900020039001A91B4800F049FA0022EF
:100A60000121122000F0BDFC122000F0ADFC25E0B9
:100A700016492068884221D100BF0020009011480B
:100A8000006840F400700F4908600846006800F4F0
:100A90000070009000BF00BF022001900320029070
:100AA0000020039001A90A4800F022FA0022012147
:100AB000122000F096FC122000F086FC06B010BD5B
:100AC000002001404438024000040240002101405F
:100AD00000000240014691F83500022803D0802032
:100AE000486501207047052081F8350008680068D6
:100AF00020F001000A6810600020F3E7F8B5044612
:100B0000002000908C4800684FF41651B0FBF1F7BC
:100B1000A56D2E6894F85C1008208840304098B18C
:100B20002068006800F0040070B12068006820F0C0
:100B300004002168086094F85C1008208840A860D0
:100B4000606D40F00100606594F85C100120884001
:100B5000304068B12068406900F0800040B194F8EE
:100B60005C1001208840A860606D40F00200606564
:100B700094F85C1004208840304068B12068006818
:100B800000F0020040B194F85C1004208840A86096
:100B9000606D40F00400606594F85C10102088409F
:100BA000304078B32068006800F0080050B394F833
:100BB0005C1010208840A8602068006800F4802045
:100BC00080B12068006800F4002028B9206CC8B10A
:100BD0002046216C884715E0A06C98B12046A16C96
:100BE00088470FE02068006800F4807028B920680A
:100BF000006820F0080021680860206C10B12046D1
:100C0000216C884794F85C102020884030400028F0
:100C100065D02068006800F0100000285FD094F8CC
:100C20005C1020208840A86094F83500052828D161
:100C30002068006820F0160021680860206840697C
:100C400020F0800021684861206C08B9A06C28B1B0
:100C50002068006820F008002168086094F85C10A3
:100C60003F208840A86000BF002084F8340000BF07
:100C7000012084F83500206D10B12046216D884791
:100C8000F8BD2068006800F4802080B1206800680A
:100C900000F4002028B9606C10B12046616C8847D0
:100CA0001DE0E06BD8B12046E16B884717E0206873
:100CB000006800F4807068B92068006820F01000B7
:100CC0002168086000BF002084F8340000BF0120C4
:100CD00084F83500E06B10B12046E16B8847606D09
:100CE00038B3606D00F00100F0B1052084F83500E4
:100CF0002068006820F001002168086000BF0098AB
:100D0000401C0090B84200D905E02068006800F05F
:100D100001000028F3D100BF00BF002084F8340098
:100D200000BF012084F83500E06C10B12046E16C72
:100D3000884700BFA4E70000500000202DE9F041E3
:100D40000446002500F0DAF9074614B90120BDE891
:100D5000F081606A00B100BF00BF002084F8340059
:100D600000BF022084F835002068006820F00100F0
:100D7000216808600AE000F0C1F9C01B052805D908
:100D800020206065032084F83500E0E720680068D3
:100D900000F001000028EED12068056821480540D8
:100DA000D4E901010843E168084321690843616906
:100DB0000843A1690843E1690843216A08430543E0
:100DC000606A042803D1D4E90B0108430543206875
:100DD00005602068456925F00705606A0543606A7B
:100DE00004280DD1A06A0543E06A48B12046FFF708
:100DF000EBFB28B140206065012084F83500A6E7B0
:100E0000206845612046FFF7C5FB064694F85C1054
:100E10003F208840B06000206065012084F83500E4
:100E2000002094E73F8010F02DE9F04704460D467E
:100E300016461F464FF00008D4F8589000BF94F8AB
:100E40003400012802D10220BDE8F087012084F897
:100E5000340000BF94F8350001282BD1022084F81B
:100E60003500002060653B46324629462046FFF7A4
:100E700000FC94F85C103F208840C9F80800206806
:100E8000006840F01600216808602068406940F062
:100E9000800021684861206C28B12068006840F01B
:100EA0000800216808602068006840F0010021689F
:100EB000086006E000BF002084F8340000BF4FF057
:100EC00002084046C0E7000070B5044600F016F97D
:100ED00006462546681C10B104480078054400BF4A
:100EE00000F00CF9801BA842FAD370BD4C00002022
:100EF000F8B502460B460025002400200021D7E06B
:100F0000012606FA01F51E6806EA0504AC4273D113
:100F10005E68022E02D05E68122E13D1CF0802F155
:100F2000200656F827004E07F70E0F26BE40B043A6
:100F30004F07FF0E1E69BE403043CF0802F1200666
:100F400046F8270010684F000326BE40B0431E79C4
:100F500006F003064F00BE40304310605E68012E6D
:100F600008D05E68022E05D05E68112E02D05E6841
:100F7000122E13D190684F000326BE40B0434F009D
:100F8000DE68BE4030439060506801268E40B0431A
:100F90001E79C6F300168E4030435060D0684F0073
:100FA0000326BE40B0434F009E68BE403043D06031
:100FB0005E6806F08056B6F1805F78D100BF0026EB
:100FC00000963D4E366846F480463B4F3E603E46B6
:100FD000366806F48046009600BF00BF374E8F0883
:100FE00056F827008E07370F0F26BE40B043344E09
:100FF000B24202D100261FE059E0324EB24201D186
:10100000012619E0304EB24201D1022614E02F4EE3
:10101000B24201D103260FE02D4EB24201D1042687
:101020000AE02C4EB24201D1052605E02A4EB2421A
:1010300001D1062600E007268F073F0FBE40304350
:101040001E4E8F0846F82700244E3068A0435E6885
:1010500006F48036B6F5803F00D120431F4E306045
:10106000361D3068A0435E6806F40036B6F5003FD2
:1010700000D12043194E361D3060361D3068A04324
:101080005E6806F48016B6F5801F00D12043134E2B
:1010900008363060361D3068A0435E6806F40016DE
:1010A000B6F5001F00D120430C4E0C363060491CB1
:1010B0001029FFF425AFF8BD44380240083801403C
:1010C000000002400004024000080240000C024000
:1010D000001002400014024000180240003C014091
:1010E000024613690B400BB1012000E0002070475D
:1010F0000AB1816101E00B04836170470148006817
:10110000704700004400002070B50446002600250A
:101110000CB9012070BD94F83D0028B9002084F876
:101120003C00204600F084F8242084F83D0020682C
:10113000006820F001002168086000F0B1FA05465F
:101140003948B5FBF0F62068466038496068884247
:1011500001D8701C07E04FF4967070434FF47A7119
:10116000B0FBF1F0401C2168086230496068884299
:101170000ED860684000B5FBF0F0C0F30B00042807
:1011800001D204202DE060684000B5FBF0F028E0BB
:10119000A06828B9606800EB4000B5FBF0F008E0FB
:1011A000606800EBC00101EB0010B5FBF0F040F40B
:1011B0008040C0F30B0008B9012012E0A06828B9F4
:1011C000606800EB4000B5FBF0F008E0606800EB01
:1011D000C00101EB0010B5FBF0F040F4804040F49A
:1011E00000402168C861D4E907010843216808600C
:1011F000D4E90310084321688860D4E90501084355
:101200002168C8602068006840F00100216808601B
:1012100000202064202084F83D000020206384F812
:101220003E0000BF76E7000040420F00A0860100AC
:1012300010B586B004461249206888421ED14FF48A
:10124000407001901220029001200390032004902E
:101250000420059001A90B48FFF74AFE00BF0020BB
:1012600000900948006840F40010074908600846EB
:10127000006800F40010009000BF00BF06B010BD71
:101280000054004000040240403802400348006817
:101290000349097808440149086070474400002068
:1012A0004C00002010B50D48006840F400700B4958
:1012B00008600846006840F48060086008460068DE
:1012C00040F480700860032000F0CAF8002000F0AD
:1012D00007F800F02BF8002010BD0000003C024091
:1012E00070B504460E4800784FF47A71B1FBF0F007
:1012F0000C490968B1FBF0F5284600F021FE08B161
:10130000012070BD102C07D200222146501E00F093
:1013100068F80548046001E00120F2E70020F0E7EA
:101320004C000020500000204800002008B500BFFD
:10133000002000902348006840F480402149086064
:101340000846006800F48040009000BF00BF00BF66
:1013500000200090081F006840F08050091F0860BE
:101360000846006800F08050009000BF00BF0320D6
:1013700000F076F8002211466FF00B0000F031F813
:10138000002211466FF00A0000F02BF800221146EF
:101390006FF0090000F025F800221146501F00F000
:1013A00020F800221146101F00F01BF80022114601
:1013B000901E00F016F800221146501E00F011F8A1
:1013C00008BD00004438024000BF00F01F020121A8
:1013D00091404209920002F1E022C2F8001100BFE0
:1013E00070472DE9F05F80460D461646002701F054
:1013F00077FD074639462A46334601F00700C0F11B
:10140000070ABAF1040F02D94FF0040A01E0C0F153
:10141000070AD14600F1040ABAF1070F02D24FF0D1
:10142000000A01E0A0F1030AD4464FF0010A0AFACB
:1014300009FAAAF1010A0AEA020A0AFA0CFA4FF0BA
:10144000010B0BFA0CFBABF1010B0BEA030B4AEAA5
:101450000B042146404601F04BFDBDE8F09F000023
:1014600000BF00F00702064B19684FF6FF03194052
:10147000044B0B4343EA0221014B196000BF704744
:101480000CED00E00000FA0538B5002400BF002094
:1014900000901D48006840F080501B4908600846D5
:1014A000006800F08050009000BF00BF0120174985
:1014B0000864FFF723FE044607E0FFF71FFE001B4A
:1014C000B0F57A7F01D9032038BD1148406800F497
:1014D0008030B0F5803FF0D101200C494864FFF71F
:1014E0000DFE044607E0FFF709FE001BB0F57A7F0A
:1014F00001D90320E8E70648406800F40030B0F561
:10150000003FF0D10020DFE74038024000000E42EB
:101510000070004070B504460D460CB9012070BD46
:101520005848006800F00F00A84209D255490D70D4
:101530000846006800F00F00A84201D00120EEE745
:10154000207800F0020002281DD1207800F004006D
:10155000042805D14C48006840F4E0504A4908602E
:10156000207800F00800082805D14748006840F4BA
:101570006040454908604448006820F0F000A168D8
:10158000084341490860207800F00100A8B3606872
:10159000012807D13C4808380068C0F34040B8B97A
:1015A0000120BCE76068022802D06068032807D1E8
:1015B000354808380068C0F3406048B90120AEE7FC
:1015C000314808380068C0F3400008B90120A6E798
:1015D0002D48006820F00300616808432A4908602C
:1015E000FFF78CFD064609E0FFF788FD801B41F2FE
:1015F0008831884202D9032091E707E02248006839
:1016000000F00C006168B0EB810FEDD11D4800685F
:1016100000F00F00A84209D91A490D700846006869
:1016200000F00F00A84201D0012078E7207800F0F8
:101630000400042807D11448006820F4E050E16851
:10164000084311490860207800F00800082808D1F4
:101650000D48006820F46040216940EAC1000A4951
:10166000086000F03DF808490968C1F30311074A12
:10167000515CC840064908600020FFF731FE002099
:101680004DE70000003C024008380240B447000823
:101690005000002001480068704700005000002002
:1016A00000B5FFF7F7FF04490968C1F38221034A37
:1016B000515CC84000BD000008380240C447000823
:1016C00000B5FFF7E7FF04490968C1F34231034A57
:1016D000515CC84000BD000008380240C447000803
:1016E0002DE9F047002400250026A146A2463F48E8
:1016F000006800F00C0030B1042807D0082808D09A
:101700000C286BD138E0DFF8E8A06AE0DFF8E4A04D
:1017100067E03648001F006800F03F043348001FB0
:10172000006800F4800078B132483049091F096828
:10173000C1F38811A0FB0170014622460023384600
:10174000FEF75CFD05460DE029482849091F096898
:10175000C1F38811A0FB0171224600233846FEF731
:101760004DFD05462148001F0068C0F30140401CA4
:101770004600B5FBF6FA34E01C48001F006800F094
:101780003F041A48001F006800F4800078B119482F
:101790001649091F0968C1F38811A0FB01700146B1
:1017A000224600233846FEF729FD05460EE0104884
:1017B0000E49091F0968C1F38811A0FB0170014699
:1017C000224600233846FEF719FD05460748001F4C
:1017D0000068C0F30279B5FBF9FA02E0DFF810A067
:1017E00000BF00BF5046BDE8F08700000838024047
:1017F0000024F40040787D01F8B5044600252078E7
:1018000000F0010000286FD0FD48006800F00C00D7
:1018100004281BD0FA48006800F00C00082807D103
:10182000F748001F006800F48000B0F5800F0DD06D
:10183000F348006800F00C000C2813D1F048001F9A
:10184000006800F48000B0F5800F0BD1EC48083838
:101850000068C0F34040002859D06068002856D185
:101860000120F8BD00BF6068B0F5803F08D1E448B2
:101870000838006840F48030E149083908601EE00B
:101880006068B0F5A02F0DD1DD480838006840F43D
:101890008020DB49083908600846006840F4803041
:1018A00008600CE0D6480838006820F48030D4493D
:1018B000083908600846006820F48020086000BFEE
:1018C000606890B1FFF71AFC054606E0FFF716FCCA
:1018D000401B642801D90320C3E7C94808380068C1
:1018E000C0F340400028F1D011E0FFF707FC0546A7
:1018F00006E0FFF703FC401B642801D90320B0E792
:10190000BF4808380068C0F340400028F1D1207873
:1019100000F0020002286BD1B948006800F00C000A
:10192000B8B1B748006800F00C00082805D1B448E9
:10193000001F006800F4800058B1B148006800F052
:101940000C000C281CD1AE48001F006800F4800079
:10195000B0B9AB4808380068C0F3400020B1E06877
:10196000012801D001207CE7A5480838006820F054
:10197000F800216940EAC100A1490839086037E050
:10198000E06800B301209F490860FFF7B7FB0546F8
:1019900006E0FFF7B3FB401B022801D9032060E7F4
:1019A000974808380068C0F340000028F1D09448F8
:1019B0000838006820F0F800216940EAC100904929
:1019C0000839086014E000208E490860FFF796FB94
:1019D000054606E0FFF792FB401B022801D90320D1
:1019E0003FE7874808380068C0F340000028F1D17D
:1019F000207800F0080008282CD16069A8B10120E7
:101A000081490860FFF77AFB054606E0FFF776FBA1
:101A1000401B022801D9032023E779486C30006875
:101A2000C0F340000028F1D014E00020764908609F
:101A3000FFF764FB054606E0FFF760FB401B02284A
:101A400001D903200DE76E486C300068C0F34000F8
:101A50000028F1D1207800F00400042870D100267D
:101A600067483830006800F0805090B900BF00200F
:101A7000009063483830006840F080506049383149
:101A800008600846006800F08050009000BF00BF6A
:101A900001265E48006800F48070B0B95B480068B9
:101AA00040F4807059490860FFF728FB054606E0BE
:101AB000FFF724FB401B022801D90320D1E653483D
:101AC000006800F480700028F2D000BFA0680128F0
:101AD00008D14B486830006840F00100484968313F
:101AE00008601DE0A06805280DD1454868300068F1
:101AF00040F004004249683108600846006840F040
:101B0000010008600CE03E486830006820F00100E9
:101B10003B49683108600846006820F0040008600E
:101B200000BFA068A8B1FFF7E9FA054609E0FFF792
:101B3000E5FA401B41F28831884202D9032090E641
:101B400026E02F4868300068C0F340000028EED03F
:101B500013E0FFF7D3FA054608E0FFF7CFFA401B82
:101B600041F28831884201D903207AE6244868305E
:101B70000068C0F340000028EFD1012E07D12048B3
:101B80003830006820F080501D493831086000BFAF
:101B9000A069E8B31A48006800F00C00082862D079
:101BA000A06902284AD1002016490866FFF7A6FA64
:101BB000054606E0FFF7A2FA401B022801D90320E0
:101BC0004FE60F4808380068C0F340600028F1D1A4
:101BD000D4E907010843616A40EA81110122A06A41
:101BE000C2EB500041EA00412C20005D41EA006157
:101BF0003020005D41EA00700149091F086008E0DB
:101C00000838024000004742800E47420070004002
:101C10002BE0012016490866FFF770FA054606E03A
:101C2000FFF76CFA401B022801D9032019E611487E
:101C30000068C0F340600028F2D016E000200C4994
:101C40000866FFF75BFA054606E0FFF757FA401B08
:101C5000022801D9032004E606480068C0F340606A
:101C60000028F2D101E00120FBE50020F9E50000A9
:101C7000000047420038024010B504460CB901206C
:101C800010BD606A00B900BF0021A16294F8510044
:101C900028B9002084F85000204600F033F80220D4
:101CA00084F851002068006820F040002168086036
:101CB000D4E901010843E1680843216908436169E7
:101CC0000843218B01F400710843E1690843216A4C
:101CD0000843A16A0843216808600421A06901EA59
:101CE0001040616A0843216848602068C06920F498
:101CF00000602168C86100206065012084F85100FF
:101D00000020BDE710B586B004461249206888421D
:101D10001DD100BF002000900F48006840F48050A3
:101D20000D4908600846006800F48050009000BF2C
:101D300000BFA02001900220029000200390032009
:101D400004900520059001A90448FFF7D1F806B0DA
:101D500010BD000000300140443802400000024045
:101D60002DE9F84304460D4617461E464FF000087D
:101D7000C14600BF94F85000012802D10220BDE8FE
:101D8000F883012084F8500000BFFFF7B7F98046C0
:101D900094F85100012802D04FF00209A9E005B1E2
:101DA00017B94FF00109A4E0032084F85100002086
:101DB00060652563A786E786A063A087E0876064E7
:101DC0002064A068B0F5004F05D12068006840F499
:101DD0008040216808602068006800F040004028CA
:101DE00005D02068006840F0400021680860E06885
:101DF000B0F5006F2AD1606810B1E08E012806D1DD
:101E000028882168C860AD1CE08E401EE08619E07D
:101E10002068806800F00200022807D12888216825
:101E2000C860AD1CE08E401EE0860BE03EB1701C29
:101E300040B1FFF763F9A0EB0800B04202D34FF0C6
:101E4000030956E0E08E0028E2D129E0606810B175
:101E5000E08E012806D12878216808736D1CE08E79
:101E6000401EE08619E02068806800F00200022829
:101E700007D12878216808736D1CE08E401EE0862B
:101E80000BE03EB1701C40B1FFF738F9A0EB080041
:101E9000B04202D34FF003092BE0E08E0028E2D1DC
:101EA0003346012202212046CDF8008001F049F896
:101EB00010B14FF003091CE042463146204601F0C4
:101EC0002CF820B14FF001092020606511E0A068D6
:101ED00050B900BF002000902068C06800902068C2
:101EE0008068009000BF00BF606D08B14FF001092D
:101EF00000BF012084F8510000BF002084F850008A
:101F000000BF48463BE7042808D14FF0E0210969AB
:101F100041F004014FF0E022116107E04FF0E021B1
:101F2000096921F004014FF0E022116170470000BF
:101F300002480068401C01490860704734000020D6
:101F400070B504462546681EB0F1807F01D301209C
:101F50000FE0681E4FF0E02148610F214FF0FF3085
:101F600000F0C6FF00204FF0E021886107200861E3
:101F7000002070BD10B5FFF7DBFF10BD7047704744
:101F8000024600BF92F83800012801D102207047B4
:101F9000012082F8380000BF022082F83900106862
:101FA000406820F0700013685860106840680B6843
:101FB0001843136858601068806820F08000136828
:101FC0009860106880684B68184313689860012017
:101FD00082F8390000BF002082F8380000BF00BF3F
:101FE000D5E710B504460CB9012010BD94F83900AE
:101FF00028B9002084F83800204600F00DF80220AF
:1020000084F83900211D206801F0B2F8012084F81D
:1020100039000020E9E7000038B504461C49206873
:10202000884218D100BF002000901A48006840F094
:102030000200184908600846006800F0020000909D
:1020400000BF00BF002201211D20FFF7CAF91D209B
:10205000FFF7BAF91BE010492068884217D100BF8A
:10206000002000900B48006840F008000949086013
:102070000846006800F00800009000BF00BF002282
:1020800001213220FFF7ADF93220FFF79DF938BD6D
:102090000004004040380240000C00402DE9F041AF
:1020A00004460D46002600BF94F83800012802D1EE
:1020B0000220BDE8F081012084F8380000BF022032
:1020C00084F839002068866826F0770626F47F4673
:1020D00020688660286850283BD00CDC202860D01F
:1020E00004DC002853D0102865D155E030285DD09D
:1020F000402860D141E0602835D070280DD0B0F57F
:10210000805F03D0B0F5005F55D115E0206880688E
:1021100020F00700216888604EE0D5E902136A6864
:10212000206801F097F82068866826F0770646F068
:102130007706206886603FE0D5E902136A68206868
:1021400001F088F82068806840F480402168886049
:1021500032E0EA686968206801F072F9502120686D
:1021600001F084F828E0EA686968206801F07DF9E8
:102170006021206801F07AF81EE0EA68696820684A
:1021800001F05EF94021206801F070F814E00021B0
:10219000206801F06BF80FE01021206801F066F86C
:1021A0000AE02021206801F061F805E03021206874
:1021B00001F05CF800E000BF00BF012084F83900A6
:1021C00000BF002084F8380000BF00BF71E77047EF
:1021D00010B5044620680069C0F34000D8B12068FB
:1021E000C068C0F34000B0B16FF002002168086120
:1021F000012020762068806900F0030018B1204695
:10220000FFF7E5FF05E0204600F002F9204600F068
:102210001BF90020207620680069C0F38000D8B147
:102220002068C068C0F38000B0B16FF0040021687E
:102230000861022020762068806900F4407018B19F
:102240002046FFF7C4FF05E0204600F0E1F82046F5
:1022500000F0FAF80020207620680069C0F3C00082
:10226000D8B12068C068C0F3C000B0B16FF00800FA
:1022700021680861042020762068C06900F003000E
:1022800018B12046FFF7A3FF05E0204600F0C0F894
:10229000204600F0D9F80020207620680069C0F3BD
:1022A0000010D8B12068C068C0F30010B0B16FF062
:1022B000100021680861082020762068C06900F4B9
:1022C000407018B12046FFF782FF05E0204600F07D
:1022D0009FF8204600F0B8F80020207620680069BA
:1022E00000F0010058B12068C06800F0010030B172
:1022F0006FF0010021680861204600F0A6F8206810
:102300000069C0F3C01058B12068C068C0F3C010A5
:1023100030B16FF08000216808612046FFF72EFE83
:1023200020680069C0F3801058B12068C068C0F30D
:10233000801030B16FF0400021680861204600F045
:1023400085F820680069C0F3401058B12068C06863
:10235000C0F3401030B16FF02000216808612046C2
:10236000FFF70DFE10BD000010B586B00446094908
:10237000206888420CD101200190022002900020A8
:10238000039004900220059001A90348FEF7B0FDD8
:1023900006B010BD000C00400000024070B50446BD
:1023A0000E46154600BF94F83800012801D10220DE
:1023B00070BD012084F8380000BF022084F8390085
:1023C00035B1042D09D0082D0CD00C2D14D10EE000
:1023D0003146206800F054FF0FE03146206800F0DD
:1023E00087FF0AE03146206800F0BEFF05E0314675
:1023F000206800F0F5FF00E000BF00BF012084F876
:10240000390000BF002084F8380000BF00BFCFE7CC
:10241000704710B504460CB9012010BD94F839007E
:1024200028B9002084F83800204600F00CF802207B
:1024300084F83900211D206800F09AFE012084F8FC
:1024400039000020E9E770477047704770477047D0
:102450002DE9F0470446206805682068C6682068B2
:1024600047694FF00008C14605F00F08B8F1000FAA
:102470000AD105F0200038B106F0200020B1204636
:1024800001F0B1F8BDE8F087B8F1000F6DD007F0AA
:10249000010018B906F49070002866D005F001001C
:1024A00030B106F4807018B1E06B40F00100E063D9
:1024B00005F0040030B107F0010018B1E06B40F006
:1024C0000200E06305F0020030B107F0010018B12E
:1024D000E06B40F00400E06305F0080030B107F065
:1024E000010018B1E06B40F00800E063E06B68B3F6
:1024F00005F0200028B106F0200010B1204601F0C0
:1025000072F820684069C0F38019E06B00F00800A1
:1025100010B9B9F1000F22D0204601F03AF8206836
:10252000406900F04000B0B12068406920F04000F0
:1025300021684861606B50B11748616B0865606B3A
:10254000FEF7C8FA10B1606B016D88470CE02046B9
:10255000FFF77DFF08E02046FFF779FF04E0204603
:10256000FFF775FF0020E0638CE705F0800030B1D5
:1025700006F0800018B1204601F036FA82E705F037
:10258000400030B106F0400018B1204601F011F8CB
:1025900078E700BF76E700009734000810B50446DE
:1025A0000CB9012010BDA06900B100E000BF94F893
:1025B000390028B9002084F83800204600F028F8B7
:1025C000242084F839002068C06820F40050216875
:1025D000C860204601F054F82068006920F490405B
:1025E000216808612068406920F02A00216848615C
:1025F0002068C06840F400502168C8600020E06393
:10260000202084F8390084F83A000020CAE700004E
:1026100010B586B004463949206888426CD100BFA5
:10262000002000903648006840F4003034490860CB
:102630000846006800F40030009000BF00BF0C2086
:1026400001900220029001200390032004900720B3
:10265000059001A92B48FEF74BFC2B482B4908603D
:102660004FF0006048604021284881600021C1602F
:102670004FF480610161002141618161C1614FF4CA
:102680008031016200214162FEF758FB18B17021D0
:102690001FA001F0E7F900BF1C482063846300BF5E
:1026A000194818381E4908604FF000604860002142
:1026B0001B488160C1604FF480610161002141616C
:1026C00081614FF48071C1610902016200214162A0
:1026D000FEF734FB18B182210DA001F0C3F900BF51
:1026E0000F486063846300BF002202212620FEF7AA
:1026F00078FE2620FEF768FE06B010BD00440040BC
:102700004038024000000240A06002406C020020FD
:102710002E2E2F5372632F75736172742E63000017
:10272000CC02002077B581B00446154694F83A00F3
:10273000202850D1029800B115B9012004B070BD15
:1027400000BF94F83800012801D10220F6E70120EB
:1027500084F8380000BF0298A062A5850020E063DD
:10276000222084F83A001D48616BC8631C48616BE5
:1027700008641C48616BC8640020616B086502AE88
:1027800032682368191D2B46606BFEF74DFB00BFB6
:102790000020009020680068009020684068009049
:1027A00000BF00BF00BF002084F8380000BF2068D1
:1027B000C06840F480702168C8602068406940F0BB
:1027C0000100216848612068406940F040002168AC
:1027D00048610020B2E70220B0E70000FB340008A7
:1027E00041350008AB34000870477047F7B5044620
:1027F000154694F8390020283DD1019800B10DB953
:102800000120FEBD00BF94F83800012801D102204C
:10281000F7E7012084F8380000BF01982062A58402
:10282000E5840020E063212084F839001348216BFF
:10283000C8631348216B08641248216BC8640020E8
:10284000216B086501AE23681A1D31682B46206B89
:10285000FEF7EAFA6FF040002168086000BF002030
:1028600084F8380000BF2068406940F0800021688B
:1028700048610020C5E70220C3E700004F3500088B
:1028800085350008AB3400087047704700BFFEE78D
:102890000146C8780122CA70704700000346002034
:1028A000188098700120D87059601A810248D86049
:1028B0000248186100207047C128000891280008CC
:1028C00070B50446002521896068FEF709FC0546BD
:1028D00020884FF6FF7101EA4000208020882843BD
:1028E0002080A078012805D1208860B90020E07000
:1028F000A07008E020884FF6FF71884203D10220C3
:10290000E0700120A07070BD10B504462068816899
:102910008847022801D1012010BD6068816888477E
:10292000022800D1F8E7A06881688847022801D111
:102930000320F1E7E06881688847022801D104207C
:10294000EAE7206981688847022801D10520E3E78A
:102950000020E1E710B50446102214491448FDF7A1
:10296000D9FD13482060012212491348FDF7D2FD1A
:1029700011486060022211491148FDF7CBFD104853
:10298000A06001220D490F48FDF7C4FD0D48E0602D
:10299000202208490C48FDF7BDFD0B4820610B487B
:1029A000A0610B486061002010BD000000000240E3
:1029B00028040020000402403404002000080240E3
:1029C000400400204C04002058040020092900087D
:1029D000D529000810B5044620684168884760681A
:1029E00041688847A06841688847E068416888472F
:1029F00020694168884710BD1FB51748174908600E
:102A00004FF4803048600021144881600161816189
:102A10000162C162124981620021C1600121C1616C
:102A20000021016301214161FDF7C2FF18B1492175
:102A30000CA001F017F8092000900120019000205F
:102A4000029069460548FDF72DFE18B1532105A0F7
:102A500001F008F81FBD00000020014078000020B0
:102A60000100000F2E2E2F5372632F6164632E63BB
:102A7000000000001FB51748174908604FF4803068
:102A800048600021144881600161012181610021B9
:102A90000162C162114981620021C1600121C161ED
:102AA000002101634161FDF783FF18B16C210CA087
:102AB00000F0D8FF012000900190002002906946AC
:102AC0000548FDF7EFFD18B1762105A000F0CAFF1B
:102AD0001FBD000000210140C00000200100000FC8
:102AE0002E2E2F5372632F6164632E63000000004B
:102AF00008B500BF002000900E48006840F40010A8
:102B00000C4908600846006800F40010009000BFFF
:102B100000BF002211461020FEF763FC1020FEF7D4
:102B200053FC002211461120FEF75BFC1120FEF73A
:102B30004BFC08BD3038024000B587B000BF002014
:102B400001904B48006840F0800049490860084601
:102B5000006800F08000019000BF00BF00BF0020AF
:102B600001900846006840F00400086008460068CC
:102B700000F00400019000BF00BF00BF00200190E2
:102B80000846006840F0010008600846006800F050
:102B90000100019000BF00BF00BF00200190084667
:102BA000006840F0020008600846006800F002007B
:102BB000019000BF00BF00224FF450712D48FEF776
:102BC00097FA002280212C48FEF792FA0022502129
:102BD0002A48FEF78DFA032002900020039004900B
:102BE00002A92548FEF784F91020029000200390E6
:102BF000049002A91F48FEF77BF94FF4A0700290E1
:102C00000120039000200490059002A91948FEF7C6
:102C10006FF94CF22100029000200390049002A969
:102C20001648FEF765F980200290012003900020ED
:102C30000490059002A91048FEF75AF94FF400706D
:102C4000029001200390002004900220059002A928
:102C50000848FEF74DF95020029001200390002013
:102C60000490059002A90548FEF742F907B000BD9F
:102C700030380240000002400008024000040240D8
:102C800010B50C480C4908600C48486000210A48FF
:102C90008160C1604FF48041016100214161816127
:102CA000C1610162FEF730FA18B1422104A000F0C0
:102CB000D9FE10BD0054004008010020A08601008C
:102CC0002E2E2F5372632F6932632E630000000093
:102CD00010B50F480F4908604FF48270486000211A
:102CE0000C488160C160016141614FF400718161F4
:102CF0002021C16100210162416281620A21C16219
:102D0000FEF7BAFF18B1452103A000F0ABFE10BDDD
:102D1000003001405C0100202E2E2F5372632F7370
:102D200070692E630000000000B587B0164817498F
:102D3000086042F227304860002114488160632116
:102D4000C16000210161FFF74CF918B13F2110A0CB
:102D500000F088FE4FF48050039003A90B48FFF762
:102D60009DF918B145210AA000F07CFE00200190D9
:102D7000029001A90548FFF703F918B14C2104A0FE
:102D800000F070FE07B000BD00040040B401002058
:102D90002E2E2F5372632F74696D2E630000000076
:102DA00000B58DB023482449086041F29310486073
:102DB0000021214881606421C16000210161FFF789
:102DC00010F918B15E211DA000F04CFE4FF48050A8
:102DD000099009A91848FFF761F918B1642117A0F3
:102DE00000F040FE1448FFF714FB18B1692113A04E
:102DF00000F038FE00200790089007A90E48FFF762
:102E0000BFF818B170210DA000F02CFE002000903A
:102E1000019002900490002269460748FFF7BEFA2D
:102E200018B1792105A000F01DFE0348FFF79CFAB8
:102E30000DB000BD000C0040F00100202E2E2F53DD
:102E400072632F74696D2E630000000010B50C488A
:102E50000C4908604FF4E130486000210948816066
:102E6000C16001610C21416100218161C161FFF7F5
:102E700095FB18B1452104A000F0F4FD10BD000041
:102E8000004400402C0200202E2E2F5372632F7519
:102E9000736172742E63000000BFFEE770B50446D4
:102EA0001E210B4800F0FAFF00F0A8FF70B1224687
:102EB00008A1074800F0D8FD0548FDF7EEF985B2F6
:102EC0002A46034904480068FFF790FC70BD0000E3
:102ED000F403002025640000580000207047000023
:102EE00002480068C0F30220704700000CED00E0CB
:102EF00010B5002807DA0A07140E054A00F00F0380
:102F00001B1FD45403E00A07130E024A135410BDCA
:102F100018ED00E000E400E07047F8B504460D4607
:102F200016462B46002280212046009600F009F824
:102F300028B1606D40F0200060650320F8BD0020DE
:102F4000FCE72DE9F04104460E4617461D46DDF824
:102F500018803FE0681CE0B32DB1FEF7CFF8A0EB7E
:102F60000800A84236D32068406820F0E0002168BD
:102F700048606068B0F5827F0DD1A068B0F5004F61
:102F800003D0A068B0F5806F05D12068006820F0FC
:102F9000400021680860A06AB0F5005F0ED100BF54
:102FA000206800684DF6FF710840216808602068BD
:102FB000006840F400502168086000BF012084F8D8
:102FC000510000BF002084F8500000BF0320BDE87E
:102FD000F081FFE7206880683040B04201D10120D5
:102FE00000E00020B842B5D10020F0E7704710B5EE
:102FF000FEF74CF9FEF7BEFF10BD000010B594B00F
:1030000000BF002001903348006840F080503149F3
:1030100008600846006800F08050019000BF00BFC3
:1030200000BF002001902C48006840F440402A492D
:1030300008600846006800F44040019000BF00BFEF
:103040000220079001200A9010200B9002200D9082
:1030500000210E9108210F91B421109102211191AC
:103060001291139107A8FEF7C7FB18B1E4211BA02A
:1030700000F0F8FCFEF708FA18B1EB2117A000F0F9
:10308000F1FC0F20029002200390002004904FF4E6
:10309000A05005904FF480500690052102A8FEF73D
:1030A00039FA18B1F9210DA000F0DCFCFEF7F2FAB4
:1030B0004FF47A71B0FBF1F42046FEF741FF042093
:1030C000FEF721FF00221146501EFEF78AF914B0C8
:1030D00010BD000040380240007000402E2E2F53DB
:1030E00072632F6D61696E2E6300000014480068E2
:1030F00040F47000124908601248006840F0010076
:103100001049086000200F49083108600D48006828
:103110000D4908400B4908600C48091D0860081F4C
:10312000006820F48020091F0860002005490C3148
:1031300008604FF000600249803908607047000065
:1031400088ED00E000380240FFFFF6FE103000245A
:1031500010B50248FFF73CF810BD0000B401002094
:1031600010B50248FFF734F810BD0000F001002050
:10317000002202682C4B98420ED0B0F1804F0BD049
:103180002A4B984208D02A4B984205D0294B9842A6
:1031900002D0294B984201D1012300E000231BB14A
:1031A00022F070024B681A431F4B984220D0B0F1B6
:1031B000804F1DD01D4B98421AD01D4B984217D0FE
:1031C0001C4B984214D01C4B984211D01B4B984278
:1031D0000ED01B4B98420BD01A4B984208D01A4B7A
:1031E000984205D0194B984202D0194B984201D110
:1031F000012300E000231BB122F44072CB681A4384
:1032000002608B68C3620B688362074B984202D0EE
:10321000094B984201D1012300E000230BB10B6957
:103220000363012343617047000001400004004034
:1032300000080040000C0040000401400040014034
:10324000004401400048014000180040001C0040BC
:103250000020004030B50C460021816821F47F41F8
:1032600042EA032525432943816030BD0A460021F7
:10327000816821F0700142F00703194381607047B3
:1032800030B5002400220023056A25F001050562FF
:10329000026A4368846924F0700424F003040D6812
:1032A0002C4322F002028D682A430F4DA84202D01F
:1032B0000E4DA84201D1012500E000256DB122F09C
:1032C0000802CD682A4322F0040223F4807323F419
:1032D00000734D692B438D692B43436084614D68B6
:1032E0004563026230BD000000000140000401405F
:1032F00030B5002400220023056A25F01005056280
:10330000026A4368846924F4E04424F440740D683C
:1033100044EA052422F020028D6842EA0512104D8D
:10332000A84202D00F4DA84201D1012500E000259E
:1033300085B122F08002CD6842EA051222F04002F7
:1033400023F4806323F400634D6943EA85038D69A8
:1033500043EA8503436084614D688563026230BD42
:10336000000001400004014030B500240022002389
:10337000056A25F480750562026A4368C46924F011
:10338000700424F003040D682C4322F400728D684D
:1033900042EA0522104DA84202D0104DA84201D1A8
:1033A000012500E0002585B122F40062CD6842EAE3
:1033B000052222F4806223F4805323F400534D69E4
:1033C00043EA05138D6943EA05134360C4614D6800
:1033D000C563026230BD00000000014000040140EE
:1033E00030B5002200230024056A25F480550562CB
:1033F000036A4468C26922F4E04222F440720D6814
:1034000042EA052223F400538D6843EA05330A4D4E
:10341000A84202D0094DA84201D1012500E00025B3
:1034200025B124F480444D6944EA85144460C261A6
:103430004D680564036230BD000001400004014096
:1034400030B50B46144600210022026A056A25F0B9
:1034500001050562816921F0F00141EA041122F0C1
:103460000A021A438161026230BD30B50B46144630
:1034700000210022056A25F0100505628169026AB3
:1034800021F4704141EA043122F0A00242EA031221
:103490008161026230BD70B50546AC6B0020E085ED
:1034A000E0842046FEF7D3FF70BD70B506460025C8
:1034B000B46B20684069C0F3C01594F83900212826
:1034C00005D125B10020E084204600F082F8206874
:1034D0004069C0F3801594F83A00222805D125B13F
:1034E0000020E085204600F054F8E06B40F010002A
:1034F000E0632046FEF7ABFF70BD70B50546AC6BD0
:103500002868006800F48070B0B90020E085206869
:10351000C06820F480702168C8602068406920F08D
:103520000100216848612068406920F0400021685E
:103530004861202084F83A002046FFF755F970BD15
:1035400070B50446A56B2846FFF74FF970BD70B5FE
:103550000546AC6B2868006800F4807070B90020E4
:10356000E0842068406920F080002168486120687C
:10357000C06840F040002168C86002E02046FFF7C4
:1035800083F970BD70B50446A56B2846FFF77DF939
:1035900070BD0168C96821F490710268D16001684A
:1035A000496921F0010102685161202180F83A1037
:1035B000704710B504462068C06820F040002168BC
:1035C000C860202084F839002046FFF75DF900200C
:1035D00010BD0168C96821F0C0010268D1602021D6
:1035E00080F83910704770B5044694F83A002228E4
:1035F00044D1A068B0F5805F13D1A56A206940B9B5
:1036000020684068C0F308002880A06A801CA0627F
:1036100019E020684068C0B22880A06A401CA062FF
:1036200011E0206938B920684068C1B2A26A501C14
:10363000A062117007E02068406800F07F01A26A74
:10364000501CA0621170E08D401E80B2E08598B9D8
:103650002068C06820F490702168C86020684069C4
:1036600020F0010021684861202084F83A002046BB
:10367000FFF7BAF8002070BD0020FCE70220FAE74F
:103680002DE9F041044600252068056925F44055E0
:10369000E0680543206805612068C56849F20C6050
:1036A00085432169A068084361690843E1690843CB
:1036B00005432068C5602068456925F44075A06908
:1036C000054320684561E069B0F5004F7ED1C449EB
:1036D0002068884203D0C349206888425DD1FDF745
:1036E000EFFF00EBC00101EB001061684900B0FB87
:1036F000F1F06421B0FBF1F00601FDF7E1FF00EB12
:10370000C00101EB001061684900B0FBF1F7FDF763
:10371000D7FF00EBC00101EB001061684900B0FB6E
:10372000F1F06421B0FBF1F000EBC00101EB0010FF
:10373000A7EB8000322101EBC0006421B0FBF1F067
:1037400000F0F80006EB4006FDF7BAFF00EBC00101
:1037500001EB001061684900B0FBF1F7FDF7B0FF25
:1037600000EBC00101EB001061684900B0FBF1F013
:103770006421B0FBF1F000EBC00101EB0010A7EBFE
:103780008000322101EBC0006421B0FBF1F000F0B9
:10379000070030442168886020E1FDF781FF00EBDD
:1037A000C00101EB001061684900B0FBF1F0642139
:1037B000B0FBF1F00601FDF773FF00EBC00101EB78
:1037C000001061684900B0FBF1F700E045E0FDF74B
:1037D00067FF00EBC00101EB001061684900B0FB1E
:1037E000F1F06421B0FBF1F000EBC00101EB00103F
:1037F000A7EB8000322101EBC0006421B0FBF1F0A7
:1038000000F0F80006EB4006FDF74AFF00EBC001B0
:1038100001EB001061684900B0FBF1F7FDF740FFD4
:1038200000EBC00101EB001061684900B0FBF1F052
:103830006421B0FBF1F000EBC00101EB0010A7EB3D
:103840008000322101EBC0006421B0FBF1F000F0F8
:103850000700304421688860C0E0614920688842E0
:1038600003D06049206888425CD1FDF729FF00EB56
:10387000C00101EB001061688900B0FBF1F6FDF7B3
:103880001FFF00EBC00101EB001061688900B0FB75
:10389000F1F06421B0FBF1F000EBC00101EB00108E
:1038A000A6EB8000322101EB00106421B0FBF1F0A7
:1038B00000F0F006FDF704FF00EBC00101EB001083
:1038C00061688900B0FBF1F06421B0FBF1F006EB18
:1038D0000016FDF7F5FE00EBC00101EB001061687A
:1038E0008900B0FBF1F7FDF7EBFE00EBC00101EB47
:1038F000001061688900B0FBF1F06421B0FBF1F0C9
:1039000000EBC00101EB0010A7EB8000322101EBBE
:1039100000106421B0FBF1F000F00F00304421688A
:1039200088605BE0FDF7BCFE00EBC00101EB00101E
:1039300061688900B0FBF1F6FDF7B2FE00EBC00153
:1039400001EB001061688900B0FBF1F06421B0FB6D
:10395000F1F000EBC00101EB0010A6EB800032217A
:1039600001EB00106421B0FBF1F000F0F006FDF770
:1039700097FE00EBC00101EB001061688900B0FB0D
:10398000F1F06421B0FBF1F006EB0016FDF788FEC4
:1039900000EBC00101EB001061688900B0FBF1F79A
:1039A000FDF77EFE00EBC00101EB001061688900AD
:1039B000B0FBF1F06421B0FBF1F000EBC00101EBD2
:1039C0000010A7EB8000322101EB00106421B0FB56
:1039D000F1F000F00F00304421688860BDE8F0810C
:1039E0000010014000140140014691F839002128DF
:1039F0002CD18868B0F5805F0FD10A6A1088C0F3B7
:103A000008000B685860086918B9086A801C0862C9
:103A100009E0086A401C086205E00B6A581C08624D
:103A200018780B685860C88C401E80B2C88458B99A
:103A30000868C06820F080000B68D8600868C0681B
:103A400040F040000B68D860002070470220FCE77F
:103A500010B50248FEF7FCFC10BD00002C0200204F
:103A600000BFFEE700BFFEE70FB4084B10B504A986
:103A700002AA039800F01CF8044602A9002000F0F6
:103A8000B8F9204610BC5DF814FB0000F33D0008B7
:103A900002E008C8121F08C1002AFAD17047704717
:103AA000002001E001C1121F002AFBD17047000075
:103AB0002DE9FF4F8BB088460546002606E02528F5
:103AC0000BD0DDE90D1290476D1C761C287800287C
:103AD000F5D10FB03046BDE8F08F0024A146A246D4
:103AE0000122AE4900E0044315F8013F203B02FAF1
:103AF00003F00842F7D128782A2810D06FF02F025F
:103B00002878A0F13001092915D809EB890102EBC9
:103B1000410144F0020400EB01096D1CF0E758F884
:103B2000041B5FEA010903D544F40054C9F10009FC
:103B300044F002046D1C28782E2817D115F8010FC7
:103B400044F004042A280ED06FF02F022878A0F148
:103B5000300109290AD80AEB8A0102EB410100EB86
:103B6000010A6D1CF2E758F804AB6D1C28786C282C
:103B70000FD006DC4C2817D068280DD06A2814D145
:103B800004E0742810D07A280FD10DE044F400141A
:103B90000AE044F4801401E044F44014697881425E
:103BA00002D104F580146D1C6D1C2878692865D03D
:103BB00006DC00288DD0632827D0642806D15DE07C
:103BC0006E2808D073282AD0752877D0DDE90D1229
:103BD0009047761CE0E0C4F30250022809D0032885
:103BE0000DD0D8F8001004280DD00E6008F104089C
:103BF000D2E0D8F80010F217C1E90062F6E7D8F871
:103C000000100E80F2E70E70F0E718F8041B8DF834
:103C1000001000208DF80100EB46012003E058F869
:103C200004BB4FF0FF3061074FF0000701D40AE0FA
:103C30007F1C57450DDA8742FADB1BF80710002975
:103C4000F6D106E07F1C8742FCDB1BF80710002939
:103C5000F8D1DDE90D23A9EB07008146214600F0EC
:103C6000B1F83044C61904E0DDE90D121BF8010B70
:103C700090477F1EF8D22146484688E058F8040B4A
:103C8000C4F302514FF00A0B032900D100B20429FA
:103C900000D140B2002802DA40422D2102E0210585
:103CA00005D52B218DF82410012104E006E0E10761
:103CB00010D02021F6E708AF089113E058F8040B64
:103CC000C4F302514FF00A0B032900D180B204293A
:103CD00000D1C0B20021EEE75946FCF7F3FA3031CB
:103CE00007F8011D0028F7D1ADEB070000F1200B0C
:103CF000600702D524F4803401E04FF0010ADA4570
:103D000002DDAAEB0B0000E00020824600EB0B0175
:103D100008980144A9EB01000A90E00306D4DDE90C
:103D20000D2321460A9800F04DF806444FF0000993
:103D300008E009A911F80900DDE90D12904709F121
:103D40000109761C08998945F3DBE0030CD5DDE910
:103D50000D2321460A9800F035F8064404E0DDE919
:103D60000D1230209047761CBAF10001AAF1010A29
:103D7000F5DC05E0DDE90D1217F8010B9047761C24
:103D8000BBF10001ABF1010BF4DC0A982146DDE93F
:103D90000D2300F005F806446D1C97E60928010084
:103DA0002DE9F041044600251E461746880404D438
:103DB00005E039462020B0476D1C641EF9D5284621
:103DC000BDE8F0812DE9F041044600251E469046ED
:103DD000C80301D5302700E02027880404D505E07A
:103DE00041463846B0476D1C641EF9D52846BDE8EB
:103DF000F0810A68531C0B6010707047034800681C
:103E000008B9002070470120FCE70000580000209E
:103E100070B500250124184800783F2826D105E018
:103E20001548015D601E154A1154641C1248005D5E
:103E3000212801D00A2CF3DB002007E01049095C9F
:103E40000E4A125C914200D00125401C0528F5DB8A
:103E5000012D0BD1094800F0D3FB002004E00749F5
:103E6000095C074A1154401C0528F8DB0A21034865
:103E700000F014F870BD00005C0000201204002067
:103E80001C04002010B5044684F0010240210248C1
:103E9000FDF72EF910BD000000040240024600208C
:103EA00002E000231354401C8842FADB70470000F4
:103EB00010B50020FFF7E6FF002240210748FDF77C
:103EC00017F90120FDF700F8012240210348FDF712
:103ED0000FF90120FFF7D6FF10BD000000000240DF
:103EE00070B590B004460E4614210BA8FCF7BEF93D
:103EF000142106A8FCF7BAF9142101A8FCF7B6F9B9
:103F0000164804603546022C26D12A7814A10BA845
:103F1000FFF7AAFDAA7815A106A8FFF7A5FD6A7804
:103F200015A101A8FFF7A0FD002003460BAA0A2156
:103F30000090022000F01AF90020034606AA122180
:103F40000090022000F012F90020034601AA0A2185
:103F50000090372000F00AF910B070BD400000203A
:103F60004C65645245443A25640000004C65644247
:103F70004C55453A256400004C6564475245454E12
:103F8000256400007047000010B50446FEF75EFF90
:103F9000FEF7AEFD204600F0C9FB062204490548A5
:103FA000FEF7C0FB002004490880FFF727FF10BD83
:103FB0005C0000202C02002066000020002005E0AC
:103FC0000021044A42F82010411CC8B28028F7DBC7
:103FD000704700006404002010B5FFF7EFFFFFF703
:103FE00067FFA02000F08EFBAE2000F08BFBC82006
:103FF00000F088FBA22000F085FB2F2000F082FB60
:10400000212000F07FFB282000F060F8AF2000F0B6
:1040100079FB10BD2DE9F04306460F4690469946C0
:104020003C460CE0354606E001222146284600F0D9
:1040300081F8681CC5B24545F6DD601CC4B24C452C
:10404000F0DDBDE8F08300002DE9F0470746884623
:1040500091461E46DDF820A0A9F1200000F0FF09DE
:10406000002428E000251EE0164810F8160009FB81
:1040700000401549095C0120A840014049B18AF07F
:10408000010208EB0403D9B27B19D8B200F052F850
:1040900007E008EB0402D1B27A19D0B2524600F020
:1040A00049F8681CC5B2074800EB46004078A842B2
:1040B000DADC601CC4B2034810F81600A042D1DC60
:1040C000BDE8F0875C600008DC47000810B50446D6
:1040D0003F2C05DC812000F015FB204600F012FB90
:1040E00010BD2DE9F0410746884614461D46464658
:1040F0000BE001223146384600F01CF8012231461F
:10410000204600F017F8701CC6B2AE42F1DD3E4604
:104110000BE001222946304600F00CF8012241460E
:10412000304600F007F8701CC6B2A642F1DDBDE8CB
:10413000F081000010B5802815DA202913DA4AB181
:10414000094B53F8203001248C402343064C44F89B
:10415000203008E0044B53F8203001248C40A34366
:10416000014C44F8203010BD640400202DE9F841D2
:1041700006460F4614461D46DDF81C80002D14DC53
:10418000022D12DA0EE0CDF8008022782B46394657
:104190003046FFF759FF064800EB450040783044B1
:1041A000C6B2641C20780028EDD1BDE8F88100007B
:1041B0005C6000082DE9F04306460F46914698469C
:1041C000002423E000251BE01348007809FB004091
:1041D0001249085C0121A940084040B188F0010261
:1041E0003B19D9B27319D8B2FFF7A4FF06E03A1908
:1041F000D1B27219D0B24246FFF79CFF681CC5B21B
:1042000005484078A842DFDC601CC4B20248007850
:10421000A042D7DCBDE8F0835C600008CC47000812
:1042200070B5002418E004F1B001C8B200F06AFAD9
:10423000102000F067FA002000F064FA002507E083
:10424000074901EB8501085D00F048FA681CC5B21A
:10425000802DF5DB601CC4B2042CE4DB70BD0000D3
:104260006404002088B0FDF71DF8FEF7C7FEFEF7D6
:1042700063FCFEF73DFCFEF72BFDFEF7E7FDFEF7C6
:10428000F9FBFEF751FDFEF78BFDFEF7F9FCFEF79B
:10429000B3FB012251022648FCF72AFF01228021AC
:1042A0002448FCF725FF012210212348FCF720FFBA
:1042B0002248FFF769FEFFF78FFEFFF77FFE002021
:1042C00003461FA20A2100900220FFF74FFFFFF7CD
:1042D000A7FF6420FCF7F8FDFFF770FE1A4800F016
:1042E00045F801A8FEF736FB0024002517491848B9
:1042F00000F032F81AE001A806998847134800F048
:104300001BFA14480068642810D300201149086083
:1043100001A8079988470446204600F04DF8054655
:1043200000F02CF809492846FFF72CFEE3E70000CF
:104330000000024000080240000402402C0200205D
:104340002053746172742000200000203800002087
:10435000E13E000834000020024A1060024A116069
:1043600070470000700000207400002018B102495E
:1043700008600021C16070476800002010B50C483B
:10438000006800B910BD0B48007850B108490968B1
:104390008968074A1268127C51F8220000F07EF802
:1043A00003E00348006800F09FF800BFEAE7000060
:1043B000680000206C00002010B502462F480068FD
:1043C00008B9002010BD2D48006880682B4B1B6881
:1043D0001B7C50F823102A48007830B1052A4AD1B6
:1043E0000020274B18700120ECE7062A41D2DFE8B5
:1043F00002F0400B18293303087920B90120204B23
:104400001870087ADEE735E01C480068007C002858
:1044100006DD1A480068007C401E184B1B681874A3
:1044200028E016480068037C144800680079401EA4
:10443000834206DA11480068007C401C0F4B1B6861
:10444000187417E00D480068C06820B10B48006878
:10445000C0680A4B18600DE00879012808D1074BA5
:104460001868064C8B68236023461B68D86000BF21
:1044700000E000BF00BF0020A4E7000068000020AB
:104480006C00002010B5044622464FF480710248AB
:10449000FCF72EFE10BD00000000024038B50446B7
:1044A000FFF78CFD0023012219461846FFF782FE14
:1044B00000200090034601460E202268FFF756FEBA
:1044C0001F237F2208210020FFF70BFE207A0449DA
:1044D0000968044A12689047FFF7A2FE38BD000041
:1044E000740000207000002038B50446FFF766FD18
:1044F00000231A4619461846FFF75CFE002000907C
:10450000034601460E202268FFF730FE204600F0E9
:1045100007F8204600F056F8FFF782FE38BD00008D
:104520002DE9F04387B00446182101A8FBF79EFE51
:10453000217C607C801C814203DD607C401C6074B7
:1045400006E0207C617C884202DA607C401E607458
:1045500003262079032800DA2679002526E0617CED
:104560002944A06850F82170607C2844217C88424E
:1045700001D1012000E0002081464FF02008387969
:10458000012801D14FF03E0843460BA101A83A682B
:10459000FFF76AFAE8000830C1B2002301AA02203E
:1045A000CDF80090FFF7E2FD681CC5B2B542D6DB3E
:1045B00007B0BDE8F0830000252D31387320256356
:1045C0000000000070B504461B2502262079032850
:1045D00008DD2079801E95FBF0F0C5B2607C15FBEC
:1045E0000060C6B21F237F2200217920FFF779FDEA
:1045F0007019C3B27D2231467B20FFF70BFD70BDE1
:1046000070B50446012526A12046FBF74DFE28B9CA
:10461000002210212448FCF76BFD38E023A120463E
:10462000FBF742FE28B9012210211F48FCF760FD6C
:104630002DE020A12046FBF737FE28B9002280217B
:104640001E48FCF755FD22E01DA12046FBF72CFE7D
:1046500028B9012280211948FCF74AFD17E01AA168
:104660002046FBF721FE30B900224FF400711848B4
:10467000FCF73EFD0BE017A12046FBF715FE28B91D
:10468000012251021248FCF733FD00E0002515B16C
:10469000FBF760FE02E00A20FEF700FC70BD0000A0
:1046A000526564310000000000040240526564302D
:1046B0000000000047726531000000000008024061
:1046C0004772653000000000426C75310000000048
:1046D00000000240426C75300000000001B501206E
:1046E000FFF7D0FE0120FFF7CDFB01231A466946F4
:1046F0000348FDF735FB0020FFF7C4FB08BD0000B1
:104700005C01002001B50020FFF7BCFE0120FFF78F
:10471000B9FB01231A4669460348FDF721FB002037
:10472000FFF7B0FB08BD00005C01002001490860F4
:10473000704700005800002010B504462088A4F8F7
:104740000300A078607115480068012802D0022893
:1047500020D102E0FFF75CFB1DE04FF40071104830
:10476000FCF7BEFC08B9012000E00020A070802109
:104770000C48FCF7B5FC08B9012000E0002060708F
:1047800010210948FCF7ACFC08B9012000E000202A
:10479000207000E000BF00BF10BD000040000020FE
:1047A000000002400008024000040240000610160B
:1047B00000061016000000000000000001020304C3
:1047C0000607080900000000010203041D001D0087
:1047D0001D001D0002060E1E0E0602000000000055
:1047E0000000000004040404040004000A0A0A0093
:1047F000000000000A0A1F0A1F0A0A00041E050E14
:10480000140F04000313080402191800020505021E
:10481000150916000C0C0402000000000804020236
:104820000204080002040808080402000004150E2F
:104830000E1504000004041F040400000000000022
:104840000C0C04020000001F00000000000000002B
:10485000000C0C0000100804020100000E111315DA
:1048600019110E000406040404040E000E11100EAB
:1048700001011F001F10080C10110E00080C0A097E
:104880001F0808001F010F1010110E001C02010F5D
:1048900011110E001F101008040201000E11110E5C
:1048A00011110E000E11111E100807000000040067
:1048B00004000000000004000404020010080402C8
:1048C0000408100000001F001F0000000204081070
:1048D000080402000E11100C040004000E11151D36
:1048E0000D011E00040A11111F1111000F11110FEB
:1048F00011110F000E11010101110E000F11111104
:1049000011110F001F01010F01011F001F01010FF5
:10491000010101001E11010119111E001111111FC9
:10492000111111000E04040404040E001C080808F0
:10493000080906001109050305091100010101011B
:1049400001011F00111B151515111100111113156F
:10495000191111000E11111111110E000F11110F6B
:10496000010101000E111111150916000F11110F8F
:10497000050911000E11010E10110E001F1504047F
:10498000040404001111111111110E001111111163
:10499000110A04001111111515150A0011110A044C
:1049A0000A11110011110A04040404001F10080E5A
:1049B00002011F001E02020202021E000001020488
:1049C000081000001E10101010101E00040A110024
:1049D000000000000000000000001F0006060408A0
:1049E00000000000000006080E091E0001010D1362
:1049F00011130D0000000E1101110E0010101619F8
:104A00001119160000000E111F010E000814040EEB
:104A10000404040000000E191916100E01010D13F4
:104A2000111111000400060404040E000800080817
:104A3000080906000101090503050900060404042C
:104A400004040E0000000B151515150000000D13D1
:104A50001111110000000E1111110E0000000D13B4
:104A6000130D0101000016191916101000000D1386
:104A70000101010000001E010E100F0004041F04BC
:104A80000414080000001111111916000000111182
:104A9000110A04000000111115150A000000110A86
:104AA000040A1100000011111E10110E00001F0851
:104AB00004021F00080404020404080004040400A3
:104AC000040404000204040804040200021508009F
:104AD00000000000000000000000000000000C12B8
:104AE000120C000000000C1E1E0C000000001E1224
:104AF000121E000000001E1E1E1E000000000C0CF6
:104B0000121E000000000C0C1E1E000000001E12F1
:104B10000C0C000000001E1E0C0C000000001816FB
:104B2000161800000000181E1E1800000000061ACB
:104B30001A0600000000061E1E06000000000C12EF
:104B4000120C000000000C1E1E0C000000001E12C3
:104B5000121E000000001E1E1E1E000000000000AD
:104B60000000000000000000000000000000000045
:104B70000000000000000000000000000000000035
:104B800000000000000000000000000000008001A4
:104B9000800180018001800180018001800180010D
:104BA00080018001800180010000000080018001FF
:104BB00000000000000000000000000000000000F5
:104BC000CC00CC00CC00CC00CC00CC00000000001D
:104BD00000000000000000000000000000000000D5
:104BE00000000000000000000000000000000000C5
:104BF0000000000000000000600C600C600C30063B
:104C00003006FE1FFE1F300638071803FE1FFE1F6A
:104C1000180318038C018C018C0100000000800037
:104C2000E003F80F9C0E8C1C8C188C009800F80187
:104C3000E007800E801C8C188C189C18B80CF00FA4
:104C4000E003800080000000000000000000000081
:104C500000000E181B0C110C110611061103110394
:104C60009B018E01C038C06C6044604430443044C5
:104C70001844186C0C380000000000000000E0012F
:104C8000F0033807180618063003F001F000F800AA
:104C90009C310E33061E061C061C063FFC73F021D9
:104CA0000000000000000000000000000000000004
:104CB0000C000C000C000C000C000C0000000000AC
:104CC00000000000000000000000000000000000E4
:104CD00000000000000000000000000000000002D2
:104CE00000038001C000C0006000600030003000A0
:104CF00030003000300030003000300060006000D4
:104D0000C000C0008001000300020000000020007D
:104D10006000C0008001800100030003000600065F
:104D20000006000600060006000600060003000359
:104D300080018001C0006000200000000000000031
:104D40000000000000000000C000C000D806F80706
:104D5000E001300338070000000000000000000000
:104D60000000000000000000000000000000000043
:104D7000000000000000000080018001800180012F
:104D80008001FC3FFC3F80018001800180018001A7
:104D90000000000000000000000000000000000013
:104DA0000000000000000000000000000000000003
:104DB0000000000000000000000000000000800172
:104DC00080010001000180000000000000000000E0
:104DD00000000000000000000000000000000000D3
:104DE00000000000E007E0070000000000000000F5
:104DF00000000000000000000000000000000000B3
:104E000000000000000000000000000000000000A2
:104E10000000000000000000000000000000C000D2
:104E2000C000000000000000000000000000000CB6
:104E3000000C0006000600060003000300038003C8
:104E4000800180018001C000C000C00060006000DF
:104E50000000000000000000000000000000E0036F
:104E6000F007380E180C0C180C180C180C180C182D
:104E70000C180C180C180C18180C380EF007E0035E
:104E80000000000000000000000000000000000121
:104E90008001C001F001980188018001800180013A
:104EA00080018001800180018001800180018001FA
:104EB0000000000000000000000000000000E0030F
:104EC000F80F180C0C180C1800180018000C00062D
:104ED00000038001C000600030001800FC1FFC1FB0
:104EE0000000000000000000000000000000E001E1
:104EF000F807180E0C0C0C0C000C0006C003C007C1
:104F0000000C001800180C180C18180CF807E00317
:104F10000000000000000000000000000000000C85
:104F2000000E000F000F800DC00C600C600C300CE8
:104F3000180C0C0CFC3FFC3F000C000C000C000C8F
:104F40000000000000000000000000000000F80F5A
:104F5000F80F180018000C00EC03FC071C0E001CD6
:104F60000018001800180C181C0C180EF807E003A5
:104F70000000000000000000000000000000C0076A
:104F8000F00F381C181818000C00CC03EC0F3C0E66
:104F90001C1C0C180C180C18181C380EF007E00319
:104FA0000000000000000000000000000000FC1FE6
:104FB000FC1F000C00060006000380038001C001F6
:104FC000C000E00060006000700030003000300081
:104FD0000000000000000000000000000000E003EE
:104FE000F007380E180C180C180C3806F007F007EC
:104FF000180C0C180C180C180C18380CF80FE003CF
:105000000000000000000000000000000000E003BD
:10501000F007380E1C0C0C180C180C181C1C381E31
:10502000F81BE0190018000C000C1C0EF807F0012A
:105030000000000000000000000000000000000070
:10504000000000000000000080018001000000005E
:10505000000000000000000000000000800180014E
:105060000000000000000000000000000000000040
:10507000000000000000000080018001000000002E
:10508000000000000000000000000000800180011E
:10509000000100018000000000000000000000008E
:1050A0000000000000000000000000000010001CD4
:1050B000800FE003F8001800F800E003800F001CE8
:1050C00000100000000000000000000000000000D0
:1050D000000000000000000000000000F81F0000B9
:1050E00000000000F81F00000000000000000000A9
:1050F00000000000000000000000000000000000B0
:10510000000000000000000000000000080038005F
:10511000F001C007001F0018001FC007F001380091
:105120000800000000000000000000000000E00394
:10513000F80F180C0C180C180018000C00060003CF
:105140008001C000C000C00000000000C000C0001E
:10515000000000000000000000000000000000004F
:10516000E00718180420C229224A114409440944BE
:10517000094409221113E20C024004201818E00728
:10518000000000000000000000000000000080039C
:105190008003C006C006C006600C600C30183018D2
:1051A0003018F83FF83F1C700C600C6006C006C059
:1051B0000000000000000000000000000000FC03F0
:1051C000FC0F0C0C0C180C180C180C0CFC07FC0F2A
:1051D0000C180C300C300C300C300C18FC1FFC0779
:1051E0000000000000000000000000000000C007F8
:1051F000F01F38381C300C700660060006000600F0
:1052000006000600060006600C701C30F01FE00768
:105210000000000000000000000000000000FE038D
:10522000FE0F060E06180618063006300630063049
:1052300006300630063006180618060EFE0FFE036E
:105240000000000000000000000000000000FC3F23
:10525000FC3F0C000C000C000C000C00FC1FFC1FA1
:105260000C000C000C000C000C000C00FC3FFC3F80
:105270000000000000000000000000000000F83FF7
:10528000F83F18001800180018001800F81FF81F41
:10529000180018001800180018001800180018004E
:1052A0000000000000000000000000000000E00F0F
:1052B000F83F3C780E6006E007C00300030003FEE1
:1052C00003FE03C007C006C00EC03CF0F83FE00F6D
:1052D00000000000000000000000000000000C3092
:1052E0000C300C300C300C300C300C30FC3FFC3FE0
:1052F0000C300C300C300C300C300C300C300C30CE
:10530000000000000000000000000000000080011C
:105310008001800180018001800180018001800185
:105320008001800180018001800180018001800175
:105330000000000000000000000000000000000667
:10534000000600060006000600060006000600062D
:10535000000600060006180618063807F003E001EC
:105360000000000000000000000000000000063007
:105370000618060C060606038601C60066007600BF
:10538000DE008E0106030606060C061806300660CF
:1053900000000000000000000000000000001800F5
:1053A000180018001800180018001800180018003D
:1053B000180018001800180018001800F81FF81F2F
:1053C00000000000000000000000000000000EE0EF
:1053D0001EF01EF01EF036D836D836D836D866CC39
:1053E00066CC66CCC6C6C6C6C6C6C6C686C386C397
:1053F00000000000000000000000000000000C3071
:105400001C303C303C306C306C30CC30CC308C318B
:105410000C330C330C360C360C3C0C3C0C380C307A
:105420000000000000000000000000000000E00795
:10543000F81F1C380E70066003C003C003C003C011
:1054400003C003C003C006600E701C38F81FE007DD
:105450000000000000000000000000000000FC0F41
:10546000FC1F0C380C300C300C300C300C18FC1FAE
:10547000FC070C000C000C000C000C000C000C00D5
:105480000000000000000000000000000000E00735
:10549000F81F1C380E70066003E003C003C003C091
:1054A00003C003C007E006630E3F1C3CF83FE0F773
:1054B00000C0000000000000000000000000FE0F1F
:1054C000FE1F06380630063006300638FE1FFE077F
:1054D00006030606060C0618061806300630066097
:1054E0000000000000000000000000000000E003D9
:1054F000F80F1C0C0C180C180C001C00F803E00F23
:10550000001E0038063006300E301C1CF80FE00775
:105510000000000000000000000000000000FE7F0E
:10552000FE7F800180018001800180018001800177
:105530008001800180018001800180018001800163
:1055400000000000000000000000000000000C301F
:105550000C300C300C300C300C300C300C300C306B
:105560000C300C300C300C300C301818F81FE007E1
:1055700000000000000000000000000000000360C8
:105580000630063006300C180C180C18180C180CC5
:10559000380E30063006700760036003C001C0019A
:1055A0000000000000000000000000000000036098
:1055B000C361C361C3616633663366336633663382
:1055C00066336C1B6C1B6C1B2C1A3C1E380E380E81
:1055D00000000000000000000000000000000FE0DC
:1055E0000C7018303018700C600EC00780038003F8
:1055F000C003E006700C301C18180C300E6007E079
:10560000000000000000000000000000000003C0D7
:1056100006600C301C383818300C6006E007C003F8
:105620008001800180018001800180018001800172
:105630000000000000000000000000000000FC7FEF
:10564000FC7F006000300018000C000600038001A1
:10565000C0006000300018000C000600FE7FFE7FD6
:105660000000000000000000000000000000E00357
:10567000E0036000600060006000600060006000A7
:10568000600060006000600060006000600060001A
:10569000600060006000E003E003000000003000F4
:1056A0003000600060006000C000C000C000C001A9
:1056B0008001800180010003000300030006000652
:1056C0000000000000000000000000000000E003F7
:1056D000E0030003000300030003000300030003D2
:1056E00000030003000300030003000300030003A2
:1056F000000300030003E003E003000000000000DB
:10570000C001C00160036003600330063006180C5E
:10571000180C000000000000000000000000000065
:105720000000000000000000000000000000000079
:105730000000000000000000000000000000000069
:105740000000000000000000000000000000FFFF5B
:10575000FFFF0000000000000000000000000C003F
:105760000C000C000C000C000C00000000000000FD
:105770000000000000000000000000000000000029
:105780000000000000000000000000000000000019
:105790000000000000000000F003F8071C0C0C0CD7
:1057A000000FF00FF80C0C0C0C0C1C0FF80FF0187D
:1057B00000000000000000000000000000001800D1
:1057C0001800180018001800D803F80F380C181823
:1057D00018181818181818181818380CF80FD803B3
:1057E00000000000000000000000000000000000B9
:1057F0000000000000000000C003F007300E180C8D
:105800001800180018001800180C300EF007C0031C
:105810000000000000000000000000000000001870
:105820000018001800180018C01BF01F301C1818B2
:1058300018181818181818181818301CF01FC01B42
:105840000000000000000000000000000000000058
:105850000000000000000000C003F00F300C18181A
:10586000F81FF81F180018003818301CF00FC00778
:105870000000000000000000000000000000800F99
:10588000C00FC000C000C000F007F007C000C0009B
:10589000C000C000C000C000C000C000C000C00008
:1058A00000000000000000000000000000000000F8
:1058B0000000000000000000E00DF80F180E0C0CB6
:1058C0000C0C0C0C0C0C0C0C0C0C180EF80FE00D46
:1058D000000C0C0C1C06F807F0010000000018007A
:1058E0001800180018001800D807F80F381C1818EE
:1058F0001818181818181818181818181818181828
:105900000000000000000000000000000000C000D7
:10591000C000000000000000C000C000C000C000C7
:10592000C000C000C000C000C000C000C000C00077
:105930000000000000000000000000000000C000A7
:10594000C000000000000000C000C000C000C00097
:10595000C000C000C000C000C000C000C000C00047
:10596000C000C000C000F8007800000000000C007B
:105970000C000C000C000C000C0C0C060C038C0131
:10598000CC006C00FC009C018C030C030C060C0C7E
:105990000000000000000000000000000000C00047
:1059A000C000C000C000C000C000C000C000C000F7
:1059B000C000C000C000C000C000C000C000C000E7
:1059C00000000000000000000000000000000000D7
:1059D00000000000000000007C3CFF7EC7E383C1A4
:1059E00083C183C183C183C183C183C183C183C197
:1059F00000000000000000000000000000000000A7
:105A000000000000000000009807F80F381C18186C
:105A10001818181818181818181818181818181806
:105A20000000000000000000000000000000000076
:105A30000000000000000000C003F00F300C181838
:105A400018181818181818181818300CF00FC00368
:105A50000000000000000000000000000000000046
:105A60000000000000000000D803F80F380C1818E0
:105A700018181818181818181818380CF80FD80310
:105A8000180018001800180018000000000000009E
:105A90000000000000000000C01BF01F301C1818A0
:105AA00018181818181818181818301CF01FC01BD0
:105AB000001800180018001800180000000000006E
:105AC0000000000000000000B007F003700030008C
:105AD0003000300030003000300030003000300046
