:020000040800F2
:1000000080060020D9010008930F00084B0E00085D
:10001000910F0008ED0200087911000800000000AF
:100020000000000000000000000000006D1000084B
:10003000EF02000800000000B50F00086F10000874
:10004000F3010008F3010008F3010008F3010008C0
:10005000F3010008F3010008F3010008F3010008B0
:10006000F3010008F3010008F3010008F3010008A0
:10007000F3010008F3010008F3010008F301000890
:10008000F3010008F3010008F3010008F301000880
:10009000F3010008F3010008F3010008F301000870
:1000A000F3010008F3010008F3010008F301000860
:1000B000F3010008F3010008F3010008F301000850
:1000C000F3010008F3010008F3010008F301000840
:1000D000F3010008F3010008F3010008F301000830
:1000E000F3010008F3010008F3010008F301000820
:1000F000F3010008F3010008F3010008F301000810
:10010000F3010008F3010008F3010008F3010008FF
:10011000F3010008F3010008F3010008F3010008EF
:10012000F3010008F3010008F3010008F3010008DF
:10013000F30100080000000000000000F3010008C7
:10014000F3010008F3010008F3010008F3010008BF
:10015000F3010008F3010008F3010008F3010008AF
:10016000F3010008F3010008F3010008F30100089F
:10017000F3010008F3010008F3010008000000008B
:1001800000000000F3010008000000000000000073
:10019000F30100080000000000000000F301000867
:1001A000000000000000000000000000F301000853
:1001B000F3010008F3010008F3010008F30100084F
:1001C000F3010008DFF80CD000F07EF8004800478B
:1001D0004916000880060020064880470648004768
:1001E000FEE7FEE7FEE7FEE7FEE7FEE7FEE7FEE7E7
:1001F000FEE7FEE725110008C50100082DE9F05FC4
:100200000546002092469B46884606468146402485
:100210001BE0284641464746224600F045F8534633
:100220005A46C01A914110D311461846224600F092
:100230002CF82D1A67EB01084F46224601200021B9
:1002400000F023F817EB00094E41201EA4F1010431
:10025000DFDC484631462A464346BDE8F09F30B5CC
:100260000B46014600202022012409E021FA02F574
:100270009D4205D303FA02F5491B04FA02F528440E
:10028000151EA2F10102F1DC30BD202A04DB203A68
:1002900000FA02F1002070479140C2F1200320FAD9
:1002A00003F3194390407047202A04DB203A21FAD7
:1002B00002F00021704721FA02F3D040C2F120027F
:1002C0009140084319467047064C074D06E0E06828
:1002D00040F0010394E8070098471034AC42F6D38D
:1002E000FFF774FFC81B0008E81B0008FEE7704713
:1002F00070B5044600F0EAF80546601C02D00448D8
:100300000078044400F0E2F8401BA042FAD370BD2C
:10031000180000202DE9F84FDFF874B100224FF0EB
:1003200001084FF0030A4FF00F090BF1040E00BF54
:100330000B6808FA02F42340A3426ED14D68022DE7
:1003400001D0122D0ED1D50800EB850CDCF8205021
:100350005607F70E09FA07F6B5430E69BE402E435D
:10036000CCF82060066855000F790AFA05FC07F002
:10037000030726EA0C06AF40374307604E68012E9C
:1003800005D0022E03D0112E01D0122E0ED1866878
:10039000CF6826EA0C06AF40374387604668A6431D
:1003A0000C79C4F30014944034434460C4688E68EC
:1003B00024EA0C04AE402643C6604C68E40060D5D5
:1003C000344C256845F480452560246822F00305F7
:1003D00004F480440094304C2E19D6F80848950750
:1003E0002F0F09FA07F5AC432C4DA84201D1002587
:1003F0001FE02B4DA84201D101251AE0294DA8424A
:1004000001D1022515E0284DA84201D1032510E0B5
:10041000264DA84202D104250BE032E0244DA8422B
:1004200001D1052505E0234DA84201D1062500E0B4
:100430000725BD402543C6F80858DBF800405D4657
:100440004E689C43F60300D51C432C60DEF8004048
:1004500075464E689C43B60300D51C432C600C4D7A
:1004600008352C684E689C43F60200D51C432C606E
:10047000074D0C352C684E689C43B60200D51C43D2
:100480002C60521C102AFFF453AFBDE8F88F000017
:10049000003C01404438024000300140000002406E
:1004A0000004024000080240000C0240001002401C
:1004B00000140240001802400069084000D00120EA
:1004C00070470AB1816170470904FBE70148806801
:1004D000704700001800002002488168027811442B
:1004E00081607047180000200B4810B5016841F486
:1004F00000710160016841F480610160016841F4AC
:1005000080710160032000F08BF8002000F006F8F5
:1005100000F024F8002010BD003C024070B50D4DE5
:1005200004464FF47A712878B1FBF0F00A49096863
:10053000B1FBF0F000F071FC48B9102C07D200229A
:100540002146501E00F04CF800206C6070BD012068
:1005500070BD000018000020240000201F4808B5CE
:10056000016841F480410160006800F4804000901F
:100570001A48001F016841F080510160006800F0D6
:1005800080500090032000F04BF8002211466FF0DD
:100590000B0000F025F8002211466FF00A0000F071
:1005A0001FF8002211466FF0090000F019F8002230
:1005B0001146501F00F014F800221146101F00F0E1
:1005C0000FF800221146901E00F00AF80022BDE844
:1005D00008401146501E00F003B8000044380240A5
:1005E000F0B40E4B1B680C46C3F30223C3F107059E
:1005F000042D00D90425191D072901D2002300E08C
:10060000DB1E012606FA05F1491E214099409E4055
:10061000761E16403143F0BC00F0BCBC0CED00E08F
:10062000064900F0070208684FF6FF03184040EA49
:100630000220034A10430860704700000CED00E000
:100640000000FA052DE9F8431748016841F0805190
:1006500001600068154F00F08050012600903E6454
:10066000FFF734FF05464FF47A78114C05E000BFE0
:10067000FFF72CFF401B40450DD86068C003F7D53D
:100680007E64FFF723FF0546464607E0FFF71EFF9F
:10069000401BB04202D90320BDE8F88360688003A4
:1006A000F4D50020F8E700004038024000000E4278
:1006B000007000402DE9F0470E46050065D0DFF8D8
:1006C0001481D8F80000F7B200F00F00B04207D252
:1006D00088F80070D8F8000000F00F00B04254D144
:1006E00028683D4C810712D5400703D5206840F4A7
:1006F000E05020602878000703D5206840F460406F
:1007000020602068A96820F0F00008432060287865
:10071000C0072DD0304968680839012812D0022856
:1007200013D0032811D00968890700292DDA216820
:1007300021F0030101432160FFF7C8FE814641F229
:10074000883A0EE009688903EFE709688901ECE758
:10075000FFF7BCFEA0EB0901514502D90320BDE81B
:10076000F0872068696800F00C00B0EB810FEFD1D2
:10077000D8F80010404601F00F01B14207D90770C8
:10078000006800F00F00B04201D00120E7E72878B0
:10079000400705D52068E96820F4E0500843206050
:1007A0002878000706D52068296920F4604040EACF
:1007B000C100206000F01CF82168084AC1F3031151
:1007C000515CC840064908600020FFF7A7FE0020E2
:1007D000C5E70000003C024008380240221800082B
:1007E0002400002001480068704700002400002019
:1007F000224810B5006810F00C02214815D021499C
:10080000042A11D01D4C241F082A0FD00C2A0CD109
:100810002268236802F03F025B0221D52068C0F302
:100820008810A0FB010120E0084610BD2268236863
:1008300002F03F025B0205D52068C0F38810A0FBE0
:10084000010104E02168C1F38811A1FB000100232C
:10085000FFF7D4FC2168C1F30141491C49000AE0BB
:100860002168C1F38811A1FB00010023FFF7C6FC3A
:100870002168C1F30271B0FBF1F010BD08380240ED
:100880000024F40040787D012DE9F84F0546DFF89B
:1008900028B30078ABF10407C007A7F1040451D0D6
:1008A000DBF800105846C1F3810101290FD001681F
:1008B000C1F38101022902D13968490207D40068D5
:1008C000C0F38100032809D13868400206D52068AA
:1008D000800337D56868002872D033E06868B0F5C7
:1008E000803F10D0B0F5A02F206810D020F48030C9
:1008F0002060206820F4802020606868A8B1FFF79D
:10090000E5FD06460DE0206840F48030F4E740F451
:1009100080202060F7E700BFFFF7D8FD801B642828
:1009200078D820688003F7D50CE0FFF7CFFD0646A6
:1009300005E000BFFFF7CAFD801B6428F0D82068DF
:100940008003F7D42878DFF8749280074FF0000A0C
:1009500046D5DBF80010584611F00C0F0FD0016897
:10096000C1F38101022902D13968490207D5006823
:10097000C0F38100032809D13868400206D42068FA
:10098000800715D5E86801281AD111E0E868C0B1E0
:100990000120C9F80000FFF799FD064605E000BFF9
:1009A000FFF794FD801B0228BAD820688007F7D58E
:1009B0002068296920F0F80040EAC10020600FE0BB
:1009C000F7E0C9F800A0FFF781FD064605E000BF8B
:1009D000FFF77CFD801B02281CD820688007F7D415
:1009E0002878000727D5DFF8D0817548696908F1B4
:1009F0006C0881B101210160FFF768FD064604E043
:100A0000FFF764FD801B022804D8D8F80000800797
:100A1000F6D510E089E0C0F800A0FFF757FD0646C4
:100A200005E000BFFFF752FD801B02287DD8D8F8F3
:100A300000008007F6D42878400769D55E484FF05B
:100A4000000838300068C0000BD45B4838300168BB
:100A500041F08051016000684FF0010800F08050C3
:100A60000090584E3068C00511D4306840F4807052
:100A70003060FFF72BFD009006E000BFFFF726FD7A
:100A80000099401A022850D83068C005F6D54A4E61
:100A9000A868683601280FD00528306810D020F0EB
:100AA00001003060306820F004003060A868B8B100
:100AB000FFF70CFD00900FE0306840F00100F4E714
:100AC00040F004003060F7E7FFF700FD0099411A9D
:100AD00041F28830814264D830688007F4D50EE056
:100AE000FFF7F4FC009007E0FFF7F0FC0099411AD3
:100AF00041F28830814254D830688007F4D4B8F18C
:100B0000000F05D02C483830016821F08051016079
:100B1000A869A8B3DBF80010C1F38101022948D00D
:100B20000228C9F860A005D000E03AE0FFF7CEFC4B
:100B3000054639E0FFF7CAFC064604E0FFF7C6FCAD
:100B4000801B02282DD820688001F7D4F5E9070121
:100B50000843E9681C4A490802EB0141AA6841EAD6
:100B600082110843297C40EA0160297D40EA017036
:100B700038600120C9F86000FFF7A8FC054606E0D0
:100B800015E000BFFFF7A2FC401B022809D820682F
:100B90008001F7D50BE000BFFFF798FC401B02284F
:100BA00002D90320BDE8F88F20688001F4D400202A
:100BB000F8E70120F6E7000008380240000047424D
:100BC000800E4742007000400000FFFF70B5040037
:100BD00005D00025A56294F8510010B106E001206F
:100BE00070BD84F85050204600F030F8022084F8A0
:100BF00051002068016821F040010160D4E9010141
:100C00000843D4E903121143084361690843218B67
:100C100001F400710843E1690843216A0843A16AAD
:100C2000084321680860A069042101EA1040616A54
:100C30000843216848602068C16921F40061C161EE
:100C40006565012084F85100002070BD00B5006882
:100C50000E4987B0884216D10D480021026842F43F
:100C600080520260006800F480500590A02000903F
:100C70000220CDE90101032003900520049069467C
:100C80000448FFF747FB07B000BD000000300140FB
:100C900044380240000002402DE9F84F044690F825
:100CA00050000026994617460D4601280DD04FF0FA
:100CB000010B84F850B0FFF709FC804694F851000E
:100CC000B246012804D0022694E00220BDE8F88F45
:100CD000002D7BD0002F79D0032084F85100C4F878
:100CE00054A02563A786E786C4F838A0A4F83CA0E2
:100CF000A4F83EA0C4F844A0C4F840A0A068B0F591
:100D0000004F04D12068016841F4804101602068EF
:100D10000168490603D4016841F040010160E068C0
:100D2000B0F5006F606804D030B3E08E012823D0A6
:100D30003EE010B1E08E01281AD135F8021B206880
:100D400005E020688168890706D535F8021BC16077
:100D5000E08E401EE0860BE0B9F1000F34D0B9F10F
:100D6000FF3F05D0FFF7B2FBA0EB080149452BD2AE
:100D7000E08E0028E5D11EE0216815F8010B08730C
:100D800006E020688168890706D515F8011B017304
:100D9000E08E401EE0860BE0B9F1000F14D0B9F1EF
:100DA000FF3F05D0FFF792FBA0EB080149450BD2AE
:100DB000E08E0028E5D14B46012202212046CDF8E5
:100DC000008000F008F910B1032613E011E042465C
:100DD0004946204600F0EFF818B101262020606552
:100DE00008E0A06818B92068C16880680090606D4C
:100DF00000B1012684F851B084F850A0304665E770
:100E00004FF0E0210428086903D020F004000861B5
:100E1000704740F00400FAE7704710B5401EB0F18B
:100E2000807F01D3012010BD4FF0E02460610F21CD
:100E3000601700F0AFF80020A061072020610020BB
:100E400010BD10B5FFF7E8FF10BDFEE72DE9F0413A
:100E5000344886B00024016841F0800101600168D7
:100E600001F080010591016841F001010160016814
:100E700001F001010591016841F004010160016880
:100E800001F004010591016841F002010160006870
:100E9000254E00F002000590002240F2413130461C
:100EA000FFF70FFB214F002280213846FFF709FB97
:100EB000DFF87C80002240214046FFF702FB40F231
:100EC000411000900125CDE9015469463046039454
:100ED000FFF720FA80200090CDE90154694638469A
:100EE0000394FFF717FA6802CDE900050220CDE967
:100EF000024069463046FFF70DFA2020CDE9000494
:100F0000694640460294FFF705FA40200090CDE97B
:100F10000154694640460394FFF7FCF906B0BDE86A
:100F2000F08100003038024000000240000802401A
:100F300000040240114810B50F4901604FF482715E
:100F4000416000218160C1604FF400720161C0E91D
:100F500005122022C0E90721416281620A21C16293
:100F6000FFF734FE002805D0BDE81040452104A05D
:100F700000F003B910BD000000300140280000203F
:100F80002E2E2F5372632F7370692E6300000000A2
:100F9000FEE770470907090E002806DA00F00F0087
:100FA00000F1E02080F8141D704700F1E02080F887
:100FB00000147047704738B50B4600920446002273
:100FC000802100F008F8002804D0606D40F0200077
:100FD0006065032038BD2DE9F0411D4617460E46D9
:100FE0000446DDF8188035E0681C33D02DB1FFF7DA
:100FF0006DFAA0EB0800A8422CD32068416821F0CC
:10100000E00141606068B0F5827F0BD1A068B0F567
:10101000004F02D0B0F5806F04D12068016821F044
:1010200040010160A06AB0F5005F0AD12068016844
:101030004DF6FF72114001602068016841F40051D3
:101040000160012084F85100002084F85000032042
:10105000BDE8F0812068806836EA000004D00020F6
:10106000B842C1D10020F3E70120F9E7704710B57D
:10107000FFF732FABDE81040FFF7E3BE30B527486E
:1010800093B00025016841F080510160006800F0D4
:10109000805012902248016841F44041016000688C
:1010A000022400F44040129001200390102004908C
:1010B000009406940820CDE90750B420CDE9090436
:1010C0000B9468460C94FFF7DFFB00B1FEE7FFF7D7
:1010D000B9FA00B1FEE70DA90F2081E831004FF405
:1010E000A05010904FF48050119005210DA8FFF7EB
:1010F000E1FA00B1FEE7FFF775FB4FF47A71B0FB40
:10110000F1F0FFF78AFE0420FFF77AFE0022114675
:10111000501EFFF765FA13B030BD000040380240A2
:10112000007000401048016841F4700101600F48F0
:10113000016841F0010101600C4A00210832116090
:1011400002680B4B1A400260031D0A4A1A600268CB
:1011500022F48022026005480C30016002495806E2
:10116000803908607047000088ED00E000380240D8
:10117000FFFFF6FE10300024FEE7FEE70FB4084B39
:1011800010B504A902AA039800F01CF8044602A9AD
:10119000002000F0C1F8204610BC5DF814FB0000F0
:1011A0001913000802E008C8121F08C1002AFAD16A
:1011B00070477047002001E001C1121F002AFBD1D7
:1011C000704700002DE9FF4F89B09B46044600257B
:1011D00006E025280BD05A460B999047641C6D1CDD
:1011E00020780028F5D10DB02846BDE8F08F002703
:1011F000B8460122474900E0074314F8013F203B6D
:1012000002FA03F00842F7D120782E2819D114F8F9
:10121000010F47F004072A280ED06FF02F02207824
:10122000A0F1300109290CD808EB880102EB41013B
:1012300000EB0108641CF2E70A98641C50F8048B68
:101240000A9020780028CED0642808D0692806D0DB
:1012500075281ED05A460B9990476D1C58E00A9984
:101260004FF00A0901C90A91002802DA40422D21F3
:1012700002E0390504D52B218DF82010012103E06F
:10128000F90704D02021F7E78A4608AE0DE00021D7
:10129000FAE70A994FF00A0901C90A91F7E74946A6
:1012A000FEF7DDFF303106F8011D0028F7D1ADEB68
:1012B000060000F12009780701D44FF00108C84565
:1012C00002DDA8EB090000E000208046002706E0D0
:1012D00008A85A46C05D0B9990476D1C7F1C574566
:1012E000F6DB04E030205A460B9990476D1CB8F1AC
:1012F0000001A8F10108F5DC05E016F8010B5A46DB
:101300000B9990476D1CB9F10001A9F10109F4DCBA
:10131000641C65E7092801000A68531C0B60107003
:101320007047000080F0010240210148FFF7C9B872
:101330000004024000200549024600BF41F8202079
:10134000401CC0B28028F9D3704700008000002004
:1013500010B5FFF7EFFF0020FFF7E4FF154C002268
:1013600040212046FFF7ADF80120FEF7C1FF012222
:1013700040212046FFF7A5F80120FFF7D3FFA0206A
:1013800000F036FAAE2000F033FAC82000F030FA50
:10139000A22000F02DFA2F2000F02AFA212000F0E0
:1013A00027FA282000F048F8BDE81040AF2000F0F0
:1013B0001FBA0000000002402DE9F04F8346203A9A
:1013C0001C481E468A4602F0FF09002580462AE096
:1013D000002408EB460720E018F8161011FB09F06E
:1013E000144914312944405C0121A140084209D02C
:1013F000099880F001020AEB0500C1B20BEB040072
:10140000C0B206E00AEB0500C1B20BEB0400C0B2AB
:10141000099A00F0C5F8641CE4B279784046A1420C
:10142000DAD86D1CEDB210F81610A942D0D8BDE87C
:10143000F08F00003218000810B504463F2807D886
:10144000812000F0D5F92046BDE8104000F0D0B969
:1014500010BD2DE9F04300EE100A00EE901A0026B0
:10146000B8EEC00AF8EEE00ADDF81C9066F31F44FF
:1014700066F31F45121A01D4104600E0504207B22D
:1014800067F30F04581A01D4014600E041420EB23E
:1014900066F30F051FB192FBF7F161F31F441EB114
:1014A00090FBF6F060F31F45B7424FF0000037DACB
:1014B00072E0B5EEC00AF1EE10FA16DBF5EEC00AE6
:1014C000F1EE10FA11DBB9F1000F01D0012200E0BA
:1014D0000022BCEEE01A11EE100ABCEEC01AC1B236
:1014E00011EE100AC0B200F05BF8201401EE100AF1
:1014F0002814B8EEC11A31EE000A01EE106AB8EEF7
:10150000C12A01EE107AB8EEC11AC2EE011A01EE3C
:10151000100A08F1010000B2B8EEC11A41EE810ACA
:1015200080464745C5DCBDE8F083B5EEC00AF1EE64
:1015300010FA16DBF5EEC00AF1EE10FA11DBB9F184
:10154000000F01D0012200E00022BCEEE01A11EEF3
:10155000100ABCEEC01AC1B211EE100AC0B200F0FF
:101560001FF801EE107A2014B8EEC12A01EE106ABD
:10157000B8EEC11AC2EE011A01EE100A2814B8EE34
:10158000C11A01EE810A01EE100A08F1010000B251
:10159000B8EEC11A71EE200A80464645C5DCC2E7A6
:1015A00010B580280CD220290AD2064C01238B408A
:1015B00054F820100AB1194300E0994344F8201070
:1015C00010BD0000800000202DE9F8431D00DDF86B
:1015D000208014468946064611D10A4800EB45078B
:1015E0000AE02B4649463046CDF80080FFF7E4FE7E
:1015F0007878641C3044C6B22278002AF1D1BDE864
:10160000F88300003218000870B50E4E002400BFA9
:1016100004F1B000C0B200F0EBF8102000F0E8F8E0
:10162000002000F0E5F8002506EB8500005D00F0E5
:10163000CBF86D1CEDB2802DF6D3641CE4B2042C03
:10164000E6D370BD800000201FB54A4801AB07C833
:1016500083E80700FEF748FFFFF710FDFFF7F6FBF2
:10166000FFF768FC444F002280213846FEF729FF2F
:10167000DFF808914FF40078012241464846FEF712
:1016800020FFFFF765FEFFF755FE01267F221F238F
:10169000002110460096FFF7DCFE00221F231146B2
:1016A00010460096FFF7D5FE00252B4634A20621F2
:1016B00002200095FFF788FFFFF7A6FFDFF8D0A014
:1016C000344C20215046FEF7F7FE012807D0656014
:1016D000D4E90001884220D0012802D01DE06660D4
:1016E000F6E7A06801281BD0A660FFF723FE0023C1
:1016F00029A2062102200095FFF766FFFFF784FF6D
:10170000012280213846FEF7DCFE00224146484691
:10171000FEF7D7FEFEF7DAFEE06060682060D0E7F3
:10172000FEF7D4FE2061E168401A6061FFF702FE17
:101730001EA101A86269FFF721FD00231CA206215A
:1017400002200095FFF740FF002301AA0621022096
:101750000095FFF739FFFFF757FF01224146484642
:10176000FEF7AFFE002280213846FEF7AAFEA560F4
:10177000D3E70000181800080008024000000240EB
:1017800050524F4752414D2053544152544544000A
:1017900000040240000000205374617274206D65E3
:1017A00061737572656D656E74200A0025640000B2
:1017B00020202020206D730002464FF480710148E4
:1017C000FEF77FBE0000024001B50120FFF7F4FFE5
:1017D0000120FFF7A7FD01231A4669460348FFF7DA
:1017E0005BFA0020FFF79EFD08BD000028000020E6
:1017F00001B50020FFF7E0FF0120FFF793FD012373
:101800001A4669460348FFF747FA0020FFF78AFDAA
:1018100008BD00002800002020000000000000009B
:1018200000000000000000000000010203040607A1
:101830000809080618101D001D001D001D000206E5
:101840000E1E0E060200000000000000000004044E
:101850000404040004000A0A0A00000000000A0A46
:101860001F0A1F0A0A00041E050E140F04000313AA
:1018700008040219180002050502150916000C0CCF
:10188000040200000000080402020204080002042E
:101890000808080402000004150E0E1504000004D8
:1018A000041F04040000000000000C0C04020000EF
:1018B000001F0000000000000000000C0C000010E1
:1018C0000804020100000E11131519110E00040680
:1018D000040404040E000E11100E01011F001F105D
:1018E000080C10110E00080C0A091F0808001F013F
:1018F0000F1010110E001C02010F11110E001F100D
:101900001008040201000E11110E11110E000E112B
:10191000111E100807000000040004000000000071
:10192000040004040200100804020408100000006F
:101930001F001F00000002040810080402000E111E
:10194000100C040004000E11151D0D011E00040AE8
:1019500011111F1111000F11110F11110F000E1194
:10196000010101110E000F11111111110F001F01C2
:10197000010F01011F001F01010F010101001E11D4
:10198000010119111E001111111F111111000E0476
:10199000040404040E001C080808080906001109C4
:1019A0000503050911000101010101011F00111BBF
:1019B00015151511110011111315191111000E1122
:1019C000111111110E000F11110F010101000E1163
:1019D0001111150916000F11110F050911000E1133
:1019E000010E10110E001F1504040404040011114F
:1019F000111111110E0011111111110A0400111110
:101A0000111515150A0011110A040A1111001111FE
:101A10000A04040404001F10080E02011F001E0225
:101A2000020202021E0000010204081000001E1043
:101A3000101010101E00040A110000000000000029
:101A4000000000001F00060604080000000000005F
:101A500006080E091E0001010D1311130D000000F0
:101A60000E1101110E0010101619111916000000A8
:101A70000E111F010E000814040E040404000000DF
:101A80000E191916100E01010D1311111100040089
:101A9000060404040E0008000808080906000101F5
:101AA0000905030509000604040404040E000000EF
:101AB0000B151515150000000D1311111100000074
:101AC0000E1111110E0000000D13130D0101000085
:101AD00016191916101000000D1301010100000065
:101AE0001E010E100F0004041F040414080000005F
:101AF00011111119160000001111110A0400000043
:101B0000111115150A000000110A040A1100000045
:101B100011111E10110E00001F0804021F000804FE
:101B20000402040408000404040004040400020481
:101B30000408040402000215080000000000000070
:101B400000000000000000000C12120C0000000059
:101B50000C1E1E0C000000001E12121E00000000D1
:101B60001E1E1E1E000000000C0C121E00000000B5
:101B70000C0C1E1E000000001E120C0C00000000C9
:101B80001E1E0C0C000000001816161800000000A5
:101B9000181E1E1800000000061A1A060000000099
:101BA000061E1E06000000000C12120C00000000B1
:101BB0000C1E1E0C000000001E12121E0000000071
:101BC0001E1E1E1E00000000E81B00080000002072
:101BD00028000000A4110008101C000828000020A4
:101BE00058060000B41100080000000000000000CA
:101BF00000000000000000000000000000000000E5
:101C00000100000010000000000000000024F400AB
:04000005080001C529
:00000001FF
