:020000040800F2
:1000000068040020D90100088B0E00081F0D0008AD
:10001000890E0008C1020008BD0F000800000000A2
:10002000000000000000000000000000AF0E00080B
:10003000C302000800000000AD0E0008B10E000869
:10004000F3010008F3010008F3010008F3010008C0
:10005000F3010008F3010008C5020008F3010008DD
:10006000F3010008F3010008F3010008F3010008A0
:10007000F3010008F3010008F3010008F301000890
:10008000F3010008F3010008F3010008F301000880
:10009000F3010008F3010008F3010008CD02000895
:1000A000F3010008F3010008F3010008F301000860
:1000B000F3010008F3010008F3010008F301000850
:1000C000F3010008F3010008F3010008F301000840
:1000D000F3010008F3010008F3010008F301000830
:1000E000F3010008F3010008F3010008F301000820
:1000F000F3010008F3010008F3010008F301000810
:10010000F3010008F3010008F3010008F3010008FF
:10011000F3010008F3010008F3010008F3010008EF
:10012000F3010008F3010008F3010008F3010008DF
:10013000F30100080000000000000000F3010008C7
:10014000F3010008F3010008F3010008F3010008BF
:10015000F3010008F3010008F3010008F3010008AF
:10016000F3010008F3010008F3010008F30100089F
:10017000F3010008F3010008F3010008000000008B
:1001800000000000F3010008000000000000000073
:10019000F30100080000000000000000F301000867
:1001A000000000000000000000000000F301000853
:1001B000F3010008F3010008F3010008F30100084F
:1001C000F3010008DFF80CD000F068F800480047A1
:1001D000E10F0008680400200648804706480047F1
:1001E000FEE7FEE7FEE7FEE7FEE7FEE7FEE7FEE7E7
:1001F000FEE7FEE7690F0008C50100082DE9F05F82
:100200000546002092469B46884606468146402485
:100210001BE0284641464746224600F02FF8534649
:100220005A46C01A914110D311461846224600F092
:1002300016F82D1A67EB01084F46224601200021CF
:1002400000F00DF817EB00094E41201EA4F1010447
:10025000DFDC484631462A464346BDE8F09F202A67
:1002600004DB203A00FA02F1002070479140C2F10D
:10027000200320FA03F3194390407047202A04DB3F
:10028000203A21FA02F00021704721FA02F3D0400F
:10029000C2F120029140084319467047064C074DB1
:1002A00006E0E06840F0010394E807009847103446
:1002B000AC42F6D3FFF78AFF1C1000083C10000880
:1002C000FEE77047012000F02BB8000010B5202099
:1002D00000F026F8BDE810404FF40071014800F02E
:1002E000FDB800000000024070B5044600F000F9BF
:1002F0000546601C02D004480078044400F0F8F879
:10030000401BA042FAD370BD00000020012803D199
:100310008021024800F0E2B8704700000008024067
:10032000044910B50A68024202D00860FFF7EEFFE8
:1003300010BD0000143C01402DE9F84FDFF874B106
:1003400000224FF001084FF0030A4FF00F090BF1A4
:10035000040E00BF0B6808FA02F42340A3426ED1DA
:100360004D68022D01D0122D0ED1D50800EB850C61
:10037000DCF820505607F70E09FA07F6B5430E6968
:10038000BE402E43CCF82060066855000F790AFA6B
:1003900005FC07F0030726EA0C06AF403743076069
:1003A0004E68012E05D0022E03D0112E01D0122E40
:1003B0000ED18668CF6826EA0C06AF4037438760C7
:1003C0004668A6430C79C4F3001494403443446057
:1003D000C4688E6824EA0C04AE402643C6604C68AC
:1003E000E40060D5344C256845F4804525602468D8
:1003F00022F0030504F480440094304C2E19D6F802
:10040000084895072F0F09FA07F5AC432C4DA84271
:1004100001D100251FE02B4DA84201D101251AE092
:10042000294DA84201D1022515E0284DA84201D14D
:10043000032510E0264DA84202D104250BE032E04E
:10044000244DA84201D1052505E0234DA84201D144
:10045000062500E00725BD402543C6F80858DBF80F
:1004600000405D464E689C43F60300D51C432C605B
:10047000DEF8004075464E689C43B60300D51C4329
:100480002C600C4D08352C684E689C43F60200D554
:100490001C432C60074D0C352C684E689C43B602FB
:1004A00000D51C432C60521C102AFFF453AFBDE84A
:1004B000F88F0000003C0140443802400030014009
:1004C000000002400004024000080240000C02400C
:1004D00000100240001402400018024042694A40E5
:1004E000426170470AB1816170470904FBE700006F
:1004F00001488068704700000000002002488168C1
:100500000278114481607047000000200B4810B54C
:10051000016841F400710160016841F4806101608B
:10052000016841F480710160032000F097F8002019
:1005300000F006F800F024F8002010BD003C024056
:1005400070B50D4D04464FF47A712878B1FBF0F088
:100550000A490968B1FBF0F000F0C9FB48B9102C5A
:1005600007D200222146501E00F058F800206C608F
:1005700070BD012070BD0000000000200C000020B4
:100580001F4808B5016841F480410160006800F42B
:10059000804000901A48001F016841F080510160BE
:1005A000006800F080500090032000F057F800220F
:1005B00011466FF00B0000F031F8002211466FF089
:1005C0000A0000F02BF8002211466FF0090000F03D
:1005D00025F800221146501F00F020F80022114695
:1005E000101F00F01BF800221146901E00F016F8B4
:1005F0000022BDE808401146501E00F00FB8000070
:100600004438024000F01F0201219140400980005F
:1006100000F1E020C0F8001170470000F0B40E4B6C
:100620001B680C46C3F30223C3F10705042D00D950
:100630000425191D072901D2002300E0DB1E012635
:1006400006FA05F1491E214099409E40761E16404B
:100650003143F0BC00F01ABC0CED00E0064900F09C
:10066000070208684FF6FF03184040EA0220034AD9
:1006700010430860704700000CED00E00000FA0530
:100680002DE9F8431748016841F080510160006886
:10069000154F00F08050012600903E64FFF728FFC0
:1006A00005464FF47A78114C05E000BFFFF720FFB4
:1006B000401B40450DD86068C003F7D57E64FFF746
:1006C00017FF0546464607E0FFF712FF401BB04202
:1006D00002D90320BDE8F88360688003F4D50020C8
:1006E000F8E700004038024000000E420070004071
:1006F0002DE9F0470E46050065D0DFF81481D8F8E3
:100700000000F7B200F00F00B04207D288F8007086
:10071000D8F8000000F00F00B04254D128683D4CDA
:10072000810712D5400703D5206840F4E0502060CF
:100730002878000703D5206840F4604020602068D6
:10074000A96820F0F000084320602878C0072DD069
:10075000304968680839012812D0022813D00328CC
:1007600011D00968890700292DDA216821F00301D9
:1007700001432160FFF7BCFE814641F2883A0EE05A
:1007800009688903EFE709688901ECE7FFF7B0FE24
:10079000A0EB0901514502D90320BDE8F08720688C
:1007A000696800F00C00B0EB810FEFD1D8F80010B1
:1007B000404601F00F01B14207D90770006800F010
:1007C0000F00B04201D00120E7E72878400705D5A7
:1007D0002068E96820F4E05008432060287800078A
:1007E00006D52068296920F4604040EAC1002060F5
:1007F00000F01CF82168084AC1F30311515CC8409D
:10080000064908600020FFF79BFE0020C5E70000B6
:10081000003C0240083802400C1000080C00002088
:1008200001480068704700000C000020224810B505
:10083000006810F00C02214815D02149042A11D07B
:100840001D4C241F082A0FD00C2A0CD122682368C3
:1008500002F03F025B0221D52068C0F38810A0FBA4
:10086000010120E0084610BD2268236802F03F0223
:100870005B0205D52068C0F38810A0FB010104E0ED
:100880002168C1F38811A1FB00010023FFF7B6FC2A
:100890002168C1F30141491C49000AE02168C1F304
:1008A0008811A1FB00010023FFF7A8FC2168C1F318
:1008B0000271B0FBF1F010BD083802400024F400D2
:1008C00040787D012DE9F84F0546DFF828B3007820
:1008D000ABF10407C007A7F1040451D0DBF8001006
:1008E0005846C1F3810101290FD00168C1F381018C
:1008F000022902D13968490207D40068C0F3810097
:10090000032809D13868400206D52068800337D50E
:100910006868002872D033E06868B0F5803F10D076
:10092000B0F5A02F206810D020F48030206020681F
:1009300020F4802020606868A8B1FFF7D9FD064642
:100940000DE0206840F48030F4E740F4802020601F
:10095000F7E700BFFFF7CCFD801B642878D820683C
:100960008003F7D50CE0FFF7C3FD064605E000BFA6
:10097000FFF7BEFD801B6428F0D820688003F7D401
:100980002878DFF8749280074FF0000A46D5DBF82C
:100990000010584611F00C0F0FD00168C1F381010F
:1009A000022902D13968490207D50068C0F38100E5
:1009B000032809D13868400206D42068800715D57D
:1009C000E86801281AD111E0E868C0B10120C9F82F
:1009D0000000FFF78DFD064605E000BFFFF788FD2C
:1009E000801B0228BAD820688007F7D520682969BB
:1009F00020F0F80040EAC10020600FE0F7E0C9F8FD
:100A000000A0FFF775FD064605E000BFFFF770FD8B
:100A1000801B02281CD820688007F7D4287800079C
:100A200027D5DFF8D0817548696908F16C0881B174
:100A300001210160FFF75CFD064604E0FFF758FD69
:100A4000801B022804D8D8F800008007F6D510E0F3
:100A500089E0C0F800A0FFF74BFD064605E000BFA7
:100A6000FFF746FD801B02287DD8D8F800008007DC
:100A7000F6D42878400769D55E484FF00008383032
:100A80000068C0000BD45B483830016841F08051E9
:100A9000016000684FF0010800F080500090584E4F
:100AA0003068C00511D4306840F480703060FFF7C2
:100AB0001FFD009006E000BFFFF71AFD0099401AE5
:100AC000022850D83068C005F6D54A4EA868683666
:100AD00001280FD00528306810D020F001003060C8
:100AE000306820F004003060A868B8B1FFF700FD5E
:100AF00000900FE0306840F00100F4E740F004009F
:100B00003060F7E7FFF7F4FC0099411A41F28830B2
:100B1000814264D830688007F4D50EE0FFF7E8FC26
:100B2000009007E0FFF7E4FC0099411A41F2883099
:100B3000814254D830688007F4D4B8F1000F05D052
:100B40002C483830016821F080510160A869A8B3B1
:100B5000DBF80010C1F38101022948D00228C9F84E
:100B600060A005D000E03AE0FFF7C2FC054639E09E
:100B7000FFF7BEFC064604E0FFF7BAFC801B022824
:100B80002DD820688001F7D4F5E907010843E9680A
:100B90001C4A490802EB0141AA6841EA8211084354
:100BA000297C40EA0160297D40EA0170386001201B
:100BB000C9F86000FFF79CFC054606E015E000BFA1
:100BC000FFF796FC401B022809D820688001F7D562
:100BD0000BE000BFFFF78CFC401B022802D903206A
:100BE000BDE8F88F20688001F4D40020F8E70120E8
:100BF000F6E700000838024000004742800E4742F6
:100C0000007000400000FFFF70B5040005D0002513
:100C1000A56294F8510010B106E0012070BD84F87F
:100C20005050204600F030F8022084F8510020682F
:100C3000016821F040010160D4E901010843D4E9D1
:100C400003121143084361690843218B01F40071C9
:100C50000843E1690843216A0843A16A08432168FF
:100C60000860A069042101EA1040616A0843216814
:100C700048602068C16921F40061C1616565012097
:100C800084F85100002070BD00B500680E4987B09F
:100C9000884216D10D480021026842F48052026059
:100CA000006800F480500590A02000900220CDE95B
:100CB0000101032003900520049069460448FFF7D2
:100CC0003BFB07B000BD000000300140443802404B
:100CD000000002404FF0E0210428086903D020F012
:100CE00004000861704740F00400FAE7704710B54F
:100CF000401EB0F1807F01D3012010BD4FF0E024F1
:100D000060610F21601700F0C1F80020A06107208A
:100D10002061002010BD10B5FFF7E8FF10BDFEE711
:100D20002DE9F0413C4886B00024016841F0800183
:100D30000160016801F080010591016841F0010145
:100D40000160016801F001010591016841F00201B3
:100D50000160016801F002010591016841F00401A0
:100D6000016000682D4E00F004000590002240F262
:100D700041313046FFF7B6FB294F0022802138462B
:100D8000FFF7B0FBDFF89C80002240214046FFF7D0
:100D9000A9FB40F2411000900125CDE901546946BC
:100DA00030460394FFF7C8FA212000901E48CDE991
:100DB000010469464046FFF7BFFA80200090CDE964
:100DC0000154694638460394FFF7B6FA6802CDE944
:100DD00000050220CDE9024069463046FFF7ACFA33
:100DE00040200090CDE90154694640460394FFF746
:100DF000A3FA002202210620FFF710FC0620FFF7CD
:100E000001FC002201211720FFF708FC1720FFF743
:100E1000F9FB06B0BDE8F081303802400000024026
:100E2000000802400004024000001110114810B5F3
:100E30000F4901604FF48271416000218160C160FF
:100E40004FF400720161C0E905122022C0E90721B8
:100E5000416281620A21C162FFF7D6FE002805D0F7
:100E6000BDE81040452104A000F0A9B810BD000065
:100E700000300140100000202E2E2F5372632F737C
:100E800070692E6300000000FEE770470907090E35
:100E9000002806DA00F00F0000F1E02080F8141DB1
:100EA000704700F1E02080F80014704770477047E9
:100EB00010B5FFF723FBBDE81040FFF72CBF000083
:100EC00030B5274893B00025016841F0805101609A
:100ED000006800F0805012902248016841F44041BF
:100EE00001600068022400F4404012900120039049
:100EF00010200490009406940820CDE90750B420F7
:100F0000CDE909040B9468460C94FFF7DBFC00B1B3
:100F1000FEE7FFF7B5FB00B1FEE70DA90F2081E862
:100F200031004FF4A05010904FF4805011900521E3
:100F30000DA8FFF7DDFB00B1FEE7FFF771FC4FF4F2
:100F40007A71B0FBF1F0FFF7D2FE0420FFF7C2FE8A
:100F500000221146501EFFF761FB13B030BD0000A8
:100F600040380240007000401048016841F47001B0
:100F700001600F48016841F0010101600C4A002145
:100F80000832116002680B4B1A400260031D0A4AC6
:100F90001A60026822F48022026005480C30016069
:100FA00002495806803908607047000088ED00E06B
:100FB00000380240FFFFF6FE10300024FEE7FEE797
:100FC00002E008C8121F08C1002AFAD17047704712
:100FD000002001E001C1121F002AFBD17047000070
:100FE000FFF794FAFFF76CFFFFF79AFEFFF71EFF7B
:100FF000054C4FF4FA75206840F020002060284628
:10100000FFF772F9F7E70000103C01400000000014
:101010000000000001020304060708093C10000854
:101020000000002010000000C00F00084C10000855
:101030001000002058040000D00F0008010000003C
:0C10400010000000000000000024F4007C
:04000005080001C529
:00000001FF
